{
  "contractName": "ArtistERC1155Token",
  "abi": [
    {
      "inputs": [
        {
          "internalType": "string",
          "name": "_uri",
          "type": "string"
        },
        {
          "internalType": "string",
          "name": "_collectionName",
          "type": "string"
        },
        {
          "internalType": "string[]",
          "name": "tokenNames_",
          "type": "string[]"
        },
        {
          "internalType": "uint256[]",
          "name": "maxSupply_",
          "type": "uint256[]"
        },
        {
          "components": [
            {
              "internalType": "enum ArtistERC1155Token.DistributionType",
              "name": "distributionType",
              "type": "uint8"
            },
            {
              "internalType": "uint256",
              "name": "minimumFanTokenRequiredToMint",
              "type": "uint256"
            },
            {
              "internalType": "uint256",
              "name": "maxTotalMintPerWallet",
              "type": "uint256"
            },
            {
              "internalType": "uint256",
              "name": "maxMintPerWallerPerToken",
              "type": "uint256"
            }
          ],
          "internalType": "struct ArtistERC1155Token.Options",
          "name": "options_",
          "type": "tuple"
        }
      ],
      "stateMutability": "nonpayable",
      "type": "constructor"
    },
    {
      "anonymous": false,
      "inputs": [
        {
          "indexed": true,
          "internalType": "address",
          "name": "account",
          "type": "address"
        },
        {
          "indexed": true,
          "internalType": "address",
          "name": "operator",
          "type": "address"
        },
        {
          "indexed": false,
          "internalType": "bool",
          "name": "approved",
          "type": "bool"
        }
      ],
      "name": "ApprovalForAll",
      "type": "event"
    },
    {
      "anonymous": false,
      "inputs": [
        {
          "indexed": true,
          "internalType": "address",
          "name": "previousOwner",
          "type": "address"
        },
        {
          "indexed": true,
          "internalType": "address",
          "name": "newOwner",
          "type": "address"
        }
      ],
      "name": "OwnershipTransferred",
      "type": "event"
    },
    {
      "anonymous": false,
      "inputs": [
        {
          "indexed": true,
          "internalType": "address",
          "name": "operator",
          "type": "address"
        },
        {
          "indexed": true,
          "internalType": "address",
          "name": "from",
          "type": "address"
        },
        {
          "indexed": true,
          "internalType": "address",
          "name": "to",
          "type": "address"
        },
        {
          "indexed": false,
          "internalType": "uint256[]",
          "name": "ids",
          "type": "uint256[]"
        },
        {
          "indexed": false,
          "internalType": "uint256[]",
          "name": "values",
          "type": "uint256[]"
        }
      ],
      "name": "TransferBatch",
      "type": "event"
    },
    {
      "anonymous": false,
      "inputs": [
        {
          "indexed": true,
          "internalType": "address",
          "name": "operator",
          "type": "address"
        },
        {
          "indexed": true,
          "internalType": "address",
          "name": "from",
          "type": "address"
        },
        {
          "indexed": true,
          "internalType": "address",
          "name": "to",
          "type": "address"
        },
        {
          "indexed": false,
          "internalType": "uint256",
          "name": "id",
          "type": "uint256"
        },
        {
          "indexed": false,
          "internalType": "uint256",
          "name": "value",
          "type": "uint256"
        }
      ],
      "name": "TransferSingle",
      "type": "event"
    },
    {
      "anonymous": false,
      "inputs": [
        {
          "indexed": false,
          "internalType": "string",
          "name": "value",
          "type": "string"
        },
        {
          "indexed": true,
          "internalType": "uint256",
          "name": "id",
          "type": "uint256"
        }
      ],
      "name": "URI",
      "type": "event"
    },
    {
      "inputs": [
        {
          "internalType": "uint256",
          "name": "",
          "type": "uint256"
        }
      ],
      "name": "_maxSupply",
      "outputs": [
        {
          "internalType": "uint256",
          "name": "",
          "type": "uint256"
        }
      ],
      "stateMutability": "view",
      "type": "function"
    },
    {
      "inputs": [],
      "name": "_options",
      "outputs": [
        {
          "internalType": "enum ArtistERC1155Token.DistributionType",
          "name": "distributionType",
          "type": "uint8"
        },
        {
          "internalType": "uint256",
          "name": "minimumFanTokenRequiredToMint",
          "type": "uint256"
        },
        {
          "internalType": "uint256",
          "name": "maxTotalMintPerWallet",
          "type": "uint256"
        },
        {
          "internalType": "uint256",
          "name": "maxMintPerWallerPerToken",
          "type": "uint256"
        }
      ],
      "stateMutability": "view",
      "type": "function"
    },
    {
      "inputs": [
        {
          "internalType": "uint256",
          "name": "",
          "type": "uint256"
        }
      ],
      "name": "_tokenNames",
      "outputs": [
        {
          "internalType": "string",
          "name": "",
          "type": "string"
        }
      ],
      "stateMutability": "view",
      "type": "function"
    },
    {
      "inputs": [
        {
          "internalType": "address",
          "name": "account",
          "type": "address"
        },
        {
          "internalType": "uint256",
          "name": "id",
          "type": "uint256"
        }
      ],
      "name": "balanceOf",
      "outputs": [
        {
          "internalType": "uint256",
          "name": "",
          "type": "uint256"
        }
      ],
      "stateMutability": "view",
      "type": "function"
    },
    {
      "inputs": [
        {
          "internalType": "address[]",
          "name": "accounts",
          "type": "address[]"
        },
        {
          "internalType": "uint256[]",
          "name": "ids",
          "type": "uint256[]"
        }
      ],
      "name": "balanceOfBatch",
      "outputs": [
        {
          "internalType": "uint256[]",
          "name": "",
          "type": "uint256[]"
        }
      ],
      "stateMutability": "view",
      "type": "function"
    },
    {
      "inputs": [],
      "name": "collectionName",
      "outputs": [
        {
          "internalType": "string",
          "name": "",
          "type": "string"
        }
      ],
      "stateMutability": "view",
      "type": "function"
    },
    {
      "inputs": [],
      "name": "fanTokenAddress",
      "outputs": [
        {
          "internalType": "address",
          "name": "",
          "type": "address"
        }
      ],
      "stateMutability": "view",
      "type": "function"
    },
    {
      "inputs": [
        {
          "internalType": "address",
          "name": "account",
          "type": "address"
        },
        {
          "internalType": "address",
          "name": "operator",
          "type": "address"
        }
      ],
      "name": "isApprovedForAll",
      "outputs": [
        {
          "internalType": "bool",
          "name": "",
          "type": "bool"
        }
      ],
      "stateMutability": "view",
      "type": "function"
    },
    {
      "inputs": [],
      "name": "owner",
      "outputs": [
        {
          "internalType": "address",
          "name": "",
          "type": "address"
        }
      ],
      "stateMutability": "view",
      "type": "function"
    },
    {
      "inputs": [],
      "name": "renounceOwnership",
      "outputs": [],
      "stateMutability": "nonpayable",
      "type": "function"
    },
    {
      "inputs": [
        {
          "internalType": "uint256",
          "name": "_tokenId",
          "type": "uint256"
        },
        {
          "internalType": "uint256",
          "name": "_salePrice",
          "type": "uint256"
        }
      ],
      "name": "royaltyInfo",
      "outputs": [
        {
          "internalType": "address",
          "name": "",
          "type": "address"
        },
        {
          "internalType": "uint256",
          "name": "",
          "type": "uint256"
        }
      ],
      "stateMutability": "view",
      "type": "function"
    },
    {
      "inputs": [
        {
          "internalType": "address",
          "name": "from",
          "type": "address"
        },
        {
          "internalType": "address",
          "name": "to",
          "type": "address"
        },
        {
          "internalType": "uint256[]",
          "name": "ids",
          "type": "uint256[]"
        },
        {
          "internalType": "uint256[]",
          "name": "amounts",
          "type": "uint256[]"
        },
        {
          "internalType": "bytes",
          "name": "data",
          "type": "bytes"
        }
      ],
      "name": "safeBatchTransferFrom",
      "outputs": [],
      "stateMutability": "nonpayable",
      "type": "function"
    },
    {
      "inputs": [
        {
          "internalType": "address",
          "name": "from",
          "type": "address"
        },
        {
          "internalType": "address",
          "name": "to",
          "type": "address"
        },
        {
          "internalType": "uint256",
          "name": "id",
          "type": "uint256"
        },
        {
          "internalType": "uint256",
          "name": "amount",
          "type": "uint256"
        },
        {
          "internalType": "bytes",
          "name": "data",
          "type": "bytes"
        }
      ],
      "name": "safeTransferFrom",
      "outputs": [],
      "stateMutability": "nonpayable",
      "type": "function"
    },
    {
      "inputs": [
        {
          "internalType": "address",
          "name": "operator",
          "type": "address"
        },
        {
          "internalType": "bool",
          "name": "approved",
          "type": "bool"
        }
      ],
      "name": "setApprovalForAll",
      "outputs": [],
      "stateMutability": "nonpayable",
      "type": "function"
    },
    {
      "inputs": [
        {
          "internalType": "address",
          "name": "newOwner",
          "type": "address"
        }
      ],
      "name": "transferOwnership",
      "outputs": [],
      "stateMutability": "nonpayable",
      "type": "function"
    },
    {
      "inputs": [
        {
          "internalType": "uint256",
          "name": "",
          "type": "uint256"
        }
      ],
      "name": "uri",
      "outputs": [
        {
          "internalType": "string",
          "name": "",
          "type": "string"
        }
      ],
      "stateMutability": "view",
      "type": "function"
    },
    {
      "inputs": [
        {
          "internalType": "bytes4",
          "name": "interfaceId",
          "type": "bytes4"
        }
      ],
      "name": "supportsInterface",
      "outputs": [
        {
          "internalType": "bool",
          "name": "",
          "type": "bool"
        }
      ],
      "stateMutability": "view",
      "type": "function"
    },
    {
      "inputs": [
        {
          "internalType": "uint256",
          "name": "_id",
          "type": "uint256"
        }
      ],
      "name": "getName",
      "outputs": [
        {
          "internalType": "string",
          "name": "",
          "type": "string"
        }
      ],
      "stateMutability": "view",
      "type": "function"
    },
    {
      "inputs": [],
      "name": "getCountTokens",
      "outputs": [
        {
          "internalType": "uint256",
          "name": "",
          "type": "uint256"
        }
      ],
      "stateMutability": "view",
      "type": "function"
    },
    {
      "inputs": [
        {
          "internalType": "address",
          "name": "_fanTokenAddress",
          "type": "address"
        }
      ],
      "name": "setFanTokenAddress",
      "outputs": [],
      "stateMutability": "nonpayable",
      "type": "function"
    },
    {
      "inputs": [
        {
          "internalType": "uint256",
          "name": "_id",
          "type": "uint256"
        }
      ],
      "name": "canMint",
      "outputs": [
        {
          "internalType": "bool",
          "name": "",
          "type": "bool"
        }
      ],
      "stateMutability": "view",
      "type": "function"
    },
    {
      "inputs": [
        {
          "internalType": "uint256",
          "name": "_id",
          "type": "uint256"
        }
      ],
      "name": "PublicMint",
      "outputs": [
        {
          "internalType": "uint256",
          "name": "",
          "type": "uint256"
        }
      ],
      "stateMutability": "nonpayable",
      "type": "function"
    }
  ],
  "bytecode": "0x60806040523480156200001157600080fd5b506040516200340a3803806200340a833981016040819052620000349162000b9a565b846200004981640100000000620001b9810204565b506200007062000061640100000000620001cb810204565b640100000000620001cf810204565b60068054600160a060020a031916331790558151835114620000f3576040517f08c379a000000000000000000000000000000000000000000000000000000000815260206004820152600a60248201527f73697a65206572726f720000000000000000000000000000000000000000000060448201526064015b60405180910390fd5b805160078054839290829060ff19166001838181111562000118576200011862000ce8565b021790555060208281015160018301556040830151600283015560609092015160039091015583516200015291600d919086019062000866565b5081516200016890600e906020850190620008c3565b50600b62000177858262000dbb565b50600060075460ff16600181111562000194576200019462000ce8565b03620001ae57620001ae3264010000000062000221810204565b50505050506200114d565b6002620001c7828262000dbb565b5050565b3390565b60058054600160a060020a03838116600160a060020a0319831681179093556040519116919082907f8be0079c531659141344cd1fd0a4f28419497f9722a3daafe3b4186f6b6457e090600090a35050565b600e546000906001604060020a0381111562000241576200024162000989565b6040519080825280602002602001820160405280156200026b578160200160208202803683370190505b50905060005b600e54811015620002b2578082828151811062000292576200029262000e8d565b602090810291909101015280620002a98162000eeb565b91505062000271565b50620001c78282600e8054806020026020016040519081016040528092919081815260200182805480156200030757602002820191906000526020600020905b815481526020019060010190808311620002f2575b50505050506040518060200160405280600081525062000331640100000000026401000000009004565b600160a060020a038416620003c9576040517f08c379a000000000000000000000000000000000000000000000000000000000815260206004820152602160248201527f455243313135353a206d696e7420746f20746865207a65726f2061646472657360448201527f73000000000000000000000000000000000000000000000000000000000000006064820152608401620000ea565b81518351146200045c576040517f08c379a000000000000000000000000000000000000000000000000000000000815260206004820152602860248201527f455243313135353a2069647320616e6420616d6f756e7473206c656e6774682060448201527f6d69736d617463680000000000000000000000000000000000000000000000006064820152608401620000ea565b600062000471640100000000620001cb810204565b90506200048d81600087878787640100000000620005ca810204565b60005b84518110156200053457838181518110620004af57620004af62000e8d565b6020026020010151600080878481518110620004cf57620004cf62000e8d565b60200260200101518152602001908152602001600020600088600160a060020a0316600160a060020a03168152602001908152602001600020600082825462000519919062000f07565b909155508190506200052b8162000eeb565b91505062000490565b5084600160a060020a03166000600160a060020a031682600160a060020a03167f4a39dc06d4c0dbc64b70af90fd698a233a518aa5d07e595d983b8c0526c8f7fb87876040516200058792919062000f60565b60405180910390a4620005a981600087878787640100000000620005ca810204565b620005c381600087878787640100000000620005d2810204565b5050505050565b505050505050565b620005f4600160a060020a03851664010000000062000f286200085782021704565b15620005ca576040517fbc197c81000000000000000000000000000000000000000000000000000000008152600160a060020a0385169063bc197c819062000649908990899088908890889060040162000fc0565b6020604051808303816000875af192505050801562000687575060408051601f3d908101601f19168201909252620006849181019062001024565b60015b6200077b57620006966200106f565b806308c379a003620006f05750620006ad620010a9565b80620006ba5750620006f2565b806040517f08c379a0000000000000000000000000000000000000000000000000000000008152600401620000ea919062001138565b505b6040517f08c379a000000000000000000000000000000000000000000000000000000000815260206004820152603460248201527f455243313135353a207472616e7366657220746f206e6f6e2d4552433131353560448201527f526563656976657220696d706c656d656e7465720000000000000000000000006064820152608401620000ea565b7fffffffff0000000000000000000000000000000000000000000000000000000081167fbc197c8100000000000000000000000000000000000000000000000000000000146200084e576040517f08c379a000000000000000000000000000000000000000000000000000000000815260206004820152602860248201527f455243313135353a204552433131353552656365697665722072656a6563746560448201527f6420746f6b656e730000000000000000000000000000000000000000000000006064820152608401620000ea565b50505050505050565b600160a060020a03163b151590565b828054828255906000526020600020908101928215620008b1579160200282015b82811115620008b15782518290620008a0908262000dbb565b509160200191906001019062000887565b50620008bf9291506200090f565b5090565b82805482825590600052602060002090810192821562000901579160200282015b8281111562000901578251825591602001919060010190620008e4565b50620008bf92915062000930565b80821115620008bf57600062000926828262000947565b506001016200090f565b5b80821115620008bf576000815560010162000931565b508054620009559062000d17565b6000825580601f1062000966575050565b601f01602090049060005260206000209081019062000986919062000930565b50565b7f4e487b7100000000000000000000000000000000000000000000000000000000600052604160045260246000fd5b601f8201601f191681016001604060020a0381118282101715620009e057620009e062000989565b6040525050565b60005b8381101562000a04578181015183820152602001620009ea565b50506000910152565b600082601f83011262000a1f57600080fd5b81516001604060020a0381111562000a3b5762000a3b62000989565b60405162000a54601f8301601f191660200182620009b8565b81815284602083860101111562000a6a57600080fd5b62000a7d826020830160208701620009e7565b949350505050565b60006001604060020a0382111562000aa15762000aa162000989565b5060209081020190565b600082601f83011262000abd57600080fd5b8151602062000acc8262000a85565b60405162000adb8282620009b8565b838152928202850182019282810191508684111562000af957600080fd5b8286015b8481101562000b16578051835291830191830162000afd565b509695505050505050565b60006080828403121562000b3457600080fd5b604051608081018181106001604060020a038211171562000b595762000b5962000989565b806040525080915082516002811062000b7157600080fd5b808252506020830151602082015260408301516040820152606083015160608201525092915050565b6000806000806000610100868803121562000bb457600080fd5b85516001604060020a038082111562000bcc57600080fd5b62000bda89838a0162000a0d565b965060209150818801518181111562000bf257600080fd5b62000c008a828b0162000a0d565b96505060408801518181111562000c1657600080fd5b8801601f81018a1362000c2857600080fd5b805162000c358162000a85565b60405162000c448282620009b8565b828152918502830185019185810191508c83111562000c6257600080fd5b8584015b8381101562000c9f5780518681111562000c805760008081fd5b62000c908f898389010162000a0d565b84525091860191860162000c66565b5060608c015190985094505050508082111562000cbb57600080fd5b5062000cca8882890162000aab565b92505062000cdc876080880162000b21565b90509295509295909350565b7f4e487b7100000000000000000000000000000000000000000000000000000000600052602160045260246000fd5b60028104600182168062000d2c57607f821691505b60208210810362000d66577f4e487b7100000000000000000000000000000000000000000000000000000000600052602260045260246000fd5b50919050565b601f82111562000db6576000818152602081206020601f8601048101602086101562000d955750805b6020601f860104820191505b81811015620005ca5782815560010162000da1565b505050565b81516001604060020a0381111562000dd75762000dd762000989565b62000def8162000de8845462000d17565b8462000d6c565b602080601f83116001811462000e2b576000841562000e0e5750858301515b60028086026008870290910a6000190419821617865550620005ca565b600085815260208120601f198616915b8281101562000e5c5788860151825594840194600190910190840162000e3b565b508582101562000e7d57878501516008601f88160260020a60001904191681555b5050505050600202600101905550565b7f4e487b7100000000000000000000000000000000000000000000000000000000600052603260045260246000fd5b7f4e487b7100000000000000000000000000000000000000000000000000000000600052601160045260246000fd5b60006001820162000f005762000f0062000ebc565b5060010190565b8082018082111562000f1d5762000f1d62000ebc565b92915050565b600081518084526020808501945080840160005b8381101562000f555781518752958201959082019060010162000f37565b509495945050505050565b60408152600062000f75604083018562000f23565b828103602084015262000f89818562000f23565b95945050505050565b6000815180845262000fac816020860160208601620009e7565b601f01601f19169290920160200192915050565b600160a060020a0386811682528516602082015260a06040820181905260009062000fee9083018662000f23565b828103606084015262001002818662000f23565b9050828103608084015262001018818562000f92565b98975050505050505050565b6000602082840312156200103757600080fd5b81517fffffffff00000000000000000000000000000000000000000000000000000000811681146200106857600080fd5b9392505050565b600060033d1115620010a65760046000803e7c01000000000000000000000000000000000000000000000000000000006000510490505b90565b600060443d1015620010b85790565b6040516003193d81016004833e81513d6001604060020a038160248401118184111715620010e857505050505090565b8285019150815181811115620011015750505050505090565b843d87010160208285010111156200111c5750505050505090565b6200112d60208286010187620009b8565b509095945050505050565b60208152600062001068602083018462000f92565b6122ad806200115d6000396000f3fe608060405234801561001057600080fd5b506004361061015e576000357c010000000000000000000000000000000000000000000000000000000090048063715018a6116100d5578063dfb0582511610099578063dfb0582514610307578063e1076b621461031a578063e5326ab11461032d578063e985e9c514610335578063f242432a14610371578063f2fde38b1461038457600080fd5b8063715018a6146102c05780638da5cb5b146102c857806398d5547d146102d95780639fb17e34146102e1578063a22cb465146102f457600080fd5b806327c0dfc81161012757806327c0dfc81461020c5780632a55205a146102355780632eb2c2d6146102675780634e1273f41461027a5780635dd871a31461029a5780636b8ff574146102ad57600080fd5b8062fdd58e1461016357806301ffc9a7146101895780630e89341c146101ac578063187ba8a6146101cc5780631fc3b56c146101f7575b600080fd5b610176610171366004611917565b610397565b6040519081526020015b60405180910390f35b61019c610197366004611957565b610446565b6040519015158152602001610180565b6101bf6101ba36600461197b565b610451565b60405161018091906119da565b600c546101df90600160a060020a031681565b604051600160a060020a039091168152602001610180565b61020a6102053660046119ed565b6104e5565b005b600754600854600954600a546102259360ff1692919084565b6040516101809493929190611a21565b610248610243366004611a62565b61051c565b60408051600160a060020a039093168352602083019190915201610180565b61020a610275366004611bd0565b6105f9565b61028d610288366004611c7a565b610648565b6040516101809190611d7d565b61019c6102a836600461197b565b610789565b6101bf6102bb36600461197b565b610920565b61020a61094a565b600554600160a060020a03166101df565b600d54610176565b6101766102ef36600461197b565b61095e565b61020a610302366004611d90565b610d64565b61017661031536600461197b565b610d73565b6101bf61032836600461197b565b610d94565b6101bf610e40565b61019c610343366004611dcc565b600160a060020a03918216600090815260016020908152604080832093909416825291909152205460ff1690565b61020a61037f366004611dff565b610e4d565b61020a6103923660046119ed565b610e95565b6000600160a060020a03831661041d5760405160e560020a62461bcd02815260206004820152602a60248201527f455243313135353a2061646472657373207a65726f206973206e6f742061207660448201527f616c6964206f776e65720000000000000000000000000000000000000000000060648201526084015b60405180910390fd5b50600081815260208181526040808320600160a060020a03861684529091529020545b92915050565b600061044082610f37565b60606002805461046090611e64565b80601f016020809104026020016040519081016040528092919081815260200182805461048c90611e64565b80156104d95780601f106104ae576101008083540402835291602001916104d9565b820191906000526020600020905b8154815290600101906020018083116104bc57829003601f168201915b50505050509050919050565b6104ed610f75565b600c805473ffffffffffffffffffffffffffffffffffffffff1916600160a060020a0392909216919091179055565b6000828152600460209081526040808320815180830190925254600160a060020a038116808352740100000000000000000000000000000000000000009091046bffffffffffffffffffffffff169282019290925282916105bd575060408051808201909152600354600160a060020a03811682527401000000000000000000000000000000000000000090046bffffffffffffffffffffffff1660208201525b6020810151600090612710906105e1906bffffffffffffffffffffffff1687611eba565b6105eb9190611ed1565b915196919550909350505050565b600160a060020a03851633148061061557506106158533610343565b6106345760405160e560020a62461bcd02815260040161041490611ef6565b6106418585858585610fd2565b5050505050565b606081518351146106c45760405160e560020a62461bcd02815260206004820152602960248201527f455243313135353a206163636f756e747320616e6420696473206c656e67746860448201527f206d69736d6174636800000000000000000000000000000000000000000000006064820152608401610414565b6000835167ffffffffffffffff8111156106e0576106e0611a84565b604051908082528060200260200182016040528015610709578160200160208202803683370190505b50905060005b84518110156107815761075485828151811061072d5761072d611f53565b602002602001015185838151811061074757610747611f53565b6020026020010151610397565b82828151811061076657610766611f53565b602090810291909101015261077a81611f6c565b905061070f565b509392505050565b600080600160075460ff1660018111156107a5576107a5611a08565b1480156107b35750600d5483105b80156107fb5750600e83815481106107cd576107cd611f53565b9060005260206000200154600f60008581526020019081526020016000205460016107f89190611f85565b11155b801561082d5750600954158061082d57506009543360009081526012602052604090205461082a906001611f85565b11155b80156108695750600a5415806108695750600a546000848152601160209081526040808320338452909152902054610866906001611f85565b11155b9050806108795750600092915050565b60085460000361088c5750600192915050565b600c546008546040517f70a08231000000000000000000000000000000000000000000000000000000008152336004820152600160a060020a039092169182906370a0823190602401602060405180830381865afa1580156108f2573d6000803e3d6000fd5b505050506040513d601f19601f820116820180604052508101906109169190611f98565b1015949350505050565b6060600d828154811061093557610935611f53565b90600052602060002001805461046090611e64565b610952610f75565b61095c60006111cd565b565b6000600160075460ff16600181111561097957610979611a08565b146109c95760405160e560020a62461bcd02815260206004820152601e60248201527f43616e6e6f74206d696e7420746869732074797065206f6620746f6b656e00006044820152606401610414565b600d548210610a1d5760405160e560020a62461bcd02815260206004820152601560248201527f546f6b656e20646f6573206e6f742065786973747300000000000000000000006044820152606401610414565b600e8281548110610a3057610a30611f53565b9060005260206000200154600f6000848152602001908152602001600020546001610a5b9190611f85565b1115610ad25760405160e560020a62461bcd02815260206004820152602660248201527f4d617820737570706c79207265616368656420666f72207468697320746f6b6560448201527f6e207479706500000000000000000000000000000000000000000000000000006064820152608401610414565b6009541580610afd575060095433600090815260126020526040902054610afa906001611f85565b11155b610b4c5760405160e560020a62461bcd02815260206004820152601360248201527f596f75206d696e74656420746f6f206d756368000000000000000000000000006044820152606401610414565b600a541580610b815750600a546000838152601160209081526040808320338452909152902054610b7e906001611f85565b11155b610bf65760405160e560020a62461bcd02815260206004820152602160248201527f596f75206d696e74656420746f6f206d756368206f66207468697320746f6b6560448201527f6e000000000000000000000000000000000000000000000000000000000000006064820152608401610414565b60085415610cdb57600c546008546040517f70a08231000000000000000000000000000000000000000000000000000000008152336004820152600160a060020a039092169182906370a0823190602401602060405180830381865afa158015610c64573d6000803e3d6000fd5b505050506040513d601f19601f82011682018060405250810190610c889190611f98565b1015610cd95760405160e560020a62461bcd02815260206004820152600f60248201527f6e6f742066616e20656e6f7567687400000000000000000000000000000000006044820152606401610414565b505b336000908152601260205260408120805491610cf683611f6c565b909155505060008281526011602090815260408083203384529091528120805491610d2083611f6c565b90915550506000828152600f60205260408120805491610d3f83611f6c565b9190505550610d60338360016040518060200160405280600081525061122c565b5090565b610d6f33838361135f565b5050565b600e8181548110610d8357600080fd5b600091825260209091200154905081565b600d8181548110610da457600080fd5b906000526020600020016000915090508054610dbf90611e64565b80601f0160208091040260200160405190810160405280929190818152602001828054610deb90611e64565b8015610e385780601f10610e0d57610100808354040283529160200191610e38565b820191906000526020600020905b815481529060010190602001808311610e1b57829003601f168201915b505050505081565b600b8054610dbf90611e64565b600160a060020a038516331480610e695750610e698533610343565b610e885760405160e560020a62461bcd02815260040161041490611ef6565b6106418585858585611456565b610e9d610f75565b600160a060020a038116610f1c5760405160e560020a62461bcd02815260206004820152602660248201527f4f776e61626c653a206e6577206f776e657220697320746865207a65726f206160448201527f64647265737300000000000000000000000000000000000000000000000000006064820152608401610414565b610f25816111cd565b50565b600160a060020a03163b151590565b6000600160e060020a031982167f2a55205a000000000000000000000000000000000000000000000000000000001480610440575061044082611586565b600554600160a060020a0316331461095c5760405160e560020a62461bcd02815260206004820181905260248201527f4f776e61626c653a2063616c6c6572206973206e6f7420746865206f776e65726044820152606401610414565b815183511461104c5760405160e560020a62461bcd02815260206004820152602860248201527f455243313135353a2069647320616e6420616d6f756e7473206c656e6774682060448201527f6d69736d617463680000000000000000000000000000000000000000000000006064820152608401610414565b600160a060020a0384166110755760405160e560020a62461bcd02815260040161041490611fb1565b3360005b845181101561115f57600085828151811061109657611096611f53565b6020026020010151905060008583815181106110b4576110b4611f53565b60209081029190910181015160008481528083526040808220600160a060020a038e1683529093529190912054909150818110156111075760405160e560020a62461bcd0281526004016104149061200e565b600083815260208181526040808320600160a060020a038e8116855292528083208585039055908b16825281208054849290611144908490611f85565b925050819055505050508061115890611f6c565b9050611079565b5084600160a060020a031686600160a060020a031682600160a060020a03167f4a39dc06d4c0dbc64b70af90fd698a233a518aa5d07e595d983b8c0526c8f7fb87876040516111af92919061206b565b60405180910390a46111c5818787878787611621565b505050505050565b60058054600160a060020a0383811673ffffffffffffffffffffffffffffffffffffffff19831681179093556040519116919082907f8be0079c531659141344cd1fd0a4f28419497f9722a3daafe3b4186f6b6457e090600090a35050565b600160a060020a0384166112ab5760405160e560020a62461bcd02815260206004820152602160248201527f455243313135353a206d696e7420746f20746865207a65726f2061646472657360448201527f73000000000000000000000000000000000000000000000000000000000000006064820152608401610414565b3360006112b7856117c0565b905060006112c4856117c0565b9050600086815260208181526040808320600160a060020a038b168452909152812080548792906112f6908490611f85565b90915550506040805187815260208101879052600160a060020a03808a1692600092918716917fc3d58168c5ae7397731d063d5bbf3d657854427343f4c083240f7aacaa2d0f62910160405180910390a46113568360008989898961180b565b50505050505050565b81600160a060020a031683600160a060020a0316036113e95760405160e560020a62461bcd02815260206004820152602960248201527f455243313135353a2073657474696e6720617070726f76616c2073746174757360448201527f20666f722073656c6600000000000000000000000000000000000000000000006064820152608401610414565b600160a060020a03838116600081815260016020908152604080832094871680845294825291829020805460ff191686151590811790915591519182527f17307eab39ab6107e8899845ad3d59bd9653f200f220920489ca2b5937696c31910160405180910390a3505050565b600160a060020a03841661147f5760405160e560020a62461bcd02815260040161041490611fb1565b33600061148b856117c0565b90506000611498856117c0565b9050600086815260208181526040808320600160a060020a038c168452909152902054858110156114de5760405160e560020a62461bcd0281526004016104149061200e565b600087815260208181526040808320600160a060020a038d8116855292528083208985039055908a1682528120805488929061151b908490611f85565b90915550506040805188815260208101889052600160a060020a03808b16928c821692918816917fc3d58168c5ae7397731d063d5bbf3d657854427343f4c083240f7aacaa2d0f62910160405180910390a461157b848a8a8a8a8a61180b565b505050505050505050565b6000600160e060020a031982167fd9b67a260000000000000000000000000000000000000000000000000000000014806115e95750600160e060020a031982167f0e89341c00000000000000000000000000000000000000000000000000000000145b8061044057507f01ffc9a700000000000000000000000000000000000000000000000000000000600160e060020a0319831614610440565b600160a060020a0384163b156111c5576040517fbc197c81000000000000000000000000000000000000000000000000000000008152600160a060020a0385169063bc197c819061167e9089908990889088908890600401612099565b6020604051808303816000875af19250505080156116b9575060408051601f3d908101601f191682019092526116b6918101906120f7565b60015b611774576116c5612114565b806308c379a00361170157506116d961214d565b806116e45750611703565b8060405160e560020a62461bcd02815260040161041491906119da565b505b60405160e560020a62461bcd02815260206004820152603460248201527f455243313135353a207472616e7366657220746f206e6f6e2d4552433131353560448201527f526563656976657220696d706c656d656e7465720000000000000000000000006064820152608401610414565b600160e060020a031981167fbc197c8100000000000000000000000000000000000000000000000000000000146113565760405160e560020a62461bcd028152600401610414906121d7565b604080516001808252818301909252606091600091906020808301908036833701905050905082816000815181106117fa576117fa611f53565b602090810291909101015292915050565b600160a060020a0384163b156111c5576040517ff23a6e61000000000000000000000000000000000000000000000000000000008152600160a060020a0385169063f23a6e61906118689089908990889088908890600401612234565b6020604051808303816000875af19250505080156118a3575060408051601f3d908101601f191682019092526118a0918101906120f7565b60015b6118af576116c5612114565b600160e060020a031981167ff23a6e6100000000000000000000000000000000000000000000000000000000146113565760405160e560020a62461bcd028152600401610414906121d7565b8035600160a060020a038116811461191257600080fd5b919050565b6000806040838503121561192a57600080fd5b611933836118fb565b946020939093013593505050565b600160e060020a031981168114610f2557600080fd5b60006020828403121561196957600080fd5b813561197481611941565b9392505050565b60006020828403121561198d57600080fd5b5035919050565b6000815180845260005b818110156119ba5760208185018101518683018201520161199e565b506000602082860101526020601f19601f83011685010191505092915050565b6020815260006119746020830184611994565b6000602082840312156119ff57600080fd5b611974826118fb565b60e060020a634e487b7102600052602160045260246000fd5b6080810160028610611a465760e060020a634e487b7102600052602160045260246000fd5b9481526020810193909352604083019190915260609091015290565b60008060408385031215611a7557600080fd5b50508035926020909101359150565b60e060020a634e487b7102600052604160045260246000fd5b601f8201601f1916810167ffffffffffffffff81118282101715611ac357611ac3611a84565b6040525050565b600067ffffffffffffffff821115611ae457611ae4611a84565b5060209081020190565b600082601f830112611aff57600080fd5b81356020611b0c82611aca565b604051611b198282611a9d565b8381529282028501820192828101915086841115611b3657600080fd5b8286015b84811015611b515780358352918301918301611b3a565b509695505050505050565b600082601f830112611b6d57600080fd5b813567ffffffffffffffff811115611b8757611b87611a84565b604051611b9e601f8301601f191660200182611a9d565b818152846020838601011115611bb357600080fd5b816020850160208301376000918101602001919091529392505050565b600080600080600060a08688031215611be857600080fd5b611bf1866118fb565b9450611bff602087016118fb565b9350604086013567ffffffffffffffff80821115611c1c57600080fd5b611c2889838a01611aee565b94506060880135915080821115611c3e57600080fd5b611c4a89838a01611aee565b93506080880135915080821115611c6057600080fd5b50611c6d88828901611b5c565b9150509295509295909350565b60008060408385031215611c8d57600080fd5b823567ffffffffffffffff80821115611ca557600080fd5b818501915085601f830112611cb957600080fd5b81356020611cc682611aca565b604051611cd38282611a9d565b8381529282028501820192828101915089841115611cf057600080fd5b948201945b83861015611d1557611d06866118fb565b82529482019490820190611cf5565b96505086013592505080821115611d2b57600080fd5b50611d3885828601611aee565b9150509250929050565b600081518084526020808501945080840160005b83811015611d7257815187529582019590820190600101611d56565b509495945050505050565b6020815260006119746020830184611d42565b60008060408385031215611da357600080fd5b611dac836118fb565b915060208301358015158114611dc157600080fd5b809150509250929050565b60008060408385031215611ddf57600080fd5b611de8836118fb565b9150611df6602084016118fb565b90509250929050565b600080600080600060a08688031215611e1757600080fd5b611e20866118fb565b9450611e2e602087016118fb565b93506040860135925060608601359150608086013567ffffffffffffffff811115611e5857600080fd5b611c6d88828901611b5c565b600281046001821680611e7857607f821691505b602082108103611e9b5760e060020a634e487b7102600052602260045260246000fd5b50919050565b60e060020a634e487b7102600052601160045260246000fd5b808202811582820484141761044057610440611ea1565b600082611ef15760e060020a634e487b7102600052601260045260246000fd5b500490565b6020808252602e908201527f455243313135353a2063616c6c6572206973206e6f7420746f6b656e206f776e60408201527f6572206f7220617070726f766564000000000000000000000000000000000000606082015260800190565b60e060020a634e487b7102600052603260045260246000fd5b600060018201611f7e57611f7e611ea1565b5060010190565b8082018082111561044057610440611ea1565b600060208284031215611faa57600080fd5b5051919050565b60208082526025908201527f455243313135353a207472616e7366657220746f20746865207a65726f20616460408201527f6472657373000000000000000000000000000000000000000000000000000000606082015260800190565b6020808252602a908201527f455243313135353a20696e73756666696369656e742062616c616e636520666f60408201527f72207472616e7366657200000000000000000000000000000000000000000000606082015260800190565b60408152600061207e6040830185611d42565b82810360208401526120908185611d42565b95945050505050565b6000600160a060020a03808816835280871660208401525060a060408301526120c560a0830186611d42565b82810360608401526120d78186611d42565b905082810360808401526120eb8185611994565b98975050505050505050565b60006020828403121561210957600080fd5b815161197481611941565b600060033d111561214a5760046000803e7c01000000000000000000000000000000000000000000000000000000006000510490505b90565b600060443d101561215b5790565b6040516003193d81016004833e81513d67ffffffffffffffff816024840111818411171561218b57505050505090565b82850191508151818111156121a35750505050505090565b843d87010160208285010111156121bd5750505050505090565b6121cc60208286010187611a9d565b509095945050505050565b60208082526028908201527f455243313135353a204552433131353552656365697665722072656a6563746560408201527f6420746f6b656e73000000000000000000000000000000000000000000000000606082015260800190565b6000600160a060020a03808816835280871660208401525084604083015283606083015260a0608083015261226c60a0830184611994565b97965050505050505056fea2646970667358221220662b3b7a5743554c34e2c4b02a2660b981c91e950f67047d7f551f0d476c882d64736f6c63430008110033",
  "immutableReferences": {},
  "source": "// SPDX-License-Identifier: MIT\n\npragma solidity ^0.8.17;\n\nimport \"../node_modules/@openzeppelin/contracts/token/ERC1155/ERC1155.sol\";\nimport \"../node_modules/@openzeppelin/contracts/token/ERC20/IERC20.sol\";\nimport \"../node_modules/@openzeppelin/contracts/token/common/ERC2981.sol\";\nimport \"../node_modules/@openzeppelin/contracts/access/Ownable.sol\";\nimport \"../node_modules/@openzeppelin/contracts/utils/Strings.sol\";\n\ncontract ArtistERC1155Token is ERC1155, ERC2981, Ownable {\n\n    function supportsInterface(bytes4 interfaceId) public view override(ERC1155, ERC2981) returns (bool) {\n        return super.supportsInterface(interfaceId);\n    }\n\n    // STATE --------------------------------------------------------------------------------------------------\n\n    // The original owner address\n    address _originalOwner;\n\n    enum DistributionType { SELL, DROP }\n    struct Options {\n        DistributionType distributionType;\n        uint minimumFanTokenRequiredToMint; // set to zero to disable\n        uint maxTotalMintPerWallet; // set to zero to disable\n        uint maxMintPerWallerPerToken; // set to zero to disable\n    }\n\n    Options public _options;\n    string public collectionName; // the token mame\n    address public fanTokenAddress; // The contract address of the artist Fan Token\n\n    string[] public _tokenNames;\n    uint[] public _maxSupply;\n\n\n    // Mapping to hold the total supply of each token type in the contract\n    mapping(uint256 => uint256) private _idToTotalSupply;\n    // Mapping to hold the max supply of each token type in the contract\n    mapping(uint256 => uint256) private _idToMaxSupply;\n\n    // Number of minted token per wallet per idToken\n    mapping(uint256 => mapping(address => uint)) private _countTotalMintPerWalletPerToken;\n    // Number of minted token per wallet in total\n    mapping(address => uint) private _countTotalMintPerWallet;\n\n    // STATE --------------------------------------------------------------------------------------------------\n\n    // MODIFIERS --------------------------------------------------------------------------------------------------\n    modifier onlyWhenNotMintedByUser(uint idToken, address userAddress) {\n        require(_countTotalMintPerWalletPerToken[idToken][userAddress] == 0, \"You already minted this token\");\n        _;\n    }\n    // MODIFIERS --------------------------------------------------------------------------------------------------\n\n    /*\n     * _uri should be this format => ipfs://bafybeihjjkwdrxxjnuwevlqtqmh3iegcadc32sio4wmo7bv2gbf34qs34a/{id}.json\n     * [!IMPORTANT!!] => Do NOT use a gateway in the contract\n     * The client MUST replace ipfs:// with the gateway of its choice\n     * This is opensea compatible\n     * See https://docs.opensea.io/docs/metadata-standards\n     * => \"the uri function in your ERC1155 contract should return an HTTP or IPFS URL\"\n     * https://docs.opensea.io/docs/metadata-standards#ipfs-and-arweave-uris\n    */\n    constructor(\n        string memory _uri,\n        string memory _collectionName,\n        string[] memory tokenNames_,\n        uint[] memory maxSupply_,\n        Options memory options_\n    ) ERC1155(_uri) {\n        _originalOwner = msg.sender;\n        require(tokenNames_.length == maxSupply_.length, \"size error\");\n\n        _options = options_;\n        _tokenNames = tokenNames_;\n        _maxSupply = maxSupply_;\n\n        collectionName = _collectionName;\n\n        if (_options.distributionType == DistributionType.SELL) {\n            mintAllToNewOwner(tx.origin);\n        }\n    }\n\n    // Public accessor --------------------------------------------------------------------------------------------------\n    function getName(uint _id) public view returns(string memory) {\n        return _tokenNames[_id];\n    }\n\n\n    function getCountTokens() public view returns(uint) {\n        return _tokenNames.length;\n    }\n\n    // Public accessor --------------------------------------------------------------------------------------------------\n\n\n    function setFanTokenAddress(address _fanTokenAddress) public onlyOwner {\n        fanTokenAddress = _fanTokenAddress;\n    }\n\n/***\n *          \n *       \n *        \n *       \n *          \n *              \n */\n\n    function mintAllToNewOwner(address newOwner) private {\n        // Less cost to create the array of ids and use mintBatch\n        uint[] memory ids = new uint[](_maxSupply.length);\n        for (uint id = 0; id < _maxSupply.length; id++) {\n            ids[id] = id;\n        }\n\n        _mintBatch(newOwner, ids, _maxSupply, \"\");\n    }\n\n    function canMint(uint _id) external view returns (bool) {\n        bool _canMint = (\n            _options.distributionType == DistributionType.DROP &&\n            _id < _tokenNames.length &&\n            _idToTotalSupply[_id] + 1 <= _maxSupply[_id] &&\n            (_options.maxTotalMintPerWallet == 0 || _countTotalMintPerWallet[msg.sender] + 1 <= _options.maxTotalMintPerWallet) &&\n            (_options.maxMintPerWallerPerToken == 0 || _countTotalMintPerWalletPerToken[_id][msg.sender] + 1 <= _options.maxMintPerWallerPerToken)\n        );\n        if (!_canMint) {\n            return false;\n        }\n        if (_options.minimumFanTokenRequiredToMint == 0) {\n            return true;\n        }\n        IERC20 fanToken = IERC20(fanTokenAddress);\n        return fanToken.balanceOf(msg.sender) >= _options.minimumFanTokenRequiredToMint;\n    }\n\n    /*\n     * mint(address account, uint _id)\n     *\n     * account - address to mint the token to\n     * _id - the ID being minted\n     * A user can only mint one token\n    */\n    function PublicMint(uint _id) external returns (uint)\n    {\n        require(_options.distributionType == DistributionType.DROP, \"Cannot mint this type of token\");\n        require(_id < _tokenNames.length, \"Token does not exists\");\n        require(\n            _idToTotalSupply[_id] + 1 <= _maxSupply[_id],\n            \"Max supply reached for this token type\"\n        );\n        require(\n            _options.maxTotalMintPerWallet == 0 || _countTotalMintPerWallet[msg.sender] + 1 <= _options.maxTotalMintPerWallet,\n            \"You minted too much\"\n        );\n        require(\n            _options.maxMintPerWallerPerToken == 0 || _countTotalMintPerWalletPerToken[_id][msg.sender] + 1 <= _options.maxMintPerWallerPerToken,\n            \"You minted too much of this token\"\n        );\n\n        if (_options.minimumFanTokenRequiredToMint != 0) {\n            IERC20 fanToken = IERC20(fanTokenAddress);\n            require(fanToken.balanceOf(msg.sender) >= _options.minimumFanTokenRequiredToMint, \"not fan enought\");\n        }\n\n        _countTotalMintPerWallet[msg.sender]++;\n        _countTotalMintPerWalletPerToken[_id][msg.sender]++;\n        _idToTotalSupply[_id]++;\n        _mint(msg.sender, _id, 1, \"\");\n        return _id;\n    }\n\n}",
  "sourcePath": "/Volumes/code/Alyra/Linos/truffle/contracts/ArtistERC1155Token.sol",
  "compiler": {
    "name": "solc",
    "version": "0.8.17+commit.8df45f5f.Emscripten.clang"
  },
  "schemaVersion": "3.4.10",
  "updatedAt": "2022-12-15T11:32:46.130Z",
  "networkType": "ethereum",
  "devdoc": {
    "kind": "dev",
    "methods": {
      "balanceOf(address,uint256)": {
        "details": "See {IERC1155-balanceOf}. Requirements: - `account` cannot be the zero address."
      },
      "balanceOfBatch(address[],uint256[])": {
        "details": "See {IERC1155-balanceOfBatch}. Requirements: - `accounts` and `ids` must have the same length."
      },
      "isApprovedForAll(address,address)": {
        "details": "See {IERC1155-isApprovedForAll}."
      },
      "owner()": {
        "details": "Returns the address of the current owner."
      },
      "renounceOwnership()": {
        "details": "Leaves the contract without owner. It will not be possible to call `onlyOwner` functions anymore. Can only be called by the current owner. NOTE: Renouncing ownership will leave the contract without an owner, thereby removing any functionality that is only available to the owner."
      },
      "royaltyInfo(uint256,uint256)": {
        "details": "Returns how much royalty is owed and to whom, based on a sale price that may be denominated in any unit of exchange. The royalty amount is denominated and should be paid in that same unit of exchange."
      },
      "safeBatchTransferFrom(address,address,uint256[],uint256[],bytes)": {
        "details": "See {IERC1155-safeBatchTransferFrom}."
      },
      "safeTransferFrom(address,address,uint256,uint256,bytes)": {
        "details": "See {IERC1155-safeTransferFrom}."
      },
      "setApprovalForAll(address,bool)": {
        "details": "See {IERC1155-setApprovalForAll}."
      },
      "transferOwnership(address)": {
        "details": "Transfers ownership of the contract to a new account (`newOwner`). Can only be called by the current owner."
      },
      "uri(uint256)": {
        "details": "See {IERC1155MetadataURI-uri}. This implementation returns the same URI for *all* token types. It relies on the token type ID substitution mechanism https://eips.ethereum.org/EIPS/eip-1155#metadata[defined in the EIP]. Clients calling this function must replace the `\\{id\\}` substring with the actual token type ID."
      }
    },
    "version": 1
  },
  "userdoc": {
    "kind": "user",
    "methods": {},
    "version": 1
  }
}