{
  "contractName": "ArtistERC1155Factory",
  "abi": [
    {
      "inputs": [
        {
          "internalType": "address",
          "name": "linosPlatformAddress_",
          "type": "address"
        },
        {
          "internalType": "address",
          "name": "nftMarketPlaceAddress_",
          "type": "address"
        }
      ],
      "stateMutability": "nonpayable",
      "type": "constructor"
    },
    {
      "anonymous": false,
      "inputs": [
        {
          "indexed": false,
          "internalType": "string",
          "name": "_artistName",
          "type": "string"
        },
        {
          "indexed": false,
          "internalType": "address",
          "name": "_collectionAddress",
          "type": "address"
        },
        {
          "indexed": false,
          "internalType": "uint256",
          "name": "_timestamp",
          "type": "uint256"
        }
      ],
      "name": "NFTCollectionCreated",
      "type": "event"
    },
    {
      "inputs": [
        {
          "internalType": "string",
          "name": "_uri",
          "type": "string"
        },
        {
          "internalType": "string",
          "name": "_collectionName",
          "type": "string"
        },
        {
          "internalType": "string[]",
          "name": "tokenNames_",
          "type": "string[]"
        },
        {
          "internalType": "uint256[]",
          "name": "maxSupply_",
          "type": "uint256[]"
        },
        {
          "components": [
            {
              "internalType": "enum ArtistERC1155Token.DistributionType",
              "name": "distributionType",
              "type": "uint8"
            },
            {
              "internalType": "uint256",
              "name": "minimumFanTokenRequiredToMint",
              "type": "uint256"
            },
            {
              "internalType": "uint256",
              "name": "maxTotalMintPerWallet",
              "type": "uint256"
            },
            {
              "internalType": "uint256",
              "name": "maxMintPerWallerPerToken",
              "type": "uint256"
            }
          ],
          "internalType": "struct ArtistERC1155Token.Options",
          "name": "options_",
          "type": "tuple"
        }
      ],
      "name": "createNFTCollection",
      "outputs": [
        {
          "internalType": "address",
          "name": "collectionAddress",
          "type": "address"
        }
      ],
      "stateMutability": "nonpayable",
      "type": "function"
    }
  ],
  "bytecode": "0x608060405234801561001057600080fd5b50604051613d22380380613d2283398101604081905261002f9161007c565b60008054600160a060020a03938416600160a060020a031991821617909155600180549290931691161790556100af565b8051600160a060020a038116811461007757600080fd5b919050565b6000806040838503121561008f57600080fd5b61009883610060565b91506100a660208401610060565b90509250929050565b613c64806100be6000396000f3fe60806040523480156200001157600080fd5b50600436106200004a577c01000000000000000000000000000000000000000000000000000000006000350463dc91c2cd81146200004f575b600080fd5b6200006662000060366004620004b1565b62000082565b604051600160a060020a03909116815260200160405180910390f35b600080546040517fba7eea15000000000000000000000000000000000000000000000000000000008152336004820152600160a060020a039091169063ba7eea1590602401602060405180830381865afa158015620000e5573d6000803e3d6000fd5b505050506040513d601f19601f820116820180604052508101906200010b9190620005b5565b62000176576040517f08c379a000000000000000000000000000000000000000000000000000000000815260206004820152600a60248201527f4e6f742061727469737400000000000000000000000000000000000000000000604482015260640160405180910390fd5b60008a8a8a8a8a8a8a8a8a6040516200018f9062000410565b620001a39998979695949392919062000680565b604051809103906000f080158015620001c0573d6000803e3d6000fd5b506000546040517fb949c804000000000000000000000000000000000000000000000000000000008152336004820152919250600160a060020a0380841692631fc3b56c92919091169063b949c80490602401600060405180830381865afa15801562000231573d6000803e3d6000fd5b505050506040513d6000823e601f3d908101601f191682016040526200025b919081019062000822565b602001516040517c010000000000000000000000000000000000000000000000000000000063ffffffff8416028152600160a060020a039091166004820152602401600060405180830381600087803b158015620002b857600080fd5b505af1158015620002cd573d6000803e3d6000fd5b50506040517ff2fde38b000000000000000000000000000000000000000000000000000000008152336004820152600160a060020a038416925063f2fde38b9150602401600060405180830381600087803b1580156200032c57600080fd5b505af115801562000341573d6000803e3d6000fd5b505050507f7087686ad0f6bf617a6733c11d272b3a68861f1867bd80a15a7a9aca218adbf6898983426040516200037c94939291906200093e565b60405180910390a16001546040517f4d713868000000000000000000000000000000000000000000000000000000008152600160a060020a038381166004830152909116908190634d71386890602401600060405180830381600087803b158015620003e757600080fd5b505af1158015620003fc573d6000803e3d6000fd5b50939e9d5050505050505050505050505050565b6132be806200097183390190565b60008083601f8401126200043157600080fd5b50813567ffffffffffffffff8111156200044a57600080fd5b6020830191508360208285010111156200046357600080fd5b9250929050565b60008083601f8401126200047d57600080fd5b50813567ffffffffffffffff8111156200049657600080fd5b60208301915083602080830285010111156200046357600080fd5b6000806000806000806000806000898b03610100811215620004d257600080fd5b8a3567ffffffffffffffff80821115620004eb57600080fd5b620004f98e838f016200041e565b909c509a5060208d01359150808211156200051357600080fd5b620005218e838f016200041e565b909a50985060408d01359150808211156200053b57600080fd5b620005498e838f016200046a565b909850965060608d01359150808211156200056357600080fd5b50620005728d828e016200046a565b9095509350506080607f19820112156200058b57600080fd5b5060808a0190509295985092959850929598565b80518015158114620005b057600080fd5b919050565b600060208284031215620005c857600080fd5b620005d3826200059f565b9392505050565b81835281816020850137506000828201602090810191909152601f909101601f19169091010190565b81835260007f07ffffffffffffffffffffffffffffffffffffffffffffffffffffffffffffff8311156200063657600080fd5b6020830280836020870137939093016020019392505050565b8035600281106200065f57600080fd5b82526020818101359083015260408082013590830152606090810135910152565b6000610100808352620006978184018c8e620005da565b9050602083820381850152620006af828b8d620005da565b84810360408601528881529150808201818902830182018a60005b8b8110156200074157858303601f190184528135368e9003601e19018112620006f257600080fd5b8d01858101903567ffffffffffffffff8111156200070f57600080fd5b8036038213156200071f57600080fd5b6200072c858284620005da565b958701959450505090840190600101620006ca565b505085810360608701526200075881898b62000603565b9450505050506200076d60808301846200064f565b9a9950505050505050505050565b7f4e487b7100000000000000000000000000000000000000000000000000000000600052604160045260246000fd5b6040516080810167ffffffffffffffff81118282101715620007d057620007d06200077b565b60405290565b604051601f8201601f1916810167ffffffffffffffff811182821017156200080257620008026200077b565b604052919050565b8051600160a060020a0381168114620005b057600080fd5b600060208083850312156200083657600080fd5b825167ffffffffffffffff808211156200084f57600080fd5b90840190608082870312156200086457600080fd5b6200086e620007aa565b8251828111156200087e57600080fd5b8301601f810188136200089057600080fd5b805183811115620008a557620008a56200077b565b620008b9601f8201601f19168701620007d6565b93508084528886828401011115620008d057600080fd5b60005b81811015620008f0578281018701518582018801528601620008d3565b506000908401860152508181526200090a8385016200080a565b848201526200091c604084016200059f565b60408201526200092f606084016200059f565b60608201529695505050505050565b60608152600062000954606083018688620005da565b600160a060020a0394909416602083015250604001529291505056fe60806040523480156200001157600080fd5b50604051620032be380380620032be833981016040819052620000349162000c64565b846200004981640100000000620001be810204565b506200007062000061640100000000620001d0810204565b640100000000620001d4810204565b600160065560078054600160a060020a031916331790558151835114620000f8576040517f08c379a000000000000000000000000000000000000000000000000000000000815260206004820152600a60248201527f73697a65206572726f720000000000000000000000000000000000000000000060448201526064015b60405180910390fd5b805160088054839290829060ff1916600183818111156200011d576200011d62000db2565b0217905550602082810151600183015560408301516002830155606090920151600390910155835162000157916010919086019062000930565b5081516200016d9060119060208501906200098d565b50600c6200017c858262000e85565b50600060085460ff16600181111562000199576200019962000db2565b03620001b357620001b33264010000000062000226810204565b505050505062001217565b6002620001cc828262000e85565b5050565b3390565b60058054600160a060020a03838116600160a060020a0319831681179093556040519116919082907f8be0079c531659141344cd1fd0a4f28419497f9722a3daafe3b4186f6b6457e090600090a35050565b6200023964010000000062000349810204565b6011546000906001604060020a0381111562000259576200025962000a53565b60405190808252806020026020018201604052801562000283578160200160208202803683370190505b50905060005b601154811015620002ca5780828281518110620002aa57620002aa62000f57565b602090810291909101015280620002c18162000fb5565b91505062000289565b50620001cc828260118054806020026020016040519081016040528092919081815260200182805480156200031f57602002820191906000526020600020905b8154815260200190600101908083116200030a575b505050505060405180602001604052806000815250620003ec640100000000026401000000009004565b6200035c640100000000620001d0810204565b600160a060020a03166200037864010000000062000685810204565b600160a060020a031614620003ea576040517f08c379a000000000000000000000000000000000000000000000000000000000815260206004820181905260248201527f4f776e61626c653a2063616c6c6572206973206e6f7420746865206f776e65726044820152606401620000ef565b565b600160a060020a03841662000484576040517f08c379a000000000000000000000000000000000000000000000000000000000815260206004820152602160248201527f455243313135353a206d696e7420746f20746865207a65726f2061646472657360448201527f73000000000000000000000000000000000000000000000000000000000000006064820152608401620000ef565b815183511462000517576040517f08c379a000000000000000000000000000000000000000000000000000000000815260206004820152602860248201527f455243313135353a2069647320616e6420616d6f756e7473206c656e6774682060448201527f6d69736d617463680000000000000000000000000000000000000000000000006064820152608401620000ef565b60006200052c640100000000620001d0810204565b9050620005488160008787878764010000000062000694810204565b60005b8451811015620005ef578381815181106200056a576200056a62000f57565b60200260200101516000808784815181106200058a576200058a62000f57565b60200260200101518152602001908152602001600020600088600160a060020a0316600160a060020a031681526020019081526020016000206000828254620005d4919062000fd1565b90915550819050620005e68162000fb5565b9150506200054b565b5084600160a060020a03166000600160a060020a031682600160a060020a03167f4a39dc06d4c0dbc64b70af90fd698a233a518aa5d07e595d983b8c0526c8f7fb8787604051620006429291906200102a565b60405180910390a4620006648160008787878764010000000062000694810204565b6200067e816000878787876401000000006200069c810204565b5050505050565b600554600160a060020a031690565b505050505050565b620006be600160a060020a03851664010000000062000cba6200092182021704565b1562000694576040517fbc197c81000000000000000000000000000000000000000000000000000000008152600160a060020a0385169063bc197c81906200071390899089908890889088906004016200108a565b6020604051808303816000875af192505050801562000751575060408051601f3d908101601f191682019092526200074e91810190620010ee565b60015b62000845576200076062001139565b806308c379a003620007ba57506200077762001173565b80620007845750620007bc565b806040517f08c379a0000000000000000000000000000000000000000000000000000000008152600401620000ef919062001202565b505b6040517f08c379a000000000000000000000000000000000000000000000000000000000815260206004820152603460248201527f455243313135353a207472616e7366657220746f206e6f6e2d4552433131353560448201527f526563656976657220696d706c656d656e7465720000000000000000000000006064820152608401620000ef565b7fffffffff0000000000000000000000000000000000000000000000000000000081167fbc197c81000000000000000000000000000000000000000000000000000000001462000918576040517f08c379a000000000000000000000000000000000000000000000000000000000815260206004820152602860248201527f455243313135353a204552433131353552656365697665722072656a6563746560448201527f6420746f6b656e730000000000000000000000000000000000000000000000006064820152608401620000ef565b50505050505050565b600160a060020a03163b151590565b8280548282559060005260206000209081019282156200097b579160200282015b828111156200097b57825182906200096a908262000e85565b509160200191906001019062000951565b5062000989929150620009d9565b5090565b828054828255906000526020600020908101928215620009cb579160200282015b82811115620009cb578251825591602001919060010190620009ae565b5062000989929150620009fa565b8082111562000989576000620009f0828262000a11565b50600101620009d9565b5b80821115620009895760008155600101620009fb565b50805462000a1f9062000de1565b6000825580601f1062000a30575050565b601f01602090049060005260206000209081019062000a509190620009fa565b50565b7f4e487b7100000000000000000000000000000000000000000000000000000000600052604160045260246000fd5b601f8201601f191681016001604060020a038111828210171562000aaa5762000aaa62000a53565b6040525050565b60005b8381101562000ace57818101518382015260200162000ab4565b50506000910152565b600082601f83011262000ae957600080fd5b81516001604060020a0381111562000b055762000b0562000a53565b60405162000b1e601f8301601f19166020018262000a82565b81815284602083860101111562000b3457600080fd5b62000b4782602083016020870162000ab1565b949350505050565b60006001604060020a0382111562000b6b5762000b6b62000a53565b5060209081020190565b600082601f83011262000b8757600080fd5b8151602062000b968262000b4f565b60405162000ba5828262000a82565b838152928202850182019282810191508684111562000bc357600080fd5b8286015b8481101562000be0578051835291830191830162000bc7565b509695505050505050565b60006080828403121562000bfe57600080fd5b604051608081018181106001604060020a038211171562000c235762000c2362000a53565b806040525080915082516002811062000c3b57600080fd5b808252506020830151602082015260408301516040820152606083015160608201525092915050565b6000806000806000610100868803121562000c7e57600080fd5b85516001604060020a038082111562000c9657600080fd5b62000ca489838a0162000ad7565b965060209150818801518181111562000cbc57600080fd5b62000cca8a828b0162000ad7565b96505060408801518181111562000ce057600080fd5b8801601f81018a1362000cf257600080fd5b805162000cff8162000b4f565b60405162000d0e828262000a82565b828152918502830185019185810191508c83111562000d2c57600080fd5b8584015b8381101562000d695780518681111562000d4a5760008081fd5b62000d5a8f898389010162000ad7565b84525091860191860162000d30565b5060608c015190985094505050508082111562000d8557600080fd5b5062000d948882890162000b75565b92505062000da6876080880162000beb565b90509295509295909350565b7f4e487b7100000000000000000000000000000000000000000000000000000000600052602160045260246000fd5b60028104600182168062000df657607f821691505b60208210810362000e30577f4e487b7100000000000000000000000000000000000000000000000000000000600052602260045260246000fd5b50919050565b601f82111562000e80576000818152602081206020601f8601048101602086101562000e5f5750805b6020601f860104820191505b81811015620006945782815560010162000e6b565b505050565b81516001604060020a0381111562000ea15762000ea162000a53565b62000eb98162000eb2845462000de1565b8462000e36565b602080601f83116001811462000ef5576000841562000ed85750858301515b60028086026008870290910a600019041982161786555062000694565b600085815260208120601f198616915b8281101562000f265788860151825594840194600190910190840162000f05565b508582101562000f4757878501516008601f88160260020a60001904191681555b5050505050600202600101905550565b7f4e487b7100000000000000000000000000000000000000000000000000000000600052603260045260246000fd5b7f4e487b7100000000000000000000000000000000000000000000000000000000600052601160045260246000fd5b60006001820162000fca5762000fca62000f86565b5060010190565b8082018082111562000fe75762000fe762000f86565b92915050565b600081518084526020808501945080840160005b838110156200101f5781518752958201959082019060010162001001565b509495945050505050565b6040815260006200103f604083018562000fed565b828103602084015262001053818562000fed565b95945050505050565b600081518084526200107681602086016020860162000ab1565b601f01601f19169290920160200192915050565b600160a060020a0386811682528516602082015260a060408201819052600090620010b89083018662000fed565b8281036060840152620010cc818662000fed565b90508281036080840152620010e281856200105c565b98975050505050505050565b6000602082840312156200110157600080fd5b81517fffffffff00000000000000000000000000000000000000000000000000000000811681146200113257600080fd5b9392505050565b600060033d1115620011705760046000803e7c01000000000000000000000000000000000000000000000000000000006000510490505b90565b600060443d1015620011825790565b6040516003193d81016004833e81513d6001604060020a038160248401118184111715620011b257505050505090565b8285019150815181811115620011cb5750505050505090565b843d8701016020828501011115620011e65750505050505090565b620011f76020828601018762000a82565b509095945050505050565b6020815260006200113260208301846200105c565b61209780620012276000396000f3fe608060405234801561001057600080fd5b506004361061013d576000357c0100000000000000000000000000000000000000000000000000000000900480636b8ff574116100ca578063e5326ab11161008e578063e5326ab1146102b5578063e985e9c5146102bd578063f242432a146102f9578063f2fde38b1461030c578063f6d8f2cb1461031f57600080fd5b80636b8ff57414610263578063715018a6146102765780638da5cb5b1461027e5780639fb17e341461028f578063a22cb465146102a257600080fd5b80631fc3b56c116101115780631fc3b56c146101d65780632a55205a146101eb5780632eb2c2d61461021d578063364410b3146102305780634e1273f41461024357600080fd5b8062fdd58e1461014257806301ffc9a7146101685780630e89341c1461018b578063187ba8a6146101ab575b600080fd5b610155610150366004611700565b61034a565b6040519081526020015b60405180910390f35b61017b610176366004611740565b6103f9565b604051901515815260200161015f565b61019e610199366004611764565b610404565b60405161015f91906117c3565b600d546101be90600160a060020a031681565b604051600160a060020a03909116815260200161015f565b6101e96101e43660046117d6565b610498565b005b6101fe6101f93660046117f1565b6104cf565b60408051600160a060020a03909316835260208301919091520161015f565b6101e961022b366004611969565b6105ac565b61019e61023e366004611764565b6105fb565b610256610251366004611a13565b610695565b60405161015f9190611b16565b61019e610271366004611764565b6107d6565b6101e9610800565b600554600160a060020a03166101be565b61015561029d366004611764565b610814565b6101e96102b0366004611b29565b610bc3565b61019e610bd2565b61017b6102cb366004611b65565b600160a060020a03918216600090815260016020908152604080832093909416825291909152205460ff1690565b6101e9610307366004611b98565b610bdf565b6101e961031a3660046117d6565b610c27565b61015561032d366004611bfd565b8051602081830181018051600e8252928201919093012091525481565b6000600160a060020a0383166103d05760405160e560020a62461bcd02815260206004820152602a60248201527f455243313135353a2061646472657373207a65726f206973206e6f742061207660448201527f616c6964206f776e65720000000000000000000000000000000000000000000060648201526084015b60405180910390fd5b50600081815260208181526040808320600160a060020a03861684529091529020545b92915050565b60006103f382610cc9565b60606002805461041390611c4e565b80601f016020809104026020016040519081016040528092919081815260200182805461043f90611c4e565b801561048c5780601f106104615761010080835404028352916020019161048c565b820191906000526020600020905b81548152906001019060200180831161046f57829003601f168201915b50505050509050919050565b6104a0610d07565b600d805473ffffffffffffffffffffffffffffffffffffffff1916600160a060020a0392909216919091179055565b6000828152600460209081526040808320815180830190925254600160a060020a038116808352740100000000000000000000000000000000000000009091046bffffffffffffffffffffffff16928201929092528291610570575060408051808201909152600354600160a060020a03811682527401000000000000000000000000000000000000000090046bffffffffffffffffffffffff1660208201525b602081015160009061271090610594906bffffffffffffffffffffffff1687611ca4565b61059e9190611cbb565b915196919550909350505050565b600160a060020a0385163314806105c857506105c885336102cb565b6105e75760405160e560020a62461bcd0281526004016103c790611ce0565b6105f48585858585610d64565b5050505050565b600f602052600090815260409020805461061490611c4e565b80601f016020809104026020016040519081016040528092919081815260200182805461064090611c4e565b801561068d5780601f106106625761010080835404028352916020019161068d565b820191906000526020600020905b81548152906001019060200180831161067057829003601f168201915b505050505081565b606081518351146107115760405160e560020a62461bcd02815260206004820152602960248201527f455243313135353a206163636f756e747320616e6420696473206c656e67746860448201527f206d69736d61746368000000000000000000000000000000000000000000000060648201526084016103c7565b6000835167ffffffffffffffff81111561072d5761072d611813565b604051908082528060200260200182016040528015610756578160200160208202803683370190505b50905060005b84518110156107ce576107a185828151811061077a5761077a611d3d565b602002602001015185838151811061079457610794611d3d565b602002602001015161034a565b8282815181106107b3576107b3611d3d565b60209081029190910101526107c781611d56565b905061075c565b509392505050565b6060601082815481106107eb576107eb611d3d565b90600052602060002001805461041390611c4e565b610808610d07565b6108126000610f5f565b565b600061081e610fbe565b600160085460ff16600181111561083757610837611d6f565b146108875760405160e560020a62461bcd02815260206004820152601e60248201527f43616e6e6f74206d696e7420746869732074797065206f6620746f6b656e000060448201526064016103c7565b60105482106108db5760405160e560020a62461bcd02815260206004820152601560248201527f546f6b656e20646f6573206e6f7420657869737473000000000000000000000060448201526064016103c7565b601182815481106108ee576108ee611d3d565b9060005260206000200154601260008481526020019081526020016000205460016109199190611d88565b11156109905760405160e560020a62461bcd02815260206004820152602660248201527f4d617820737570706c79207265616368656420666f72207468697320746f6b6560448201527f6e2074797065000000000000000000000000000000000000000000000000000060648201526084016103c7565b600a5415806109bb5750600a54336000908152601560205260409020546109b8906001611d88565b11155b610a0a5760405160e560020a62461bcd02815260206004820152601360248201527f596f75206d696e74656420746f6f206d7563680000000000000000000000000060448201526064016103c7565b600b541580610a3f5750600b546000838152601460209081526040808320338452909152902054610a3c906001611d88565b11155b610ab45760405160e560020a62461bcd02815260206004820152602160248201527f596f75206d696e74656420746f6f206d756368206f66207468697320746f6b6560448201527f6e0000000000000000000000000000000000000000000000000000000000000060648201526084016103c7565b60095415610b2d5760405160e560020a62461bcd02815260206004820152602c60248201527f596f7520617265206e6f742066616e20656e6f75676874203d3e20537472656160448201527f6d206f7220626f6f73742021000000000000000000000000000000000000000060648201526084016103c7565b336000908152601560205260408120805491610b4883611d56565b909155505060008281526014602090815260408083203384529091528120805491610b7283611d56565b90915550506000828152601260205260408120805491610b9183611d56565b9190505550610bb2338360016040518060200160405280600081525061101a565b5080610bbe6001600655565b919050565b610bce33838361114d565b5050565b600c805461061490611c4e565b600160a060020a038516331480610bfb5750610bfb85336102cb565b610c1a5760405160e560020a62461bcd0281526004016103c790611ce0565b6105f48585858585611244565b610c2f610d07565b600160a060020a038116610cae5760405160e560020a62461bcd02815260206004820152602660248201527f4f776e61626c653a206e6577206f776e657220697320746865207a65726f206160448201527f646472657373000000000000000000000000000000000000000000000000000060648201526084016103c7565b610cb781610f5f565b50565b600160a060020a03163b151590565b6000600160e060020a031982167f2a55205a0000000000000000000000000000000000000000000000000000000014806103f357506103f382611374565b600554600160a060020a031633146108125760405160e560020a62461bcd02815260206004820181905260248201527f4f776e61626c653a2063616c6c6572206973206e6f7420746865206f776e657260448201526064016103c7565b8151835114610dde5760405160e560020a62461bcd02815260206004820152602860248201527f455243313135353a2069647320616e6420616d6f756e7473206c656e6774682060448201527f6d69736d6174636800000000000000000000000000000000000000000000000060648201526084016103c7565b600160a060020a038416610e075760405160e560020a62461bcd0281526004016103c790611d9b565b3360005b8451811015610ef1576000858281518110610e2857610e28611d3d565b602002602001015190506000858381518110610e4657610e46611d3d565b60209081029190910181015160008481528083526040808220600160a060020a038e168352909352919091205490915081811015610e995760405160e560020a62461bcd0281526004016103c790611df8565b600083815260208181526040808320600160a060020a038e8116855292528083208585039055908b16825281208054849290610ed6908490611d88565b9250508190555050505080610eea90611d56565b9050610e0b565b5084600160a060020a031686600160a060020a031682600160a060020a03167f4a39dc06d4c0dbc64b70af90fd698a233a518aa5d07e595d983b8c0526c8f7fb8787604051610f41929190611e55565b60405180910390a4610f5781878787878761140f565b505050505050565b60058054600160a060020a0383811673ffffffffffffffffffffffffffffffffffffffff19831681179093556040519116919082907f8be0079c531659141344cd1fd0a4f28419497f9722a3daafe3b4186f6b6457e090600090a35050565b6002600654036110135760405160e560020a62461bcd02815260206004820152601f60248201527f5265656e7472616e637947756172643a207265656e7472616e742063616c6c0060448201526064016103c7565b6002600655565b600160a060020a0384166110995760405160e560020a62461bcd02815260206004820152602160248201527f455243313135353a206d696e7420746f20746865207a65726f2061646472657360448201527f730000000000000000000000000000000000000000000000000000000000000060648201526084016103c7565b3360006110a5856115ae565b905060006110b2856115ae565b9050600086815260208181526040808320600160a060020a038b168452909152812080548792906110e4908490611d88565b90915550506040805187815260208101879052600160a060020a03808a1692600092918716917fc3d58168c5ae7397731d063d5bbf3d657854427343f4c083240f7aacaa2d0f62910160405180910390a4611144836000898989896115f9565b50505050505050565b81600160a060020a031683600160a060020a0316036111d75760405160e560020a62461bcd02815260206004820152602960248201527f455243313135353a2073657474696e6720617070726f76616c2073746174757360448201527f20666f722073656c66000000000000000000000000000000000000000000000060648201526084016103c7565b600160a060020a03838116600081815260016020908152604080832094871680845294825291829020805460ff191686151590811790915591519182527f17307eab39ab6107e8899845ad3d59bd9653f200f220920489ca2b5937696c31910160405180910390a3505050565b600160a060020a03841661126d5760405160e560020a62461bcd0281526004016103c790611d9b565b336000611279856115ae565b90506000611286856115ae565b9050600086815260208181526040808320600160a060020a038c168452909152902054858110156112cc5760405160e560020a62461bcd0281526004016103c790611df8565b600087815260208181526040808320600160a060020a038d8116855292528083208985039055908a16825281208054889290611309908490611d88565b90915550506040805188815260208101889052600160a060020a03808b16928c821692918816917fc3d58168c5ae7397731d063d5bbf3d657854427343f4c083240f7aacaa2d0f62910160405180910390a4611369848a8a8a8a8a6115f9565b505050505050505050565b6000600160e060020a031982167fd9b67a260000000000000000000000000000000000000000000000000000000014806113d75750600160e060020a031982167f0e89341c00000000000000000000000000000000000000000000000000000000145b806103f357507f01ffc9a700000000000000000000000000000000000000000000000000000000600160e060020a03198316146103f3565b600160a060020a0384163b15610f57576040517fbc197c81000000000000000000000000000000000000000000000000000000008152600160a060020a0385169063bc197c819061146c9089908990889088908890600401611e83565b6020604051808303816000875af19250505080156114a7575060408051601f3d908101601f191682019092526114a491810190611ee1565b60015b611562576114b3611efe565b806308c379a0036114ef57506114c7611f37565b806114d257506114f1565b8060405160e560020a62461bcd0281526004016103c791906117c3565b505b60405160e560020a62461bcd02815260206004820152603460248201527f455243313135353a207472616e7366657220746f206e6f6e2d4552433131353560448201527f526563656976657220696d706c656d656e74657200000000000000000000000060648201526084016103c7565b600160e060020a031981167fbc197c8100000000000000000000000000000000000000000000000000000000146111445760405160e560020a62461bcd0281526004016103c790611fc1565b604080516001808252818301909252606091600091906020808301908036833701905050905082816000815181106115e8576115e8611d3d565b602090810291909101015292915050565b600160a060020a0384163b15610f57576040517ff23a6e61000000000000000000000000000000000000000000000000000000008152600160a060020a0385169063f23a6e6190611656908990899088908890889060040161201e565b6020604051808303816000875af1925050508015611691575060408051601f3d908101601f1916820190925261168e91810190611ee1565b60015b61169d576114b3611efe565b600160e060020a031981167ff23a6e6100000000000000000000000000000000000000000000000000000000146111445760405160e560020a62461bcd0281526004016103c790611fc1565b8035600160a060020a0381168114610bbe57600080fd5b6000806040838503121561171357600080fd5b61171c836116e9565b946020939093013593505050565b600160e060020a031981168114610cb757600080fd5b60006020828403121561175257600080fd5b813561175d8161172a565b9392505050565b60006020828403121561177657600080fd5b5035919050565b6000815180845260005b818110156117a357602081850181015186830182015201611787565b506000602082860101526020601f19601f83011685010191505092915050565b60208152600061175d602083018461177d565b6000602082840312156117e857600080fd5b61175d826116e9565b6000806040838503121561180457600080fd5b50508035926020909101359150565b60e060020a634e487b7102600052604160045260246000fd5b601f8201601f1916810167ffffffffffffffff8111828210171561185257611852611813565b6040525050565b600067ffffffffffffffff82111561187357611873611813565b5060209081020190565b600082601f83011261188e57600080fd5b8135602061189b82611859565b6040516118a8828261182c565b83815292820285018201928281019150868411156118c557600080fd5b8286015b848110156118e057803583529183019183016118c9565b509695505050505050565b600067ffffffffffffffff83111561190557611905611813565b60405161191c601f8501601f19166020018261182c565b80915083815284848401111561193157600080fd5b83836020830137600060208583010152509392505050565b600082601f83011261195a57600080fd5b61175d838335602085016118eb565b600080600080600060a0868803121561198157600080fd5b61198a866116e9565b9450611998602087016116e9565b9350604086013567ffffffffffffffff808211156119b557600080fd5b6119c189838a0161187d565b945060608801359150808211156119d757600080fd5b6119e389838a0161187d565b935060808801359150808211156119f957600080fd5b50611a0688828901611949565b9150509295509295909350565b60008060408385031215611a2657600080fd5b823567ffffffffffffffff80821115611a3e57600080fd5b818501915085601f830112611a5257600080fd5b81356020611a5f82611859565b604051611a6c828261182c565b8381529282028501820192828101915089841115611a8957600080fd5b948201945b83861015611aae57611a9f866116e9565b82529482019490820190611a8e565b96505086013592505080821115611ac457600080fd5b50611ad18582860161187d565b9150509250929050565b600081518084526020808501945080840160005b83811015611b0b57815187529582019590820190600101611aef565b509495945050505050565b60208152600061175d6020830184611adb565b60008060408385031215611b3c57600080fd5b611b45836116e9565b915060208301358015158114611b5a57600080fd5b809150509250929050565b60008060408385031215611b7857600080fd5b611b81836116e9565b9150611b8f602084016116e9565b90509250929050565b600080600080600060a08688031215611bb057600080fd5b611bb9866116e9565b9450611bc7602087016116e9565b93506040860135925060608601359150608086013567ffffffffffffffff811115611bf157600080fd5b611a0688828901611949565b600060208284031215611c0f57600080fd5b813567ffffffffffffffff811115611c2657600080fd5b8201601f81018413611c3757600080fd5b611c46848235602084016118eb565b949350505050565b600281046001821680611c6257607f821691505b602082108103611c855760e060020a634e487b7102600052602260045260246000fd5b50919050565b60e060020a634e487b7102600052601160045260246000fd5b80820281158282048414176103f3576103f3611c8b565b600082611cdb5760e060020a634e487b7102600052601260045260246000fd5b500490565b6020808252602e908201527f455243313135353a2063616c6c6572206973206e6f7420746f6b656e206f776e60408201527f6572206f7220617070726f766564000000000000000000000000000000000000606082015260800190565b60e060020a634e487b7102600052603260045260246000fd5b600060018201611d6857611d68611c8b565b5060010190565b60e060020a634e487b7102600052602160045260246000fd5b808201808211156103f3576103f3611c8b565b60208082526025908201527f455243313135353a207472616e7366657220746f20746865207a65726f20616460408201527f6472657373000000000000000000000000000000000000000000000000000000606082015260800190565b6020808252602a908201527f455243313135353a20696e73756666696369656e742062616c616e636520666f60408201527f72207472616e7366657200000000000000000000000000000000000000000000606082015260800190565b604081526000611e686040830185611adb565b8281036020840152611e7a8185611adb565b95945050505050565b6000600160a060020a03808816835280871660208401525060a06040830152611eaf60a0830186611adb565b8281036060840152611ec18186611adb565b90508281036080840152611ed5818561177d565b98975050505050505050565b600060208284031215611ef357600080fd5b815161175d8161172a565b600060033d1115611f345760046000803e7c01000000000000000000000000000000000000000000000000000000006000510490505b90565b600060443d1015611f455790565b6040516003193d81016004833e81513d67ffffffffffffffff8160248401118184111715611f7557505050505090565b8285019150815181811115611f8d5750505050505090565b843d8701016020828501011115611fa75750505050505090565b611fb66020828601018761182c565b509095945050505050565b60208082526028908201527f455243313135353a204552433131353552656365697665722072656a6563746560408201527f6420746f6b656e73000000000000000000000000000000000000000000000000606082015260800190565b6000600160a060020a03808816835280871660208401525084604083015283606083015260a0608083015261205660a083018461177d565b97965050505050505056fea2646970667358221220b8163fc2929c4a34ade288276bf4f8118e9432789d693952376a53e66f07e83064736f6c63430008110033a26469706673582212206d9d13a2b5a03735313d4487cc3d7885380b4c63c95fe1b0b2b67029eded9ad564736f6c63430008110033",
  "immutableReferences": {},
  "source": "// SPDX-License-Identifier: MIT\npragma solidity ^0.8.17;\n\n// importing the ERC-721 contract to deploy for an artist\nimport \"./ArtistERC1155Token.sol\";\nimport \"./LinosPlatformInterface.sol\";\nimport \"./NftMarketPlaceInterface.sol\";\n\n/**\n  * @notice Give the ability to deploy a contract to manage ERC-721 tokens for an Artist. S/O @Snow\n  * @dev    If the contract is already deployed for an _artistName, it will revert.\n  */\ncontract ArtistERC1155Factory {\n\n    event NFTCollectionCreated(string _artistName, address _collectionAddress, uint _timestamp);\n\n    address _linosPlatformAddress;\n    address _nftMarketPlaceAddress;\n\n    constructor(address linosPlatformAddress_, address nftMarketPlaceAddress_) {\n      _linosPlatformAddress = linosPlatformAddress_;\n      _nftMarketPlaceAddress = nftMarketPlaceAddress_;\n    }\n\n    /**\n      * @notice Deploy the ERC-1155 Collection contract of the artist caller to be able to create NFTs later\n      *\n      * @return collectionAddress the address of the created collection contract\n      */\n    function createNFTCollection(\n      string calldata _uri,\n      string calldata _collectionName,\n      string[] calldata tokenNames_,\n      uint[] calldata maxSupply_,\n      ArtistERC1155Token.Options calldata options_\n    ) external returns (address collectionAddress) {\n\n      require(LinosPlatformInterface(_linosPlatformAddress).isArtistValid(msg.sender), \"Not artist\");\n\n      ArtistERC1155Token nftCollection = new ArtistERC1155Token(\n        _uri,\n        _collectionName,\n        tokenNames_,\n        maxSupply_,\n        options_\n      );\n\n      nftCollection.setFanTokenAddress(LinosPlatformInterface(_linosPlatformAddress).getArtist(msg.sender).fanTokenAddress);\n      nftCollection.transferOwnership(msg.sender);\n      emit NFTCollectionCreated(_collectionName, address(nftCollection), block.timestamp);\n\n      NftMarketPlaceInterface nftMarketPlace = NftMarketPlaceInterface(_nftMarketPlaceAddress);\n      nftMarketPlace.whiteListNftCollection(address(nftCollection));\n\n      return address(nftCollection);\n    }\n}\n",
  "sourcePath": "/Volumes/code/Alyra/Linos/truffle/contracts/ArtistERC1155Factory.sol",
  "compiler": {
    "name": "solc",
    "version": "0.8.17+commit.8df45f5f.Emscripten.clang"
  },
  "schemaVersion": "3.4.10",
  "updatedAt": "2022-12-10T23:04:27.830Z",
  "devdoc": {
    "details": "If the contract is already deployed for an _artistName, it will revert.",
    "kind": "dev",
    "methods": {
      "createNFTCollection(string,string,string[],uint256[],(uint8,uint256,uint256,uint256))": {
        "returns": {
          "collectionAddress": "the address of the created collection contract"
        }
      }
    },
    "version": 1
  },
  "userdoc": {
    "kind": "user",
    "methods": {
      "createNFTCollection(string,string,string[],uint256[],(uint8,uint256,uint256,uint256))": {
        "notice": "Deploy the ERC-1155 Collection contract of the artist caller to be able to create NFTs later"
      }
    },
    "notice": "Give the ability to deploy a contract to manage ERC-721 tokens for an Artist. S/O @Snow",
    "version": 1
  }
}