{
  "contractName": "LinosOwnable",
  "abi": [
    {
      "anonymous": false,
      "inputs": [
        {
          "indexed": true,
          "internalType": "address",
          "name": "previousOwner",
          "type": "address"
        },
        {
          "indexed": true,
          "internalType": "address",
          "name": "newOwner",
          "type": "address"
        }
      ],
      "name": "OwnershipTransferred",
      "type": "event"
    },
    {
      "inputs": [],
      "name": "owner",
      "outputs": [
        {
          "internalType": "address",
          "name": "",
          "type": "address"
        }
      ],
      "stateMutability": "view",
      "type": "function"
    },
    {
      "inputs": [],
      "name": "renounceOwnership",
      "outputs": [],
      "stateMutability": "nonpayable",
      "type": "function"
    },
    {
      "inputs": [
        {
          "internalType": "address",
          "name": "newOwner",
          "type": "address"
        }
      ],
      "name": "transferOwnership",
      "outputs": [],
      "stateMutability": "nonpayable",
      "type": "function"
    },
    {
      "inputs": [
        {
          "internalType": "address",
          "name": "_add",
          "type": "address"
        }
      ],
      "name": "setLinosPlatformAddress",
      "outputs": [],
      "stateMutability": "nonpayable",
      "type": "function"
    },
    {
      "inputs": [
        {
          "internalType": "address",
          "name": "_add",
          "type": "address"
        }
      ],
      "name": "setNftFactoryAddress",
      "outputs": [],
      "stateMutability": "nonpayable",
      "type": "function"
    },
    {
      "inputs": [
        {
          "internalType": "address",
          "name": "_add",
          "type": "address"
        }
      ],
      "name": "setNftMarketPlaceAddress",
      "outputs": [],
      "stateMutability": "nonpayable",
      "type": "function"
    }
  ],
  "bytecode": "0x608060405234801561001057600080fd5b50610033610025640100000000610038810204565b64010000000061003c810204565b61008c565b3390565b60008054600160a060020a03838116600160a060020a0319831681178455604051919092169283917f8be0079c531659141344cd1fd0a4f28419497f9722a3daafe3b4186f6b6457e09190a35050565b6103978061009b6000396000f3fe608060405234801561001057600080fd5b506004361061007e577c01000000000000000000000000000000000000000000000000000000006000350463517679cd8114610083578063715018a6146100985780638da5cb5b146100a0578063ae3ca41e146100bf578063e7d215e9146100d2578063f2fde38b146100e5575b600080fd5b610096610091366004610331565b6100f8565b005b61009661012f565b60005460408051600160a060020a039092168252519081900360200190f35b6100966100cd366004610331565b610143565b6100966100e0366004610331565b61017a565b6100966100f3366004610331565b6101b1565b610100610260565b6001805473ffffffffffffffffffffffffffffffffffffffff1916600160a060020a0392909216919091179055565b610137610260565b61014160006102d4565b565b61014b610260565b6002805473ffffffffffffffffffffffffffffffffffffffff1916600160a060020a0392909216919091179055565b610182610260565b6003805473ffffffffffffffffffffffffffffffffffffffff1916600160a060020a0392909216919091179055565b6101b9610260565b600160a060020a038116610254576040517f08c379a000000000000000000000000000000000000000000000000000000000815260206004820152602660248201527f4f776e61626c653a206e6577206f776e657220697320746865207a65726f206160448201527f646472657373000000000000000000000000000000000000000000000000000060648201526084015b60405180910390fd5b61025d816102d4565b50565b600054600160a060020a03163314610141576040517f08c379a000000000000000000000000000000000000000000000000000000000815260206004820181905260248201527f4f776e61626c653a2063616c6c6572206973206e6f7420746865206f776e6572604482015260640161024b565b60008054600160a060020a0383811673ffffffffffffffffffffffffffffffffffffffff19831681178455604051919092169283917f8be0079c531659141344cd1fd0a4f28419497f9722a3daafe3b4186f6b6457e09190a35050565b60006020828403121561034357600080fd5b8135600160a060020a038116811461035a57600080fd5b939250505056fea2646970667358221220570ce6022beffdff93af840f230f56f00b8ee9ba041b4465ee26fc8698d1483b64736f6c63430008110033",
  "immutableReferences": {},
  "source": "// SPDX-License-Identifier: MIT\npragma solidity ^0.8.9;\n\nimport \"../node_modules/@openzeppelin/contracts/access/Ownable.sol\";\n\ncontract LinosOwnable is Ownable {\n  address _linosPlatformAddress;\n  address _nftFactoryAddress;\n  address _nftMarketPlaceAddress;\n\n  modifier onlyLinosOwner() {\n    require(\n      msg.sender == _linosPlatformAddress || msg.sender == _nftFactoryAddress || msg.sender == _nftMarketPlaceAddress,\n      \"LinosOwnable: not an owner\"\n    );\n    _;\n  }\n\n  modifier onlyOwnerOrLinosOwner() {\n    require(\n      msg.sender == owner() ||\n      msg.sender == _linosPlatformAddress || msg.sender == _nftFactoryAddress || msg.sender == _nftMarketPlaceAddress,\n      \"LinosOwnable: not an owner\"\n    );\n    _;\n  }\n\n  function setLinosPlatformAddress(address _add) public onlyOwner {\n    _linosPlatformAddress = _add;\n  }\n  function setNftFactoryAddress(address _add) public onlyOwner {\n    _nftFactoryAddress = _add;\n  }\n  function setNftMarketPlaceAddress(address _add) public onlyOwner {\n    _nftMarketPlaceAddress = _add;\n  }\n\n}",
  "sourcePath": "/Volumes/code/Alyra/Linos/truffle/contracts/LinosOwnable.sol",
  "compiler": {
    "name": "solc",
    "version": "0.8.17+commit.8df45f5f.Emscripten.clang"
  },
  "schemaVersion": "3.4.10",
  "updatedAt": "2022-12-11T13:53:04.821Z",
  "devdoc": {
    "kind": "dev",
    "methods": {
      "owner()": {
        "details": "Returns the address of the current owner."
      },
      "renounceOwnership()": {
        "details": "Leaves the contract without owner. It will not be possible to call `onlyOwner` functions anymore. Can only be called by the current owner. NOTE: Renouncing ownership will leave the contract without an owner, thereby removing any functionality that is only available to the owner."
      },
      "transferOwnership(address)": {
        "details": "Transfers ownership of the contract to a new account (`newOwner`). Can only be called by the current owner."
      }
    },
    "version": 1
  },
  "userdoc": {
    "kind": "user",
    "methods": {},
    "version": 1
  }
}