{
  "contractName": "LinosPlatform",
  "abi": [
    {
      "inputs": [],
      "stateMutability": "nonpayable",
      "type": "constructor"
    },
    {
      "anonymous": false,
      "inputs": [
        {
          "indexed": false,
          "internalType": "address",
          "name": "artistAddress",
          "type": "address"
        },
        {
          "indexed": false,
          "internalType": "string",
          "name": "name",
          "type": "string"
        }
      ],
      "name": "ArtistRegistered",
      "type": "event"
    },
    {
      "anonymous": false,
      "inputs": [
        {
          "indexed": true,
          "internalType": "address",
          "name": "previousOwner",
          "type": "address"
        },
        {
          "indexed": true,
          "internalType": "address",
          "name": "newOwner",
          "type": "address"
        }
      ],
      "name": "OwnershipTransferred",
      "type": "event"
    },
    {
      "stateMutability": "payable",
      "type": "fallback",
      "payable": true
    },
    {
      "inputs": [
        {
          "internalType": "address",
          "name": "",
          "type": "address"
        },
        {
          "internalType": "uint256",
          "name": "",
          "type": "uint256"
        }
      ],
      "name": "artistTracks",
      "outputs": [
        {
          "internalType": "string",
          "name": "name",
          "type": "string"
        },
        {
          "internalType": "string",
          "name": "coverUri",
          "type": "string"
        }
      ],
      "stateMutability": "view",
      "type": "function",
      "constant": true
    },
    {
      "inputs": [
        {
          "internalType": "address",
          "name": "",
          "type": "address"
        }
      ],
      "name": "artists",
      "outputs": [
        {
          "internalType": "string",
          "name": "name",
          "type": "string"
        },
        {
          "internalType": "address",
          "name": "fanTokenAddress",
          "type": "address"
        },
        {
          "internalType": "bool",
          "name": "isRegistered",
          "type": "bool"
        },
        {
          "internalType": "bool",
          "name": "isValid",
          "type": "bool"
        }
      ],
      "stateMutability": "view",
      "type": "function",
      "constant": true
    },
    {
      "inputs": [],
      "name": "listenTokenAddress",
      "outputs": [
        {
          "internalType": "address",
          "name": "",
          "type": "address"
        }
      ],
      "stateMutability": "view",
      "type": "function",
      "constant": true
    },
    {
      "inputs": [],
      "name": "nftFactoryAddress",
      "outputs": [
        {
          "internalType": "address",
          "name": "",
          "type": "address"
        }
      ],
      "stateMutability": "view",
      "type": "function",
      "constant": true
    },
    {
      "inputs": [],
      "name": "nftMarketPlaceAddress",
      "outputs": [
        {
          "internalType": "address",
          "name": "",
          "type": "address"
        }
      ],
      "stateMutability": "view",
      "type": "function",
      "constant": true
    },
    {
      "inputs": [],
      "name": "owner",
      "outputs": [
        {
          "internalType": "address",
          "name": "",
          "type": "address"
        }
      ],
      "stateMutability": "view",
      "type": "function",
      "constant": true
    },
    {
      "inputs": [],
      "name": "renounceOwnership",
      "outputs": [],
      "stateMutability": "nonpayable",
      "type": "function"
    },
    {
      "inputs": [
        {
          "internalType": "address",
          "name": "newOwner",
          "type": "address"
        }
      ],
      "name": "transferOwnership",
      "outputs": [],
      "stateMutability": "nonpayable",
      "type": "function"
    },
    {
      "inputs": [
        {
          "internalType": "address",
          "name": "",
          "type": "address"
        }
      ],
      "name": "users",
      "outputs": [
        {
          "internalType": "string",
          "name": "name",
          "type": "string"
        },
        {
          "internalType": "bool",
          "name": "isRegistered",
          "type": "bool"
        }
      ],
      "stateMutability": "view",
      "type": "function",
      "constant": true
    },
    {
      "stateMutability": "payable",
      "type": "receive",
      "payable": true
    },
    {
      "inputs": [
        {
          "internalType": "address",
          "name": "to",
          "type": "address"
        },
        {
          "internalType": "uint256",
          "name": "amount",
          "type": "uint256"
        }
      ],
      "name": "mintListenToken",
      "outputs": [],
      "stateMutability": "nonpayable",
      "type": "function"
    },
    {
      "inputs": [
        {
          "internalType": "address",
          "name": "artistAddress",
          "type": "address"
        },
        {
          "internalType": "uint256",
          "name": "amount",
          "type": "uint256"
        }
      ],
      "name": "boostArtist",
      "outputs": [],
      "stateMutability": "nonpayable",
      "type": "function"
    },
    {
      "inputs": [
        {
          "internalType": "address",
          "name": "artistAddress",
          "type": "address"
        }
      ],
      "name": "getArtist",
      "outputs": [
        {
          "components": [
            {
              "internalType": "string",
              "name": "name",
              "type": "string"
            },
            {
              "internalType": "address",
              "name": "fanTokenAddress",
              "type": "address"
            },
            {
              "internalType": "bool",
              "name": "isRegistered",
              "type": "bool"
            },
            {
              "internalType": "bool",
              "name": "isValid",
              "type": "bool"
            }
          ],
          "internalType": "struct LinosPlatformInterface.Artist",
          "name": "",
          "type": "tuple"
        }
      ],
      "stateMutability": "view",
      "type": "function",
      "constant": true
    },
    {
      "inputs": [
        {
          "internalType": "address",
          "name": "userAddress",
          "type": "address"
        }
      ],
      "name": "getUser",
      "outputs": [
        {
          "components": [
            {
              "internalType": "string",
              "name": "name",
              "type": "string"
            },
            {
              "internalType": "bool",
              "name": "isRegistered",
              "type": "bool"
            }
          ],
          "internalType": "struct LinosPlatformInterface.User",
          "name": "",
          "type": "tuple"
        }
      ],
      "stateMutability": "view",
      "type": "function",
      "constant": true
    },
    {
      "inputs": [
        {
          "internalType": "address",
          "name": "artistAddress",
          "type": "address"
        }
      ],
      "name": "isArtistValid",
      "outputs": [
        {
          "internalType": "bool",
          "name": "",
          "type": "bool"
        }
      ],
      "stateMutability": "view",
      "type": "function",
      "constant": true
    },
    {
      "inputs": [
        {
          "internalType": "string",
          "name": "_artistName",
          "type": "string"
        },
        {
          "internalType": "string",
          "name": "_symbol",
          "type": "string"
        }
      ],
      "name": "registerAsArtist",
      "outputs": [],
      "stateMutability": "nonpayable",
      "type": "function"
    },
    {
      "inputs": [
        {
          "internalType": "string",
          "name": "_userName",
          "type": "string"
        }
      ],
      "name": "registerAsUser",
      "outputs": [],
      "stateMutability": "nonpayable",
      "type": "function"
    },
    {
      "inputs": [
        {
          "internalType": "string",
          "name": "_name",
          "type": "string"
        },
        {
          "internalType": "string",
          "name": "_coverUri",
          "type": "string"
        }
      ],
      "name": "createTrack",
      "outputs": [],
      "stateMutability": "nonpayable",
      "type": "function"
    }
  ],
  "bytecode": "0x60806040523480156200001157600080fd5b506200003862000029640100000000620002ab810204565b640100000000620002af810204565b60006040516200004890620002ff565b604051809103906000f08015801562000065573d6000803e3d6000fd5b506040517f3d18678e00000000000000000000000000000000000000000000000000000000815260056004820152909150600160a060020a03821690633d18678e90602401600060405180830381600087803b158015620000c557600080fd5b505af1158015620000da573d6000803e3d6000fd5b50506040517f517679cd000000000000000000000000000000000000000000000000000000008152306004820152600160a060020a038416925063517679cd9150602401600060405180830381600087803b1580156200013957600080fd5b505af11580156200014e573d6000803e3d6000fd5b505060038054600160a060020a031916600160a060020a038516179055505060405130906200017d906200030d565b600160a060020a039091168152602001604051809103906000f080158015620001aa573d6000803e3d6000fd5b50600160006101000a815481600160a060020a030219169083600160a060020a031602179055503081604051620001e1906200031b565b600160a060020a03928316815291166020820152604001604051809103906000f08015801562000215573d6000803e3d6000fd5b5060028054600160a060020a031916600160a060020a039283169081179091556040517fae3ca41e00000000000000000000000000000000000000000000000000000000815260048101919091529082169063ae3ca41e90602401600060405180830381600087803b1580156200028b57600080fd5b505af1158015620002a0573d6000803e3d6000fd5b505050505062000329565b3390565b60008054600160a060020a03838116600160a060020a0319831681178455604051919092169283917f8be0079c531659141344cd1fd0a4f28419497f9722a3daafe3b4186f6b6457e09190a35050565b61135b8062002bd483390190565b61114f8062003f2f83390190565b613e78806200507e83390190565b61289b80620003396000396000f3fe60806040526004361062000128576000357c01000000000000000000000000000000000000000000000000000000009004806397c49d4911620000b8578063d40ee97b1162000086578063d40ee97b146200037e578063ee7d159614620003a0578063f2fde38b14620003c2578063f3720cca14620003e7578063fe8f03e6146200040c57005b806397c49d491462000298578063a87430ba14620002bd578063b949c80414620002f2578063ba7eea15146200032657005b8063715018a611620000f6578063715018a614620001f05780637b3ee633146200020857806381435586146200023d5780638da5cb5b146200027857005b8063069dab8f1462000132578063515ef10614620001725780636f77926b1462000197578063701fe33e14620001cb57005b366200013057005b005b3480156200013f57600080fd5b506200015762000151366004620011e8565b62000431565b60405162000169949392919062001255565b60405180910390f35b3480156200017f57600080fd5b506200013062000191366004620012dd565b620004fc565b348015620001a457600080fd5b50620001bc620001b6366004620011e8565b6200065a565b60405162000169919062001323565b348015620001d857600080fd5b5062000130620001ea36600462001359565b62000741565b348015620001fd57600080fd5b5062000130620009b5565b3480156200021557600080fd5b506200022d62000227366004620013cc565b620009cd565b60405162000169929190620013f9565b3480156200024a57600080fd5b506001546200025f90600160a060020a031681565b604051600160a060020a03909116815260200162000169565b3480156200028557600080fd5b50600054600160a060020a03166200025f565b348015620002a557600080fd5b5062000130620002b7366004620013cc565b62000b2f565b348015620002ca57600080fd5b50620002e2620002dc366004620011e8565b62000bbe565b604051620001699291906200142b565b348015620002ff57600080fd5b506200031762000311366004620011e8565b62000c6d565b60405162000169919062001451565b3480156200033357600080fd5b506200036d62000345366004620011e8565b600160a060020a031660009081526005602052604090206001015460a860020a900460ff1690565b604051901515815260200162000169565b3480156200038b57600080fd5b506002546200025f90600160a060020a031681565b348015620003ad57600080fd5b506003546200025f90600160a060020a031681565b348015620003cf57600080fd5b5062000130620003e1366004620011e8565b62000d8b565b348015620003f457600080fd5b50620001306200040636600462001359565b62000e24565b3480156200041957600080fd5b50620001306200042b366004620013cc565b62000f64565b6005602052600090815260409020805481906200044e90620014a6565b80601f01602080910402602001604051908101604052809291908181526020018280546200047c90620014a6565b8015620004cd5780601f10620004a157610100808354040283529160200191620004cd565b820191906000526020600020905b815481529060010190602001808311620004af57829003601f168201915b50505060019093015491925050600160a060020a0381169060ff60a060020a820481169160a860020a90041684565b3360008181526005602052604090206001015460a060020a900460ff16156200056f5760405160e560020a62461bcd02815260206004820152601960248201527f41727469737420416c726561647920726567697374657265640000000000000060448201526064015b60405180910390fd5b3360008181526004602052604090206001015460ff1615620005d75760405160e560020a62461bcd02815260206004820152601760248201527f5573657220416c72656164792072656769737465726564000000000000000000604482015260640162000566565b6040805160606020601f87018190040282018101835291810185815290918291908790879081908501838280828437600092018290525093855250506001602093840152503381526004909152604090208151819062000638908262001579565b50602091909101516001909101805460ff191691151591909117905550505050565b604080518082019091526060815260006020820152600160a060020a038216600090815260046020526040908190208151808301909252805482908290620006a290620014a6565b80601f0160208091040260200160405190810160405280929190818152602001828054620006d090620014a6565b8015620007215780601f10620006f55761010080835404028352916020019162000721565b820191906000526020600020905b8154815290600101906020018083116200070357829003601f168201915b50505091835250506001919091015460ff16151560209091015292915050565b3360008181526005602052604090206001015460a060020a900460ff1615620007b05760405160e560020a62461bcd02815260206004820152601960248201527f41727469737420416c7265616479207265676973746572656400000000000000604482015260640162000566565b3360008181526004602052604090206001015460ff1615620008185760405160e560020a62461bcd02815260206004820152601760248201527f5573657220416c72656164792072656769737465726564000000000000000000604482015260640162000566565b600086868686604051602001620008319291906200164c565b604051602081830303815290604052306040516200084f90620011bd565b6200085e9493929190620016ae565b604051809103906000f0801580156200087b573d6000803e3d6000fd5b506040805160a06020601f8b018190040282018101909252608081018981529293509182918a908a90819085018382808284376000920182905250938552505050600160a060020a03841660208084019190915260016040808501829052606090940152338252600590522081518190620008f7908262001579565b50602082015160019091018054604080850151606090950151151560a860020a0275ff0000000000000000000000000000000000000000001995151560a060020a0274ffffffffffffffffffffffffffffffffffffffffff19909316600160a060020a03909516949094179190911793909316919091179055517fd4fd8fd455c3fdfe36126d7de16d1f208385873ff3250ddf3bc9b833ba2b7e3590620009a49033908a908a90620016f3565b60405180910390a150505050505050565b620009bf62001101565b620009cb600062001160565b565b60066020528160005260406000208181548110620009ea57600080fd5b90600052602060002090600202016000915091505080600001805462000a1090620014a6565b80601f016020809104026020016040519081016040528092919081815260200182805462000a3e90620014a6565b801562000a8f5780601f1062000a635761010080835404028352916020019162000a8f565b820191906000526020600020905b81548152906001019060200180831162000a7157829003601f168201915b50505050509080600101805462000aa690620014a6565b80601f016020809104026020016040519081016040528092919081815260200182805462000ad490620014a6565b801562000b255780601f1062000af95761010080835404028352916020019162000b25565b820191906000526020600020905b81548152906001019060200180831162000b0757829003601f168201915b5050505050905082565b62000b3962001101565b6001546040517f40c10f19000000000000000000000000000000000000000000000000000000008152600160a060020a03848116600483015260248201849052909116906340c10f1990604401600060405180830381600087803b15801562000ba157600080fd5b505af115801562000bb6573d6000803e3d6000fd5b505050505050565b60046020526000908152604090208054819062000bdb90620014a6565b80601f016020809104026020016040519081016040528092919081815260200182805462000c0990620014a6565b801562000c5a5780601f1062000c2e5761010080835404028352916020019162000c5a565b820191906000526020600020905b81548152906001019060200180831162000c3c57829003601f168201915b5050506001909301549192505060ff1682565b604080516080810182526060808252600060208301819052928201839052810191909152600160a060020a0382166000908152600560205260409081902081516080810190925280548290829062000cc590620014a6565b80601f016020809104026020016040519081016040528092919081815260200182805462000cf390620014a6565b801562000d445780601f1062000d185761010080835404028352916020019162000d44565b820191906000526020600020905b81548152906001019060200180831162000d2657829003601f168201915b505050918352505060019190910154600160a060020a038116602083015260ff60a060020a820481161515604084015260a860020a90910416151560609091015292915050565b62000d9562001101565b600160a060020a03811662000e165760405160e560020a62461bcd02815260206004820152602660248201527f4f776e61626c653a206e6577206f776e657220697320746865207a65726f206160448201527f6464726573730000000000000000000000000000000000000000000000000000606482015260840162000566565b62000e218162001160565b50565b3360008181526005602052604090206001015460a860020a900460ff1662000e925760405160e560020a62461bcd02815260206004820152601360248201527f417274697374206973206e6f742076616c696400000000000000000000000000604482015260640162000566565b3360009081526006602090815260409182902082516060601f89018490049093028101830184529283018781529092918291908990899081908501838280828437600092019190915250505090825250604080516020601f880181900481028201810190925286815291810191908790879081908401838280828437600092018290525093909452505083546001810185559381526020902082519293600202019182915062000f43908262001579565b506020820151600182019062000f5a908262001579565b5050505050505050565b600160a060020a038216600090815260056020526040902060010154829060a860020a900460ff1662000fdd5760405160e560020a62461bcd02815260206004820152601360248201527f417274697374206973206e6f742076616c696400000000000000000000000000604482015260640162000566565b60018054600160a060020a03858116600090815260056020526040908190209093015492517f40c10f190000000000000000000000000000000000000000000000000000000081523360048201526024810186905291811692169081906340c10f1990604401600060405180830381600087803b1580156200105e57600080fd5b505af115801562001073573d6000803e3d6000fd5b50506040517f360f4fdf000000000000000000000000000000000000000000000000000000008152336004820152600160a060020a038881166024830152604482018890528516925063360f4fdf9150606401600060405180830381600087803b158015620010e157600080fd5b505af1158015620010f6573d6000803e3d6000fd5b505050505050505050565b600054600160a060020a03163314620009cb5760405160e560020a62461bcd02815260206004820181905260248201527f4f776e61626c653a2063616c6c6572206973206e6f7420746865206f776e6572604482015260640162000566565b60008054600160a060020a0383811673ffffffffffffffffffffffffffffffffffffffff19831681178455604051919092169283917f8be0079c531659141344cd1fd0a4f28419497f9722a3daafe3b4186f6b6457e09190a35050565b61114d806200171983390190565b8035600160a060020a0381168114620011e357600080fd5b919050565b600060208284031215620011fb57600080fd5b6200120682620011cb565b9392505050565b6000815180845260005b81811015620012355760208185018101518683018201520162001217565b506000602082860101526020601f19601f83011685010191505092915050565b6080815260006200126a60808301876200120d565b600160a060020a039590951660208301525091151560408301521515606090910152919050565b60008083601f840112620012a457600080fd5b50813567ffffffffffffffff811115620012bd57600080fd5b602083019150836020828501011115620012d657600080fd5b9250929050565b60008060208385031215620012f157600080fd5b823567ffffffffffffffff8111156200130957600080fd5b620013178582860162001291565b90969095509350505050565b6020815260008251604060208401526200134160608401826200120d565b90506020840151151560408401528091505092915050565b600080600080604085870312156200137057600080fd5b843567ffffffffffffffff808211156200138957600080fd5b620013978883890162001291565b90965094506020870135915080821115620013b157600080fd5b50620013c08782880162001291565b95989497509550505050565b60008060408385031215620013e057600080fd5b620013eb83620011cb565b946020939093013593505050565b6040815260006200140e60408301856200120d565b82810360208401526200142281856200120d565b95945050505050565b6040815260006200144060408301856200120d565b905082151560208301529392505050565b6020815260008251608060208401526200146f60a08401826200120d565b9050600160a060020a0360208501511660408401526040840151151560608401526060840151151560808401528091505092915050565b600281046001821680620014bb57607f821691505b602082108103620014f5577f4e487b7100000000000000000000000000000000000000000000000000000000600052602260045260246000fd5b50919050565b7f4e487b7100000000000000000000000000000000000000000000000000000000600052604160045260246000fd5b601f82111562001574576000818152602081206020601f86010481016020861015620015535750805b6020601f860104820191505b8181101562000bb6578281556001016200155f565b505050565b815167ffffffffffffffff811115620015965762001596620014fb565b620015ae81620015a78454620014a6565b846200152a565b602080601f831160018114620015ea5760008415620015cd5750858301515b60028086026008870290910a600019041982161786555062000bb6565b600085815260208120601f198616915b828110156200161b57888601518255948401946001909101908401620015fa565b50858210156200163c57878501516008601f88160260020a60001904191681555b5050505050600202600101905550565b7f4c2d00000000000000000000000000000000000000000000000000000000000081528183600283013760009101600201908152919050565b81835281816020850137506000828201602090810191909152601f909101601f19169091010190565b606081526000620016c460608301868862001685565b8281036020840152620016d881866200120d565b915050600160a060020a038316604083015295945050505050565b600160a060020a0384168152604060208201526000620014226040830184866200168556fe60806040526005805460a060020a60ff02191690553480156200002157600080fd5b506040516200114d3803806200114d8339810160408190526200004491620001ef565b8282600362000054838262000324565b50600462000063828262000324565b5050506200009262000083620000bb640100000000026401000000009004565b640100000000620000bf810204565b60068054600160a060020a031916600160a060020a039290921691909117905550620003f69050565b3390565b60058054600160a060020a03838116600160a060020a0319831681179093556040519116919082907f8be0079c531659141344cd1fd0a4f28419497f9722a3daafe3b4186f6b6457e090600090a35050565b7f4e487b7100000000000000000000000000000000000000000000000000000000600052604160045260246000fd5b600082601f8301126200015257600080fd5b81516001604060020a03808211156200016f576200016f62000111565b604051601f8301601f19908116603f011681019082821181831017156200019a576200019a62000111565b81604052838152602092508683858801011115620001b757600080fd5b600091505b83821015620001db5785820183015181830184015290820190620001bc565b600093810190920192909252949350505050565b6000806000606084860312156200020557600080fd5b83516001604060020a03808211156200021d57600080fd5b6200022b8783880162000140565b945060208601519150808211156200024257600080fd5b50620002518682870162000140565b60408601519093509050600160a060020a03811681146200027157600080fd5b809150509250925092565b6002810460018216806200029157607f821691505b602082108103620002cb577f4e487b7100000000000000000000000000000000000000000000000000000000600052602260045260246000fd5b50919050565b601f8211156200031f576000818152602081206020601f86010481016020861015620002fa5750805b6020601f860104820191505b818110156200031b5782815560010162000306565b5050505b505050565b81516001604060020a0381111562000340576200034062000111565b62000358816200035184546200027c565b84620002d1565b602080601f831160018114620003945760008415620003775750858301515b60028086026008870290910a60001904198216178655506200031b565b600085815260208120601f198616915b82811015620003c557888601518255948401946001909101908401620003a4565b5085821015620003e657878501516008601f88160260020a60001904191681555b5050505050600202600101905550565b610d4780620004066000396000f3fe608060405234801561001057600080fd5b5060043610610128576000357c01000000000000000000000000000000000000000000000000000000009004806370a08231116100bf578063a457c2d71161008e578063a457c2d714610231578063a9059cbb14610244578063dd62ed3e14610257578063f1e9d2031461026a578063f2fde38b1461027257600080fd5b806370a08231146101dd578063715018a6146102065780638da5cb5b1461020e57806395d89b411461022957600080fd5b8063313ce567116100fb578063313ce56714610193578063360f4fdf146101a257806339509351146101b757806340c10f19146101ca57600080fd5b806306fdde031461012d578063095ea7b31461014b57806318160ddd1461016e57806323b872dd14610180575b600080fd5b610135610285565b6040516101429190610b5f565b60405180910390f35b61015e610159366004610bc9565b610317565b6040519015158152602001610142565b6002545b604051908152602001610142565b61015e61018e366004610bf3565b610331565b60405160128152602001610142565b6101b56101b0366004610bf3565b610355565b005b61015e6101c5366004610bc9565b61036d565b6101b56101d8366004610bc9565b61038f565b6101726101eb366004610c2f565b600160a060020a031660009081526020819052604090205490565b6101b56103a5565b600554604051600160a060020a039091168152602001610142565b6101356103b9565b61015e61023f366004610bc9565b6103c8565b61015e610252366004610bc9565b610463565b610172610265366004610c51565b610471565b6101b561049c565b6101b5610280366004610c2f565b6104e7565b60606003805461029490610c84565b80601f01602080910402602001604051908101604052809291908181526020018280546102c090610c84565b801561030d5780601f106102e25761010080835404028352916020019161030d565b820191906000526020600020905b8154815290600101906020018083116102f057829003601f168201915b5050505050905090565b60003361032581858561057a565b60019150505b92915050565b60003361033f8582856106d8565b61034a858585610755565b506001949350505050565b61035d610956565b610368838383610755565b505050565b6000336103258185856103808383610471565b61038a9190610cd7565b61057a565b610397610956565b6103a182826109b3565b5050565b6103ad610956565b6103b76000610a81565b565b60606004805461029490610c84565b600033816103d68286610471565b9050838110156104565760405160e560020a62461bcd02815260206004820152602560248201527f45524332303a2064656372656173656420616c6c6f77616e63652062656c6f7760448201527f207a65726f00000000000000000000000000000000000000000000000000000060648201526084015b60405180910390fd5b61034a828686840361057a565b600033610325818585610755565b600160a060020a03918216600090815260016020908152604080832093909416825291909152205490565b6104a4610956565b6005805474ff0000000000000000000000000000000000000000198116740100000000000000000000000000000000000000009182900460ff1615909102179055565b6104ef610956565b600160a060020a03811661056e5760405160e560020a62461bcd02815260206004820152602660248201527f4f776e61626c653a206e6577206f776e657220697320746865207a65726f206160448201527f6464726573730000000000000000000000000000000000000000000000000000606482015260840161044d565b61057781610a81565b50565b600160a060020a0383166105f85760405160e560020a62461bcd028152602060048201526024808201527f45524332303a20617070726f76652066726f6d20746865207a65726f2061646460448201527f7265737300000000000000000000000000000000000000000000000000000000606482015260840161044d565b600160a060020a0382166106775760405160e560020a62461bcd02815260206004820152602260248201527f45524332303a20617070726f766520746f20746865207a65726f20616464726560448201527f7373000000000000000000000000000000000000000000000000000000000000606482015260840161044d565b600160a060020a0383811660008181526001602090815260408083209487168084529482529182902085905590518481527f8c5be1e5ebec7d5bd14f71427d1e84f3dd0314c0f7b2291e5b200ac8c7c3b925910160405180910390a3505050565b60006106e48484610471565b9050600019811461074f57818110156107425760405160e560020a62461bcd02815260206004820152601d60248201527f45524332303a20696e73756666696369656e7420616c6c6f77616e6365000000604482015260640161044d565b61074f848484840361057a565b50505050565b600160a060020a0383166107d45760405160e560020a62461bcd02815260206004820152602560248201527f45524332303a207472616e736665722066726f6d20746865207a65726f20616460448201527f6472657373000000000000000000000000000000000000000000000000000000606482015260840161044d565b600160a060020a0382166108535760405160e560020a62461bcd02815260206004820152602360248201527f45524332303a207472616e7366657220746f20746865207a65726f206164647260448201527f6573730000000000000000000000000000000000000000000000000000000000606482015260840161044d565b61085e838383610ae0565b600160a060020a038316600090815260208190526040902054818110156108f05760405160e560020a62461bcd02815260206004820152602660248201527f45524332303a207472616e7366657220616d6f756e742065786365656473206260448201527f616c616e63650000000000000000000000000000000000000000000000000000606482015260840161044d565b600160a060020a03848116600081815260208181526040808320878703905593871680835291849020805487019055925185815290927fddf252ad1be2c89b69c2b068fc378daa952ba7f163c4a11628f55a4df523b3ef910160405180910390a361074f565b600554600160a060020a031633146103b75760405160e560020a62461bcd02815260206004820181905260248201527f4f776e61626c653a2063616c6c6572206973206e6f7420746865206f776e6572604482015260640161044d565b600160a060020a038216610a0c5760405160e560020a62461bcd02815260206004820152601f60248201527f45524332303a206d696e7420746f20746865207a65726f206164647265737300604482015260640161044d565b610a1860008383610ae0565b8060026000828254610a2a9190610cd7565b9091555050600160a060020a038216600081815260208181526040808320805486019055518481527fddf252ad1be2c89b69c2b068fc378daa952ba7f163c4a11628f55a4df523b3ef910160405180910390a35050565b60058054600160a060020a0383811673ffffffffffffffffffffffffffffffffffffffff19831681179093556040519116919082907f8be0079c531659141344cd1fd0a4f28419497f9722a3daafe3b4186f6b6457e090600090a35050565b600554600160a060020a031633146103685760055474010000000000000000000000000000000000000000900460ff166103685760405160e560020a62461bcd02815260206004820152601f60248201527f546f6b656e207472616e736665727320617265206e6f7420616c6c6f77656400604482015260640161044d565b600060208083528351808285015260005b81811015610b8c57858101830151858201604001528201610b70565b506000604082860101526040601f19601f8301168501019250505092915050565b8035600160a060020a0381168114610bc457600080fd5b919050565b60008060408385031215610bdc57600080fd5b610be583610bad565b946020939093013593505050565b600080600060608486031215610c0857600080fd5b610c1184610bad565b9250610c1f60208501610bad565b9150604084013590509250925092565b600060208284031215610c4157600080fd5b610c4a82610bad565b9392505050565b60008060408385031215610c6457600080fd5b610c6d83610bad565b9150610c7b60208401610bad565b90509250929050565b600281046001821680610c9857607f821691505b602082108103610cd1577f4e487b7100000000000000000000000000000000000000000000000000000000600052602260045260246000fd5b50919050565b8082018082111561032b577f4e487b7100000000000000000000000000000000000000000000000000000000600052601160045260246000fdfea264697066735822122049c0d6bbe0e2f98336c97177459aea10849cd9a4fa6838a68f04f194d21096c464736f6c63430008110033a264697066735822122057ab4c2140d47b256e100c6c543966feb97d8fdac2763a5068de1a9476c4418964736f6c63430008110033608060405261271060055534801561001657600080fd5b5061003961002b64010000000061003e810204565b640100000000610042810204565b610092565b3390565b60008054600160a060020a03838116600160a060020a0319831681178455604051919092169283917f8be0079c531659141344cd1fd0a4f28419497f9722a3daafe3b4186f6b6457e09190a35050565b6112ba806100a16000396000f3fe6080604052600436106100df576000357c010000000000000000000000000000000000000000000000000000000090048063715018a61161009c5780639af1d35a116100765780639af1d35a14610278578063ae3ca41e1461028e578063e7d215e9146102ae578063f2fde38b146102ce57600080fd5b8063715018a6146102185780638da5cb5b1461022d5780639979c0091461025557600080fd5b8063107a274a146100e4578063305a67a8146101685780633919e4f51461018a5780633d18678e146101b85780634d713868146101d8578063517679cd146101f8575b600080fd5b3480156100f057600080fd5b506101046100ff3660046110ea565b6102ee565b60405161015f9190600060c082019050600160a060020a038084511683528060208501511660208401525060408301516040830152606083015160608301526080830151608083015260a0830151151560a083015292915050565b60405180910390f35b34801561017457600080fd5b506101886101833660046110ea565b6103f6565b005b34801561019657600080fd5b506101aa6101a536600461111f565b61051d565b60405190815260200161015f565b3480156101c457600080fd5b506101886101d33660046110ea565b61093a565b3480156101e457600080fd5b506101886101f3366004611158565b61099b565b34801561020457600080fd5b50610188610213366004611158565b610a46565b34801561022457600080fd5b50610188610a7d565b34801561023957600080fd5b50600054604051600160a060020a03909116815260200161015f565b61026861026336600461117a565b610a91565b604051901515815260200161015f565b34801561028457600080fd5b506101aa60045481565b34801561029a57600080fd5b506101886102a9366004611158565b610f2f565b3480156102ba57600080fd5b506101886102c9366004611158565b610f66565b3480156102da57600080fd5b506101886102e9366004611158565b610f9d565b6040805160c081018252600080825260208201819052918101829052606081018290526080810182905260a0810191909152600082815260086020526040902054600160a060020a031661038c5760405160e560020a62461bcd02815260206004820152601c60248201527f54686973206c697374696e6720646f6573206e6f74206578697374730000000060448201526064015b60405180910390fd5b50600090815260086020908152604091829020825160c0810184528154600160a060020a03908116825260018301541692810192909252600281015492820192909252600382015460608201526004820154608082015260059091015460ff16151560a082015290565b600081815260086020526040902054600160a060020a0316331461045f5760405160e560020a62461bcd02815260206004820152601960248201527f54686973206c697374696e67206973206e6f7420796f757273000000000000006044820152606401610383565b60008181526008602052604090206005015460ff16156104c45760405160e560020a62461bcd02815260206004820152601860248201527f6c697374696e6720616c72656164792063616e63656c656400000000000000006044820152606401610383565b60008181526008602052604090819020600501805460ff19166001179055517f121235da9a2dca4523b6692d39233c871160f0d73bee2cb96747ec05412b42f1906105129083815260200190565b60405180910390a150565b60008083116105975760405160e560020a62461bcd02815260206004820152603860248201527f54686520616d6f756e74206f6620746f6b656e7320746f2073656c6c2c206e6560448201527f65647320746f2062652067726561746572207468616e203000000000000000006064820152608401610383565b600082116106105760405160e560020a62461bcd02815260206004820152603760248201527f5468652066756c6c20707269636520666f722074686520746f6b656e73206e6560448201527f656420746f2062652067726561746572207468616e20300000000000000000006064820152608401610383565b6040517fe985e9c50000000000000000000000000000000000000000000000000000000081523360048201523060248201528590600160a060020a0382169063e985e9c590604401602060405180830381865afa158015610675573d6000803e3d6000fd5b505050506040513d601f19601f82011682018060405250810190610699919061119c565b6106e85760405160e560020a62461bcd02815260206004820152601c60248201527f596f75206d75737420617070726f7665206265666f7265206c697374000000006044820152606401610383565b6040517efdd58e000000000000000000000000000000000000000000000000000000008152336004820152602481018690528490600160a060020a0383169062fdd58e90604401602060405180830381865afa15801561074c573d6000803e3d6000fd5b505050506040513d601f19601f8201168201806040525081019061077091906111be565b10156107c15760405160e560020a62461bcd02815260206004820152601d60248201527f596f7520646f6e2774206861766520656e6f7567687420746f6b656e730000006044820152606401610383565b6040805160c08101825233808252600160a060020a0389811660208085018281528587018c8152606087018c8152608088018c8152600060a08a01818152600780548352600888528c83209b518c54908b1673ffffffffffffffffffffffffffffffffffffffff19918216178d55965160018d01805491909b16971696909617909855925160028a01559051600389015551600488015593516005909601805496151560ff19909716969096179095559354818352600985528583208b84528552858320819055908252600a8452848220819055828252600b90935283902082905591517fa7cbbbd174aea7fee3a11581da385f48dbbe1e3d361ebc43a183beec20abd7cf926109049290918a918a918990600160a060020a03958616815293909416602084015260408301919091526060820152608081019190915260a00190565b60405180910390a16007805490600061091c83611206565b91905055506001600754610930919061121f565b9695505050505050565b610942611030565b60055481106109965760405160e560020a62461bcd02815260206004820152601360248201527f46656573206d757374206265203c2039393939000000000000000000000000006044820152606401610383565b600455565b600154600160a060020a03163314806109be5750600254600160a060020a031633145b806109d35750600354600160a060020a031633145b610a225760405160e560020a62461bcd02815260206004820152601a60248201527f4c696e6f734f776e61626c653a206e6f7420616e206f776e65720000000000006044820152606401610383565b600160a060020a03166000908152600660205260409020805460ff19166001179055565b610a4e611030565b6001805473ffffffffffffffffffffffffffffffffffffffff1916600160a060020a0392909216919091179055565b610a85611030565b610a8f600061108d565b565b6000808211610ae55760405160e560020a62461bcd02815260206004820152601d60248201527f596f75206d75737420627579206174206c65617374203120746f6b656e0000006044820152606401610383565b600083815260086020526040902054600160a060020a0316610b4c5760405160e560020a62461bcd02815260206004820152601c60248201527f54686973206c697374696e6720646f6573206e6f7420657869737473000000006044820152606401610383565b600083815260086020526040902060030154821115610bb05760405160e560020a62461bcd02815260206004820152601960248201527f4e6f7420656e6f7567687420746f6b656e20746f2073656c6c000000000000006044820152606401610383565b6000838152600860205260409020600401543490610bcf908490611232565b14610c455760405160e560020a62461bcd02815260206004820152603b60248201527f596f75206d757374207061792065786163746c7920746865207072696365207060448201527f657220746f6b656e202a20616d6f756e742070657220746f6b656e00000000006064820152608401610383565b600083815260086020526040902060030154610c6290839061121f565b60008481526008602052604080822060038101939093556001830154835460029094015491517ff242432a000000000000000000000000000000000000000000000000000000008152600160a060020a03948516600482015233602482015260448101929092526064820186905260a0608483015260a4820192909252911690819063f242432a9060c401600060405180830381600087803b158015610d0757600080fd5b505af1158015610d1b573d6000803e3d6000fd5b505060055460045434935060009250610d35908490611232565b610d3f9190611249565b90506000610d4d828461121f565b6000888152600860205260408082205490519293509091600160a060020a039091169083908381818185875af1925050503d8060008114610daa576040519150601f19603f3d011682016040523d82523d6000602084013e610daf565b606091505b505090506000610dc7600054600160a060020a031690565b600160a060020a03168460405160006040518083038185875af1925050503d8060008114610e11576040519150601f19603f3d011682016040523d82523d6000602084013e610e16565b606091505b5050905081610e6a5760405160e560020a62461bcd02815260206004820152601960248201527f5472616e73666572206661696c656420746f2053656c6c6572000000000000006044820152606401610383565b80610eba5760405160e560020a62461bcd02815260206004820152601860248201527f5472616e73666572206661696c656420746f204f776e657200000000000000006044820152606401610383565b600089815260086020908152604091829020548251338152600160a060020a03909116918101919091529081018a9052606081018990527f797abd7322a72df2fd9412f6ff5500e993efb298450cc1d7e9fd84e296592b089060800160405180910390a1600196505050505050505b92915050565b610f37611030565b6002805473ffffffffffffffffffffffffffffffffffffffff1916600160a060020a0392909216919091179055565b610f6e611030565b6003805473ffffffffffffffffffffffffffffffffffffffff1916600160a060020a0392909216919091179055565b610fa5611030565b600160a060020a0381166110245760405160e560020a62461bcd02815260206004820152602660248201527f4f776e61626c653a206e6577206f776e657220697320746865207a65726f206160448201527f64647265737300000000000000000000000000000000000000000000000000006064820152608401610383565b61102d8161108d565b50565b600054600160a060020a03163314610a8f5760405160e560020a62461bcd02815260206004820181905260248201527f4f776e61626c653a2063616c6c6572206973206e6f7420746865206f776e65726044820152606401610383565b60008054600160a060020a0383811673ffffffffffffffffffffffffffffffffffffffff19831681178455604051919092169283917f8be0079c531659141344cd1fd0a4f28419497f9722a3daafe3b4186f6b6457e09190a35050565b6000602082840312156110fc57600080fd5b5035919050565b8035600160a060020a038116811461111a57600080fd5b919050565b6000806000806080858703121561113557600080fd5b61113e85611103565b966020860135965060408601359560600135945092505050565b60006020828403121561116a57600080fd5b61117382611103565b9392505050565b6000806040838503121561118d57600080fd5b50508035926020909101359150565b6000602082840312156111ae57600080fd5b8151801515811461117357600080fd5b6000602082840312156111d057600080fd5b5051919050565b7f4e487b7100000000000000000000000000000000000000000000000000000000600052601160045260246000fd5b600060018201611218576112186111d7565b5060010190565b81810381811115610f2957610f296111d7565b8082028115828204841417610f2957610f296111d7565b60008261127f577f4e487b7100000000000000000000000000000000000000000000000000000000600052601260045260246000fd5b50049056fea264697066735822122097dda530e230b98aff3ac66d1c3282e5f8ea31db870536a396f5eb10ec72458464736f6c6343000811003360806040526005805460a060020a61ffff02191690553480156200002257600080fd5b506040516200114f3803806200114f83398101604081905262000045916200017c565b6040518060400160405280601281526020017f4c696e6f73204c697374656e20546f6b656e00000000000000000000000000008152506040518060400160405280600581526020017f4c494e4f530000000000000000000000000000000000000000000000000000008152508160039081620000c2919062000285565b506004620000d1828262000285565b50505062000100620000f162000126640100000000026401000000009004565b6401000000006200012a810204565b60068054600160a060020a031916600160a060020a039290921691909117905562000358565b3390565b60058054600160a060020a03838116600160a060020a0319831681179093556040519116919082907f8be0079c531659141344cd1fd0a4f28419497f9722a3daafe3b4186f6b6457e090600090a35050565b6000602082840312156200018f57600080fd5b8151600160a060020a0381168114620001a757600080fd5b9392505050565b7f4e487b7100000000000000000000000000000000000000000000000000000000600052604160045260246000fd5b600281046001821680620001f257607f821691505b6020821081036200022c577f4e487b7100000000000000000000000000000000000000000000000000000000600052602260045260246000fd5b50919050565b601f82111562000280576000818152602081206020601f860104810160208610156200025b5750805b6020601f860104820191505b818110156200027c5782815560010162000267565b5050505b505050565b815167ffffffffffffffff811115620002a257620002a2620001ae565b620002ba81620002b38454620001dd565b8462000232565b602080601f831160018114620002f65760008415620002d95750858301515b60028086026008870290910a60001904198216178655506200027c565b600085815260208120601f198616915b82811015620003275788860151825594840194600190910190840162000306565b50858210156200034857878501516008601f88160260020a60001904191681555b5050505050600202600101905550565b610de780620003686000396000f3fe608060405234801561001057600080fd5b5060043610610133576000357c010000000000000000000000000000000000000000000000000000000090048063715018a6116100bf578063a9059cbb1161008e578063a9059cbb1461024f578063dd62ed3e14610262578063de5f72fd14610275578063f1e9d2031461027d578063f2fde38b1461028557600080fd5b8063715018a6146102115780638da5cb5b1461021957806395d89b4114610234578063a457c2d71461023c57600080fd5b8063313ce56711610106578063313ce5671461019e578063360f4fdf146101ad57806339509351146101c257806340c10f19146101d557806370a08231146101e857600080fd5b806306fdde0314610138578063095ea7b31461015657806318160ddd1461017957806323b872dd1461018b575b600080fd5b610140610298565b60405161014d9190610bff565b60405180910390f35b610169610164366004610c69565b61032a565b604051901515815260200161014d565b6002545b60405190815260200161014d565b610169610199366004610c93565b610344565b6040516012815260200161014d565b6101c06101bb366004610c93565b610368565b005b6101696101d0366004610c69565b610380565b6101c06101e3366004610c69565b6103a2565b61017d6101f6366004610ccf565b600160a060020a031660009081526020819052604090205490565b6101c06103b8565b600554604051600160a060020a03909116815260200161014d565b6101406103cc565b61016961024a366004610c69565b6103db565b61016961025d366004610c69565b610476565b61017d610270366004610cf1565b610484565b6101c06104af565b6101c0610510565b6101c0610293366004610ccf565b61055d565b6060600380546102a790610d24565b80601f01602080910402602001604051908101604052809291908181526020018280546102d390610d24565b80156103205780601f106102f557610100808354040283529160200191610320565b820191906000526020600020905b81548152906001019060200180831161030357829003601f168201915b5050505050905090565b6000336103388185856105f0565b60019150505b92915050565b60003361035285828561074e565b61035d8585856107cb565b506001949350505050565b6103706109cc565b61037b8383836107cb565b505050565b6000336103388185856103938383610484565b61039d9190610d77565b6105f0565b6103aa6109cc565b6103b48282610a29565b5050565b6103c06109cc565b6103ca6000610af7565b565b6060600480546102a790610d24565b600033816103e98286610484565b9050838110156104695760405160e560020a62461bcd02815260206004820152602560248201527f45524332303a2064656372656173656420616c6c6f77616e63652062656c6f7760448201527f207a65726f00000000000000000000000000000000000000000000000000000060648201526084015b60405180910390fd5b61035d82868684036105f0565b6000336103388185856107cb565b600160a060020a03918216600090815260016020908152604080832093909416825291909152205490565b6005805474ff00000000000000000000000000000000000000001916740100000000000000000000000000000000000000001790556104f0336101f4610a29565b6005805474ff000000000000000000000000000000000000000019169055565b6105186109cc565b6005805475ff00000000000000000000000000000000000000000019811675010000000000000000000000000000000000000000009182900460ff1615909102179055565b6105656109cc565b600160a060020a0381166105e45760405160e560020a62461bcd02815260206004820152602660248201527f4f776e61626c653a206e6577206f776e657220697320746865207a65726f206160448201527f64647265737300000000000000000000000000000000000000000000000000006064820152608401610460565b6105ed81610af7565b50565b600160a060020a03831661066e5760405160e560020a62461bcd028152602060048201526024808201527f45524332303a20617070726f76652066726f6d20746865207a65726f2061646460448201527f72657373000000000000000000000000000000000000000000000000000000006064820152608401610460565b600160a060020a0382166106ed5760405160e560020a62461bcd02815260206004820152602260248201527f45524332303a20617070726f766520746f20746865207a65726f20616464726560448201527f73730000000000000000000000000000000000000000000000000000000000006064820152608401610460565b600160a060020a0383811660008181526001602090815260408083209487168084529482529182902085905590518481527f8c5be1e5ebec7d5bd14f71427d1e84f3dd0314c0f7b2291e5b200ac8c7c3b925910160405180910390a3505050565b600061075a8484610484565b905060001981146107c557818110156107b85760405160e560020a62461bcd02815260206004820152601d60248201527f45524332303a20696e73756666696369656e7420616c6c6f77616e63650000006044820152606401610460565b6107c584848484036105f0565b50505050565b600160a060020a03831661084a5760405160e560020a62461bcd02815260206004820152602560248201527f45524332303a207472616e736665722066726f6d20746865207a65726f20616460448201527f64726573730000000000000000000000000000000000000000000000000000006064820152608401610460565b600160a060020a0382166108c95760405160e560020a62461bcd02815260206004820152602360248201527f45524332303a207472616e7366657220746f20746865207a65726f206164647260448201527f65737300000000000000000000000000000000000000000000000000000000006064820152608401610460565b6108d4838383610b56565b600160a060020a038316600090815260208190526040902054818110156109665760405160e560020a62461bcd02815260206004820152602660248201527f45524332303a207472616e7366657220616d6f756e742065786365656473206260448201527f616c616e636500000000000000000000000000000000000000000000000000006064820152608401610460565b600160a060020a03848116600081815260208181526040808320878703905593871680835291849020805487019055925185815290927fddf252ad1be2c89b69c2b068fc378daa952ba7f163c4a11628f55a4df523b3ef910160405180910390a36107c5565b600554600160a060020a031633146103ca5760405160e560020a62461bcd02815260206004820181905260248201527f4f776e61626c653a2063616c6c6572206973206e6f7420746865206f776e65726044820152606401610460565b600160a060020a038216610a825760405160e560020a62461bcd02815260206004820152601f60248201527f45524332303a206d696e7420746f20746865207a65726f2061646472657373006044820152606401610460565b610a8e60008383610b56565b8060026000828254610aa09190610d77565b9091555050600160a060020a038216600081815260208181526040808320805486019055518481527fddf252ad1be2c89b69c2b068fc378daa952ba7f163c4a11628f55a4df523b3ef910160405180910390a35050565b60058054600160a060020a0383811673ffffffffffffffffffffffffffffffffffffffff19831681179093556040519116919082907f8be0079c531659141344cd1fd0a4f28419497f9722a3daafe3b4186f6b6457e090600090a35050565b60055474010000000000000000000000000000000000000000900460ff16158015610b8c5750600554600160a060020a03163314155b1561037b576005547501000000000000000000000000000000000000000000900460ff1661037b5760405160e560020a62461bcd02815260206004820152601f60248201527f546f6b656e207472616e736665727320617265206e6f7420616c6c6f776564006044820152606401610460565b600060208083528351808285015260005b81811015610c2c57858101830151858201604001528201610c10565b506000604082860101526040601f19601f8301168501019250505092915050565b8035600160a060020a0381168114610c6457600080fd5b919050565b60008060408385031215610c7c57600080fd5b610c8583610c4d565b946020939093013593505050565b600080600060608486031215610ca857600080fd5b610cb184610c4d565b9250610cbf60208501610c4d565b9150604084013590509250925092565b600060208284031215610ce157600080fd5b610cea82610c4d565b9392505050565b60008060408385031215610d0457600080fd5b610d0d83610c4d565b9150610d1b60208401610c4d565b90509250929050565b600281046001821680610d3857607f821691505b602082108103610d71577f4e487b7100000000000000000000000000000000000000000000000000000000600052602260045260246000fd5b50919050565b8082018082111561033e577f4e487b7100000000000000000000000000000000000000000000000000000000600052601160045260246000fdfea264697066735822122066627db7bd03cdb911dbb7725bffe051d7be43c4e5632370f6bf24fb9a684ef964736f6c63430008110033608060405234801561001057600080fd5b50604051613e78380380613e7883398101604081905261002f9161007c565b60008054600160a060020a03938416600160a060020a031991821617909155600180549290931691161790556100af565b8051600160a060020a038116811461007757600080fd5b919050565b6000806040838503121561008f57600080fd5b61009883610060565b91506100a660208401610060565b90509250929050565b613dba806100be6000396000f3fe60806040523480156200001157600080fd5b50600436106200004a577c01000000000000000000000000000000000000000000000000000000006000350463dc91c2cd81146200004f575b600080fd5b6200006662000060366004620004b3565b62000082565b604051600160a060020a03909116815260200160405180910390f35b600080546040517fba7eea15000000000000000000000000000000000000000000000000000000008152336004820152600160a060020a039091169063ba7eea1590602401602060405180830381865afa158015620000e5573d6000803e3d6000fd5b505050506040513d601f19601f820116820180604052508101906200010b9190620005b7565b62000176576040517f08c379a000000000000000000000000000000000000000000000000000000000815260206004820152600a60248201527f4e6f742061727469737400000000000000000000000000000000000000000000604482015260640160405180910390fd5b60008a8a8a8a8a8a8a8a8a6040516200018f9062000412565b620001a39998979695949392919062000682565b604051809103906000f080158015620001c0573d6000803e3d6000fd5b506000546040517fb949c804000000000000000000000000000000000000000000000000000000008152336004820152919250600160a060020a0380841692631fc3b56c92919091169063b949c80490602401600060405180830381865afa15801562000231573d6000803e3d6000fd5b505050506040513d6000823e601f3d908101601f191682016040526200025b919081019062000824565b602001516040517c010000000000000000000000000000000000000000000000000000000063ffffffff8416028152600160a060020a039091166004820152602401600060405180830381600087803b158015620002b857600080fd5b505af1158015620002cd573d6000803e3d6000fd5b50506040517ff2fde38b000000000000000000000000000000000000000000000000000000008152336004820152600160a060020a038416925063f2fde38b9150602401600060405180830381600087803b1580156200032c57600080fd5b505af115801562000341573d6000803e3d6000fd5b505050507f80bd20564b6d822fa39977cefda16be8dbdef591868b4d80adf9e8f34fd8b89289898333426040516200037e95949392919062000940565b60405180910390a16001546040517f4d713868000000000000000000000000000000000000000000000000000000008152600160a060020a038381166004830152909116908190634d71386890602401600060405180830381600087803b158015620003e957600080fd5b505af1158015620003fe573d6000803e3d6000fd5b50939e9d5050505050505050505050505050565b61340a806200097b83390190565b60008083601f8401126200043357600080fd5b50813567ffffffffffffffff8111156200044c57600080fd5b6020830191508360208285010111156200046557600080fd5b9250929050565b60008083601f8401126200047f57600080fd5b50813567ffffffffffffffff8111156200049857600080fd5b60208301915083602080830285010111156200046557600080fd5b6000806000806000806000806000898b03610100811215620004d457600080fd5b8a3567ffffffffffffffff80821115620004ed57600080fd5b620004fb8e838f0162000420565b909c509a5060208d01359150808211156200051557600080fd5b620005238e838f0162000420565b909a50985060408d01359150808211156200053d57600080fd5b6200054b8e838f016200046c565b909850965060608d01359150808211156200056557600080fd5b50620005748d828e016200046c565b9095509350506080607f19820112156200058d57600080fd5b5060808a0190509295985092959850929598565b80518015158114620005b257600080fd5b919050565b600060208284031215620005ca57600080fd5b620005d582620005a1565b9392505050565b81835281816020850137506000828201602090810191909152601f909101601f19169091010190565b81835260007f07ffffffffffffffffffffffffffffffffffffffffffffffffffffffffffffff8311156200063857600080fd5b6020830280836020870137939093016020019392505050565b8035600281106200066157600080fd5b82526020818101359083015260408082013590830152606090810135910152565b6000610100808352620006998184018c8e620005dc565b9050602083820381850152620006b1828b8d620005dc565b84810360408601528881529150808201818902830182018a60005b8b8110156200074357858303601f190184528135368e9003601e19018112620006f457600080fd5b8d01858101903567ffffffffffffffff8111156200071157600080fd5b8036038213156200072157600080fd5b6200072e858284620005dc565b958701959450505090840190600101620006cc565b505085810360608701526200075a81898b62000605565b9450505050506200076f608083018462000651565b9a9950505050505050505050565b7f4e487b7100000000000000000000000000000000000000000000000000000000600052604160045260246000fd5b6040516080810167ffffffffffffffff81118282101715620007d257620007d26200077d565b60405290565b604051601f8201601f1916810167ffffffffffffffff811182821017156200080457620008046200077d565b604052919050565b8051600160a060020a0381168114620005b257600080fd5b600060208083850312156200083857600080fd5b825167ffffffffffffffff808211156200085157600080fd5b90840190608082870312156200086657600080fd5b62000870620007ac565b8251828111156200088057600080fd5b8301601f810188136200089257600080fd5b805183811115620008a757620008a76200077d565b620008bb601f8201601f19168701620007d8565b93508084528886828401011115620008d257600080fd5b60005b81811015620008f2578281018701518582018801528601620008d5565b506000908401860152508181526200090c8385016200080c565b848201526200091e60408401620005a1565b60408201526200093160608401620005a1565b60608201529695505050505050565b60808152600062000956608083018789620005dc565b600160a060020a03958616602084015293909416604082015260600152939250505056fe60806040523480156200001157600080fd5b506040516200340a3803806200340a833981016040819052620000349162000b9a565b846200004981640100000000620001b9810204565b506200007062000061640100000000620001cb810204565b640100000000620001cf810204565b60068054600160a060020a031916331790558151835114620000f3576040517f08c379a000000000000000000000000000000000000000000000000000000000815260206004820152600a60248201527f73697a65206572726f720000000000000000000000000000000000000000000060448201526064015b60405180910390fd5b805160078054839290829060ff19166001838181111562000118576200011862000ce8565b021790555060208281015160018301556040830151600283015560609092015160039091015583516200015291600d919086019062000866565b5081516200016890600e906020850190620008c3565b50600b62000177858262000dbb565b50600060075460ff16600181111562000194576200019462000ce8565b03620001ae57620001ae3264010000000062000221810204565b50505050506200114d565b6002620001c7828262000dbb565b5050565b3390565b60058054600160a060020a03838116600160a060020a0319831681179093556040519116919082907f8be0079c531659141344cd1fd0a4f28419497f9722a3daafe3b4186f6b6457e090600090a35050565b600e546000906001604060020a0381111562000241576200024162000989565b6040519080825280602002602001820160405280156200026b578160200160208202803683370190505b50905060005b600e54811015620002b2578082828151811062000292576200029262000e8d565b602090810291909101015280620002a98162000eeb565b91505062000271565b50620001c78282600e8054806020026020016040519081016040528092919081815260200182805480156200030757602002820191906000526020600020905b815481526020019060010190808311620002f2575b50505050506040518060200160405280600081525062000331640100000000026401000000009004565b600160a060020a038416620003c9576040517f08c379a000000000000000000000000000000000000000000000000000000000815260206004820152602160248201527f455243313135353a206d696e7420746f20746865207a65726f2061646472657360448201527f73000000000000000000000000000000000000000000000000000000000000006064820152608401620000ea565b81518351146200045c576040517f08c379a000000000000000000000000000000000000000000000000000000000815260206004820152602860248201527f455243313135353a2069647320616e6420616d6f756e7473206c656e6774682060448201527f6d69736d617463680000000000000000000000000000000000000000000000006064820152608401620000ea565b600062000471640100000000620001cb810204565b90506200048d81600087878787640100000000620005ca810204565b60005b84518110156200053457838181518110620004af57620004af62000e8d565b6020026020010151600080878481518110620004cf57620004cf62000e8d565b60200260200101518152602001908152602001600020600088600160a060020a0316600160a060020a03168152602001908152602001600020600082825462000519919062000f07565b909155508190506200052b8162000eeb565b91505062000490565b5084600160a060020a03166000600160a060020a031682600160a060020a03167f4a39dc06d4c0dbc64b70af90fd698a233a518aa5d07e595d983b8c0526c8f7fb87876040516200058792919062000f60565b60405180910390a4620005a981600087878787640100000000620005ca810204565b620005c381600087878787640100000000620005d2810204565b5050505050565b505050505050565b620005f4600160a060020a03851664010000000062000f286200085782021704565b15620005ca576040517fbc197c81000000000000000000000000000000000000000000000000000000008152600160a060020a0385169063bc197c819062000649908990899088908890889060040162000fc0565b6020604051808303816000875af192505050801562000687575060408051601f3d908101601f19168201909252620006849181019062001024565b60015b6200077b57620006966200106f565b806308c379a003620006f05750620006ad620010a9565b80620006ba5750620006f2565b806040517f08c379a0000000000000000000000000000000000000000000000000000000008152600401620000ea919062001138565b505b6040517f08c379a000000000000000000000000000000000000000000000000000000000815260206004820152603460248201527f455243313135353a207472616e7366657220746f206e6f6e2d4552433131353560448201527f526563656976657220696d706c656d656e7465720000000000000000000000006064820152608401620000ea565b7fffffffff0000000000000000000000000000000000000000000000000000000081167fbc197c8100000000000000000000000000000000000000000000000000000000146200084e576040517f08c379a000000000000000000000000000000000000000000000000000000000815260206004820152602860248201527f455243313135353a204552433131353552656365697665722072656a6563746560448201527f6420746f6b656e730000000000000000000000000000000000000000000000006064820152608401620000ea565b50505050505050565b600160a060020a03163b151590565b828054828255906000526020600020908101928215620008b1579160200282015b82811115620008b15782518290620008a0908262000dbb565b509160200191906001019062000887565b50620008bf9291506200090f565b5090565b82805482825590600052602060002090810192821562000901579160200282015b8281111562000901578251825591602001919060010190620008e4565b50620008bf92915062000930565b80821115620008bf57600062000926828262000947565b506001016200090f565b5b80821115620008bf576000815560010162000931565b508054620009559062000d17565b6000825580601f1062000966575050565b601f01602090049060005260206000209081019062000986919062000930565b50565b7f4e487b7100000000000000000000000000000000000000000000000000000000600052604160045260246000fd5b601f8201601f191681016001604060020a0381118282101715620009e057620009e062000989565b6040525050565b60005b8381101562000a04578181015183820152602001620009ea565b50506000910152565b600082601f83011262000a1f57600080fd5b81516001604060020a0381111562000a3b5762000a3b62000989565b60405162000a54601f8301601f191660200182620009b8565b81815284602083860101111562000a6a57600080fd5b62000a7d826020830160208701620009e7565b949350505050565b60006001604060020a0382111562000aa15762000aa162000989565b5060209081020190565b600082601f83011262000abd57600080fd5b8151602062000acc8262000a85565b60405162000adb8282620009b8565b838152928202850182019282810191508684111562000af957600080fd5b8286015b8481101562000b16578051835291830191830162000afd565b509695505050505050565b60006080828403121562000b3457600080fd5b604051608081018181106001604060020a038211171562000b595762000b5962000989565b806040525080915082516002811062000b7157600080fd5b808252506020830151602082015260408301516040820152606083015160608201525092915050565b6000806000806000610100868803121562000bb457600080fd5b85516001604060020a038082111562000bcc57600080fd5b62000bda89838a0162000a0d565b965060209150818801518181111562000bf257600080fd5b62000c008a828b0162000a0d565b96505060408801518181111562000c1657600080fd5b8801601f81018a1362000c2857600080fd5b805162000c358162000a85565b60405162000c448282620009b8565b828152918502830185019185810191508c83111562000c6257600080fd5b8584015b8381101562000c9f5780518681111562000c805760008081fd5b62000c908f898389010162000a0d565b84525091860191860162000c66565b5060608c015190985094505050508082111562000cbb57600080fd5b5062000cca8882890162000aab565b92505062000cdc876080880162000b21565b90509295509295909350565b7f4e487b7100000000000000000000000000000000000000000000000000000000600052602160045260246000fd5b60028104600182168062000d2c57607f821691505b60208210810362000d66577f4e487b7100000000000000000000000000000000000000000000000000000000600052602260045260246000fd5b50919050565b601f82111562000db6576000818152602081206020601f8601048101602086101562000d955750805b6020601f860104820191505b81811015620005ca5782815560010162000da1565b505050565b81516001604060020a0381111562000dd75762000dd762000989565b62000def8162000de8845462000d17565b8462000d6c565b602080601f83116001811462000e2b576000841562000e0e5750858301515b60028086026008870290910a6000190419821617865550620005ca565b600085815260208120601f198616915b8281101562000e5c5788860151825594840194600190910190840162000e3b565b508582101562000e7d57878501516008601f88160260020a60001904191681555b5050505050600202600101905550565b7f4e487b7100000000000000000000000000000000000000000000000000000000600052603260045260246000fd5b7f4e487b7100000000000000000000000000000000000000000000000000000000600052601160045260246000fd5b60006001820162000f005762000f0062000ebc565b5060010190565b8082018082111562000f1d5762000f1d62000ebc565b92915050565b600081518084526020808501945080840160005b8381101562000f555781518752958201959082019060010162000f37565b509495945050505050565b60408152600062000f75604083018562000f23565b828103602084015262000f89818562000f23565b95945050505050565b6000815180845262000fac816020860160208601620009e7565b601f01601f19169290920160200192915050565b600160a060020a0386811682528516602082015260a06040820181905260009062000fee9083018662000f23565b828103606084015262001002818662000f23565b9050828103608084015262001018818562000f92565b98975050505050505050565b6000602082840312156200103757600080fd5b81517fffffffff00000000000000000000000000000000000000000000000000000000811681146200106857600080fd5b9392505050565b600060033d1115620010a65760046000803e7c01000000000000000000000000000000000000000000000000000000006000510490505b90565b600060443d1015620010b85790565b6040516003193d81016004833e81513d6001604060020a038160248401118184111715620010e857505050505090565b8285019150815181811115620011015750505050505090565b843d87010160208285010111156200111c5750505050505090565b6200112d60208286010187620009b8565b509095945050505050565b60208152600062001068602083018462000f92565b6122ad806200115d6000396000f3fe608060405234801561001057600080fd5b506004361061015e576000357c010000000000000000000000000000000000000000000000000000000090048063715018a6116100d5578063dfb0582511610099578063dfb0582514610307578063e1076b621461031a578063e5326ab11461032d578063e985e9c514610335578063f242432a14610371578063f2fde38b1461038457600080fd5b8063715018a6146102c05780638da5cb5b146102c857806398d5547d146102d95780639fb17e34146102e1578063a22cb465146102f457600080fd5b806327c0dfc81161012757806327c0dfc81461020c5780632a55205a146102355780632eb2c2d6146102675780634e1273f41461027a5780635dd871a31461029a5780636b8ff574146102ad57600080fd5b8062fdd58e1461016357806301ffc9a7146101895780630e89341c146101ac578063187ba8a6146101cc5780631fc3b56c146101f7575b600080fd5b610176610171366004611917565b610397565b6040519081526020015b60405180910390f35b61019c610197366004611957565b610446565b6040519015158152602001610180565b6101bf6101ba36600461197b565b610451565b60405161018091906119da565b600c546101df90600160a060020a031681565b604051600160a060020a039091168152602001610180565b61020a6102053660046119ed565b6104e5565b005b600754600854600954600a546102259360ff1692919084565b6040516101809493929190611a21565b610248610243366004611a62565b61051c565b60408051600160a060020a039093168352602083019190915201610180565b61020a610275366004611bd0565b6105f9565b61028d610288366004611c7a565b610648565b6040516101809190611d7d565b61019c6102a836600461197b565b610789565b6101bf6102bb36600461197b565b610920565b61020a61094a565b600554600160a060020a03166101df565b600d54610176565b6101766102ef36600461197b565b61095e565b61020a610302366004611d90565b610d64565b61017661031536600461197b565b610d73565b6101bf61032836600461197b565b610d94565b6101bf610e40565b61019c610343366004611dcc565b600160a060020a03918216600090815260016020908152604080832093909416825291909152205460ff1690565b61020a61037f366004611dff565b610e4d565b61020a6103923660046119ed565b610e95565b6000600160a060020a03831661041d5760405160e560020a62461bcd02815260206004820152602a60248201527f455243313135353a2061646472657373207a65726f206973206e6f742061207660448201527f616c6964206f776e65720000000000000000000000000000000000000000000060648201526084015b60405180910390fd5b50600081815260208181526040808320600160a060020a03861684529091529020545b92915050565b600061044082610f37565b60606002805461046090611e64565b80601f016020809104026020016040519081016040528092919081815260200182805461048c90611e64565b80156104d95780601f106104ae576101008083540402835291602001916104d9565b820191906000526020600020905b8154815290600101906020018083116104bc57829003601f168201915b50505050509050919050565b6104ed610f75565b600c805473ffffffffffffffffffffffffffffffffffffffff1916600160a060020a0392909216919091179055565b6000828152600460209081526040808320815180830190925254600160a060020a038116808352740100000000000000000000000000000000000000009091046bffffffffffffffffffffffff169282019290925282916105bd575060408051808201909152600354600160a060020a03811682527401000000000000000000000000000000000000000090046bffffffffffffffffffffffff1660208201525b6020810151600090612710906105e1906bffffffffffffffffffffffff1687611eba565b6105eb9190611ed1565b915196919550909350505050565b600160a060020a03851633148061061557506106158533610343565b6106345760405160e560020a62461bcd02815260040161041490611ef6565b6106418585858585610fd2565b5050505050565b606081518351146106c45760405160e560020a62461bcd02815260206004820152602960248201527f455243313135353a206163636f756e747320616e6420696473206c656e67746860448201527f206d69736d6174636800000000000000000000000000000000000000000000006064820152608401610414565b6000835167ffffffffffffffff8111156106e0576106e0611a84565b604051908082528060200260200182016040528015610709578160200160208202803683370190505b50905060005b84518110156107815761075485828151811061072d5761072d611f53565b602002602001015185838151811061074757610747611f53565b6020026020010151610397565b82828151811061076657610766611f53565b602090810291909101015261077a81611f6c565b905061070f565b509392505050565b600080600160075460ff1660018111156107a5576107a5611a08565b1480156107b35750600d5483105b80156107fb5750600e83815481106107cd576107cd611f53565b9060005260206000200154600f60008581526020019081526020016000205460016107f89190611f85565b11155b801561082d5750600954158061082d57506009543360009081526012602052604090205461082a906001611f85565b11155b80156108695750600a5415806108695750600a546000848152601160209081526040808320338452909152902054610866906001611f85565b11155b9050806108795750600092915050565b60085460000361088c5750600192915050565b600c546008546040517f70a08231000000000000000000000000000000000000000000000000000000008152336004820152600160a060020a039092169182906370a0823190602401602060405180830381865afa1580156108f2573d6000803e3d6000fd5b505050506040513d601f19601f820116820180604052508101906109169190611f98565b1015949350505050565b6060600d828154811061093557610935611f53565b90600052602060002001805461046090611e64565b610952610f75565b61095c60006111cd565b565b6000600160075460ff16600181111561097957610979611a08565b146109c95760405160e560020a62461bcd02815260206004820152601e60248201527f43616e6e6f74206d696e7420746869732074797065206f6620746f6b656e00006044820152606401610414565b600d548210610a1d5760405160e560020a62461bcd02815260206004820152601560248201527f546f6b656e20646f6573206e6f742065786973747300000000000000000000006044820152606401610414565b600e8281548110610a3057610a30611f53565b9060005260206000200154600f6000848152602001908152602001600020546001610a5b9190611f85565b1115610ad25760405160e560020a62461bcd02815260206004820152602660248201527f4d617820737570706c79207265616368656420666f72207468697320746f6b6560448201527f6e207479706500000000000000000000000000000000000000000000000000006064820152608401610414565b6009541580610afd575060095433600090815260126020526040902054610afa906001611f85565b11155b610b4c5760405160e560020a62461bcd02815260206004820152601360248201527f596f75206d696e74656420746f6f206d756368000000000000000000000000006044820152606401610414565b600a541580610b815750600a546000838152601160209081526040808320338452909152902054610b7e906001611f85565b11155b610bf65760405160e560020a62461bcd02815260206004820152602160248201527f596f75206d696e74656420746f6f206d756368206f66207468697320746f6b6560448201527f6e000000000000000000000000000000000000000000000000000000000000006064820152608401610414565b60085415610cdb57600c546008546040517f70a08231000000000000000000000000000000000000000000000000000000008152336004820152600160a060020a039092169182906370a0823190602401602060405180830381865afa158015610c64573d6000803e3d6000fd5b505050506040513d601f19601f82011682018060405250810190610c889190611f98565b1015610cd95760405160e560020a62461bcd02815260206004820152600f60248201527f6e6f742066616e20656e6f7567687400000000000000000000000000000000006044820152606401610414565b505b336000908152601260205260408120805491610cf683611f6c565b909155505060008281526011602090815260408083203384529091528120805491610d2083611f6c565b90915550506000828152600f60205260408120805491610d3f83611f6c565b9190505550610d60338360016040518060200160405280600081525061122c565b5090565b610d6f33838361135f565b5050565b600e8181548110610d8357600080fd5b600091825260209091200154905081565b600d8181548110610da457600080fd5b906000526020600020016000915090508054610dbf90611e64565b80601f0160208091040260200160405190810160405280929190818152602001828054610deb90611e64565b8015610e385780601f10610e0d57610100808354040283529160200191610e38565b820191906000526020600020905b815481529060010190602001808311610e1b57829003601f168201915b505050505081565b600b8054610dbf90611e64565b600160a060020a038516331480610e695750610e698533610343565b610e885760405160e560020a62461bcd02815260040161041490611ef6565b6106418585858585611456565b610e9d610f75565b600160a060020a038116610f1c5760405160e560020a62461bcd02815260206004820152602660248201527f4f776e61626c653a206e6577206f776e657220697320746865207a65726f206160448201527f64647265737300000000000000000000000000000000000000000000000000006064820152608401610414565b610f25816111cd565b50565b600160a060020a03163b151590565b6000600160e060020a031982167f2a55205a000000000000000000000000000000000000000000000000000000001480610440575061044082611586565b600554600160a060020a0316331461095c5760405160e560020a62461bcd02815260206004820181905260248201527f4f776e61626c653a2063616c6c6572206973206e6f7420746865206f776e65726044820152606401610414565b815183511461104c5760405160e560020a62461bcd02815260206004820152602860248201527f455243313135353a2069647320616e6420616d6f756e7473206c656e6774682060448201527f6d69736d617463680000000000000000000000000000000000000000000000006064820152608401610414565b600160a060020a0384166110755760405160e560020a62461bcd02815260040161041490611fb1565b3360005b845181101561115f57600085828151811061109657611096611f53565b6020026020010151905060008583815181106110b4576110b4611f53565b60209081029190910181015160008481528083526040808220600160a060020a038e1683529093529190912054909150818110156111075760405160e560020a62461bcd0281526004016104149061200e565b600083815260208181526040808320600160a060020a038e8116855292528083208585039055908b16825281208054849290611144908490611f85565b925050819055505050508061115890611f6c565b9050611079565b5084600160a060020a031686600160a060020a031682600160a060020a03167f4a39dc06d4c0dbc64b70af90fd698a233a518aa5d07e595d983b8c0526c8f7fb87876040516111af92919061206b565b60405180910390a46111c5818787878787611621565b505050505050565b60058054600160a060020a0383811673ffffffffffffffffffffffffffffffffffffffff19831681179093556040519116919082907f8be0079c531659141344cd1fd0a4f28419497f9722a3daafe3b4186f6b6457e090600090a35050565b600160a060020a0384166112ab5760405160e560020a62461bcd02815260206004820152602160248201527f455243313135353a206d696e7420746f20746865207a65726f2061646472657360448201527f73000000000000000000000000000000000000000000000000000000000000006064820152608401610414565b3360006112b7856117c0565b905060006112c4856117c0565b9050600086815260208181526040808320600160a060020a038b168452909152812080548792906112f6908490611f85565b90915550506040805187815260208101879052600160a060020a03808a1692600092918716917fc3d58168c5ae7397731d063d5bbf3d657854427343f4c083240f7aacaa2d0f62910160405180910390a46113568360008989898961180b565b50505050505050565b81600160a060020a031683600160a060020a0316036113e95760405160e560020a62461bcd02815260206004820152602960248201527f455243313135353a2073657474696e6720617070726f76616c2073746174757360448201527f20666f722073656c6600000000000000000000000000000000000000000000006064820152608401610414565b600160a060020a03838116600081815260016020908152604080832094871680845294825291829020805460ff191686151590811790915591519182527f17307eab39ab6107e8899845ad3d59bd9653f200f220920489ca2b5937696c31910160405180910390a3505050565b600160a060020a03841661147f5760405160e560020a62461bcd02815260040161041490611fb1565b33600061148b856117c0565b90506000611498856117c0565b9050600086815260208181526040808320600160a060020a038c168452909152902054858110156114de5760405160e560020a62461bcd0281526004016104149061200e565b600087815260208181526040808320600160a060020a038d8116855292528083208985039055908a1682528120805488929061151b908490611f85565b90915550506040805188815260208101889052600160a060020a03808b16928c821692918816917fc3d58168c5ae7397731d063d5bbf3d657854427343f4c083240f7aacaa2d0f62910160405180910390a461157b848a8a8a8a8a61180b565b505050505050505050565b6000600160e060020a031982167fd9b67a260000000000000000000000000000000000000000000000000000000014806115e95750600160e060020a031982167f0e89341c00000000000000000000000000000000000000000000000000000000145b8061044057507f01ffc9a700000000000000000000000000000000000000000000000000000000600160e060020a0319831614610440565b600160a060020a0384163b156111c5576040517fbc197c81000000000000000000000000000000000000000000000000000000008152600160a060020a0385169063bc197c819061167e9089908990889088908890600401612099565b6020604051808303816000875af19250505080156116b9575060408051601f3d908101601f191682019092526116b6918101906120f7565b60015b611774576116c5612114565b806308c379a00361170157506116d961214d565b806116e45750611703565b8060405160e560020a62461bcd02815260040161041491906119da565b505b60405160e560020a62461bcd02815260206004820152603460248201527f455243313135353a207472616e7366657220746f206e6f6e2d4552433131353560448201527f526563656976657220696d706c656d656e7465720000000000000000000000006064820152608401610414565b600160e060020a031981167fbc197c8100000000000000000000000000000000000000000000000000000000146113565760405160e560020a62461bcd028152600401610414906121d7565b604080516001808252818301909252606091600091906020808301908036833701905050905082816000815181106117fa576117fa611f53565b602090810291909101015292915050565b600160a060020a0384163b156111c5576040517ff23a6e61000000000000000000000000000000000000000000000000000000008152600160a060020a0385169063f23a6e61906118689089908990889088908890600401612234565b6020604051808303816000875af19250505080156118a3575060408051601f3d908101601f191682019092526118a0918101906120f7565b60015b6118af576116c5612114565b600160e060020a031981167ff23a6e6100000000000000000000000000000000000000000000000000000000146113565760405160e560020a62461bcd028152600401610414906121d7565b8035600160a060020a038116811461191257600080fd5b919050565b6000806040838503121561192a57600080fd5b611933836118fb565b946020939093013593505050565b600160e060020a031981168114610f2557600080fd5b60006020828403121561196957600080fd5b813561197481611941565b9392505050565b60006020828403121561198d57600080fd5b5035919050565b6000815180845260005b818110156119ba5760208185018101518683018201520161199e565b506000602082860101526020601f19601f83011685010191505092915050565b6020815260006119746020830184611994565b6000602082840312156119ff57600080fd5b611974826118fb565b60e060020a634e487b7102600052602160045260246000fd5b6080810160028610611a465760e060020a634e487b7102600052602160045260246000fd5b9481526020810193909352604083019190915260609091015290565b60008060408385031215611a7557600080fd5b50508035926020909101359150565b60e060020a634e487b7102600052604160045260246000fd5b601f8201601f1916810167ffffffffffffffff81118282101715611ac357611ac3611a84565b6040525050565b600067ffffffffffffffff821115611ae457611ae4611a84565b5060209081020190565b600082601f830112611aff57600080fd5b81356020611b0c82611aca565b604051611b198282611a9d565b8381529282028501820192828101915086841115611b3657600080fd5b8286015b84811015611b515780358352918301918301611b3a565b509695505050505050565b600082601f830112611b6d57600080fd5b813567ffffffffffffffff811115611b8757611b87611a84565b604051611b9e601f8301601f191660200182611a9d565b818152846020838601011115611bb357600080fd5b816020850160208301376000918101602001919091529392505050565b600080600080600060a08688031215611be857600080fd5b611bf1866118fb565b9450611bff602087016118fb565b9350604086013567ffffffffffffffff80821115611c1c57600080fd5b611c2889838a01611aee565b94506060880135915080821115611c3e57600080fd5b611c4a89838a01611aee565b93506080880135915080821115611c6057600080fd5b50611c6d88828901611b5c565b9150509295509295909350565b60008060408385031215611c8d57600080fd5b823567ffffffffffffffff80821115611ca557600080fd5b818501915085601f830112611cb957600080fd5b81356020611cc682611aca565b604051611cd38282611a9d565b8381529282028501820192828101915089841115611cf057600080fd5b948201945b83861015611d1557611d06866118fb565b82529482019490820190611cf5565b96505086013592505080821115611d2b57600080fd5b50611d3885828601611aee565b9150509250929050565b600081518084526020808501945080840160005b83811015611d7257815187529582019590820190600101611d56565b509495945050505050565b6020815260006119746020830184611d42565b60008060408385031215611da357600080fd5b611dac836118fb565b915060208301358015158114611dc157600080fd5b809150509250929050565b60008060408385031215611ddf57600080fd5b611de8836118fb565b9150611df6602084016118fb565b90509250929050565b600080600080600060a08688031215611e1757600080fd5b611e20866118fb565b9450611e2e602087016118fb565b93506040860135925060608601359150608086013567ffffffffffffffff811115611e5857600080fd5b611c6d88828901611b5c565b600281046001821680611e7857607f821691505b602082108103611e9b5760e060020a634e487b7102600052602260045260246000fd5b50919050565b60e060020a634e487b7102600052601160045260246000fd5b808202811582820484141761044057610440611ea1565b600082611ef15760e060020a634e487b7102600052601260045260246000fd5b500490565b6020808252602e908201527f455243313135353a2063616c6c6572206973206e6f7420746f6b656e206f776e60408201527f6572206f7220617070726f766564000000000000000000000000000000000000606082015260800190565b60e060020a634e487b7102600052603260045260246000fd5b600060018201611f7e57611f7e611ea1565b5060010190565b8082018082111561044057610440611ea1565b600060208284031215611faa57600080fd5b5051919050565b60208082526025908201527f455243313135353a207472616e7366657220746f20746865207a65726f20616460408201527f6472657373000000000000000000000000000000000000000000000000000000606082015260800190565b6020808252602a908201527f455243313135353a20696e73756666696369656e742062616c616e636520666f60408201527f72207472616e7366657200000000000000000000000000000000000000000000606082015260800190565b60408152600061207e6040830185611d42565b82810360208401526120908185611d42565b95945050505050565b6000600160a060020a03808816835280871660208401525060a060408301526120c560a0830186611d42565b82810360608401526120d78186611d42565b905082810360808401526120eb8185611994565b98975050505050505050565b60006020828403121561210957600080fd5b815161197481611941565b600060033d111561214a5760046000803e7c01000000000000000000000000000000000000000000000000000000006000510490505b90565b600060443d101561215b5790565b6040516003193d81016004833e81513d67ffffffffffffffff816024840111818411171561218b57505050505090565b82850191508151818111156121a35750505050505090565b843d87010160208285010111156121bd5750505050505090565b6121cc60208286010187611a9d565b509095945050505050565b60208082526028908201527f455243313135353a204552433131353552656365697665722072656a6563746560408201527f6420746f6b656e73000000000000000000000000000000000000000000000000606082015260800190565b6000600160a060020a03808816835280871660208401525084604083015283606083015260a0608083015261226c60a0830184611994565b97965050505050505056fea2646970667358221220662b3b7a5743554c34e2c4b02a2660b981c91e950f67047d7f551f0d476c882d64736f6c63430008110033a26469706673582212207112fd0818396de167884d70cceb121c3b7d5f6d85a62f408777235d3db93bb264736f6c63430008110033",
  "immutableReferences": {},
  "source": "// SPDX-License-Identifier: MIT\npragma solidity ^0.8.17;\n\nimport \"../node_modules/@openzeppelin/contracts/access/Ownable.sol\";\n\nimport \"./LinosPlatformInterface.sol\";\nimport \"./ArtistERC1155Factory.sol\";\nimport \"./NftMarketPlace.sol\";\nimport \"./FanToken.sol\";\nimport \"./ListenToken.sol\";\n\ncontract LinosPlatform is LinosPlatformInterface, Ownable {\n\n    event ArtistRegistered (\n        address artistAddress,\n        string name\n    );\n\n    address public listenTokenAddress;\n    address public nftFactoryAddress;\n    address public nftMarketPlaceAddress;\n\n    mapping(address => User) public users;\n    mapping(address => Artist) public artists;\n    mapping(address => Track[]) public artistTracks;\n\n    modifier notAUser(address _address) {\n        require(!users[_address].isRegistered, \"User Already registered\");\n        _;\n    }\n    modifier notAnArtist(address _address) {\n        require(!artists[_address].isRegistered, \"Artist Already registered\");\n        _;\n    }\n    modifier onlyValidArtist(address _address) {\n        require(artists[_address].isValid, \"Artist is not valid\");\n        _;\n    }\n\n    constructor() {\n        NftMarketPlace nftMarketPlace = new NftMarketPlace();\n        nftMarketPlace.setFees(5);\n        nftMarketPlace.setLinosPlatformAddress(address(this));\n        nftMarketPlaceAddress = address(nftMarketPlace);\n\n        listenTokenAddress = address(new ListenToken(address(this)));\n        nftFactoryAddress = address(new ArtistERC1155Factory(\n            address(this),\n            address(nftMarketPlace)\n        ));\n\n        nftMarketPlace.setNftFactoryAddress(nftFactoryAddress);\n    }\n\n    function mintListenToken(address to, uint amount) external onlyOwner {\n        ListenToken(listenTokenAddress).mint(to, amount);\n    }\n\n    function boostArtist(address artistAddress, uint amount) external onlyValidArtist(artistAddress) {\n        ListenToken listenToken = ListenToken(listenTokenAddress);\n        FanToken fanToken = FanToken(artists[artistAddress].fanTokenAddress);\n\n        fanToken.mint(msg.sender, amount);\n        listenToken.linosTransferFrom(msg.sender, artistAddress, amount);\n    }\n\n    function getArtist(address artistAddress) external view returns(Artist memory) {\n        return artists[artistAddress];\n    }\n\n    function getUser(address userAddress) external view returns(User memory) {\n        return users[userAddress];\n    }\n\n    function isArtistValid(address artistAddress) external view returns(bool) {\n        return artists[artistAddress].isValid;\n    }\n\n    function registerAsArtist(\n        string calldata _artistName,\n        string calldata _symbol\n    ) public notAnArtist(msg.sender) notAUser(msg.sender) {\n        FanToken artistFanToken = new FanToken(\n            _artistName,\n            string(abi.encodePacked('L-', _symbol)),\n            address(this)\n        );\n        artists[msg.sender] = Artist(_artistName, address(artistFanToken), true, true);\n        emit ArtistRegistered(msg.sender, _artistName);\n    }\n\n    function registerAsUser(\n        string calldata _userName\n    ) public notAnArtist(msg.sender) notAUser(msg.sender) {\n        users[msg.sender] = User(_userName, true);\n    }\n\n    function createTrack(string calldata _name, string calldata _coverUri) external onlyValidArtist(msg.sender) {\n        artistTracks[msg.sender].push(Track(_name, _coverUri));\n    }\n\n    receive() external payable {}\n    fallback() external payable {}\n}",
  "sourcePath": "/Volumes/code/Alyra/Linos/truffle/contracts/LinosPlatform.sol",
  "compiler": {
    "name": "solc",
    "version": "0.8.17+commit.8df45f5f.Emscripten.clang"
  },
  "schemaVersion": "3.4.10",
  "updatedAt": "2022-12-15T11:32:46.118Z",
  "networkType": "ethereum",
  "devdoc": {
    "kind": "dev",
    "methods": {
      "owner()": {
        "details": "Returns the address of the current owner."
      },
      "renounceOwnership()": {
        "details": "Leaves the contract without owner. It will not be possible to call `onlyOwner` functions anymore. Can only be called by the current owner. NOTE: Renouncing ownership will leave the contract without an owner, thereby removing any functionality that is only available to the owner."
      },
      "transferOwnership(address)": {
        "details": "Transfers ownership of the contract to a new account (`newOwner`). Can only be called by the current owner."
      }
    },
    "version": 1
  },
  "userdoc": {
    "kind": "user",
    "methods": {},
    "version": 1
  }
}