{
  "contractName": "LinosPlatform",
  "abi": [
    {
      "inputs": [],
      "stateMutability": "nonpayable",
      "type": "constructor"
    },
    {
      "anonymous": false,
      "inputs": [
        {
          "indexed": true,
          "internalType": "address",
          "name": "previousOwner",
          "type": "address"
        },
        {
          "indexed": true,
          "internalType": "address",
          "name": "newOwner",
          "type": "address"
        }
      ],
      "name": "OwnershipTransferred",
      "type": "event"
    },
    {
      "stateMutability": "payable",
      "type": "fallback",
      "payable": true
    },
    {
      "inputs": [
        {
          "internalType": "address",
          "name": "",
          "type": "address"
        },
        {
          "internalType": "uint256",
          "name": "",
          "type": "uint256"
        }
      ],
      "name": "artistTracks",
      "outputs": [
        {
          "internalType": "string",
          "name": "name",
          "type": "string"
        },
        {
          "internalType": "string",
          "name": "coverUri",
          "type": "string"
        }
      ],
      "stateMutability": "view",
      "type": "function",
      "constant": true
    },
    {
      "inputs": [
        {
          "internalType": "address",
          "name": "",
          "type": "address"
        }
      ],
      "name": "artists",
      "outputs": [
        {
          "internalType": "string",
          "name": "name",
          "type": "string"
        },
        {
          "internalType": "address",
          "name": "fanTokenAddress",
          "type": "address"
        },
        {
          "internalType": "bool",
          "name": "isRegistered",
          "type": "bool"
        },
        {
          "internalType": "bool",
          "name": "isValid",
          "type": "bool"
        }
      ],
      "stateMutability": "view",
      "type": "function",
      "constant": true
    },
    {
      "inputs": [],
      "name": "listenTokenAddress",
      "outputs": [
        {
          "internalType": "address",
          "name": "",
          "type": "address"
        }
      ],
      "stateMutability": "view",
      "type": "function",
      "constant": true
    },
    {
      "inputs": [],
      "name": "nftFactoryAddress",
      "outputs": [
        {
          "internalType": "address",
          "name": "",
          "type": "address"
        }
      ],
      "stateMutability": "view",
      "type": "function",
      "constant": true
    },
    {
      "inputs": [],
      "name": "nftMarketPlaceAddress",
      "outputs": [
        {
          "internalType": "address",
          "name": "",
          "type": "address"
        }
      ],
      "stateMutability": "view",
      "type": "function",
      "constant": true
    },
    {
      "inputs": [],
      "name": "owner",
      "outputs": [
        {
          "internalType": "address",
          "name": "",
          "type": "address"
        }
      ],
      "stateMutability": "view",
      "type": "function",
      "constant": true
    },
    {
      "inputs": [],
      "name": "renounceOwnership",
      "outputs": [],
      "stateMutability": "nonpayable",
      "type": "function"
    },
    {
      "inputs": [
        {
          "internalType": "address",
          "name": "newOwner",
          "type": "address"
        }
      ],
      "name": "transferOwnership",
      "outputs": [],
      "stateMutability": "nonpayable",
      "type": "function"
    },
    {
      "inputs": [
        {
          "internalType": "address",
          "name": "",
          "type": "address"
        }
      ],
      "name": "users",
      "outputs": [
        {
          "internalType": "string",
          "name": "name",
          "type": "string"
        },
        {
          "internalType": "bool",
          "name": "isRegistered",
          "type": "bool"
        }
      ],
      "stateMutability": "view",
      "type": "function",
      "constant": true
    },
    {
      "stateMutability": "payable",
      "type": "receive",
      "payable": true
    },
    {
      "inputs": [
        {
          "internalType": "address",
          "name": "to",
          "type": "address"
        },
        {
          "internalType": "uint256",
          "name": "amount",
          "type": "uint256"
        }
      ],
      "name": "mintListenToken",
      "outputs": [],
      "stateMutability": "nonpayable",
      "type": "function"
    },
    {
      "inputs": [
        {
          "internalType": "address",
          "name": "artistAddress",
          "type": "address"
        },
        {
          "internalType": "uint256",
          "name": "amount",
          "type": "uint256"
        }
      ],
      "name": "boostArtist",
      "outputs": [],
      "stateMutability": "nonpayable",
      "type": "function"
    },
    {
      "inputs": [
        {
          "internalType": "address",
          "name": "artistAddress",
          "type": "address"
        }
      ],
      "name": "getArtist",
      "outputs": [
        {
          "components": [
            {
              "internalType": "string",
              "name": "name",
              "type": "string"
            },
            {
              "internalType": "address",
              "name": "fanTokenAddress",
              "type": "address"
            },
            {
              "internalType": "bool",
              "name": "isRegistered",
              "type": "bool"
            },
            {
              "internalType": "bool",
              "name": "isValid",
              "type": "bool"
            }
          ],
          "internalType": "struct LinosPlatformInterface.Artist",
          "name": "",
          "type": "tuple"
        }
      ],
      "stateMutability": "view",
      "type": "function",
      "constant": true
    },
    {
      "inputs": [
        {
          "internalType": "address",
          "name": "userAddress",
          "type": "address"
        }
      ],
      "name": "getUser",
      "outputs": [
        {
          "components": [
            {
              "internalType": "string",
              "name": "name",
              "type": "string"
            },
            {
              "internalType": "bool",
              "name": "isRegistered",
              "type": "bool"
            }
          ],
          "internalType": "struct LinosPlatformInterface.User",
          "name": "",
          "type": "tuple"
        }
      ],
      "stateMutability": "view",
      "type": "function",
      "constant": true
    },
    {
      "inputs": [
        {
          "internalType": "address",
          "name": "artistAddress",
          "type": "address"
        }
      ],
      "name": "isArtistValid",
      "outputs": [
        {
          "internalType": "bool",
          "name": "",
          "type": "bool"
        }
      ],
      "stateMutability": "view",
      "type": "function",
      "constant": true
    },
    {
      "inputs": [
        {
          "internalType": "string",
          "name": "_artistName",
          "type": "string"
        },
        {
          "internalType": "string",
          "name": "_symbol",
          "type": "string"
        }
      ],
      "name": "registerAsArtist",
      "outputs": [],
      "stateMutability": "nonpayable",
      "type": "function"
    },
    {
      "inputs": [
        {
          "internalType": "string",
          "name": "_userName",
          "type": "string"
        }
      ],
      "name": "registerAsUser",
      "outputs": [],
      "stateMutability": "nonpayable",
      "type": "function"
    },
    {
      "inputs": [
        {
          "internalType": "string",
          "name": "_name",
          "type": "string"
        },
        {
          "internalType": "string",
          "name": "_coverUri",
          "type": "string"
        }
      ],
      "name": "createTrack",
      "outputs": [],
      "stateMutability": "nonpayable",
      "type": "function"
    }
  ],
  "bytecode": "0x60806040523480156200001157600080fd5b506200003862000029640100000000620002ab810204565b640100000000620002af810204565b60006040516200004890620002ff565b604051809103906000f08015801562000065573d6000803e3d6000fd5b506040517f3d18678e00000000000000000000000000000000000000000000000000000000815260056004820152909150600160a060020a03821690633d18678e90602401600060405180830381600087803b158015620000c557600080fd5b505af1158015620000da573d6000803e3d6000fd5b50506040517f517679cd000000000000000000000000000000000000000000000000000000008152306004820152600160a060020a038416925063517679cd9150602401600060405180830381600087803b1580156200013957600080fd5b505af11580156200014e573d6000803e3d6000fd5b505060038054600160a060020a031916600160a060020a038516179055505060405130906200017d906200030d565b600160a060020a039091168152602001604051809103906000f080158015620001aa573d6000803e3d6000fd5b50600160006101000a815481600160a060020a030219169083600160a060020a031602179055503081604051620001e1906200031b565b600160a060020a03928316815291166020820152604001604051809103906000f08015801562000215573d6000803e3d6000fd5b5060028054600160a060020a031916600160a060020a039283169081179091556040517fae3ca41e00000000000000000000000000000000000000000000000000000000815260048101919091529082169063ae3ca41e90602401600060405180830381600087803b1580156200028b57600080fd5b505af1158015620002a0573d6000803e3d6000fd5b505050505062000329565b3390565b60008054600160a060020a03838116600160a060020a0319831681178455604051919092169283917f8be0079c531659141344cd1fd0a4f28419497f9722a3daafe3b4186f6b6457e09190a35050565b61135b8062002b5983390190565b6110ae8062003eb483390190565b613c3e8062004f6283390190565b61282080620003396000396000f3fe60806040526004361062000128576000357c01000000000000000000000000000000000000000000000000000000009004806397c49d4911620000b8578063d40ee97b1162000086578063d40ee97b146200037e578063ee7d159614620003a0578063f2fde38b14620003c2578063f3720cca14620003e7578063fe8f03e6146200040c57005b806397c49d491462000298578063a87430ba14620002bd578063b949c80414620002f2578063ba7eea15146200032657005b8063715018a611620000f6578063715018a614620001f05780637b3ee633146200020857806381435586146200023d5780638da5cb5b146200027857005b8063069dab8f1462000132578063515ef10614620001725780636f77926b1462000197578063701fe33e14620001cb57005b366200013057005b005b3480156200013f57600080fd5b506200015762000151366004620011a5565b62000431565b60405162000169949392919062001212565b60405180910390f35b3480156200017f57600080fd5b5062000130620001913660046200129a565b620004fc565b348015620001a457600080fd5b50620001bc620001b6366004620011a5565b6200065a565b604051620001699190620012e0565b348015620001d857600080fd5b5062000130620001ea36600462001316565b62000741565b348015620001fd57600080fd5b506200013062000972565b3480156200021557600080fd5b506200022d6200022736600462001389565b6200098a565b60405162000169929190620013b6565b3480156200024a57600080fd5b506001546200025f90600160a060020a031681565b604051600160a060020a03909116815260200162000169565b3480156200028557600080fd5b50600054600160a060020a03166200025f565b348015620002a557600080fd5b5062000130620002b736600462001389565b62000aec565b348015620002ca57600080fd5b50620002e2620002dc366004620011a5565b62000b7b565b60405162000169929190620013e8565b348015620002ff57600080fd5b506200031762000311366004620011a5565b62000c2a565b6040516200016991906200140e565b3480156200033357600080fd5b506200036d62000345366004620011a5565b600160a060020a031660009081526005602052604090206001015460a860020a900460ff1690565b604051901515815260200162000169565b3480156200038b57600080fd5b506002546200025f90600160a060020a031681565b348015620003ad57600080fd5b506003546200025f90600160a060020a031681565b348015620003cf57600080fd5b5062000130620003e1366004620011a5565b62000d48565b348015620003f457600080fd5b50620001306200040636600462001316565b62000de1565b3480156200041957600080fd5b50620001306200042b36600462001389565b62000f21565b6005602052600090815260409020805481906200044e9062001463565b80601f01602080910402602001604051908101604052809291908181526020018280546200047c9062001463565b8015620004cd5780601f10620004a157610100808354040283529160200191620004cd565b820191906000526020600020905b815481529060010190602001808311620004af57829003601f168201915b50505060019093015491925050600160a060020a0381169060ff60a060020a820481169160a860020a90041684565b3360008181526005602052604090206001015460a060020a900460ff16156200056f5760405160e560020a62461bcd02815260206004820152601960248201527f41727469737420416c726561647920726567697374657265640000000000000060448201526064015b60405180910390fd5b3360008181526004602052604090206001015460ff1615620005d75760405160e560020a62461bcd02815260206004820152601760248201527f5573657220416c72656164792072656769737465726564000000000000000000604482015260640162000566565b6040805160606020601f87018190040282018101835291810185815290918291908790879081908501838280828437600092018290525093855250506001602093840152503381526004909152604090208151819062000638908262001536565b50602091909101516001909101805460ff191691151591909117905550505050565b604080518082019091526060815260006020820152600160a060020a038216600090815260046020526040908190208151808301909252805482908290620006a29062001463565b80601f0160208091040260200160405190810160405280929190818152602001828054620006d09062001463565b8015620007215780601f10620006f55761010080835404028352916020019162000721565b820191906000526020600020905b8154815290600101906020018083116200070357829003601f168201915b50505091835250506001919091015460ff16151560209091015292915050565b3360008181526005602052604090206001015460a060020a900460ff1615620007b05760405160e560020a62461bcd02815260206004820152601960248201527f41727469737420416c7265616479207265676973746572656400000000000000604482015260640162000566565b3360008181526004602052604090206001015460ff1615620008185760405160e560020a62461bcd02815260206004820152601760248201527f5573657220416c72656164792072656769737465726564000000000000000000604482015260640162000566565b6000868686866040516020016200083192919062001609565b604051602081830303815290604052306040516200084f906200117a565b6200085e949392919062001642565b604051809103906000f0801580156200087b573d6000803e3d6000fd5b506040805160a06020601f8b018190040282018101909252608081018981529293509182918a908a90819085018382808284376000920182905250938552505050600160a060020a03841660208084019190915260016040808501829052606090940152338252600590522081518190620008f7908262001536565b506020820151600190910180546040840151606090940151151560a860020a0275ff0000000000000000000000000000000000000000001994151560a060020a0274ffffffffffffffffffffffffffffffffffffffffff19909216600160a060020a0390941693909317179290921617905550505050505050565b6200097c620010be565b6200098860006200111d565b565b60066020528160005260406000208181548110620009a757600080fd5b906000526020600020906002020160009150915050806000018054620009cd9062001463565b80601f0160208091040260200160405190810160405280929190818152602001828054620009fb9062001463565b801562000a4c5780601f1062000a205761010080835404028352916020019162000a4c565b820191906000526020600020905b81548152906001019060200180831162000a2e57829003601f168201915b50505050509080600101805462000a639062001463565b80601f016020809104026020016040519081016040528092919081815260200182805462000a919062001463565b801562000ae25780601f1062000ab65761010080835404028352916020019162000ae2565b820191906000526020600020905b81548152906001019060200180831162000ac457829003601f168201915b5050505050905082565b62000af6620010be565b6001546040517f40c10f19000000000000000000000000000000000000000000000000000000008152600160a060020a03848116600483015260248201849052909116906340c10f1990604401600060405180830381600087803b15801562000b5e57600080fd5b505af115801562000b73573d6000803e3d6000fd5b505050505050565b60046020526000908152604090208054819062000b989062001463565b80601f016020809104026020016040519081016040528092919081815260200182805462000bc69062001463565b801562000c175780601f1062000beb5761010080835404028352916020019162000c17565b820191906000526020600020905b81548152906001019060200180831162000bf957829003601f168201915b5050506001909301549192505060ff1682565b604080516080810182526060808252600060208301819052928201839052810191909152600160a060020a0382166000908152600560205260409081902081516080810190925280548290829062000c829062001463565b80601f016020809104026020016040519081016040528092919081815260200182805462000cb09062001463565b801562000d015780601f1062000cd55761010080835404028352916020019162000d01565b820191906000526020600020905b81548152906001019060200180831162000ce357829003601f168201915b505050918352505060019190910154600160a060020a038116602083015260ff60a060020a820481161515604084015260a860020a90910416151560609091015292915050565b62000d52620010be565b600160a060020a03811662000dd35760405160e560020a62461bcd02815260206004820152602660248201527f4f776e61626c653a206e6577206f776e657220697320746865207a65726f206160448201527f6464726573730000000000000000000000000000000000000000000000000000606482015260840162000566565b62000dde816200111d565b50565b3360008181526005602052604090206001015460a860020a900460ff1662000e4f5760405160e560020a62461bcd02815260206004820152601360248201527f417274697374206973206e6f742076616c696400000000000000000000000000604482015260640162000566565b3360009081526006602090815260409182902082516060601f89018490049093028101830184529283018781529092918291908990899081908501838280828437600092019190915250505090825250604080516020601f880181900481028201810190925286815291810191908790879081908401838280828437600092018290525093909452505083546001810185559381526020902082519293600202019182915062000f00908262001536565b506020820151600182019062000f17908262001536565b5050505050505050565b600160a060020a038216600090815260056020526040902060010154829060a860020a900460ff1662000f9a5760405160e560020a62461bcd02815260206004820152601360248201527f417274697374206973206e6f742076616c696400000000000000000000000000604482015260640162000566565b60018054600160a060020a03858116600090815260056020526040908190209093015492517f40c10f190000000000000000000000000000000000000000000000000000000081523360048201526024810186905291811692169081906340c10f1990604401600060405180830381600087803b1580156200101b57600080fd5b505af115801562001030573d6000803e3d6000fd5b50506040517f360f4fdf000000000000000000000000000000000000000000000000000000008152336004820152600160a060020a038881166024830152604482018890528516925063360f4fdf9150606401600060405180830381600087803b1580156200109e57600080fd5b505af1158015620010b3573d6000803e3d6000fd5b505050505050505050565b600054600160a060020a03163314620009885760405160e560020a62461bcd02815260206004820181905260248201527f4f776e61626c653a2063616c6c6572206973206e6f7420746865206f776e6572604482015260640162000566565b60008054600160a060020a0383811673ffffffffffffffffffffffffffffffffffffffff19831681178455604051919092169283917f8be0079c531659141344cd1fd0a4f28419497f9722a3daafe3b4186f6b6457e09190a35050565b61114d806200169e83390190565b8035600160a060020a0381168114620011a057600080fd5b919050565b600060208284031215620011b857600080fd5b620011c38262001188565b9392505050565b6000815180845260005b81811015620011f257602081850181015186830182015201620011d4565b506000602082860101526020601f19601f83011685010191505092915050565b608081526000620012276080830187620011ca565b600160a060020a039590951660208301525091151560408301521515606090910152919050565b60008083601f8401126200126157600080fd5b50813567ffffffffffffffff8111156200127a57600080fd5b6020830191508360208285010111156200129357600080fd5b9250929050565b60008060208385031215620012ae57600080fd5b823567ffffffffffffffff811115620012c657600080fd5b620012d4858286016200124e565b90969095509350505050565b602081526000825160406020840152620012fe6060840182620011ca565b90506020840151151560408401528091505092915050565b600080600080604085870312156200132d57600080fd5b843567ffffffffffffffff808211156200134657600080fd5b62001354888389016200124e565b909650945060208701359150808211156200136e57600080fd5b506200137d878288016200124e565b95989497509550505050565b600080604083850312156200139d57600080fd5b620013a88362001188565b946020939093013593505050565b604081526000620013cb6040830185620011ca565b8281036020840152620013df8185620011ca565b95945050505050565b604081526000620013fd6040830185620011ca565b905082151560208301529392505050565b6020815260008251608060208401526200142c60a0840182620011ca565b9050600160a060020a0360208501511660408401526040840151151560608401526060840151151560808401528091505092915050565b6002810460018216806200147857607f821691505b602082108103620014b2577f4e487b7100000000000000000000000000000000000000000000000000000000600052602260045260246000fd5b50919050565b7f4e487b7100000000000000000000000000000000000000000000000000000000600052604160045260246000fd5b601f82111562001531576000818152602081206020601f86010481016020861015620015105750805b6020601f860104820191505b8181101562000b73578281556001016200151c565b505050565b815167ffffffffffffffff811115620015535762001553620014b8565b6200156b8162001564845462001463565b84620014e7565b602080601f831160018114620015a757600084156200158a5750858301515b60028086026008870290910a600019041982161786555062000b73565b600085815260208120601f198616915b82811015620015d857888601518255948401946001909101908401620015b7565b5085821015620015f957878501516008601f88160260020a60001904191681555b5050505050600202600101905550565b7f4c2d00000000000000000000000000000000000000000000000000000000000081528183600283013760009101600201908152919050565b60608152836060820152838560808301376000608085830101526000601f19601f86011682016080838203016020840152620016826080820186620011ca565b915050600160a060020a03831660408301529594505050505056fe60806040526005805460a060020a60ff02191690553480156200002157600080fd5b506040516200114d3803806200114d8339810160408190526200004491620001ef565b8282600362000054838262000324565b50600462000063828262000324565b5050506200009262000083620000bb640100000000026401000000009004565b640100000000620000bf810204565b60068054600160a060020a031916600160a060020a039290921691909117905550620003f69050565b3390565b60058054600160a060020a03838116600160a060020a0319831681179093556040519116919082907f8be0079c531659141344cd1fd0a4f28419497f9722a3daafe3b4186f6b6457e090600090a35050565b7f4e487b7100000000000000000000000000000000000000000000000000000000600052604160045260246000fd5b600082601f8301126200015257600080fd5b81516001604060020a03808211156200016f576200016f62000111565b604051601f8301601f19908116603f011681019082821181831017156200019a576200019a62000111565b81604052838152602092508683858801011115620001b757600080fd5b600091505b83821015620001db5785820183015181830184015290820190620001bc565b600093810190920192909252949350505050565b6000806000606084860312156200020557600080fd5b83516001604060020a03808211156200021d57600080fd5b6200022b8783880162000140565b945060208601519150808211156200024257600080fd5b50620002518682870162000140565b60408601519093509050600160a060020a03811681146200027157600080fd5b809150509250925092565b6002810460018216806200029157607f821691505b602082108103620002cb577f4e487b7100000000000000000000000000000000000000000000000000000000600052602260045260246000fd5b50919050565b601f8211156200031f576000818152602081206020601f86010481016020861015620002fa5750805b6020601f860104820191505b818110156200031b5782815560010162000306565b5050505b505050565b81516001604060020a0381111562000340576200034062000111565b62000358816200035184546200027c565b84620002d1565b602080601f831160018114620003945760008415620003775750858301515b60028086026008870290910a60001904198216178655506200031b565b600085815260208120601f198616915b82811015620003c557888601518255948401946001909101908401620003a4565b5085821015620003e657878501516008601f88160260020a60001904191681555b5050505050600202600101905550565b610d4780620004066000396000f3fe608060405234801561001057600080fd5b5060043610610128576000357c01000000000000000000000000000000000000000000000000000000009004806370a08231116100bf578063a457c2d71161008e578063a457c2d714610231578063a9059cbb14610244578063dd62ed3e14610257578063f1e9d2031461026a578063f2fde38b1461027257600080fd5b806370a08231146101dd578063715018a6146102065780638da5cb5b1461020e57806395d89b411461022957600080fd5b8063313ce567116100fb578063313ce56714610193578063360f4fdf146101a257806339509351146101b757806340c10f19146101ca57600080fd5b806306fdde031461012d578063095ea7b31461014b57806318160ddd1461016e57806323b872dd14610180575b600080fd5b610135610285565b6040516101429190610b5f565b60405180910390f35b61015e610159366004610bc9565b610317565b6040519015158152602001610142565b6002545b604051908152602001610142565b61015e61018e366004610bf3565b610331565b60405160128152602001610142565b6101b56101b0366004610bf3565b610355565b005b61015e6101c5366004610bc9565b61036d565b6101b56101d8366004610bc9565b61038f565b6101726101eb366004610c2f565b600160a060020a031660009081526020819052604090205490565b6101b56103a5565b600554604051600160a060020a039091168152602001610142565b6101356103b9565b61015e61023f366004610bc9565b6103c8565b61015e610252366004610bc9565b610463565b610172610265366004610c51565b610471565b6101b561049c565b6101b5610280366004610c2f565b6104e7565b60606003805461029490610c84565b80601f01602080910402602001604051908101604052809291908181526020018280546102c090610c84565b801561030d5780601f106102e25761010080835404028352916020019161030d565b820191906000526020600020905b8154815290600101906020018083116102f057829003601f168201915b5050505050905090565b60003361032581858561057a565b60019150505b92915050565b60003361033f8582856106d8565b61034a858585610755565b506001949350505050565b61035d610956565b610368838383610755565b505050565b6000336103258185856103808383610471565b61038a9190610cd7565b61057a565b610397610956565b6103a182826109b3565b5050565b6103ad610956565b6103b76000610a81565b565b60606004805461029490610c84565b600033816103d68286610471565b9050838110156104565760405160e560020a62461bcd02815260206004820152602560248201527f45524332303a2064656372656173656420616c6c6f77616e63652062656c6f7760448201527f207a65726f00000000000000000000000000000000000000000000000000000060648201526084015b60405180910390fd5b61034a828686840361057a565b600033610325818585610755565b600160a060020a03918216600090815260016020908152604080832093909416825291909152205490565b6104a4610956565b6005805474ff0000000000000000000000000000000000000000198116740100000000000000000000000000000000000000009182900460ff1615909102179055565b6104ef610956565b600160a060020a03811661056e5760405160e560020a62461bcd02815260206004820152602660248201527f4f776e61626c653a206e6577206f776e657220697320746865207a65726f206160448201527f6464726573730000000000000000000000000000000000000000000000000000606482015260840161044d565b61057781610a81565b50565b600160a060020a0383166105f85760405160e560020a62461bcd028152602060048201526024808201527f45524332303a20617070726f76652066726f6d20746865207a65726f2061646460448201527f7265737300000000000000000000000000000000000000000000000000000000606482015260840161044d565b600160a060020a0382166106775760405160e560020a62461bcd02815260206004820152602260248201527f45524332303a20617070726f766520746f20746865207a65726f20616464726560448201527f7373000000000000000000000000000000000000000000000000000000000000606482015260840161044d565b600160a060020a0383811660008181526001602090815260408083209487168084529482529182902085905590518481527f8c5be1e5ebec7d5bd14f71427d1e84f3dd0314c0f7b2291e5b200ac8c7c3b925910160405180910390a3505050565b60006106e48484610471565b9050600019811461074f57818110156107425760405160e560020a62461bcd02815260206004820152601d60248201527f45524332303a20696e73756666696369656e7420616c6c6f77616e6365000000604482015260640161044d565b61074f848484840361057a565b50505050565b600160a060020a0383166107d45760405160e560020a62461bcd02815260206004820152602560248201527f45524332303a207472616e736665722066726f6d20746865207a65726f20616460448201527f6472657373000000000000000000000000000000000000000000000000000000606482015260840161044d565b600160a060020a0382166108535760405160e560020a62461bcd02815260206004820152602360248201527f45524332303a207472616e7366657220746f20746865207a65726f206164647260448201527f6573730000000000000000000000000000000000000000000000000000000000606482015260840161044d565b61085e838383610ae0565b600160a060020a038316600090815260208190526040902054818110156108f05760405160e560020a62461bcd02815260206004820152602660248201527f45524332303a207472616e7366657220616d6f756e742065786365656473206260448201527f616c616e63650000000000000000000000000000000000000000000000000000606482015260840161044d565b600160a060020a03848116600081815260208181526040808320878703905593871680835291849020805487019055925185815290927fddf252ad1be2c89b69c2b068fc378daa952ba7f163c4a11628f55a4df523b3ef910160405180910390a361074f565b600554600160a060020a031633146103b75760405160e560020a62461bcd02815260206004820181905260248201527f4f776e61626c653a2063616c6c6572206973206e6f7420746865206f776e6572604482015260640161044d565b600160a060020a038216610a0c5760405160e560020a62461bcd02815260206004820152601f60248201527f45524332303a206d696e7420746f20746865207a65726f206164647265737300604482015260640161044d565b610a1860008383610ae0565b8060026000828254610a2a9190610cd7565b9091555050600160a060020a038216600081815260208181526040808320805486019055518481527fddf252ad1be2c89b69c2b068fc378daa952ba7f163c4a11628f55a4df523b3ef910160405180910390a35050565b60058054600160a060020a0383811673ffffffffffffffffffffffffffffffffffffffff19831681179093556040519116919082907f8be0079c531659141344cd1fd0a4f28419497f9722a3daafe3b4186f6b6457e090600090a35050565b600554600160a060020a031633146103685760055474010000000000000000000000000000000000000000900460ff166103685760405160e560020a62461bcd02815260206004820152601f60248201527f546f6b656e207472616e736665727320617265206e6f7420616c6c6f77656400604482015260640161044d565b600060208083528351808285015260005b81811015610b8c57858101830151858201604001528201610b70565b506000604082860101526040601f19601f8301168501019250505092915050565b8035600160a060020a0381168114610bc457600080fd5b919050565b60008060408385031215610bdc57600080fd5b610be583610bad565b946020939093013593505050565b600080600060608486031215610c0857600080fd5b610c1184610bad565b9250610c1f60208501610bad565b9150604084013590509250925092565b600060208284031215610c4157600080fd5b610c4a82610bad565b9392505050565b60008060408385031215610c6457600080fd5b610c6d83610bad565b9150610c7b60208401610bad565b90509250929050565b600281046001821680610c9857607f821691505b602082108103610cd1577f4e487b7100000000000000000000000000000000000000000000000000000000600052602260045260246000fd5b50919050565b8082018082111561032b577f4e487b7100000000000000000000000000000000000000000000000000000000600052601160045260246000fdfea264697066735822122049c0d6bbe0e2f98336c97177459aea10849cd9a4fa6838a68f04f194d21096c464736f6c63430008110033a264697066735822122080215fda1c69184151f489c4ec8fb94153e17de1892c3b653cf41a1a32fabc7d64736f6c63430008110033608060405261271060055534801561001657600080fd5b5061003961002b64010000000061003e810204565b640100000000610042810204565b610092565b3390565b60008054600160a060020a03838116600160a060020a0319831681178455604051919092169283917f8be0079c531659141344cd1fd0a4f28419497f9722a3daafe3b4186f6b6457e09190a35050565b6112ba806100a16000396000f3fe6080604052600436106100df576000357c010000000000000000000000000000000000000000000000000000000090048063715018a61161009c5780639af1d35a116100765780639af1d35a14610278578063ae3ca41e1461028e578063e7d215e9146102ae578063f2fde38b146102ce57600080fd5b8063715018a6146102185780638da5cb5b1461022d5780639979c0091461025557600080fd5b8063107a274a146100e4578063305a67a8146101685780633919e4f51461018a5780633d18678e146101b85780634d713868146101d8578063517679cd146101f8575b600080fd5b3480156100f057600080fd5b506101046100ff3660046110ea565b6102ee565b60405161015f9190600060c082019050600160a060020a038084511683528060208501511660208401525060408301516040830152606083015160608301526080830151608083015260a0830151151560a083015292915050565b60405180910390f35b34801561017457600080fd5b506101886101833660046110ea565b6103f6565b005b34801561019657600080fd5b506101aa6101a536600461111f565b61051d565b60405190815260200161015f565b3480156101c457600080fd5b506101886101d33660046110ea565b61093a565b3480156101e457600080fd5b506101886101f3366004611158565b61099b565b34801561020457600080fd5b50610188610213366004611158565b610a46565b34801561022457600080fd5b50610188610a7d565b34801561023957600080fd5b50600054604051600160a060020a03909116815260200161015f565b61026861026336600461117a565b610a91565b604051901515815260200161015f565b34801561028457600080fd5b506101aa60045481565b34801561029a57600080fd5b506101886102a9366004611158565b610f2f565b3480156102ba57600080fd5b506101886102c9366004611158565b610f66565b3480156102da57600080fd5b506101886102e9366004611158565b610f9d565b6040805160c081018252600080825260208201819052918101829052606081018290526080810182905260a0810191909152600082815260086020526040902054600160a060020a031661038c5760405160e560020a62461bcd02815260206004820152601c60248201527f54686973206c697374696e6720646f6573206e6f74206578697374730000000060448201526064015b60405180910390fd5b50600090815260086020908152604091829020825160c0810184528154600160a060020a03908116825260018301541692810192909252600281015492820192909252600382015460608201526004820154608082015260059091015460ff16151560a082015290565b600081815260086020526040902054600160a060020a0316331461045f5760405160e560020a62461bcd02815260206004820152601960248201527f54686973206c697374696e67206973206e6f7420796f757273000000000000006044820152606401610383565b60008181526008602052604090206005015460ff16156104c45760405160e560020a62461bcd02815260206004820152601860248201527f6c697374696e6720616c72656164792063616e63656c656400000000000000006044820152606401610383565b60008181526008602052604090819020600501805460ff19166001179055517f121235da9a2dca4523b6692d39233c871160f0d73bee2cb96747ec05412b42f1906105129083815260200190565b60405180910390a150565b60008083116105975760405160e560020a62461bcd02815260206004820152603860248201527f54686520616d6f756e74206f6620746f6b656e7320746f2073656c6c2c206e6560448201527f65647320746f2062652067726561746572207468616e203000000000000000006064820152608401610383565b600082116106105760405160e560020a62461bcd02815260206004820152603760248201527f5468652066756c6c20707269636520666f722074686520746f6b656e73206e6560448201527f656420746f2062652067726561746572207468616e20300000000000000000006064820152608401610383565b6040517fe985e9c50000000000000000000000000000000000000000000000000000000081523360048201523060248201528590600160a060020a0382169063e985e9c590604401602060405180830381865afa158015610675573d6000803e3d6000fd5b505050506040513d601f19601f82011682018060405250810190610699919061119c565b6106e85760405160e560020a62461bcd02815260206004820152601c60248201527f596f75206d75737420617070726f7665206265666f7265206c697374000000006044820152606401610383565b6040517efdd58e000000000000000000000000000000000000000000000000000000008152336004820152602481018690528490600160a060020a0383169062fdd58e90604401602060405180830381865afa15801561074c573d6000803e3d6000fd5b505050506040513d601f19601f8201168201806040525081019061077091906111be565b10156107c15760405160e560020a62461bcd02815260206004820152601d60248201527f596f7520646f6e2774206861766520656e6f7567687420746f6b656e730000006044820152606401610383565b6040805160c08101825233808252600160a060020a0389811660208085018281528587018c8152606087018c8152608088018c8152600060a08a01818152600780548352600888528c83209b518c54908b1673ffffffffffffffffffffffffffffffffffffffff19918216178d55965160018d01805491909b16971696909617909855925160028a01559051600389015551600488015593516005909601805496151560ff19909716969096179095559354818352600985528583208b84528552858320819055908252600a8452848220819055828252600b90935283902082905591517fa7cbbbd174aea7fee3a11581da385f48dbbe1e3d361ebc43a183beec20abd7cf926109049290918a918a918990600160a060020a03958616815293909416602084015260408301919091526060820152608081019190915260a00190565b60405180910390a16007805490600061091c83611206565b91905055506001600754610930919061121f565b9695505050505050565b610942611030565b60055481106109965760405160e560020a62461bcd02815260206004820152601360248201527f46656573206d757374206265203c2039393939000000000000000000000000006044820152606401610383565b600455565b600154600160a060020a03163314806109be5750600254600160a060020a031633145b806109d35750600354600160a060020a031633145b610a225760405160e560020a62461bcd02815260206004820152601a60248201527f4c696e6f734f776e61626c653a206e6f7420616e206f776e65720000000000006044820152606401610383565b600160a060020a03166000908152600660205260409020805460ff19166001179055565b610a4e611030565b6001805473ffffffffffffffffffffffffffffffffffffffff1916600160a060020a0392909216919091179055565b610a85611030565b610a8f600061108d565b565b6000808211610ae55760405160e560020a62461bcd02815260206004820152601d60248201527f596f75206d75737420627579206174206c65617374203120746f6b656e0000006044820152606401610383565b600083815260086020526040902054600160a060020a0316610b4c5760405160e560020a62461bcd02815260206004820152601c60248201527f54686973206c697374696e6720646f6573206e6f7420657869737473000000006044820152606401610383565b600083815260086020526040902060030154821115610bb05760405160e560020a62461bcd02815260206004820152601960248201527f4e6f7420656e6f7567687420746f6b656e20746f2073656c6c000000000000006044820152606401610383565b6000838152600860205260409020600401543490610bcf908490611232565b14610c455760405160e560020a62461bcd02815260206004820152603b60248201527f596f75206d757374207061792065786163746c7920746865207072696365207060448201527f657220746f6b656e202a20616d6f756e742070657220746f6b656e00000000006064820152608401610383565b600083815260086020526040902060030154610c6290839061121f565b60008481526008602052604080822060038101939093556001830154835460029094015491517ff242432a000000000000000000000000000000000000000000000000000000008152600160a060020a03948516600482015233602482015260448101929092526064820186905260a0608483015260a4820192909252911690819063f242432a9060c401600060405180830381600087803b158015610d0757600080fd5b505af1158015610d1b573d6000803e3d6000fd5b505060055460045434935060009250610d35908490611232565b610d3f9190611249565b90506000610d4d828461121f565b6000888152600860205260408082205490519293509091600160a060020a039091169083908381818185875af1925050503d8060008114610daa576040519150601f19603f3d011682016040523d82523d6000602084013e610daf565b606091505b505090506000610dc7600054600160a060020a031690565b600160a060020a03168460405160006040518083038185875af1925050503d8060008114610e11576040519150601f19603f3d011682016040523d82523d6000602084013e610e16565b606091505b5050905081610e6a5760405160e560020a62461bcd02815260206004820152601960248201527f5472616e73666572206661696c656420746f2053656c6c6572000000000000006044820152606401610383565b80610eba5760405160e560020a62461bcd02815260206004820152601860248201527f5472616e73666572206661696c656420746f204f776e657200000000000000006044820152606401610383565b600089815260086020908152604091829020548251338152600160a060020a03909116918101919091529081018a9052606081018990527f797abd7322a72df2fd9412f6ff5500e993efb298450cc1d7e9fd84e296592b089060800160405180910390a1600196505050505050505b92915050565b610f37611030565b6002805473ffffffffffffffffffffffffffffffffffffffff1916600160a060020a0392909216919091179055565b610f6e611030565b6003805473ffffffffffffffffffffffffffffffffffffffff1916600160a060020a0392909216919091179055565b610fa5611030565b600160a060020a0381166110245760405160e560020a62461bcd02815260206004820152602660248201527f4f776e61626c653a206e6577206f776e657220697320746865207a65726f206160448201527f64647265737300000000000000000000000000000000000000000000000000006064820152608401610383565b61102d8161108d565b50565b600054600160a060020a03163314610a8f5760405160e560020a62461bcd02815260206004820181905260248201527f4f776e61626c653a2063616c6c6572206973206e6f7420746865206f776e65726044820152606401610383565b60008054600160a060020a0383811673ffffffffffffffffffffffffffffffffffffffff19831681178455604051919092169283917f8be0079c531659141344cd1fd0a4f28419497f9722a3daafe3b4186f6b6457e09190a35050565b6000602082840312156110fc57600080fd5b5035919050565b8035600160a060020a038116811461111a57600080fd5b919050565b6000806000806080858703121561113557600080fd5b61113e85611103565b966020860135965060408601359560600135945092505050565b60006020828403121561116a57600080fd5b61117382611103565b9392505050565b6000806040838503121561118d57600080fd5b50508035926020909101359150565b6000602082840312156111ae57600080fd5b8151801515811461117357600080fd5b6000602082840312156111d057600080fd5b5051919050565b7f4e487b7100000000000000000000000000000000000000000000000000000000600052601160045260246000fd5b600060018201611218576112186111d7565b5060010190565b81810381811115610f2957610f296111d7565b8082028115828204841417610f2957610f296111d7565b60008261127f577f4e487b7100000000000000000000000000000000000000000000000000000000600052601260045260246000fd5b50049056fea264697066735822122097dda530e230b98aff3ac66d1c3282e5f8ea31db870536a396f5eb10ec72458464736f6c6343000811003360806040526005805460a060020a60ff02191690553480156200002157600080fd5b50604051620010ae380380620010ae83398101604081905262000044916200017b565b6040518060400160405280601281526020017f4c696e6f73204c697374656e20546f6b656e00000000000000000000000000008152506040518060400160405280600581526020017f4c494e4f530000000000000000000000000000000000000000000000000000008152508160039081620000c1919062000284565b506004620000d0828262000284565b505050620000ff620000f062000125640100000000026401000000009004565b64010000000062000129810204565b60068054600160a060020a031916600160a060020a039290921691909117905562000357565b3390565b60058054600160a060020a03838116600160a060020a0319831681179093556040519116919082907f8be0079c531659141344cd1fd0a4f28419497f9722a3daafe3b4186f6b6457e090600090a35050565b6000602082840312156200018e57600080fd5b8151600160a060020a0381168114620001a657600080fd5b9392505050565b7f4e487b7100000000000000000000000000000000000000000000000000000000600052604160045260246000fd5b600281046001821680620001f157607f821691505b6020821081036200022b577f4e487b7100000000000000000000000000000000000000000000000000000000600052602260045260246000fd5b50919050565b601f8211156200027f576000818152602081206020601f860104810160208610156200025a5750805b6020601f860104820191505b818110156200027b5782815560010162000266565b5050505b505050565b815167ffffffffffffffff811115620002a157620002a1620001ad565b620002b981620002b28454620001dc565b8462000231565b602080601f831160018114620002f55760008415620002d85750858301515b60028086026008870290910a60001904198216178655506200027b565b600085815260208120601f198616915b82811015620003265788860151825594840194600190910190840162000305565b50858210156200034757878501516008601f88160260020a60001904191681555b5050505050600202600101905550565b610d4780620003676000396000f3fe608060405234801561001057600080fd5b5060043610610128576000357c01000000000000000000000000000000000000000000000000000000009004806370a08231116100bf578063a457c2d71161008e578063a457c2d714610231578063a9059cbb14610244578063dd62ed3e14610257578063f1e9d2031461026a578063f2fde38b1461027257600080fd5b806370a08231146101dd578063715018a6146102065780638da5cb5b1461020e57806395d89b411461022957600080fd5b8063313ce567116100fb578063313ce56714610193578063360f4fdf146101a257806339509351146101b757806340c10f19146101ca57600080fd5b806306fdde031461012d578063095ea7b31461014b57806318160ddd1461016e57806323b872dd14610180575b600080fd5b610135610285565b6040516101429190610b5f565b60405180910390f35b61015e610159366004610bc9565b610317565b6040519015158152602001610142565b6002545b604051908152602001610142565b61015e61018e366004610bf3565b610331565b60405160128152602001610142565b6101b56101b0366004610bf3565b610355565b005b61015e6101c5366004610bc9565b61036d565b6101b56101d8366004610bc9565b61038f565b6101726101eb366004610c2f565b600160a060020a031660009081526020819052604090205490565b6101b56103a5565b600554604051600160a060020a039091168152602001610142565b6101356103b9565b61015e61023f366004610bc9565b6103c8565b61015e610252366004610bc9565b610463565b610172610265366004610c51565b610471565b6101b561049c565b6101b5610280366004610c2f565b6104e7565b60606003805461029490610c84565b80601f01602080910402602001604051908101604052809291908181526020018280546102c090610c84565b801561030d5780601f106102e25761010080835404028352916020019161030d565b820191906000526020600020905b8154815290600101906020018083116102f057829003601f168201915b5050505050905090565b60003361032581858561057a565b60019150505b92915050565b60003361033f8582856106d8565b61034a858585610755565b506001949350505050565b61035d610956565b610368838383610755565b505050565b6000336103258185856103808383610471565b61038a9190610cd7565b61057a565b610397610956565b6103a182826109b3565b5050565b6103ad610956565b6103b76000610a81565b565b60606004805461029490610c84565b600033816103d68286610471565b9050838110156104565760405160e560020a62461bcd02815260206004820152602560248201527f45524332303a2064656372656173656420616c6c6f77616e63652062656c6f7760448201527f207a65726f00000000000000000000000000000000000000000000000000000060648201526084015b60405180910390fd5b61034a828686840361057a565b600033610325818585610755565b600160a060020a03918216600090815260016020908152604080832093909416825291909152205490565b6104a4610956565b6005805474ff0000000000000000000000000000000000000000198116740100000000000000000000000000000000000000009182900460ff1615909102179055565b6104ef610956565b600160a060020a03811661056e5760405160e560020a62461bcd02815260206004820152602660248201527f4f776e61626c653a206e6577206f776e657220697320746865207a65726f206160448201527f6464726573730000000000000000000000000000000000000000000000000000606482015260840161044d565b61057781610a81565b50565b600160a060020a0383166105f85760405160e560020a62461bcd028152602060048201526024808201527f45524332303a20617070726f76652066726f6d20746865207a65726f2061646460448201527f7265737300000000000000000000000000000000000000000000000000000000606482015260840161044d565b600160a060020a0382166106775760405160e560020a62461bcd02815260206004820152602260248201527f45524332303a20617070726f766520746f20746865207a65726f20616464726560448201527f7373000000000000000000000000000000000000000000000000000000000000606482015260840161044d565b600160a060020a0383811660008181526001602090815260408083209487168084529482529182902085905590518481527f8c5be1e5ebec7d5bd14f71427d1e84f3dd0314c0f7b2291e5b200ac8c7c3b925910160405180910390a3505050565b60006106e48484610471565b9050600019811461074f57818110156107425760405160e560020a62461bcd02815260206004820152601d60248201527f45524332303a20696e73756666696369656e7420616c6c6f77616e6365000000604482015260640161044d565b61074f848484840361057a565b50505050565b600160a060020a0383166107d45760405160e560020a62461bcd02815260206004820152602560248201527f45524332303a207472616e736665722066726f6d20746865207a65726f20616460448201527f6472657373000000000000000000000000000000000000000000000000000000606482015260840161044d565b600160a060020a0382166108535760405160e560020a62461bcd02815260206004820152602360248201527f45524332303a207472616e7366657220746f20746865207a65726f206164647260448201527f6573730000000000000000000000000000000000000000000000000000000000606482015260840161044d565b61085e838383610ae0565b600160a060020a038316600090815260208190526040902054818110156108f05760405160e560020a62461bcd02815260206004820152602660248201527f45524332303a207472616e7366657220616d6f756e742065786365656473206260448201527f616c616e63650000000000000000000000000000000000000000000000000000606482015260840161044d565b600160a060020a03848116600081815260208181526040808320878703905593871680835291849020805487019055925185815290927fddf252ad1be2c89b69c2b068fc378daa952ba7f163c4a11628f55a4df523b3ef910160405180910390a361074f565b600554600160a060020a031633146103b75760405160e560020a62461bcd02815260206004820181905260248201527f4f776e61626c653a2063616c6c6572206973206e6f7420746865206f776e6572604482015260640161044d565b600160a060020a038216610a0c5760405160e560020a62461bcd02815260206004820152601f60248201527f45524332303a206d696e7420746f20746865207a65726f206164647265737300604482015260640161044d565b610a1860008383610ae0565b8060026000828254610a2a9190610cd7565b9091555050600160a060020a038216600081815260208181526040808320805486019055518481527fddf252ad1be2c89b69c2b068fc378daa952ba7f163c4a11628f55a4df523b3ef910160405180910390a35050565b60058054600160a060020a0383811673ffffffffffffffffffffffffffffffffffffffff19831681179093556040519116919082907f8be0079c531659141344cd1fd0a4f28419497f9722a3daafe3b4186f6b6457e090600090a35050565b600554600160a060020a031633146103685760055474010000000000000000000000000000000000000000900460ff166103685760405160e560020a62461bcd02815260206004820152601f60248201527f546f6b656e207472616e736665727320617265206e6f7420616c6c6f77656400604482015260640161044d565b600060208083528351808285015260005b81811015610b8c57858101830151858201604001528201610b70565b506000604082860101526040601f19601f8301168501019250505092915050565b8035600160a060020a0381168114610bc457600080fd5b919050565b60008060408385031215610bdc57600080fd5b610be583610bad565b946020939093013593505050565b600080600060608486031215610c0857600080fd5b610c1184610bad565b9250610c1f60208501610bad565b9150604084013590509250925092565b600060208284031215610c4157600080fd5b610c4a82610bad565b9392505050565b60008060408385031215610c6457600080fd5b610c6d83610bad565b9150610c7b60208401610bad565b90509250929050565b600281046001821680610c9857607f821691505b602082108103610cd1577f4e487b7100000000000000000000000000000000000000000000000000000000600052602260045260246000fd5b50919050565b8082018082111561032b577f4e487b7100000000000000000000000000000000000000000000000000000000600052601160045260246000fdfea26469706673582212208f39c75d1ba8d0576e037c4f0b5ef90cbd26bf8224a9e89971e00e44774467c164736f6c63430008110033608060405234801561001057600080fd5b50604051613c3e380380613c3e83398101604081905261002f9161007c565b60008054600160a060020a03938416600160a060020a031991821617909155600180549290931691161790556100af565b8051600160a060020a038116811461007757600080fd5b919050565b6000806040838503121561008f57600080fd5b61009883610060565b91506100a660208401610060565b90509250929050565b613b80806100be6000396000f3fe60806040523480156200001157600080fd5b50600436106200004a577c01000000000000000000000000000000000000000000000000000000006000350463dc91c2cd81146200004f575b600080fd5b6200006662000060366004620004b3565b62000082565b604051600160a060020a03909116815260200160405180910390f35b600080546040517fba7eea15000000000000000000000000000000000000000000000000000000008152336004820152600160a060020a039091169063ba7eea1590602401602060405180830381865afa158015620000e5573d6000803e3d6000fd5b505050506040513d601f19601f820116820180604052508101906200010b9190620005b7565b62000176576040517f08c379a000000000000000000000000000000000000000000000000000000000815260206004820152600a60248201527f4e6f742061727469737400000000000000000000000000000000000000000000604482015260640160405180910390fd5b60008a8a8a8a8a8a8a8a8a6040516200018f9062000412565b620001a39998979695949392919062000682565b604051809103906000f080158015620001c0573d6000803e3d6000fd5b506000546040517fb949c804000000000000000000000000000000000000000000000000000000008152336004820152919250600160a060020a0380841692631fc3b56c92919091169063b949c80490602401600060405180830381865afa15801562000231573d6000803e3d6000fd5b505050506040513d6000823e601f3d908101601f191682016040526200025b919081019062000824565b602001516040517c010000000000000000000000000000000000000000000000000000000063ffffffff8416028152600160a060020a039091166004820152602401600060405180830381600087803b158015620002b857600080fd5b505af1158015620002cd573d6000803e3d6000fd5b50506040517ff2fde38b000000000000000000000000000000000000000000000000000000008152336004820152600160a060020a038416925063f2fde38b9150602401600060405180830381600087803b1580156200032c57600080fd5b505af115801562000341573d6000803e3d6000fd5b505050507f80bd20564b6d822fa39977cefda16be8dbdef591868b4d80adf9e8f34fd8b89289898333426040516200037e95949392919062000940565b60405180910390a16001546040517f4d713868000000000000000000000000000000000000000000000000000000008152600160a060020a038381166004830152909116908190634d71386890602401600060405180830381600087803b158015620003e957600080fd5b505af1158015620003fe573d6000803e3d6000fd5b50939e9d5050505050505050505050505050565b6131d0806200097b83390190565b60008083601f8401126200043357600080fd5b50813567ffffffffffffffff8111156200044c57600080fd5b6020830191508360208285010111156200046557600080fd5b9250929050565b60008083601f8401126200047f57600080fd5b50813567ffffffffffffffff8111156200049857600080fd5b60208301915083602080830285010111156200046557600080fd5b6000806000806000806000806000898b03610100811215620004d457600080fd5b8a3567ffffffffffffffff80821115620004ed57600080fd5b620004fb8e838f0162000420565b909c509a5060208d01359150808211156200051557600080fd5b620005238e838f0162000420565b909a50985060408d01359150808211156200053d57600080fd5b6200054b8e838f016200046c565b909850965060608d01359150808211156200056557600080fd5b50620005748d828e016200046c565b9095509350506080607f19820112156200058d57600080fd5b5060808a0190509295985092959850929598565b80518015158114620005b257600080fd5b919050565b600060208284031215620005ca57600080fd5b620005d582620005a1565b9392505050565b81835281816020850137506000828201602090810191909152601f909101601f19169091010190565b81835260007f07ffffffffffffffffffffffffffffffffffffffffffffffffffffffffffffff8311156200063857600080fd5b6020830280836020870137939093016020019392505050565b8035600281106200066157600080fd5b82526020818101359083015260408082013590830152606090810135910152565b6000610100808352620006998184018c8e620005dc565b9050602083820381850152620006b1828b8d620005dc565b84810360408601528881529150808201818902830182018a60005b8b8110156200074357858303601f190184528135368e9003601e19018112620006f457600080fd5b8d01858101903567ffffffffffffffff8111156200071157600080fd5b8036038213156200072157600080fd5b6200072e858284620005dc565b958701959450505090840190600101620006cc565b505085810360608701526200075a81898b62000605565b9450505050506200076f608083018462000651565b9a9950505050505050505050565b7f4e487b7100000000000000000000000000000000000000000000000000000000600052604160045260246000fd5b6040516080810167ffffffffffffffff81118282101715620007d257620007d26200077d565b60405290565b604051601f8201601f1916810167ffffffffffffffff811182821017156200080457620008046200077d565b604052919050565b8051600160a060020a0381168114620005b257600080fd5b600060208083850312156200083857600080fd5b825167ffffffffffffffff808211156200085157600080fd5b90840190608082870312156200086657600080fd5b62000870620007ac565b8251828111156200088057600080fd5b8301601f810188136200089257600080fd5b805183811115620008a757620008a76200077d565b620008bb601f8201601f19168701620007d8565b93508084528886828401011115620008d257600080fd5b60005b81811015620008f2578281018701518582018801528601620008d5565b506000908401860152508181526200090c8385016200080c565b848201526200091e60408401620005a1565b60408201526200093160608401620005a1565b60608201529695505050505050565b60808152600062000956608083018789620005dc565b600160a060020a03958616602084015293909416604082015260600152939250505056fe60806040523480156200001157600080fd5b50604051620031d0380380620031d0833981016040819052620000349162000b9a565b846200004981640100000000620001b9810204565b506200007062000061640100000000620001cb810204565b640100000000620001cf810204565b60068054600160a060020a031916331790558151835114620000f3576040517f08c379a000000000000000000000000000000000000000000000000000000000815260206004820152600a60248201527f73697a65206572726f720000000000000000000000000000000000000000000060448201526064015b60405180910390fd5b805160078054839290829060ff19166001838181111562000118576200011862000ce8565b021790555060208281015160018301556040830151600283015560609092015160039091015583516200015291600d919086019062000866565b5081516200016890600e906020850190620008c3565b50600b62000177858262000dbb565b50600060075460ff16600181111562000194576200019462000ce8565b03620001ae57620001ae3264010000000062000221810204565b50505050506200114d565b6002620001c7828262000dbb565b5050565b3390565b60058054600160a060020a03838116600160a060020a0319831681179093556040519116919082907f8be0079c531659141344cd1fd0a4f28419497f9722a3daafe3b4186f6b6457e090600090a35050565b600e546000906001604060020a0381111562000241576200024162000989565b6040519080825280602002602001820160405280156200026b578160200160208202803683370190505b50905060005b600e54811015620002b2578082828151811062000292576200029262000e8d565b602090810291909101015280620002a98162000eeb565b91505062000271565b50620001c78282600e8054806020026020016040519081016040528092919081815260200182805480156200030757602002820191906000526020600020905b815481526020019060010190808311620002f2575b50505050506040518060200160405280600081525062000331640100000000026401000000009004565b600160a060020a038416620003c9576040517f08c379a000000000000000000000000000000000000000000000000000000000815260206004820152602160248201527f455243313135353a206d696e7420746f20746865207a65726f2061646472657360448201527f73000000000000000000000000000000000000000000000000000000000000006064820152608401620000ea565b81518351146200045c576040517f08c379a000000000000000000000000000000000000000000000000000000000815260206004820152602860248201527f455243313135353a2069647320616e6420616d6f756e7473206c656e6774682060448201527f6d69736d617463680000000000000000000000000000000000000000000000006064820152608401620000ea565b600062000471640100000000620001cb810204565b90506200048d81600087878787640100000000620005ca810204565b60005b84518110156200053457838181518110620004af57620004af62000e8d565b6020026020010151600080878481518110620004cf57620004cf62000e8d565b60200260200101518152602001908152602001600020600088600160a060020a0316600160a060020a03168152602001908152602001600020600082825462000519919062000f07565b909155508190506200052b8162000eeb565b91505062000490565b5084600160a060020a03166000600160a060020a031682600160a060020a03167f4a39dc06d4c0dbc64b70af90fd698a233a518aa5d07e595d983b8c0526c8f7fb87876040516200058792919062000f60565b60405180910390a4620005a981600087878787640100000000620005ca810204565b620005c381600087878787640100000000620005d2810204565b5050505050565b505050505050565b620005f4600160a060020a03851664010000000062000d076200085782021704565b15620005ca576040517fbc197c81000000000000000000000000000000000000000000000000000000008152600160a060020a0385169063bc197c819062000649908990899088908890889060040162000fc0565b6020604051808303816000875af192505050801562000687575060408051601f3d908101601f19168201909252620006849181019062001024565b60015b6200077b57620006966200106f565b806308c379a003620006f05750620006ad620010a9565b80620006ba5750620006f2565b806040517f08c379a0000000000000000000000000000000000000000000000000000000008152600401620000ea919062001138565b505b6040517f08c379a000000000000000000000000000000000000000000000000000000000815260206004820152603460248201527f455243313135353a207472616e7366657220746f206e6f6e2d4552433131353560448201527f526563656976657220696d706c656d656e7465720000000000000000000000006064820152608401620000ea565b7fffffffff0000000000000000000000000000000000000000000000000000000081167fbc197c8100000000000000000000000000000000000000000000000000000000146200084e576040517f08c379a000000000000000000000000000000000000000000000000000000000815260206004820152602860248201527f455243313135353a204552433131353552656365697665722072656a6563746560448201527f6420746f6b656e730000000000000000000000000000000000000000000000006064820152608401620000ea565b50505050505050565b600160a060020a03163b151590565b828054828255906000526020600020908101928215620008b1579160200282015b82811115620008b15782518290620008a0908262000dbb565b509160200191906001019062000887565b50620008bf9291506200090f565b5090565b82805482825590600052602060002090810192821562000901579160200282015b8281111562000901578251825591602001919060010190620008e4565b50620008bf92915062000930565b80821115620008bf57600062000926828262000947565b506001016200090f565b5b80821115620008bf576000815560010162000931565b508054620009559062000d17565b6000825580601f1062000966575050565b601f01602090049060005260206000209081019062000986919062000930565b50565b7f4e487b7100000000000000000000000000000000000000000000000000000000600052604160045260246000fd5b601f8201601f191681016001604060020a0381118282101715620009e057620009e062000989565b6040525050565b60005b8381101562000a04578181015183820152602001620009ea565b50506000910152565b600082601f83011262000a1f57600080fd5b81516001604060020a0381111562000a3b5762000a3b62000989565b60405162000a54601f8301601f191660200182620009b8565b81815284602083860101111562000a6a57600080fd5b62000a7d826020830160208701620009e7565b949350505050565b60006001604060020a0382111562000aa15762000aa162000989565b5060209081020190565b600082601f83011262000abd57600080fd5b8151602062000acc8262000a85565b60405162000adb8282620009b8565b838152928202850182019282810191508684111562000af957600080fd5b8286015b8481101562000b16578051835291830191830162000afd565b509695505050505050565b60006080828403121562000b3457600080fd5b604051608081018181106001604060020a038211171562000b595762000b5962000989565b806040525080915082516002811062000b7157600080fd5b808252506020830151602082015260408301516040820152606083015160608201525092915050565b6000806000806000610100868803121562000bb457600080fd5b85516001604060020a038082111562000bcc57600080fd5b62000bda89838a0162000a0d565b965060209150818801518181111562000bf257600080fd5b62000c008a828b0162000a0d565b96505060408801518181111562000c1657600080fd5b8801601f81018a1362000c2857600080fd5b805162000c358162000a85565b60405162000c448282620009b8565b828152918502830185019185810191508c83111562000c6257600080fd5b8584015b8381101562000c9f5780518681111562000c805760008081fd5b62000c908f898389010162000a0d565b84525091860191860162000c66565b5060608c015190985094505050508082111562000cbb57600080fd5b5062000cca8882890162000aab565b92505062000cdc876080880162000b21565b90509295509295909350565b7f4e487b7100000000000000000000000000000000000000000000000000000000600052602160045260246000fd5b60028104600182168062000d2c57607f821691505b60208210810362000d66577f4e487b7100000000000000000000000000000000000000000000000000000000600052602260045260246000fd5b50919050565b601f82111562000db6576000818152602081206020601f8601048101602086101562000d955750805b6020601f860104820191505b81811015620005ca5782815560010162000da1565b505050565b81516001604060020a0381111562000dd75762000dd762000989565b62000def8162000de8845462000d17565b8462000d6c565b602080601f83116001811462000e2b576000841562000e0e5750858301515b60028086026008870290910a6000190419821617865550620005ca565b600085815260208120601f198616915b8281101562000e5c5788860151825594840194600190910190840162000e3b565b508582101562000e7d57878501516008601f88160260020a60001904191681555b5050505050600202600101905550565b7f4e487b7100000000000000000000000000000000000000000000000000000000600052603260045260246000fd5b7f4e487b7100000000000000000000000000000000000000000000000000000000600052601160045260246000fd5b60006001820162000f005762000f0062000ebc565b5060010190565b8082018082111562000f1d5762000f1d62000ebc565b92915050565b600081518084526020808501945080840160005b8381101562000f555781518752958201959082019060010162000f37565b509495945050505050565b60408152600062000f75604083018562000f23565b828103602084015262000f89818562000f23565b95945050505050565b6000815180845262000fac816020860160208601620009e7565b601f01601f19169290920160200192915050565b600160a060020a0386811682528516602082015260a06040820181905260009062000fee9083018662000f23565b828103606084015262001002818662000f23565b9050828103608084015262001018818562000f92565b98975050505050505050565b6000602082840312156200103757600080fd5b81517fffffffff00000000000000000000000000000000000000000000000000000000811681146200106857600080fd5b9392505050565b600060033d1115620010a65760046000803e7c01000000000000000000000000000000000000000000000000000000006000510490505b90565b600060443d1015620010b85790565b6040516003193d81016004833e81513d6001604060020a038160248401118184111715620010e857505050505090565b8285019150815181811115620011015750505050505090565b843d87010160208285010111156200111c5750505050505090565b6200112d60208286010187620009b8565b509095945050505050565b60208152600062001068602083018462000f92565b612073806200115d6000396000f3fe608060405234801561001057600080fd5b5060043610610153576000357c010000000000000000000000000000000000000000000000000000000090048063715018a6116100d5578063dfb0582511610099578063dfb05825146102e9578063e1076b62146102fc578063e5326ab11461030f578063e985e9c514610317578063f242432a14610353578063f2fde38b1461036657600080fd5b8063715018a6146102a25780638da5cb5b146102aa57806398d5547d146102bb5780639fb17e34146102c3578063a22cb465146102d657600080fd5b806327c0dfc81161011c57806327c0dfc8146102015780632a55205a1461022a5780632eb2c2d61461025c5780634e1273f41461026f5780636b8ff5741461028f57600080fd5b8062fdd58e1461015857806301ffc9a71461017e5780630e89341c146101a1578063187ba8a6146101c15780631fc3b56c146101ec575b600080fd5b61016b6101663660046116f6565b610379565b6040519081526020015b60405180910390f35b61019161018c366004611736565b610428565b6040519015158152602001610175565b6101b46101af36600461175a565b610433565b60405161017591906117b9565b600c546101d490600160a060020a031681565b604051600160a060020a039091168152602001610175565b6101ff6101fa3660046117cc565b6104c7565b005b600754600854600954600a5461021a9360ff1692919084565b6040516101759493929190611800565b61023d610238366004611841565b6104fe565b60408051600160a060020a039093168352602083019190915201610175565b6101ff61026a3660046119af565b6105db565b61028261027d366004611a59565b61062a565b6040516101759190611b5c565b6101b461029d36600461175a565b61076b565b6101ff610795565b600554600160a060020a03166101d4565b600d5461016b565b61016b6102d136600461175a565b6107a9565b6101ff6102e4366004611b6f565b610b43565b61016b6102f736600461175a565b610b52565b6101b461030a36600461175a565b610b73565b6101b4610c1f565b610191610325366004611bab565b600160a060020a03918216600090815260016020908152604080832093909416825291909152205460ff1690565b6101ff610361366004611bde565b610c2c565b6101ff6103743660046117cc565b610c74565b6000600160a060020a0383166103ff5760405160e560020a62461bcd02815260206004820152602a60248201527f455243313135353a2061646472657373207a65726f206973206e6f742061207660448201527f616c6964206f776e65720000000000000000000000000000000000000000000060648201526084015b60405180910390fd5b50600081815260208181526040808320600160a060020a03861684529091529020545b92915050565b600061042282610d16565b60606002805461044290611c43565b80601f016020809104026020016040519081016040528092919081815260200182805461046e90611c43565b80156104bb5780601f10610490576101008083540402835291602001916104bb565b820191906000526020600020905b81548152906001019060200180831161049e57829003601f168201915b50505050509050919050565b6104cf610d54565b600c805473ffffffffffffffffffffffffffffffffffffffff1916600160a060020a0392909216919091179055565b6000828152600460209081526040808320815180830190925254600160a060020a038116808352740100000000000000000000000000000000000000009091046bffffffffffffffffffffffff1692820192909252829161059f575060408051808201909152600354600160a060020a03811682527401000000000000000000000000000000000000000090046bffffffffffffffffffffffff1660208201525b6020810151600090612710906105c3906bffffffffffffffffffffffff1687611c99565b6105cd9190611cb0565b915196919550909350505050565b600160a060020a0385163314806105f757506105f78533610325565b6106165760405160e560020a62461bcd0281526004016103f690611cd5565b6106238585858585610db1565b5050505050565b606081518351146106a65760405160e560020a62461bcd02815260206004820152602960248201527f455243313135353a206163636f756e747320616e6420696473206c656e67746860448201527f206d69736d61746368000000000000000000000000000000000000000000000060648201526084016103f6565b6000835167ffffffffffffffff8111156106c2576106c2611863565b6040519080825280602002602001820160405280156106eb578160200160208202803683370190505b50905060005b84518110156107635761073685828151811061070f5761070f611d32565b602002602001015185838151811061072957610729611d32565b6020026020010151610379565b82828151811061074857610748611d32565b602090810291909101015261075c81611d4b565b90506106f1565b509392505050565b6060600d828154811061078057610780611d32565b90600052602060002001805461044290611c43565b61079d610d54565b6107a76000610fac565b565b6000600160075460ff1660018111156107c4576107c46117e7565b146108145760405160e560020a62461bcd02815260206004820152601e60248201527f43616e6e6f74206d696e7420746869732074797065206f6620746f6b656e000060448201526064016103f6565b600d5482106108685760405160e560020a62461bcd02815260206004820152601560248201527f546f6b656e20646f6573206e6f7420657869737473000000000000000000000060448201526064016103f6565b600e828154811061087b5761087b611d32565b9060005260206000200154600f60008481526020019081526020016000205460016108a69190611d64565b111561091d5760405160e560020a62461bcd02815260206004820152602660248201527f4d617820737570706c79207265616368656420666f72207468697320746f6b6560448201527f6e2074797065000000000000000000000000000000000000000000000000000060648201526084016103f6565b6009541580610948575060095433600090815260126020526040902054610945906001611d64565b11155b6109975760405160e560020a62461bcd02815260206004820152601360248201527f596f75206d696e74656420746f6f206d7563680000000000000000000000000060448201526064016103f6565b600a5415806109cc5750600a5460008381526011602090815260408083203384529091529020546109c9906001611d64565b11155b610a415760405160e560020a62461bcd02815260206004820152602160248201527f596f75206d696e74656420746f6f206d756368206f66207468697320746f6b6560448201527f6e0000000000000000000000000000000000000000000000000000000000000060648201526084016103f6565b60085415610aba5760405160e560020a62461bcd02815260206004820152602c60248201527f596f7520617265206e6f742066616e20656e6f75676874203d3e20537472656160448201527f6d206f7220626f6f73742021000000000000000000000000000000000000000060648201526084016103f6565b336000908152601260205260408120805491610ad583611d4b565b909155505060008281526011602090815260408083203384529091528120805491610aff83611d4b565b90915550506000828152600f60205260408120805491610b1e83611d4b565b9190505550610b3f338360016040518060200160405280600081525061100b565b5090565b610b4e33838361113e565b5050565b600e8181548110610b6257600080fd5b600091825260209091200154905081565b600d8181548110610b8357600080fd5b906000526020600020016000915090508054610b9e90611c43565b80601f0160208091040260200160405190810160405280929190818152602001828054610bca90611c43565b8015610c175780601f10610bec57610100808354040283529160200191610c17565b820191906000526020600020905b815481529060010190602001808311610bfa57829003601f168201915b505050505081565b600b8054610b9e90611c43565b600160a060020a038516331480610c485750610c488533610325565b610c675760405160e560020a62461bcd0281526004016103f690611cd5565b6106238585858585611235565b610c7c610d54565b600160a060020a038116610cfb5760405160e560020a62461bcd02815260206004820152602660248201527f4f776e61626c653a206e6577206f776e657220697320746865207a65726f206160448201527f646472657373000000000000000000000000000000000000000000000000000060648201526084016103f6565b610d0481610fac565b50565b600160a060020a03163b151590565b6000600160e060020a031982167f2a55205a000000000000000000000000000000000000000000000000000000001480610422575061042282611365565b600554600160a060020a031633146107a75760405160e560020a62461bcd02815260206004820181905260248201527f4f776e61626c653a2063616c6c6572206973206e6f7420746865206f776e657260448201526064016103f6565b8151835114610e2b5760405160e560020a62461bcd02815260206004820152602860248201527f455243313135353a2069647320616e6420616d6f756e7473206c656e6774682060448201527f6d69736d6174636800000000000000000000000000000000000000000000000060648201526084016103f6565b600160a060020a038416610e545760405160e560020a62461bcd0281526004016103f690611d77565b3360005b8451811015610f3e576000858281518110610e7557610e75611d32565b602002602001015190506000858381518110610e9357610e93611d32565b60209081029190910181015160008481528083526040808220600160a060020a038e168352909352919091205490915081811015610ee65760405160e560020a62461bcd0281526004016103f690611dd4565b600083815260208181526040808320600160a060020a038e8116855292528083208585039055908b16825281208054849290610f23908490611d64565b9250508190555050505080610f3790611d4b565b9050610e58565b5084600160a060020a031686600160a060020a031682600160a060020a03167f4a39dc06d4c0dbc64b70af90fd698a233a518aa5d07e595d983b8c0526c8f7fb8787604051610f8e929190611e31565b60405180910390a4610fa4818787878787611400565b505050505050565b60058054600160a060020a0383811673ffffffffffffffffffffffffffffffffffffffff19831681179093556040519116919082907f8be0079c531659141344cd1fd0a4f28419497f9722a3daafe3b4186f6b6457e090600090a35050565b600160a060020a03841661108a5760405160e560020a62461bcd02815260206004820152602160248201527f455243313135353a206d696e7420746f20746865207a65726f2061646472657360448201527f730000000000000000000000000000000000000000000000000000000000000060648201526084016103f6565b3360006110968561159f565b905060006110a38561159f565b9050600086815260208181526040808320600160a060020a038b168452909152812080548792906110d5908490611d64565b90915550506040805187815260208101879052600160a060020a03808a1692600092918716917fc3d58168c5ae7397731d063d5bbf3d657854427343f4c083240f7aacaa2d0f62910160405180910390a4611135836000898989896115ea565b50505050505050565b81600160a060020a031683600160a060020a0316036111c85760405160e560020a62461bcd02815260206004820152602960248201527f455243313135353a2073657474696e6720617070726f76616c2073746174757360448201527f20666f722073656c66000000000000000000000000000000000000000000000060648201526084016103f6565b600160a060020a03838116600081815260016020908152604080832094871680845294825291829020805460ff191686151590811790915591519182527f17307eab39ab6107e8899845ad3d59bd9653f200f220920489ca2b5937696c31910160405180910390a3505050565b600160a060020a03841661125e5760405160e560020a62461bcd0281526004016103f690611d77565b33600061126a8561159f565b905060006112778561159f565b9050600086815260208181526040808320600160a060020a038c168452909152902054858110156112bd5760405160e560020a62461bcd0281526004016103f690611dd4565b600087815260208181526040808320600160a060020a038d8116855292528083208985039055908a168252812080548892906112fa908490611d64565b90915550506040805188815260208101889052600160a060020a03808b16928c821692918816917fc3d58168c5ae7397731d063d5bbf3d657854427343f4c083240f7aacaa2d0f62910160405180910390a461135a848a8a8a8a8a6115ea565b505050505050505050565b6000600160e060020a031982167fd9b67a260000000000000000000000000000000000000000000000000000000014806113c85750600160e060020a031982167f0e89341c00000000000000000000000000000000000000000000000000000000145b8061042257507f01ffc9a700000000000000000000000000000000000000000000000000000000600160e060020a0319831614610422565b600160a060020a0384163b15610fa4576040517fbc197c81000000000000000000000000000000000000000000000000000000008152600160a060020a0385169063bc197c819061145d9089908990889088908890600401611e5f565b6020604051808303816000875af1925050508015611498575060408051601f3d908101601f1916820190925261149591810190611ebd565b60015b611553576114a4611eda565b806308c379a0036114e057506114b8611f13565b806114c357506114e2565b8060405160e560020a62461bcd0281526004016103f691906117b9565b505b60405160e560020a62461bcd02815260206004820152603460248201527f455243313135353a207472616e7366657220746f206e6f6e2d4552433131353560448201527f526563656976657220696d706c656d656e74657200000000000000000000000060648201526084016103f6565b600160e060020a031981167fbc197c8100000000000000000000000000000000000000000000000000000000146111355760405160e560020a62461bcd0281526004016103f690611f9d565b604080516001808252818301909252606091600091906020808301908036833701905050905082816000815181106115d9576115d9611d32565b602090810291909101015292915050565b600160a060020a0384163b15610fa4576040517ff23a6e61000000000000000000000000000000000000000000000000000000008152600160a060020a0385169063f23a6e61906116479089908990889088908890600401611ffa565b6020604051808303816000875af1925050508015611682575060408051601f3d908101601f1916820190925261167f91810190611ebd565b60015b61168e576114a4611eda565b600160e060020a031981167ff23a6e6100000000000000000000000000000000000000000000000000000000146111355760405160e560020a62461bcd0281526004016103f690611f9d565b8035600160a060020a03811681146116f157600080fd5b919050565b6000806040838503121561170957600080fd5b611712836116da565b946020939093013593505050565b600160e060020a031981168114610d0457600080fd5b60006020828403121561174857600080fd5b813561175381611720565b9392505050565b60006020828403121561176c57600080fd5b5035919050565b6000815180845260005b818110156117995760208185018101518683018201520161177d565b506000602082860101526020601f19601f83011685010191505092915050565b6020815260006117536020830184611773565b6000602082840312156117de57600080fd5b611753826116da565b60e060020a634e487b7102600052602160045260246000fd5b60808101600286106118255760e060020a634e487b7102600052602160045260246000fd5b9481526020810193909352604083019190915260609091015290565b6000806040838503121561185457600080fd5b50508035926020909101359150565b60e060020a634e487b7102600052604160045260246000fd5b601f8201601f1916810167ffffffffffffffff811182821017156118a2576118a2611863565b6040525050565b600067ffffffffffffffff8211156118c3576118c3611863565b5060209081020190565b600082601f8301126118de57600080fd5b813560206118eb826118a9565b6040516118f8828261187c565b838152928202850182019282810191508684111561191557600080fd5b8286015b848110156119305780358352918301918301611919565b509695505050505050565b600082601f83011261194c57600080fd5b813567ffffffffffffffff81111561196657611966611863565b60405161197d601f8301601f19166020018261187c565b81815284602083860101111561199257600080fd5b816020850160208301376000918101602001919091529392505050565b600080600080600060a086880312156119c757600080fd5b6119d0866116da565b94506119de602087016116da565b9350604086013567ffffffffffffffff808211156119fb57600080fd5b611a0789838a016118cd565b94506060880135915080821115611a1d57600080fd5b611a2989838a016118cd565b93506080880135915080821115611a3f57600080fd5b50611a4c8882890161193b565b9150509295509295909350565b60008060408385031215611a6c57600080fd5b823567ffffffffffffffff80821115611a8457600080fd5b818501915085601f830112611a9857600080fd5b81356020611aa5826118a9565b604051611ab2828261187c565b8381529282028501820192828101915089841115611acf57600080fd5b948201945b83861015611af457611ae5866116da565b82529482019490820190611ad4565b96505086013592505080821115611b0a57600080fd5b50611b17858286016118cd565b9150509250929050565b600081518084526020808501945080840160005b83811015611b5157815187529582019590820190600101611b35565b509495945050505050565b6020815260006117536020830184611b21565b60008060408385031215611b8257600080fd5b611b8b836116da565b915060208301358015158114611ba057600080fd5b809150509250929050565b60008060408385031215611bbe57600080fd5b611bc7836116da565b9150611bd5602084016116da565b90509250929050565b600080600080600060a08688031215611bf657600080fd5b611bff866116da565b9450611c0d602087016116da565b93506040860135925060608601359150608086013567ffffffffffffffff811115611c3757600080fd5b611a4c8882890161193b565b600281046001821680611c5757607f821691505b602082108103611c7a5760e060020a634e487b7102600052602260045260246000fd5b50919050565b60e060020a634e487b7102600052601160045260246000fd5b808202811582820484141761042257610422611c80565b600082611cd05760e060020a634e487b7102600052601260045260246000fd5b500490565b6020808252602e908201527f455243313135353a2063616c6c6572206973206e6f7420746f6b656e206f776e60408201527f6572206f7220617070726f766564000000000000000000000000000000000000606082015260800190565b60e060020a634e487b7102600052603260045260246000fd5b600060018201611d5d57611d5d611c80565b5060010190565b8082018082111561042257610422611c80565b60208082526025908201527f455243313135353a207472616e7366657220746f20746865207a65726f20616460408201527f6472657373000000000000000000000000000000000000000000000000000000606082015260800190565b6020808252602a908201527f455243313135353a20696e73756666696369656e742062616c616e636520666f60408201527f72207472616e7366657200000000000000000000000000000000000000000000606082015260800190565b604081526000611e446040830185611b21565b8281036020840152611e568185611b21565b95945050505050565b6000600160a060020a03808816835280871660208401525060a06040830152611e8b60a0830186611b21565b8281036060840152611e9d8186611b21565b90508281036080840152611eb18185611773565b98975050505050505050565b600060208284031215611ecf57600080fd5b815161175381611720565b600060033d1115611f105760046000803e7c01000000000000000000000000000000000000000000000000000000006000510490505b90565b600060443d1015611f215790565b6040516003193d81016004833e81513d67ffffffffffffffff8160248401118184111715611f5157505050505090565b8285019150815181811115611f695750505050505090565b843d8701016020828501011115611f835750505050505090565b611f926020828601018761187c565b509095945050505050565b60208082526028908201527f455243313135353a204552433131353552656365697665722072656a6563746560408201527f6420746f6b656e73000000000000000000000000000000000000000000000000606082015260800190565b6000600160a060020a03808816835280871660208401525084604083015283606083015260a0608083015261203260a0830184611773565b97965050505050505056fea2646970667358221220c494a19679d67229fd16537647f2bc82966cdab7501e350bf1f3547a76e569ac64736f6c63430008110033a2646970667358221220bd41e0ed84405729401a4be3bdeeb5b760e7d118f699c85162d7419ee792c0a764736f6c63430008110033",
  "immutableReferences": {},
  "source": "// SPDX-License-Identifier: MIT\npragma solidity ^0.8.17;\n\nimport \"../node_modules/@openzeppelin/contracts/access/Ownable.sol\";\n\nimport \"./LinosPlatformInterface.sol\";\nimport \"./ArtistERC1155Factory.sol\";\nimport \"./NftMarketPlace.sol\";\nimport \"./FanToken.sol\";\nimport \"./ListenToken.sol\";\n\ncontract LinosPlatform is LinosPlatformInterface, Ownable {\n\n    address public listenTokenAddress;\n    address public nftFactoryAddress;\n    address public nftMarketPlaceAddress;\n\n    mapping(address => User) public users;\n    mapping(address => Artist) public artists;\n    mapping(address => Track[]) public artistTracks;\n\n    modifier notAUser(address _address) {\n        require(!users[_address].isRegistered, \"User Already registered\");\n        _;\n    }\n    modifier notAnArtist(address _address) {\n        require(!artists[_address].isRegistered, \"Artist Already registered\");\n        _;\n    }\n    modifier onlyValidArtist(address _address) {\n        require(artists[_address].isValid, \"Artist is not valid\");\n        _;\n    }\n\n    constructor() {\n        NftMarketPlace nftMarketPlace = new NftMarketPlace();\n        nftMarketPlace.setFees(5);\n        nftMarketPlace.setLinosPlatformAddress(address(this));\n        nftMarketPlaceAddress = address(nftMarketPlace);\n\n        listenTokenAddress = address(new ListenToken(address(this)));\n        nftFactoryAddress = address(new ArtistERC1155Factory(\n            address(this),\n            address(nftMarketPlace)\n        ));\n\n        nftMarketPlace.setNftFactoryAddress(nftFactoryAddress);\n    }\n\n    function mintListenToken(address to, uint amount) external onlyOwner {\n        ListenToken(listenTokenAddress).mint(to, amount);\n    }\n\n    function boostArtist(address artistAddress, uint amount) external onlyValidArtist(artistAddress) {\n        ListenToken listenToken = ListenToken(listenTokenAddress);\n        FanToken fanToken = FanToken(artists[artistAddress].fanTokenAddress);\n\n        fanToken.mint(msg.sender, amount);\n        listenToken.linosTransferFrom(msg.sender, artistAddress, amount);\n    }\n\n    function getArtist(address artistAddress) external view returns(Artist memory) {\n        return artists[artistAddress];\n    }\n\n    function getUser(address userAddress) external view returns(User memory) {\n        return users[userAddress];\n    }\n\n    function isArtistValid(address artistAddress) external view returns(bool) {\n        return artists[artistAddress].isValid;\n    }\n\n    function registerAsArtist(\n        string calldata _artistName,\n        string calldata _symbol\n    ) public notAnArtist(msg.sender) notAUser(msg.sender) {\n        FanToken artistFanToken = new FanToken(\n            _artistName,\n            string(abi.encodePacked('L-', _symbol)),\n            address(this)\n        );\n        artists[msg.sender] = Artist(_artistName, address(artistFanToken), true, true);\n    }\n\n    function registerAsUser(\n        string calldata _userName\n    ) public notAnArtist(msg.sender) notAUser(msg.sender) {\n        users[msg.sender] = User(_userName, true);\n    }\n\n    function createTrack(string calldata _name, string calldata _coverUri) external onlyValidArtist(msg.sender) {\n        artistTracks[msg.sender].push(Track(_name, _coverUri));\n    }\n\n    receive() external payable {}\n    fallback() external payable {}\n}",
  "sourcePath": "/Volumes/code/Alyra/Linos/truffle/contracts/LinosPlatform.sol",
  "compiler": {
    "name": "solc",
    "version": "0.8.17+commit.8df45f5f.Emscripten.clang"
  },
  "schemaVersion": "3.4.10",
  "updatedAt": "2022-12-12T03:25:02.727Z",
  "networkType": "ethereum",
  "devdoc": {
    "kind": "dev",
    "methods": {
      "owner()": {
        "details": "Returns the address of the current owner."
      },
      "renounceOwnership()": {
        "details": "Leaves the contract without owner. It will not be possible to call `onlyOwner` functions anymore. Can only be called by the current owner. NOTE: Renouncing ownership will leave the contract without an owner, thereby removing any functionality that is only available to the owner."
      },
      "transferOwnership(address)": {
        "details": "Transfers ownership of the contract to a new account (`newOwner`). Can only be called by the current owner."
      }
    },
    "version": 1
  },
  "userdoc": {
    "kind": "user",
    "methods": {},
    "version": 1
  }
}