{
  "contractName": "LinosPlatform",
  "abi": [
    {
      "inputs": [],
      "stateMutability": "nonpayable",
      "type": "constructor"
    },
    {
      "anonymous": false,
      "inputs": [
        {
          "indexed": true,
          "internalType": "address",
          "name": "previousOwner",
          "type": "address"
        },
        {
          "indexed": true,
          "internalType": "address",
          "name": "newOwner",
          "type": "address"
        }
      ],
      "name": "OwnershipTransferred",
      "type": "event"
    },
    {
      "inputs": [
        {
          "internalType": "address",
          "name": "",
          "type": "address"
        },
        {
          "internalType": "uint256",
          "name": "",
          "type": "uint256"
        }
      ],
      "name": "artistTracks",
      "outputs": [
        {
          "internalType": "string",
          "name": "name",
          "type": "string"
        },
        {
          "internalType": "string",
          "name": "coverUri",
          "type": "string"
        }
      ],
      "stateMutability": "view",
      "type": "function",
      "constant": true
    },
    {
      "inputs": [
        {
          "internalType": "address",
          "name": "",
          "type": "address"
        }
      ],
      "name": "artists",
      "outputs": [
        {
          "internalType": "string",
          "name": "name",
          "type": "string"
        },
        {
          "internalType": "address",
          "name": "fanTokenAddress",
          "type": "address"
        },
        {
          "internalType": "bool",
          "name": "isRegistered",
          "type": "bool"
        },
        {
          "internalType": "bool",
          "name": "isValid",
          "type": "bool"
        }
      ],
      "stateMutability": "view",
      "type": "function",
      "constant": true
    },
    {
      "inputs": [],
      "name": "listenTokenAddress",
      "outputs": [
        {
          "internalType": "address",
          "name": "",
          "type": "address"
        }
      ],
      "stateMutability": "view",
      "type": "function",
      "constant": true
    },
    {
      "inputs": [],
      "name": "nftFactoryAddress",
      "outputs": [
        {
          "internalType": "address",
          "name": "",
          "type": "address"
        }
      ],
      "stateMutability": "view",
      "type": "function",
      "constant": true
    },
    {
      "inputs": [],
      "name": "nftMarketPlaceAddress",
      "outputs": [
        {
          "internalType": "address",
          "name": "",
          "type": "address"
        }
      ],
      "stateMutability": "view",
      "type": "function",
      "constant": true
    },
    {
      "inputs": [],
      "name": "owner",
      "outputs": [
        {
          "internalType": "address",
          "name": "",
          "type": "address"
        }
      ],
      "stateMutability": "view",
      "type": "function",
      "constant": true
    },
    {
      "inputs": [],
      "name": "renounceOwnership",
      "outputs": [],
      "stateMutability": "nonpayable",
      "type": "function"
    },
    {
      "inputs": [
        {
          "internalType": "address",
          "name": "newOwner",
          "type": "address"
        }
      ],
      "name": "transferOwnership",
      "outputs": [],
      "stateMutability": "nonpayable",
      "type": "function"
    },
    {
      "inputs": [
        {
          "internalType": "address",
          "name": "",
          "type": "address"
        }
      ],
      "name": "users",
      "outputs": [
        {
          "internalType": "string",
          "name": "name",
          "type": "string"
        },
        {
          "internalType": "bool",
          "name": "isRegistered",
          "type": "bool"
        }
      ],
      "stateMutability": "view",
      "type": "function",
      "constant": true
    },
    {
      "inputs": [
        {
          "internalType": "address",
          "name": "artistAddress",
          "type": "address"
        }
      ],
      "name": "getArtist",
      "outputs": [
        {
          "components": [
            {
              "internalType": "string",
              "name": "name",
              "type": "string"
            },
            {
              "internalType": "address",
              "name": "fanTokenAddress",
              "type": "address"
            },
            {
              "internalType": "bool",
              "name": "isRegistered",
              "type": "bool"
            },
            {
              "internalType": "bool",
              "name": "isValid",
              "type": "bool"
            }
          ],
          "internalType": "struct LinosPlatformInterface.Artist",
          "name": "",
          "type": "tuple"
        }
      ],
      "stateMutability": "view",
      "type": "function",
      "constant": true
    },
    {
      "inputs": [
        {
          "internalType": "address",
          "name": "userAddress",
          "type": "address"
        }
      ],
      "name": "getUser",
      "outputs": [
        {
          "components": [
            {
              "internalType": "string",
              "name": "name",
              "type": "string"
            },
            {
              "internalType": "bool",
              "name": "isRegistered",
              "type": "bool"
            }
          ],
          "internalType": "struct LinosPlatformInterface.User",
          "name": "",
          "type": "tuple"
        }
      ],
      "stateMutability": "view",
      "type": "function",
      "constant": true
    },
    {
      "inputs": [
        {
          "internalType": "address",
          "name": "artistAddress",
          "type": "address"
        }
      ],
      "name": "isArtistValid",
      "outputs": [
        {
          "internalType": "bool",
          "name": "",
          "type": "bool"
        }
      ],
      "stateMutability": "view",
      "type": "function",
      "constant": true
    },
    {
      "inputs": [
        {
          "internalType": "string",
          "name": "_artistName",
          "type": "string"
        },
        {
          "internalType": "string",
          "name": "_symbol",
          "type": "string"
        }
      ],
      "name": "registerAsArtist",
      "outputs": [],
      "stateMutability": "nonpayable",
      "type": "function"
    },
    {
      "inputs": [
        {
          "internalType": "string",
          "name": "_userName",
          "type": "string"
        }
      ],
      "name": "registerAsUser",
      "outputs": [],
      "stateMutability": "nonpayable",
      "type": "function"
    },
    {
      "inputs": [
        {
          "internalType": "string",
          "name": "_name",
          "type": "string"
        },
        {
          "internalType": "string",
          "name": "_coverUri",
          "type": "string"
        }
      ],
      "name": "createTrack",
      "outputs": [],
      "stateMutability": "nonpayable",
      "type": "function"
    }
  ],
  "bytecode": "0x60806040523480156200001157600080fd5b50620000386200002964010000000062000249810204565b6401000000006200024d810204565b600060405162000048906200029d565b604051809103906000f08015801562000065573d6000803e3d6000fd5b506040517f3d18678e00000000000000000000000000000000000000000000000000000000815260056004820152909150600160a060020a03821690633d18678e90602401600060405180830381600087803b158015620000c557600080fd5b505af1158015620000da573d6000803e3d6000fd5b50506040517f517679cd000000000000000000000000000000000000000000000000000000008152306004820152600160a060020a038416925063517679cd9150602401600060405180830381600087803b1580156200013957600080fd5b505af11580156200014e573d6000803e3d6000fd5b505060038054600160a060020a031916600160a060020a0385161790555050604051309082906200017f90620002ab565b600160a060020a03928316815291166020820152604001604051809103906000f080158015620001b3573d6000803e3d6000fd5b5060028054600160a060020a031916600160a060020a039283169081179091556040517fae3ca41e00000000000000000000000000000000000000000000000000000000815260048101919091529082169063ae3ca41e90602401600060405180830381600087803b1580156200022957600080fd5b505af11580156200023e573d6000803e3d6000fd5b5050505050620002b9565b3390565b60008054600160a060020a03838116600160a060020a0319831681178455604051919092169283917f8be0079c531659141344cd1fd0a4f28419497f9722a3daafe3b4186f6b6457e09190a35050565b61125d806200278e83390190565b613ca580620039eb83390190565b6124c580620002c96000396000f3fe60806040523480156200001157600080fd5b506004361062000126576000357c0100000000000000000000000000000000000000000000000000000000900480638da5cb5b11620000c0578063d40ee97b116200008b578063d40ee97b14620002ba578063ee7d159614620002ce578063f2fde38b14620002e2578063f3720cca14620002f957600080fd5b80638da5cb5b1462000211578063a87430ba1462000223578063b949c804146200024a578063ba7eea15146200027057600080fd5b8063701fe33e1162000101578063701fe33e146200019c578063715018a614620001b35780637b3ee63314620001bd5780638143558614620001e457600080fd5b8063069dab8f146200012b578063515ef106146200015d5780636f77926b1462000176575b600080fd5b620001426200013c36600462000e58565b62000310565b60405162000154949392919062000ec5565b60405180910390f35b620001746200016e36600462000f4d565b620003db565b005b6200018d6200018736600462000e58565b62000539565b60405162000154919062000f93565b62000174620001ad36600462000fc9565b62000620565b6200017462000851565b620001d4620001ce3660046200103c565b62000869565b6040516200015492919062001069565b600154620001f890600160a060020a031681565b604051600160a060020a03909116815260200162000154565b600054600160a060020a0316620001f8565b6200023a6200023436600462000e58565b620009cb565b604051620001549291906200109b565b620002616200025b36600462000e58565b62000a7a565b604051620001549190620010c1565b620002a96200028136600462000e58565b600160a060020a031660009081526005602052604090206001015460a860020a900460ff1690565b604051901515815260200162000154565b600254620001f890600160a060020a031681565b600354620001f890600160a060020a031681565b62000174620002f336600462000e58565b62000b98565b620001746200030a36600462000fc9565b62000c31565b6005602052600090815260409020805481906200032d9062001116565b80601f01602080910402602001604051908101604052809291908181526020018280546200035b9062001116565b8015620003ac5780601f106200038057610100808354040283529160200191620003ac565b820191906000526020600020905b8154815290600101906020018083116200038e57829003601f168201915b50505060019093015491925050600160a060020a0381169060ff60a060020a820481169160a860020a90041684565b3360008181526005602052604090206001015460a060020a900460ff16156200044e5760405160e560020a62461bcd02815260206004820152601960248201527f41727469737420416c726561647920726567697374657265640000000000000060448201526064015b60405180910390fd5b3360008181526004602052604090206001015460ff1615620004b65760405160e560020a62461bcd02815260206004820152601760248201527f5573657220416c72656164792072656769737465726564000000000000000000604482015260640162000445565b6040805160606020601f870181900402820181018352918101858152909182919087908790819085018382808284376000920182905250938552505060016020938401525033815260049091526040902081518190620005179082620011ed565b50602091909101516001909101805460ff191691151591909117905550505050565b604080518082019091526060815260006020820152600160a060020a038216600090815260046020526040908190208151808301909252805482908290620005819062001116565b80601f0160208091040260200160405190810160405280929190818152602001828054620005af9062001116565b8015620006005780601f10620005d45761010080835404028352916020019162000600565b820191906000526020600020905b815481529060010190602001808311620005e257829003601f168201915b50505091835250506001919091015460ff16151560209091015292915050565b3360008181526005602052604090206001015460a060020a900460ff16156200068f5760405160e560020a62461bcd02815260206004820152601960248201527f41727469737420416c7265616479207265676973746572656400000000000000604482015260640162000445565b3360008181526004602052604090206001015460ff1615620006f75760405160e560020a62461bcd02815260206004820152601760248201527f5573657220416c72656164792072656769737465726564000000000000000000604482015260640162000445565b60008686868660405160200162000710929190620012c0565b604051602081830303815290604052306040516200072e9062000e2d565b6200073d9493929190620012f9565b604051809103906000f0801580156200075a573d6000803e3d6000fd5b506040805160a06020601f8b018190040282018101909252608081018981529293509182918a908a90819085018382808284376000920182905250938552505050600160a060020a03841660208084019190915260016040808501829052606090940152338252600590522081518190620007d69082620011ed565b506020820151600190910180546040840151606090940151151560a860020a0275ff0000000000000000000000000000000000000000001994151560a060020a0274ffffffffffffffffffffffffffffffffffffffffff19909216600160a060020a0390941693909317179290921617905550505050505050565b6200085b62000d71565b62000867600062000dd0565b565b600660205281600052604060002081815481106200088657600080fd5b906000526020600020906002020160009150915050806000018054620008ac9062001116565b80601f0160208091040260200160405190810160405280929190818152602001828054620008da9062001116565b80156200092b5780601f10620008ff576101008083540402835291602001916200092b565b820191906000526020600020905b8154815290600101906020018083116200090d57829003601f168201915b505050505090806001018054620009429062001116565b80601f0160208091040260200160405190810160405280929190818152602001828054620009709062001116565b8015620009c15780601f106200099557610100808354040283529160200191620009c1565b820191906000526020600020905b815481529060010190602001808311620009a357829003601f168201915b5050505050905082565b600460205260009081526040902080548190620009e89062001116565b80601f016020809104026020016040519081016040528092919081815260200182805462000a169062001116565b801562000a675780601f1062000a3b5761010080835404028352916020019162000a67565b820191906000526020600020905b81548152906001019060200180831162000a4957829003601f168201915b5050506001909301549192505060ff1682565b604080516080810182526060808252600060208301819052928201839052810191909152600160a060020a0382166000908152600560205260409081902081516080810190925280548290829062000ad29062001116565b80601f016020809104026020016040519081016040528092919081815260200182805462000b009062001116565b801562000b515780601f1062000b255761010080835404028352916020019162000b51565b820191906000526020600020905b81548152906001019060200180831162000b3357829003601f168201915b505050918352505060019190910154600160a060020a038116602083015260ff60a060020a820481161515604084015260a860020a90910416151560609091015292915050565b62000ba262000d71565b600160a060020a03811662000c235760405160e560020a62461bcd02815260206004820152602660248201527f4f776e61626c653a206e6577206f776e657220697320746865207a65726f206160448201527f6464726573730000000000000000000000000000000000000000000000000000606482015260840162000445565b62000c2e8162000dd0565b50565b3360008181526005602052604090206001015460a860020a900460ff1662000c9f5760405160e560020a62461bcd02815260206004820152601360248201527f417274697374206973206e6f742076616c696400000000000000000000000000604482015260640162000445565b3360009081526006602090815260409182902082516060601f89018490049093028101830184529283018781529092918291908990899081908501838280828437600092019190915250505090825250604080516020601f880181900481028201810190925286815291810191908790879081908401838280828437600092018290525093909452505083546001810185559381526020902082519293600202019182915062000d509082620011ed565b506020820151600182019062000d679082620011ed565b5050505050505050565b600054600160a060020a03163314620008675760405160e560020a62461bcd02815260206004820181905260248201527f4f776e61626c653a2063616c6c6572206973206e6f7420746865206f776e6572604482015260640162000445565b60008054600160a060020a0383811673ffffffffffffffffffffffffffffffffffffffff19831681178455604051919092169283917f8be0079c531659141344cd1fd0a4f28419497f9722a3daafe3b4186f6b6457e09190a35050565b61113b806200135583390190565b8035600160a060020a038116811462000e5357600080fd5b919050565b60006020828403121562000e6b57600080fd5b62000e768262000e3b565b9392505050565b6000815180845260005b8181101562000ea55760208185018101518683018201520162000e87565b506000602082860101526020601f19601f83011685010191505092915050565b60808152600062000eda608083018762000e7d565b600160a060020a039590951660208301525091151560408301521515606090910152919050565b60008083601f84011262000f1457600080fd5b50813567ffffffffffffffff81111562000f2d57600080fd5b60208301915083602082850101111562000f4657600080fd5b9250929050565b6000806020838503121562000f6157600080fd5b823567ffffffffffffffff81111562000f7957600080fd5b62000f878582860162000f01565b90969095509350505050565b60208152600082516040602084015262000fb1606084018262000e7d565b90506020840151151560408401528091505092915050565b6000806000806040858703121562000fe057600080fd5b843567ffffffffffffffff8082111562000ff957600080fd5b620010078883890162000f01565b909650945060208701359150808211156200102157600080fd5b50620010308782880162000f01565b95989497509550505050565b600080604083850312156200105057600080fd5b6200105b8362000e3b565b946020939093013593505050565b6040815260006200107e604083018562000e7d565b828103602084015262001092818562000e7d565b95945050505050565b604081526000620010b0604083018562000e7d565b905082151560208301529392505050565b602081526000825160806020840152620010df60a084018262000e7d565b9050600160a060020a0360208501511660408401526040840151151560608401526060840151151560808401528091505092915050565b6002810460018216806200112b57607f821691505b60208210810362001165577f4e487b7100000000000000000000000000000000000000000000000000000000600052602260045260246000fd5b50919050565b7f4e487b7100000000000000000000000000000000000000000000000000000000600052604160045260246000fd5b601f821115620011e8576000818152602081206020601f86010481016020861015620011c35750805b6020601f860104820191505b81811015620011e457828155600101620011cf565b5050505b505050565b815167ffffffffffffffff8111156200120a576200120a6200116b565b62001222816200121b845462001116565b846200119a565b602080601f8311600181146200125e5760008415620012415750858301515b60028086026008870290910a6000190419821617865550620011e4565b600085815260208120601f198616915b828110156200128f578886015182559484019460019091019084016200126e565b5085821015620012b057878501516008601f88160260020a60001904191681555b5050505050600202600101905550565b7f4c2d00000000000000000000000000000000000000000000000000000000000081528183600283013760009101600201908152919050565b60608152836060820152838560808301376000608085830101526000601f19601f8601168201608083820301602084015262001339608082018662000e7d565b915050600160a060020a03831660408301529594505050505056fe60806040526005805460a060020a60ff02191690553480156200002157600080fd5b506040516200113b3803806200113b8339810160408190526200004491620001ef565b8282600362000054838262000324565b50600462000063828262000324565b5050506200009262000083620000bb640100000000026401000000009004565b640100000000620000bf810204565b60068054600160a060020a031916600160a060020a039290921691909117905550620003f69050565b3390565b60058054600160a060020a03838116600160a060020a0319831681179093556040519116919082907f8be0079c531659141344cd1fd0a4f28419497f9722a3daafe3b4186f6b6457e090600090a35050565b7f4e487b7100000000000000000000000000000000000000000000000000000000600052604160045260246000fd5b600082601f8301126200015257600080fd5b81516001604060020a03808211156200016f576200016f62000111565b604051601f8301601f19908116603f011681019082821181831017156200019a576200019a62000111565b81604052838152602092508683858801011115620001b757600080fd5b600091505b83821015620001db5785820183015181830184015290820190620001bc565b600093810190920192909252949350505050565b6000806000606084860312156200020557600080fd5b83516001604060020a03808211156200021d57600080fd5b6200022b8783880162000140565b945060208601519150808211156200024257600080fd5b50620002518682870162000140565b60408601519093509050600160a060020a03811681146200027157600080fd5b809150509250925092565b6002810460018216806200029157607f821691505b602082108103620002cb577f4e487b7100000000000000000000000000000000000000000000000000000000600052602260045260246000fd5b50919050565b601f8211156200031f576000818152602081206020601f86010481016020861015620002fa5750805b6020601f860104820191505b818110156200031b5782815560010162000306565b5050505b505050565b81516001604060020a0381111562000340576200034062000111565b62000358816200035184546200027c565b84620002d1565b602080601f831160018114620003945760008415620003775750858301515b60028086026008870290910a60001904198216178655506200031b565b600085815260208120601f198616915b82811015620003c557888601518255948401946001909101908401620003a4565b5085821015620003e657878501516008601f88160260020a60001904191681555b5050505050600202600101905550565b610d3580620004066000396000f3fe608060405234801561001057600080fd5b5060043610610128576000357c01000000000000000000000000000000000000000000000000000000009004806370a08231116100bf578063a457c2d71161008e578063a457c2d714610231578063a9059cbb14610244578063dd62ed3e14610257578063f1e9d2031461026a578063f2fde38b1461027257600080fd5b806370a08231146101dd578063715018a6146102065780638da5cb5b1461020e57806395d89b411461022957600080fd5b8063313ce567116100fb578063313ce56714610193578063360f4fdf146101a257806339509351146101b757806340c10f19146101ca57600080fd5b806306fdde031461012d578063095ea7b31461014b57806318160ddd1461016e57806323b872dd14610180575b600080fd5b610135610285565b6040516101429190610b4d565b60405180910390f35b61015e610159366004610bb7565b610317565b6040519015158152602001610142565b6002545b604051908152602001610142565b61015e61018e366004610be1565b610331565b60405160128152602001610142565b6101b56101b0366004610be1565b610355565b005b61015e6101c5366004610bb7565b61036d565b6101b56101d8366004610bb7565b61038f565b6101726101eb366004610c1d565b600160a060020a031660009081526020819052604090205490565b6101b56103a5565b600554604051600160a060020a039091168152602001610142565b6101356103b9565b61015e61023f366004610bb7565b6103c8565b61015e610252366004610bb7565b610463565b610172610265366004610c3f565b610471565b6101b561049c565b6101b5610280366004610c1d565b6104e7565b60606003805461029490610c72565b80601f01602080910402602001604051908101604052809291908181526020018280546102c090610c72565b801561030d5780601f106102e25761010080835404028352916020019161030d565b820191906000526020600020905b8154815290600101906020018083116102f057829003601f168201915b5050505050905090565b60003361032581858561057a565b60019150505b92915050565b60003361033f8582856106d8565b61034a858585610755565b506001949350505050565b61035d610956565b610368838383610755565b505050565b6000336103258185856103808383610471565b61038a9190610cc5565b61057a565b610397610956565b6103a182826109b3565b5050565b6103ad610956565b6103b76000610a81565b565b60606004805461029490610c72565b600033816103d68286610471565b9050838110156104565760405160e560020a62461bcd02815260206004820152602560248201527f45524332303a2064656372656173656420616c6c6f77616e63652062656c6f7760448201527f207a65726f00000000000000000000000000000000000000000000000000000060648201526084015b60405180910390fd5b61034a828686840361057a565b600033610325818585610755565b600160a060020a03918216600090815260016020908152604080832093909416825291909152205490565b6104a4610956565b6005805474ff0000000000000000000000000000000000000000198116740100000000000000000000000000000000000000009182900460ff1615909102179055565b6104ef610956565b600160a060020a03811661056e5760405160e560020a62461bcd02815260206004820152602660248201527f4f776e61626c653a206e6577206f776e657220697320746865207a65726f206160448201527f6464726573730000000000000000000000000000000000000000000000000000606482015260840161044d565b61057781610a81565b50565b600160a060020a0383166105f85760405160e560020a62461bcd028152602060048201526024808201527f45524332303a20617070726f76652066726f6d20746865207a65726f2061646460448201527f7265737300000000000000000000000000000000000000000000000000000000606482015260840161044d565b600160a060020a0382166106775760405160e560020a62461bcd02815260206004820152602260248201527f45524332303a20617070726f766520746f20746865207a65726f20616464726560448201527f7373000000000000000000000000000000000000000000000000000000000000606482015260840161044d565b600160a060020a0383811660008181526001602090815260408083209487168084529482529182902085905590518481527f8c5be1e5ebec7d5bd14f71427d1e84f3dd0314c0f7b2291e5b200ac8c7c3b925910160405180910390a3505050565b60006106e48484610471565b9050600019811461074f57818110156107425760405160e560020a62461bcd02815260206004820152601d60248201527f45524332303a20696e73756666696369656e7420616c6c6f77616e6365000000604482015260640161044d565b61074f848484840361057a565b50505050565b600160a060020a0383166107d45760405160e560020a62461bcd02815260206004820152602560248201527f45524332303a207472616e736665722066726f6d20746865207a65726f20616460448201527f6472657373000000000000000000000000000000000000000000000000000000606482015260840161044d565b600160a060020a0382166108535760405160e560020a62461bcd02815260206004820152602360248201527f45524332303a207472616e7366657220746f20746865207a65726f206164647260448201527f6573730000000000000000000000000000000000000000000000000000000000606482015260840161044d565b61085e838383610ae0565b600160a060020a038316600090815260208190526040902054818110156108f05760405160e560020a62461bcd02815260206004820152602660248201527f45524332303a207472616e7366657220616d6f756e742065786365656473206260448201527f616c616e63650000000000000000000000000000000000000000000000000000606482015260840161044d565b600160a060020a03848116600081815260208181526040808320878703905593871680835291849020805487019055925185815290927fddf252ad1be2c89b69c2b068fc378daa952ba7f163c4a11628f55a4df523b3ef910160405180910390a361074f565b600554600160a060020a031633146103b75760405160e560020a62461bcd02815260206004820181905260248201527f4f776e61626c653a2063616c6c6572206973206e6f7420746865206f776e6572604482015260640161044d565b600160a060020a038216610a0c5760405160e560020a62461bcd02815260206004820152601f60248201527f45524332303a206d696e7420746f20746865207a65726f206164647265737300604482015260640161044d565b610a1860008383610ae0565b8060026000828254610a2a9190610cc5565b9091555050600160a060020a038216600081815260208181526040808320805486019055518481527fddf252ad1be2c89b69c2b068fc378daa952ba7f163c4a11628f55a4df523b3ef910160405180910390a35050565b60058054600160a060020a0383811673ffffffffffffffffffffffffffffffffffffffff19831681179093556040519116919082907f8be0079c531659141344cd1fd0a4f28419497f9722a3daafe3b4186f6b6457e090600090a35050565b60055474010000000000000000000000000000000000000000900460ff166103685760405160e560020a62461bcd02815260206004820152601f60248201527f546f6b656e207472616e736665727320617265206e6f7420616c6c6f77656400604482015260640161044d565b600060208083528351808285015260005b81811015610b7a57858101830151858201604001528201610b5e565b506000604082860101526040601f19601f8301168501019250505092915050565b8035600160a060020a0381168114610bb257600080fd5b919050565b60008060408385031215610bca57600080fd5b610bd383610b9b565b946020939093013593505050565b600080600060608486031215610bf657600080fd5b610bff84610b9b565b9250610c0d60208501610b9b565b9150604084013590509250925092565b600060208284031215610c2f57600080fd5b610c3882610b9b565b9392505050565b60008060408385031215610c5257600080fd5b610c5b83610b9b565b9150610c6960208401610b9b565b90509250929050565b600281046001821680610c8657607f821691505b602082108103610cbf577f4e487b7100000000000000000000000000000000000000000000000000000000600052602260045260246000fd5b50919050565b8082018082111561032b577f4e487b7100000000000000000000000000000000000000000000000000000000600052601160045260246000fdfea2646970667358221220400fd8f3d63f493462995eef473a9a95dc88cbff55ba764897a7be1c1a1fdda664736f6c63430008110033a2646970667358221220b2ee814e183927cbf4fc5ab04045ade0774729942be212c99aaeea845ac2041264736f6c63430008110033608060405261271060065534801561001657600080fd5b5061003961002b640100000000610043810204565b640100000000610047810204565b6001600455610097565b3390565b60008054600160a060020a03838116600160a060020a0319831681178455604051919092169283917f8be0079c531659141344cd1fd0a4f28419497f9722a3daafe3b4186f6b6457e09190a35050565b6111b7806100a66000396000f3fe6080604052600436106100df576000357c0100000000000000000000000000000000000000000000000000000000900480638da5cb5b1161009c578063ae3ca41e11610076578063ae3ca41e14610262578063be9ad61e14610282578063e7d215e914610297578063f2fde38b146102b757600080fd5b80638da5cb5b146102015780639979c009146102295780639af1d35a1461024c57600080fd5b8063107a274a146100e45780633919e4f51461015c5780633d18678e1461018a5780634d713868146101ac578063517679cd146101cc578063715018a6146101ec575b600080fd5b3480156100f057600080fd5b506101046100ff366004610fe7565b6102d7565b6040516101539190600060a082019050600160a060020a038084511683528060208501511660208401525060408301516040830152606083015160608301526080830151608083015292915050565b60405180910390f35b34801561016857600080fd5b5061017c61017736600461101c565b6103e2565b604051908152602001610153565b34801561019657600080fd5b506101aa6101a5366004610fe7565b6107c9565b005b3480156101b857600080fd5b506101aa6101c7366004611055565b61082a565b3480156101d857600080fd5b506101aa6101e7366004611055565b6108d5565b3480156101f857600080fd5b506101aa61090c565b34801561020d57600080fd5b50600054604051600160a060020a039091168152602001610153565b61023c610237366004611077565b610920565b6040519015158152602001610153565b34801561025857600080fd5b5061017c60055481565b34801561026e57600080fd5b506101aa61027d366004611055565b610dd0565b34801561028e57600080fd5b5060085461017c565b3480156102a357600080fd5b506101aa6102b2366004611055565b610e07565b3480156102c357600080fd5b506101aa6102d2366004611055565b610e3e565b61031b6040518060a001604052806000600160a060020a031681526020016000600160a060020a031681526020016000815260200160008152602001600081525090565b600082815260096020526040902054600160a060020a03166103875760405160e560020a62461bcd02815260206004820152601c60248201527f54686973206c697374696e6720646f6573206e6f74206578697374730000000060448201526064015b60405180910390fd5b50600090815260096020908152604091829020825160a0810184528154600160a060020a0390811682526001830154169281019290925260028101549282019290925260038201546060820152600490910154608082015290565b600080831161045c5760405160e560020a62461bcd02815260206004820152603860248201527f54686520616d6f756e74206f6620746f6b656e7320746f2073656c6c2c206e6560448201527f65647320746f2062652067726561746572207468616e20300000000000000000606482015260840161037e565b600082116104d55760405160e560020a62461bcd02815260206004820152603760248201527f5468652066756c6c20707269636520666f722074686520746f6b656e73206e6560448201527f656420746f2062652067726561746572207468616e2030000000000000000000606482015260840161037e565b6040517fe985e9c50000000000000000000000000000000000000000000000000000000081523360048201523060248201528590600160a060020a0382169063e985e9c590604401602060405180830381865afa15801561053a573d6000803e3d6000fd5b505050506040513d601f19601f8201168201806040525081019061055e9190611099565b6105ad5760405160e560020a62461bcd02815260206004820152601c60248201527f596f75206d75737420617070726f7665206265666f7265206c69737400000000604482015260640161037e565b6040517efdd58e000000000000000000000000000000000000000000000000000000008152336004820152602481018690528490600160a060020a0383169062fdd58e90604401602060405180830381865afa158015610611573d6000803e3d6000fd5b505050506040513d601f19601f8201168201806040525081019061063591906110bb565b10156106865760405160e560020a62461bcd02815260206004820152601d60248201527f596f7520646f6e2774206861766520656e6f7567687420746f6b656e73000000604482015260640161037e565b6040805160a0808201835233808352600160a060020a038a811660208086018281528688018d815260608089018e81526080808b018f8152600880546000908152600989528e81209d518e54908c1673ffffffffffffffffffffffffffffffffffffffff19918216178f55975160018f01805491909c16981697909717909955935160028c0155905160038b015591516004909901989098559354838252600a83528882208e83528352888220819055838252600b8352888220819055858252600c8352908890208190558751948552908401919091529482018a9052928101939093529082018590527fa7cbbbd174aea7fee3a11581da385f48dbbe1e3d361ebc43a183beec20abd7cf910160405180910390a1600880549060006107ab83611103565b919050555060016008546107bf919061111c565b9695505050505050565b6107d1610ed1565b60065481106108255760405160e560020a62461bcd02815260206004820152601360248201527f46656573206d757374206265203c203939393900000000000000000000000000604482015260640161037e565b600555565b600154600160a060020a031633148061084d5750600254600160a060020a031633145b806108625750600354600160a060020a031633145b6108b15760405160e560020a62461bcd02815260206004820152601a60248201527f4c696e6f734f776e61626c653a206e6f7420616e206f776e6572000000000000604482015260640161037e565b600160a060020a03166000908152600760205260409020805460ff19166001179055565b6108dd610ed1565b6001805473ffffffffffffffffffffffffffffffffffffffff1916600160a060020a0392909216919091179055565b610914610ed1565b61091e6000610f2e565b565b600061092a610f8b565b6000821161097d5760405160e560020a62461bcd02815260206004820152601d60248201527f596f75206d75737420627579206174206c65617374203120746f6b656e000000604482015260640161037e565b600083815260096020526040902054600160a060020a03166109e45760405160e560020a62461bcd02815260206004820152601c60248201527f54686973206c697374696e6720646f6573206e6f742065786973747300000000604482015260640161037e565b600083815260096020526040902060030154821115610a485760405160e560020a62461bcd02815260206004820152601960248201527f4e6f7420656e6f7567687420746f6b656e20746f2073656c6c00000000000000604482015260640161037e565b6000838152600960205260409020600401543490610a6790849061112f565b14610add5760405160e560020a62461bcd02815260206004820152603b60248201527f596f75206d757374207061792065786163746c7920746865207072696365207060448201527f657220746f6b656e202a20616d6f756e742070657220746f6b656e0000000000606482015260840161037e565b600083815260096020526040902060030154610afa90839061111c565b60008481526009602052604080822060038101939093556001830154835460029094015491517ff242432a000000000000000000000000000000000000000000000000000000008152600160a060020a03948516600482015233602482015260448101929092526064820186905260a0608483015260a4820192909252911690819063f242432a9060c401600060405180830381600087803b158015610b9f57600080fd5b505af1158015610bb3573d6000803e3d6000fd5b505060065460055434935060009250610bcd90849061112f565b610bd79190611146565b90506000610be5828461111c565b6000888152600960205260408082205490519293509091600160a060020a039091169083908381818185875af1925050503d8060008114610c42576040519150601f19603f3d011682016040523d82523d6000602084013e610c47565b606091505b505090506000610c5f600054600160a060020a031690565b600160a060020a03168460405160006040518083038185875af1925050503d8060008114610ca9576040519150601f19603f3d011682016040523d82523d6000602084013e610cae565b606091505b5050905081610d025760405160e560020a62461bcd02815260206004820152601960248201527f5472616e73666572206661696c656420746f2053656c6c657200000000000000604482015260640161037e565b80610d525760405160e560020a62461bcd02815260206004820152601860248201527f5472616e73666572206661696c656420746f204f776e65720000000000000000604482015260640161037e565b600089815260096020908152604091829020548251338152600160a060020a03909116918101919091529081018a9052606081018990527f797abd7322a72df2fd9412f6ff5500e993efb298450cc1d7e9fd84e296592b089060800160405180910390a160019650505050505050610dca6001600455565b92915050565b610dd8610ed1565b6002805473ffffffffffffffffffffffffffffffffffffffff1916600160a060020a0392909216919091179055565b610e0f610ed1565b6003805473ffffffffffffffffffffffffffffffffffffffff1916600160a060020a0392909216919091179055565b610e46610ed1565b600160a060020a038116610ec55760405160e560020a62461bcd02815260206004820152602660248201527f4f776e61626c653a206e6577206f776e657220697320746865207a65726f206160448201527f6464726573730000000000000000000000000000000000000000000000000000606482015260840161037e565b610ece81610f2e565b50565b600054600160a060020a0316331461091e5760405160e560020a62461bcd02815260206004820181905260248201527f4f776e61626c653a2063616c6c6572206973206e6f7420746865206f776e6572604482015260640161037e565b60008054600160a060020a0383811673ffffffffffffffffffffffffffffffffffffffff19831681178455604051919092169283917f8be0079c531659141344cd1fd0a4f28419497f9722a3daafe3b4186f6b6457e09190a35050565b600260045403610fe05760405160e560020a62461bcd02815260206004820152601f60248201527f5265656e7472616e637947756172643a207265656e7472616e742063616c6c00604482015260640161037e565b6002600455565b600060208284031215610ff957600080fd5b5035919050565b8035600160a060020a038116811461101757600080fd5b919050565b6000806000806080858703121561103257600080fd5b61103b85611000565b966020860135965060408601359560600135945092505050565b60006020828403121561106757600080fd5b61107082611000565b9392505050565b6000806040838503121561108a57600080fd5b50508035926020909101359150565b6000602082840312156110ab57600080fd5b8151801515811461107057600080fd5b6000602082840312156110cd57600080fd5b5051919050565b7f4e487b7100000000000000000000000000000000000000000000000000000000600052601160045260246000fd5b600060018201611115576111156110d4565b5060010190565b81810381811115610dca57610dca6110d4565b8082028115828204841417610dca57610dca6110d4565b60008261117c577f4e487b7100000000000000000000000000000000000000000000000000000000600052601260045260246000fd5b50049056fea26469706673582212208d3f4d6248717af188eef50a0cce2617776a6970c2b24074ea45c7bf3f64f48264736f6c63430008110033608060405234801561001057600080fd5b50604051613ca5380380613ca583398101604081905261002f9161007c565b60008054600160a060020a03938416600160a060020a031991821617909155600180549290931691161790556100af565b8051600160a060020a038116811461007757600080fd5b919050565b6000806040838503121561008f57600080fd5b61009883610060565b91506100a660208401610060565b90509250929050565b613be7806100be6000396000f3fe60806040523480156200001157600080fd5b50600436106200004a577c01000000000000000000000000000000000000000000000000000000006000350463dc91c2cd81146200004f575b600080fd5b6200006662000060366004620004b1565b62000082565b604051600160a060020a03909116815260200160405180910390f35b600080546040517fba7eea15000000000000000000000000000000000000000000000000000000008152336004820152600160a060020a039091169063ba7eea1590602401602060405180830381865afa158015620000e5573d6000803e3d6000fd5b505050506040513d601f19601f820116820180604052508101906200010b9190620005b5565b62000176576040517f08c379a000000000000000000000000000000000000000000000000000000000815260206004820152600a60248201527f4e6f742061727469737400000000000000000000000000000000000000000000604482015260640160405180910390fd5b60008a8a8a8a8a8a8a8a8a6040516200018f9062000410565b620001a39998979695949392919062000680565b604051809103906000f080158015620001c0573d6000803e3d6000fd5b506000546040517fb949c804000000000000000000000000000000000000000000000000000000008152336004820152919250600160a060020a0380841692631fc3b56c92919091169063b949c80490602401600060405180830381865afa15801562000231573d6000803e3d6000fd5b505050506040513d6000823e601f3d908101601f191682016040526200025b919081019062000822565b602001516040517c010000000000000000000000000000000000000000000000000000000063ffffffff8416028152600160a060020a039091166004820152602401600060405180830381600087803b158015620002b857600080fd5b505af1158015620002cd573d6000803e3d6000fd5b50506040517ff2fde38b000000000000000000000000000000000000000000000000000000008152336004820152600160a060020a038416925063f2fde38b9150602401600060405180830381600087803b1580156200032c57600080fd5b505af115801562000341573d6000803e3d6000fd5b505050507f7087686ad0f6bf617a6733c11d272b3a68861f1867bd80a15a7a9aca218adbf6898983426040516200037c94939291906200093e565b60405180910390a16001546040517f4d713868000000000000000000000000000000000000000000000000000000008152600160a060020a038381166004830152909116908190634d71386890602401600060405180830381600087803b158015620003e757600080fd5b505af1158015620003fc573d6000803e3d6000fd5b50939e9d5050505050505050505050505050565b613241806200097183390190565b60008083601f8401126200043157600080fd5b50813567ffffffffffffffff8111156200044a57600080fd5b6020830191508360208285010111156200046357600080fd5b9250929050565b60008083601f8401126200047d57600080fd5b50813567ffffffffffffffff8111156200049657600080fd5b60208301915083602080830285010111156200046357600080fd5b6000806000806000806000806000898b03610100811215620004d257600080fd5b8a3567ffffffffffffffff80821115620004eb57600080fd5b620004f98e838f016200041e565b909c509a5060208d01359150808211156200051357600080fd5b620005218e838f016200041e565b909a50985060408d01359150808211156200053b57600080fd5b620005498e838f016200046a565b909850965060608d01359150808211156200056357600080fd5b50620005728d828e016200046a565b9095509350506080607f19820112156200058b57600080fd5b5060808a0190509295985092959850929598565b80518015158114620005b057600080fd5b919050565b600060208284031215620005c857600080fd5b620005d3826200059f565b9392505050565b81835281816020850137506000828201602090810191909152601f909101601f19169091010190565b81835260007f07ffffffffffffffffffffffffffffffffffffffffffffffffffffffffffffff8311156200063657600080fd5b6020830280836020870137939093016020019392505050565b8035600281106200065f57600080fd5b82526020818101359083015260408082013590830152606090810135910152565b6000610100808352620006978184018c8e620005da565b9050602083820381850152620006af828b8d620005da565b84810360408601528881529150808201818902830182018a60005b8b8110156200074157858303601f190184528135368e9003601e19018112620006f257600080fd5b8d01858101903567ffffffffffffffff8111156200070f57600080fd5b8036038213156200071f57600080fd5b6200072c858284620005da565b958701959450505090840190600101620006ca565b505085810360608701526200075881898b62000603565b9450505050506200076d60808301846200064f565b9a9950505050505050505050565b7f4e487b7100000000000000000000000000000000000000000000000000000000600052604160045260246000fd5b6040516080810167ffffffffffffffff81118282101715620007d057620007d06200077b565b60405290565b604051601f8201601f1916810167ffffffffffffffff811182821017156200080257620008026200077b565b604052919050565b8051600160a060020a0381168114620005b057600080fd5b600060208083850312156200083657600080fd5b825167ffffffffffffffff808211156200084f57600080fd5b90840190608082870312156200086457600080fd5b6200086e620007aa565b8251828111156200087e57600080fd5b8301601f810188136200089057600080fd5b805183811115620008a557620008a56200077b565b620008b9601f8201601f19168701620007d6565b93508084528886828401011115620008d057600080fd5b60005b81811015620008f0578281018701518582018801528601620008d3565b506000908401860152508181526200090a8385016200080a565b848201526200091c604084016200059f565b60408201526200092f606084016200059f565b60608201529695505050505050565b60608152600062000954606083018688620005da565b600160a060020a0394909416602083015250604001529291505056fe60806040523480156200001157600080fd5b506040516200324138038062003241833981016040819052620000349162000b9f565b846200004981640100000000620001be810204565b506200007062000061640100000000620001d0810204565b640100000000620001d4810204565b600160065560078054600160a060020a031916331790558151835114620000f8576040517f08c379a000000000000000000000000000000000000000000000000000000000815260206004820152600a60248201527f73697a65206572726f720000000000000000000000000000000000000000000060448201526064015b60405180910390fd5b805160088054839290829060ff1916600183818111156200011d576200011d62000ced565b021790555060208281015160018301556040830151600283015560609092015160039091015583516200015791600e91908601906200086b565b5081516200016d90600f906020850190620008c8565b50600c6200017c858262000dc0565b50600060085460ff16600181111562000199576200019962000ced565b03620001b357620001b33264010000000062000226810204565b505050505062001152565b6002620001cc828262000dc0565b5050565b3390565b60058054600160a060020a03838116600160a060020a0319831681179093556040519116919082907f8be0079c531659141344cd1fd0a4f28419497f9722a3daafe3b4186f6b6457e090600090a35050565b600f546000906001604060020a038111156200024657620002466200098e565b60405190808252806020026020018201604052801562000270578160200160208202803683370190505b50905060005b600f54811015620002b7578082828151811062000297576200029762000e92565b602090810291909101015280620002ae8162000ef0565b91505062000276565b50620001cc8282600f8054806020026020016040519081016040528092919081815260200182805480156200030c57602002820191906000526020600020905b815481526020019060010190808311620002f7575b50505050506040518060200160405280600081525062000336640100000000026401000000009004565b600160a060020a038416620003ce576040517f08c379a000000000000000000000000000000000000000000000000000000000815260206004820152602160248201527f455243313135353a206d696e7420746f20746865207a65726f2061646472657360448201527f73000000000000000000000000000000000000000000000000000000000000006064820152608401620000ef565b815183511462000461576040517f08c379a000000000000000000000000000000000000000000000000000000000815260206004820152602860248201527f455243313135353a2069647320616e6420616d6f756e7473206c656e6774682060448201527f6d69736d617463680000000000000000000000000000000000000000000000006064820152608401620000ef565b600062000476640100000000620001d0810204565b90506200049281600087878787640100000000620005cf810204565b60005b84518110156200053957838181518110620004b457620004b462000e92565b6020026020010151600080878481518110620004d457620004d462000e92565b60200260200101518152602001908152602001600020600088600160a060020a0316600160a060020a0316815260200190815260200160002060008282546200051e919062000f0c565b90915550819050620005308162000ef0565b91505062000495565b5084600160a060020a03166000600160a060020a031682600160a060020a03167f4a39dc06d4c0dbc64b70af90fd698a233a518aa5d07e595d983b8c0526c8f7fb87876040516200058c92919062000f65565b60405180910390a4620005ae81600087878787640100000000620005cf810204565b620005c881600087878787640100000000620005d7810204565b5050505050565b505050505050565b620005f9600160a060020a03851664010000000062000d1c6200085c82021704565b15620005cf576040517fbc197c81000000000000000000000000000000000000000000000000000000008152600160a060020a0385169063bc197c81906200064e908990899088908890889060040162000fc5565b6020604051808303816000875af19250505080156200068c575060408051601f3d908101601f19168201909252620006899181019062001029565b60015b62000780576200069b62001074565b806308c379a003620006f55750620006b2620010ae565b80620006bf5750620006f7565b806040517f08c379a0000000000000000000000000000000000000000000000000000000008152600401620000ef91906200113d565b505b6040517f08c379a000000000000000000000000000000000000000000000000000000000815260206004820152603460248201527f455243313135353a207472616e7366657220746f206e6f6e2d4552433131353560448201527f526563656976657220696d706c656d656e7465720000000000000000000000006064820152608401620000ef565b7fffffffff0000000000000000000000000000000000000000000000000000000081167fbc197c81000000000000000000000000000000000000000000000000000000001462000853576040517f08c379a000000000000000000000000000000000000000000000000000000000815260206004820152602860248201527f455243313135353a204552433131353552656365697665722072656a6563746560448201527f6420746f6b656e730000000000000000000000000000000000000000000000006064820152608401620000ef565b50505050505050565b600160a060020a03163b151590565b828054828255906000526020600020908101928215620008b6579160200282015b82811115620008b65782518290620008a5908262000dc0565b50916020019190600101906200088c565b50620008c492915062000914565b5090565b82805482825590600052602060002090810192821562000906579160200282015b8281111562000906578251825591602001919060010190620008e9565b50620008c492915062000935565b80821115620008c45760006200092b82826200094c565b5060010162000914565b5b80821115620008c4576000815560010162000936565b5080546200095a9062000d1c565b6000825580601f106200096b575050565b601f0160209004906000526020600020908101906200098b919062000935565b50565b7f4e487b7100000000000000000000000000000000000000000000000000000000600052604160045260246000fd5b601f8201601f191681016001604060020a0381118282101715620009e557620009e56200098e565b6040525050565b60005b8381101562000a09578181015183820152602001620009ef565b50506000910152565b600082601f83011262000a2457600080fd5b81516001604060020a0381111562000a405762000a406200098e565b60405162000a59601f8301601f191660200182620009bd565b81815284602083860101111562000a6f57600080fd5b62000a82826020830160208701620009ec565b949350505050565b60006001604060020a0382111562000aa65762000aa66200098e565b5060209081020190565b600082601f83011262000ac257600080fd5b8151602062000ad18262000a8a565b60405162000ae08282620009bd565b838152928202850182019282810191508684111562000afe57600080fd5b8286015b8481101562000b1b578051835291830191830162000b02565b509695505050505050565b60006080828403121562000b3957600080fd5b604051608081018181106001604060020a038211171562000b5e5762000b5e6200098e565b806040525080915082516002811062000b7657600080fd5b808252506020830151602082015260408301516040820152606083015160608201525092915050565b6000806000806000610100868803121562000bb957600080fd5b85516001604060020a038082111562000bd157600080fd5b62000bdf89838a0162000a12565b965060209150818801518181111562000bf757600080fd5b62000c058a828b0162000a12565b96505060408801518181111562000c1b57600080fd5b8801601f81018a1362000c2d57600080fd5b805162000c3a8162000a8a565b60405162000c498282620009bd565b828152918502830185019185810191508c83111562000c6757600080fd5b8584015b8381101562000ca45780518681111562000c855760008081fd5b62000c958f898389010162000a12565b84525091860191860162000c6b565b5060608c015190985094505050508082111562000cc057600080fd5b5062000ccf8882890162000ab0565b92505062000ce1876080880162000b26565b90509295509295909350565b7f4e487b7100000000000000000000000000000000000000000000000000000000600052602160045260246000fd5b60028104600182168062000d3157607f821691505b60208210810362000d6b577f4e487b7100000000000000000000000000000000000000000000000000000000600052602260045260246000fd5b50919050565b601f82111562000dbb576000818152602081206020601f8601048101602086101562000d9a5750805b6020601f860104820191505b81811015620005cf5782815560010162000da6565b505050565b81516001604060020a0381111562000ddc5762000ddc6200098e565b62000df48162000ded845462000d1c565b8462000d71565b602080601f83116001811462000e30576000841562000e135750858301515b60028086026008870290910a6000190419821617865550620005cf565b600085815260208120601f198616915b8281101562000e615788860151825594840194600190910190840162000e40565b508582101562000e8257878501516008601f88160260020a60001904191681555b5050505050600202600101905550565b7f4e487b7100000000000000000000000000000000000000000000000000000000600052603260045260246000fd5b7f4e487b7100000000000000000000000000000000000000000000000000000000600052601160045260246000fd5b60006001820162000f055762000f0562000ec1565b5060010190565b8082018082111562000f225762000f2262000ec1565b92915050565b600081518084526020808501945080840160005b8381101562000f5a5781518752958201959082019060010162000f3c565b509495945050505050565b60408152600062000f7a604083018562000f28565b828103602084015262000f8e818562000f28565b95945050505050565b6000815180845262000fb1816020860160208601620009ec565b601f01601f19169290920160200192915050565b600160a060020a0386811682528516602082015260a06040820181905260009062000ff39083018662000f28565b828103606084015262001007818662000f28565b905082810360808401526200101d818562000f97565b98975050505050505050565b6000602082840312156200103c57600080fd5b81517fffffffff00000000000000000000000000000000000000000000000000000000811681146200106d57600080fd5b9392505050565b600060033d1115620010ab5760046000803e7c01000000000000000000000000000000000000000000000000000000006000510490505b90565b600060443d1015620010bd5790565b6040516003193d81016004833e81513d6001604060020a038160248401118184111715620010ed57505050505090565b8285019150815181811115620011065750505050505090565b843d8701016020828501011115620011215750505050505090565b6200113260208286010187620009bd565b509095945050505050565b6020815260006200106d602083018462000f97565b6120df80620011626000396000f3fe608060405234801561001057600080fd5b5060043610610153576000357c010000000000000000000000000000000000000000000000000000000090048063715018a6116100d5578063dfb0582511610099578063dfb05825146102e9578063e1076b62146102fc578063e5326ab11461030f578063e985e9c514610317578063f242432a14610353578063f2fde38b1461036657600080fd5b8063715018a6146102a25780638da5cb5b146102aa57806398d5547d146102bb5780639fb17e34146102c3578063a22cb465146102d657600080fd5b806327c0dfc81161011c57806327c0dfc8146102015780632a55205a1461022a5780632eb2c2d61461025c5780634e1273f41461026f5780636b8ff5741461028f57600080fd5b8062fdd58e1461015857806301ffc9a71461017e5780630e89341c146101a1578063187ba8a6146101c15780631fc3b56c146101ec575b600080fd5b61016b610166366004611762565b610379565b6040519081526020015b60405180910390f35b61019161018c3660046117a2565b610428565b6040519015158152602001610175565b6101b46101af3660046117c6565b610433565b6040516101759190611825565b600d546101d490600160a060020a031681565b604051600160a060020a039091168152602001610175565b6101ff6101fa366004611838565b6104c7565b005b600854600954600a54600b5461021a9360ff1692919084565b604051610175949392919061186c565b61023d6102383660046118ad565b6104fe565b60408051600160a060020a039093168352602083019190915201610175565b6101ff61026a366004611a1b565b6105db565b61028261027d366004611ac5565b61062a565b6040516101759190611bc8565b6101b461029d3660046117c6565b61076b565b6101ff610795565b600554600160a060020a03166101d4565b600e5461016b565b61016b6102d13660046117c6565b6107a9565b6101ff6102e4366004611bdb565b610b58565b61016b6102f73660046117c6565b610b67565b6101b461030a3660046117c6565b610b88565b6101b4610c34565b610191610325366004611c17565b600160a060020a03918216600090815260016020908152604080832093909416825291909152205460ff1690565b6101ff610361366004611c4a565b610c41565b6101ff610374366004611838565b610c89565b6000600160a060020a0383166103ff5760405160e560020a62461bcd02815260206004820152602a60248201527f455243313135353a2061646472657373207a65726f206973206e6f742061207660448201527f616c6964206f776e65720000000000000000000000000000000000000000000060648201526084015b60405180910390fd5b50600081815260208181526040808320600160a060020a03861684529091529020545b92915050565b600061042282610d2b565b60606002805461044290611caf565b80601f016020809104026020016040519081016040528092919081815260200182805461046e90611caf565b80156104bb5780601f10610490576101008083540402835291602001916104bb565b820191906000526020600020905b81548152906001019060200180831161049e57829003601f168201915b50505050509050919050565b6104cf610d69565b600d805473ffffffffffffffffffffffffffffffffffffffff1916600160a060020a0392909216919091179055565b6000828152600460209081526040808320815180830190925254600160a060020a038116808352740100000000000000000000000000000000000000009091046bffffffffffffffffffffffff1692820192909252829161059f575060408051808201909152600354600160a060020a03811682527401000000000000000000000000000000000000000090046bffffffffffffffffffffffff1660208201525b6020810151600090612710906105c3906bffffffffffffffffffffffff1687611d05565b6105cd9190611d1c565b915196919550909350505050565b600160a060020a0385163314806105f757506105f78533610325565b6106165760405160e560020a62461bcd0281526004016103f690611d41565b6106238585858585610dc6565b5050505050565b606081518351146106a65760405160e560020a62461bcd02815260206004820152602960248201527f455243313135353a206163636f756e747320616e6420696473206c656e67746860448201527f206d69736d61746368000000000000000000000000000000000000000000000060648201526084016103f6565b6000835167ffffffffffffffff8111156106c2576106c26118cf565b6040519080825280602002602001820160405280156106eb578160200160208202803683370190505b50905060005b84518110156107635761073685828151811061070f5761070f611d9e565b602002602001015185838151811061072957610729611d9e565b6020026020010151610379565b82828151811061074857610748611d9e565b602090810291909101015261075c81611db7565b90506106f1565b509392505050565b6060600e828154811061078057610780611d9e565b90600052602060002001805461044290611caf565b61079d610d69565b6107a76000610fc1565b565b60006107b3611020565b600160085460ff1660018111156107cc576107cc611853565b1461081c5760405160e560020a62461bcd02815260206004820152601e60248201527f43616e6e6f74206d696e7420746869732074797065206f6620746f6b656e000060448201526064016103f6565b600e5482106108705760405160e560020a62461bcd02815260206004820152601560248201527f546f6b656e20646f6573206e6f7420657869737473000000000000000000000060448201526064016103f6565b600f828154811061088357610883611d9e565b9060005260206000200154601060008481526020019081526020016000205460016108ae9190611dd0565b11156109255760405160e560020a62461bcd02815260206004820152602660248201527f4d617820737570706c79207265616368656420666f72207468697320746f6b6560448201527f6e2074797065000000000000000000000000000000000000000000000000000060648201526084016103f6565b600a5415806109505750600a543360009081526013602052604090205461094d906001611dd0565b11155b61099f5760405160e560020a62461bcd02815260206004820152601360248201527f596f75206d696e74656420746f6f206d7563680000000000000000000000000060448201526064016103f6565b600b5415806109d45750600b5460008381526012602090815260408083203384529091529020546109d1906001611dd0565b11155b610a495760405160e560020a62461bcd02815260206004820152602160248201527f596f75206d696e74656420746f6f206d756368206f66207468697320746f6b6560448201527f6e0000000000000000000000000000000000000000000000000000000000000060648201526084016103f6565b60095415610ac25760405160e560020a62461bcd02815260206004820152602c60248201527f596f7520617265206e6f742066616e20656e6f75676874203d3e20537472656160448201527f6d206f7220626f6f73742021000000000000000000000000000000000000000060648201526084016103f6565b336000908152601360205260408120805491610add83611db7565b909155505060008281526012602090815260408083203384529091528120805491610b0783611db7565b90915550506000828152601060205260408120805491610b2683611db7565b9190505550610b47338360016040518060200160405280600081525061107c565b5080610b536001600655565b919050565b610b633383836111af565b5050565b600f8181548110610b7757600080fd5b600091825260209091200154905081565b600e8181548110610b9857600080fd5b906000526020600020016000915090508054610bb390611caf565b80601f0160208091040260200160405190810160405280929190818152602001828054610bdf90611caf565b8015610c2c5780601f10610c0157610100808354040283529160200191610c2c565b820191906000526020600020905b815481529060010190602001808311610c0f57829003601f168201915b505050505081565b600c8054610bb390611caf565b600160a060020a038516331480610c5d5750610c5d8533610325565b610c7c5760405160e560020a62461bcd0281526004016103f690611d41565b61062385858585856112a6565b610c91610d69565b600160a060020a038116610d105760405160e560020a62461bcd02815260206004820152602660248201527f4f776e61626c653a206e6577206f776e657220697320746865207a65726f206160448201527f646472657373000000000000000000000000000000000000000000000000000060648201526084016103f6565b610d1981610fc1565b50565b600160a060020a03163b151590565b6000600160e060020a031982167f2a55205a0000000000000000000000000000000000000000000000000000000014806104225750610422826113d6565b600554600160a060020a031633146107a75760405160e560020a62461bcd02815260206004820181905260248201527f4f776e61626c653a2063616c6c6572206973206e6f7420746865206f776e657260448201526064016103f6565b8151835114610e405760405160e560020a62461bcd02815260206004820152602860248201527f455243313135353a2069647320616e6420616d6f756e7473206c656e6774682060448201527f6d69736d6174636800000000000000000000000000000000000000000000000060648201526084016103f6565b600160a060020a038416610e695760405160e560020a62461bcd0281526004016103f690611de3565b3360005b8451811015610f53576000858281518110610e8a57610e8a611d9e565b602002602001015190506000858381518110610ea857610ea8611d9e565b60209081029190910181015160008481528083526040808220600160a060020a038e168352909352919091205490915081811015610efb5760405160e560020a62461bcd0281526004016103f690611e40565b600083815260208181526040808320600160a060020a038e8116855292528083208585039055908b16825281208054849290610f38908490611dd0565b9250508190555050505080610f4c90611db7565b9050610e6d565b5084600160a060020a031686600160a060020a031682600160a060020a03167f4a39dc06d4c0dbc64b70af90fd698a233a518aa5d07e595d983b8c0526c8f7fb8787604051610fa3929190611e9d565b60405180910390a4610fb9818787878787611471565b505050505050565b60058054600160a060020a0383811673ffffffffffffffffffffffffffffffffffffffff19831681179093556040519116919082907f8be0079c531659141344cd1fd0a4f28419497f9722a3daafe3b4186f6b6457e090600090a35050565b6002600654036110755760405160e560020a62461bcd02815260206004820152601f60248201527f5265656e7472616e637947756172643a207265656e7472616e742063616c6c0060448201526064016103f6565b6002600655565b600160a060020a0384166110fb5760405160e560020a62461bcd02815260206004820152602160248201527f455243313135353a206d696e7420746f20746865207a65726f2061646472657360448201527f730000000000000000000000000000000000000000000000000000000000000060648201526084016103f6565b33600061110785611610565b9050600061111485611610565b9050600086815260208181526040808320600160a060020a038b16845290915281208054879290611146908490611dd0565b90915550506040805187815260208101879052600160a060020a03808a1692600092918716917fc3d58168c5ae7397731d063d5bbf3d657854427343f4c083240f7aacaa2d0f62910160405180910390a46111a68360008989898961165b565b50505050505050565b81600160a060020a031683600160a060020a0316036112395760405160e560020a62461bcd02815260206004820152602960248201527f455243313135353a2073657474696e6720617070726f76616c2073746174757360448201527f20666f722073656c66000000000000000000000000000000000000000000000060648201526084016103f6565b600160a060020a03838116600081815260016020908152604080832094871680845294825291829020805460ff191686151590811790915591519182527f17307eab39ab6107e8899845ad3d59bd9653f200f220920489ca2b5937696c31910160405180910390a3505050565b600160a060020a0384166112cf5760405160e560020a62461bcd0281526004016103f690611de3565b3360006112db85611610565b905060006112e885611610565b9050600086815260208181526040808320600160a060020a038c1684529091529020548581101561132e5760405160e560020a62461bcd0281526004016103f690611e40565b600087815260208181526040808320600160a060020a038d8116855292528083208985039055908a1682528120805488929061136b908490611dd0565b90915550506040805188815260208101889052600160a060020a03808b16928c821692918816917fc3d58168c5ae7397731d063d5bbf3d657854427343f4c083240f7aacaa2d0f62910160405180910390a46113cb848a8a8a8a8a61165b565b505050505050505050565b6000600160e060020a031982167fd9b67a260000000000000000000000000000000000000000000000000000000014806114395750600160e060020a031982167f0e89341c00000000000000000000000000000000000000000000000000000000145b8061042257507f01ffc9a700000000000000000000000000000000000000000000000000000000600160e060020a0319831614610422565b600160a060020a0384163b15610fb9576040517fbc197c81000000000000000000000000000000000000000000000000000000008152600160a060020a0385169063bc197c81906114ce9089908990889088908890600401611ecb565b6020604051808303816000875af1925050508015611509575060408051601f3d908101601f1916820190925261150691810190611f29565b60015b6115c457611515611f46565b806308c379a0036115515750611529611f7f565b806115345750611553565b8060405160e560020a62461bcd0281526004016103f69190611825565b505b60405160e560020a62461bcd02815260206004820152603460248201527f455243313135353a207472616e7366657220746f206e6f6e2d4552433131353560448201527f526563656976657220696d706c656d656e74657200000000000000000000000060648201526084016103f6565b600160e060020a031981167fbc197c8100000000000000000000000000000000000000000000000000000000146111a65760405160e560020a62461bcd0281526004016103f690612009565b6040805160018082528183019092526060916000919060208083019080368337019050509050828160008151811061164a5761164a611d9e565b602090810291909101015292915050565b600160a060020a0384163b15610fb9576040517ff23a6e61000000000000000000000000000000000000000000000000000000008152600160a060020a0385169063f23a6e61906116b89089908990889088908890600401612066565b6020604051808303816000875af19250505080156116f3575060408051601f3d908101601f191682019092526116f091810190611f29565b60015b6116ff57611515611f46565b600160e060020a031981167ff23a6e6100000000000000000000000000000000000000000000000000000000146111a65760405160e560020a62461bcd0281526004016103f690612009565b8035600160a060020a0381168114610b5357600080fd5b6000806040838503121561177557600080fd5b61177e8361174b565b946020939093013593505050565b600160e060020a031981168114610d1957600080fd5b6000602082840312156117b457600080fd5b81356117bf8161178c565b9392505050565b6000602082840312156117d857600080fd5b5035919050565b6000815180845260005b81811015611805576020818501810151868301820152016117e9565b506000602082860101526020601f19601f83011685010191505092915050565b6020815260006117bf60208301846117df565b60006020828403121561184a57600080fd5b6117bf8261174b565b60e060020a634e487b7102600052602160045260246000fd5b60808101600286106118915760e060020a634e487b7102600052602160045260246000fd5b9481526020810193909352604083019190915260609091015290565b600080604083850312156118c057600080fd5b50508035926020909101359150565b60e060020a634e487b7102600052604160045260246000fd5b601f8201601f1916810167ffffffffffffffff8111828210171561190e5761190e6118cf565b6040525050565b600067ffffffffffffffff82111561192f5761192f6118cf565b5060209081020190565b600082601f83011261194a57600080fd5b8135602061195782611915565b60405161196482826118e8565b838152928202850182019282810191508684111561198157600080fd5b8286015b8481101561199c5780358352918301918301611985565b509695505050505050565b600082601f8301126119b857600080fd5b813567ffffffffffffffff8111156119d2576119d26118cf565b6040516119e9601f8301601f1916602001826118e8565b8181528460208386010111156119fe57600080fd5b816020850160208301376000918101602001919091529392505050565b600080600080600060a08688031215611a3357600080fd5b611a3c8661174b565b9450611a4a6020870161174b565b9350604086013567ffffffffffffffff80821115611a6757600080fd5b611a7389838a01611939565b94506060880135915080821115611a8957600080fd5b611a9589838a01611939565b93506080880135915080821115611aab57600080fd5b50611ab8888289016119a7565b9150509295509295909350565b60008060408385031215611ad857600080fd5b823567ffffffffffffffff80821115611af057600080fd5b818501915085601f830112611b0457600080fd5b81356020611b1182611915565b604051611b1e82826118e8565b8381529282028501820192828101915089841115611b3b57600080fd5b948201945b83861015611b6057611b518661174b565b82529482019490820190611b40565b96505086013592505080821115611b7657600080fd5b50611b8385828601611939565b9150509250929050565b600081518084526020808501945080840160005b83811015611bbd57815187529582019590820190600101611ba1565b509495945050505050565b6020815260006117bf6020830184611b8d565b60008060408385031215611bee57600080fd5b611bf78361174b565b915060208301358015158114611c0c57600080fd5b809150509250929050565b60008060408385031215611c2a57600080fd5b611c338361174b565b9150611c416020840161174b565b90509250929050565b600080600080600060a08688031215611c6257600080fd5b611c6b8661174b565b9450611c796020870161174b565b93506040860135925060608601359150608086013567ffffffffffffffff811115611ca357600080fd5b611ab8888289016119a7565b600281046001821680611cc357607f821691505b602082108103611ce65760e060020a634e487b7102600052602260045260246000fd5b50919050565b60e060020a634e487b7102600052601160045260246000fd5b808202811582820484141761042257610422611cec565b600082611d3c5760e060020a634e487b7102600052601260045260246000fd5b500490565b6020808252602e908201527f455243313135353a2063616c6c6572206973206e6f7420746f6b656e206f776e60408201527f6572206f7220617070726f766564000000000000000000000000000000000000606082015260800190565b60e060020a634e487b7102600052603260045260246000fd5b600060018201611dc957611dc9611cec565b5060010190565b8082018082111561042257610422611cec565b60208082526025908201527f455243313135353a207472616e7366657220746f20746865207a65726f20616460408201527f6472657373000000000000000000000000000000000000000000000000000000606082015260800190565b6020808252602a908201527f455243313135353a20696e73756666696369656e742062616c616e636520666f60408201527f72207472616e7366657200000000000000000000000000000000000000000000606082015260800190565b604081526000611eb06040830185611b8d565b8281036020840152611ec28185611b8d565b95945050505050565b6000600160a060020a03808816835280871660208401525060a06040830152611ef760a0830186611b8d565b8281036060840152611f098186611b8d565b90508281036080840152611f1d81856117df565b98975050505050505050565b600060208284031215611f3b57600080fd5b81516117bf8161178c565b600060033d1115611f7c5760046000803e7c01000000000000000000000000000000000000000000000000000000006000510490505b90565b600060443d1015611f8d5790565b6040516003193d81016004833e81513d67ffffffffffffffff8160248401118184111715611fbd57505050505090565b8285019150815181811115611fd55750505050505090565b843d8701016020828501011115611fef5750505050505090565b611ffe602082860101876118e8565b509095945050505050565b60208082526028908201527f455243313135353a204552433131353552656365697665722072656a6563746560408201527f6420746f6b656e73000000000000000000000000000000000000000000000000606082015260800190565b6000600160a060020a03808816835280871660208401525084604083015283606083015260a0608083015261209e60a08301846117df565b97965050505050505056fea2646970667358221220646a1aa0a6ac2993c0109b9e9efaadd57b89016414ceb3ba71299b3046a9215064736f6c63430008110033a26469706673582212208228ef9a5fe984a92264e7430439f9076e53a4e3cd887708f4badc91f423dc2064736f6c63430008110033",
  "immutableReferences": {},
  "source": "// SPDX-License-Identifier: MIT\npragma solidity ^0.8.17;\n\nimport \"../node_modules/@openzeppelin/contracts/access/Ownable.sol\";\n\nimport \"./LinosPlatformInterface.sol\";\nimport \"./ArtistERC1155Factory.sol\";\nimport \"./NftMarketPlace.sol\";\nimport \"./FanToken.sol\";\n\ncontract LinosPlatform is LinosPlatformInterface, Ownable {\n\n\n    address public listenTokenAddress;\n    address public nftFactoryAddress;\n    address public nftMarketPlaceAddress;\n\n    mapping(address => User) public users;\n    mapping(address => Artist) public artists;\n    mapping(address => Track[]) public artistTracks;\n\n    modifier notAUser(address _address) {\n        require(!users[_address].isRegistered, \"User Already registered\");\n        _;\n    }\n    modifier notAnArtist(address _address) {\n        require(!artists[_address].isRegistered, \"Artist Already registered\");\n        _;\n    }\n    modifier onlyValidArtist(address _address) {\n        require(artists[_address].isValid, \"Artist is not valid\");\n        _;\n    }\n\n    constructor() {\n        NftMarketPlace nftMarketPlace = new NftMarketPlace();\n        nftMarketPlace.setFees(5);\n        nftMarketPlace.setLinosPlatformAddress(address(this));\n        nftMarketPlaceAddress = address(nftMarketPlace);\n\n        nftFactoryAddress = address(new ArtistERC1155Factory(\n            address(this),\n            address(nftMarketPlace)\n        ));\n\n        nftMarketPlace.setNftFactoryAddress(nftFactoryAddress);\n    }\n\n    function getArtist(address artistAddress) external view returns(Artist memory) {\n        return artists[artistAddress];\n    }\n\n    function getUser(address userAddress) external view returns(User memory) {\n        return users[userAddress];\n    }\n\n    function isArtistValid(address artistAddress) external view returns(bool) {\n        return artists[artistAddress].isValid;\n    }\n\n    function registerAsArtist(\n        string calldata _artistName,\n        string calldata _symbol\n    ) public notAnArtist(msg.sender) notAUser(msg.sender) {\n        FanToken artistFanToken = new FanToken(\n            _artistName,\n            string(abi.encodePacked('L-', _symbol)),\n            address(this)\n        );\n        artists[msg.sender] = Artist(_artistName, address(artistFanToken), true, true);\n    }\n\n    function registerAsUser(\n        string calldata _userName\n    ) public notAnArtist(msg.sender) notAUser(msg.sender) {\n        users[msg.sender] = User(_userName, true);\n    }\n\n    function createTrack(string calldata _name, string calldata _coverUri) external onlyValidArtist(msg.sender) {\n        artistTracks[msg.sender].push(Track(_name, _coverUri));\n    }\n}",
  "sourcePath": "/Volumes/code/Alyra/Linos/truffle/contracts/LinosPlatform.sol",
  "compiler": {
    "name": "solc",
    "version": "0.8.17+commit.8df45f5f.Emscripten.clang"
  },
  "schemaVersion": "3.4.10",
  "updatedAt": "2022-12-11T17:18:45.827Z",
  "networkType": "ethereum",
  "devdoc": {
    "kind": "dev",
    "methods": {
      "owner()": {
        "details": "Returns the address of the current owner."
      },
      "renounceOwnership()": {
        "details": "Leaves the contract without owner. It will not be possible to call `onlyOwner` functions anymore. Can only be called by the current owner. NOTE: Renouncing ownership will leave the contract without an owner, thereby removing any functionality that is only available to the owner."
      },
      "transferOwnership(address)": {
        "details": "Transfers ownership of the contract to a new account (`newOwner`). Can only be called by the current owner."
      }
    },
    "version": 1
  },
  "userdoc": {
    "kind": "user",
    "methods": {},
    "version": 1
  }
}