{
  "contractName": "ListenToken",
  "abi": [
    {
      "inputs": [
        {
          "internalType": "address",
          "name": "linosPlatformAddress",
          "type": "address"
        }
      ],
      "stateMutability": "nonpayable",
      "type": "constructor"
    },
    {
      "anonymous": false,
      "inputs": [
        {
          "indexed": true,
          "internalType": "address",
          "name": "owner",
          "type": "address"
        },
        {
          "indexed": true,
          "internalType": "address",
          "name": "spender",
          "type": "address"
        },
        {
          "indexed": false,
          "internalType": "uint256",
          "name": "value",
          "type": "uint256"
        }
      ],
      "name": "Approval",
      "type": "event"
    },
    {
      "anonymous": false,
      "inputs": [
        {
          "indexed": true,
          "internalType": "address",
          "name": "previousOwner",
          "type": "address"
        },
        {
          "indexed": true,
          "internalType": "address",
          "name": "newOwner",
          "type": "address"
        }
      ],
      "name": "OwnershipTransferred",
      "type": "event"
    },
    {
      "anonymous": false,
      "inputs": [
        {
          "indexed": true,
          "internalType": "address",
          "name": "from",
          "type": "address"
        },
        {
          "indexed": true,
          "internalType": "address",
          "name": "to",
          "type": "address"
        },
        {
          "indexed": false,
          "internalType": "uint256",
          "name": "value",
          "type": "uint256"
        }
      ],
      "name": "Transfer",
      "type": "event"
    },
    {
      "inputs": [
        {
          "internalType": "address",
          "name": "owner",
          "type": "address"
        },
        {
          "internalType": "address",
          "name": "spender",
          "type": "address"
        }
      ],
      "name": "allowance",
      "outputs": [
        {
          "internalType": "uint256",
          "name": "",
          "type": "uint256"
        }
      ],
      "stateMutability": "view",
      "type": "function"
    },
    {
      "inputs": [
        {
          "internalType": "address",
          "name": "spender",
          "type": "address"
        },
        {
          "internalType": "uint256",
          "name": "amount",
          "type": "uint256"
        }
      ],
      "name": "approve",
      "outputs": [
        {
          "internalType": "bool",
          "name": "",
          "type": "bool"
        }
      ],
      "stateMutability": "nonpayable",
      "type": "function"
    },
    {
      "inputs": [
        {
          "internalType": "address",
          "name": "account",
          "type": "address"
        }
      ],
      "name": "balanceOf",
      "outputs": [
        {
          "internalType": "uint256",
          "name": "",
          "type": "uint256"
        }
      ],
      "stateMutability": "view",
      "type": "function"
    },
    {
      "inputs": [],
      "name": "decimals",
      "outputs": [
        {
          "internalType": "uint8",
          "name": "",
          "type": "uint8"
        }
      ],
      "stateMutability": "view",
      "type": "function"
    },
    {
      "inputs": [
        {
          "internalType": "address",
          "name": "spender",
          "type": "address"
        },
        {
          "internalType": "uint256",
          "name": "subtractedValue",
          "type": "uint256"
        }
      ],
      "name": "decreaseAllowance",
      "outputs": [
        {
          "internalType": "bool",
          "name": "",
          "type": "bool"
        }
      ],
      "stateMutability": "nonpayable",
      "type": "function"
    },
    {
      "inputs": [
        {
          "internalType": "address",
          "name": "spender",
          "type": "address"
        },
        {
          "internalType": "uint256",
          "name": "addedValue",
          "type": "uint256"
        }
      ],
      "name": "increaseAllowance",
      "outputs": [
        {
          "internalType": "bool",
          "name": "",
          "type": "bool"
        }
      ],
      "stateMutability": "nonpayable",
      "type": "function"
    },
    {
      "inputs": [],
      "name": "name",
      "outputs": [
        {
          "internalType": "string",
          "name": "",
          "type": "string"
        }
      ],
      "stateMutability": "view",
      "type": "function"
    },
    {
      "inputs": [],
      "name": "owner",
      "outputs": [
        {
          "internalType": "address",
          "name": "",
          "type": "address"
        }
      ],
      "stateMutability": "view",
      "type": "function"
    },
    {
      "inputs": [],
      "name": "renounceOwnership",
      "outputs": [],
      "stateMutability": "nonpayable",
      "type": "function"
    },
    {
      "inputs": [],
      "name": "symbol",
      "outputs": [
        {
          "internalType": "string",
          "name": "",
          "type": "string"
        }
      ],
      "stateMutability": "view",
      "type": "function"
    },
    {
      "inputs": [],
      "name": "totalSupply",
      "outputs": [
        {
          "internalType": "uint256",
          "name": "",
          "type": "uint256"
        }
      ],
      "stateMutability": "view",
      "type": "function"
    },
    {
      "inputs": [
        {
          "internalType": "address",
          "name": "to",
          "type": "address"
        },
        {
          "internalType": "uint256",
          "name": "amount",
          "type": "uint256"
        }
      ],
      "name": "transfer",
      "outputs": [
        {
          "internalType": "bool",
          "name": "",
          "type": "bool"
        }
      ],
      "stateMutability": "nonpayable",
      "type": "function"
    },
    {
      "inputs": [
        {
          "internalType": "address",
          "name": "from",
          "type": "address"
        },
        {
          "internalType": "address",
          "name": "to",
          "type": "address"
        },
        {
          "internalType": "uint256",
          "name": "amount",
          "type": "uint256"
        }
      ],
      "name": "transferFrom",
      "outputs": [
        {
          "internalType": "bool",
          "name": "",
          "type": "bool"
        }
      ],
      "stateMutability": "nonpayable",
      "type": "function"
    },
    {
      "inputs": [
        {
          "internalType": "address",
          "name": "newOwner",
          "type": "address"
        }
      ],
      "name": "transferOwnership",
      "outputs": [],
      "stateMutability": "nonpayable",
      "type": "function"
    },
    {
      "inputs": [],
      "name": "toggleTransferEnabled",
      "outputs": [],
      "stateMutability": "nonpayable",
      "type": "function"
    },
    {
      "inputs": [
        {
          "internalType": "address",
          "name": "to",
          "type": "address"
        },
        {
          "internalType": "uint256",
          "name": "amount",
          "type": "uint256"
        }
      ],
      "name": "mint",
      "outputs": [],
      "stateMutability": "nonpayable",
      "type": "function"
    },
    {
      "inputs": [
        {
          "internalType": "address",
          "name": "from",
          "type": "address"
        },
        {
          "internalType": "address",
          "name": "to",
          "type": "address"
        },
        {
          "internalType": "uint256",
          "name": "amount",
          "type": "uint256"
        }
      ],
      "name": "linosTransferFrom",
      "outputs": [],
      "stateMutability": "nonpayable",
      "type": "function"
    }
  ],
  "bytecode": "0x60806040526005805460a060020a60ff02191690553480156200002157600080fd5b50604051620010ae380380620010ae83398101604081905262000044916200017b565b6040518060400160405280601281526020017f4c696e6f73204c697374656e20546f6b656e00000000000000000000000000008152506040518060400160405280600581526020017f4c494e4f530000000000000000000000000000000000000000000000000000008152508160039081620000c1919062000284565b506004620000d0828262000284565b505050620000ff620000f062000125640100000000026401000000009004565b64010000000062000129810204565b60068054600160a060020a031916600160a060020a039290921691909117905562000357565b3390565b60058054600160a060020a03838116600160a060020a0319831681179093556040519116919082907f8be0079c531659141344cd1fd0a4f28419497f9722a3daafe3b4186f6b6457e090600090a35050565b6000602082840312156200018e57600080fd5b8151600160a060020a0381168114620001a657600080fd5b9392505050565b7f4e487b7100000000000000000000000000000000000000000000000000000000600052604160045260246000fd5b600281046001821680620001f157607f821691505b6020821081036200022b577f4e487b7100000000000000000000000000000000000000000000000000000000600052602260045260246000fd5b50919050565b601f8211156200027f576000818152602081206020601f860104810160208610156200025a5750805b6020601f860104820191505b818110156200027b5782815560010162000266565b5050505b505050565b815167ffffffffffffffff811115620002a157620002a1620001ad565b620002b981620002b28454620001dc565b8462000231565b602080601f831160018114620002f55760008415620002d85750858301515b60028086026008870290910a60001904198216178655506200027b565b600085815260208120601f198616915b82811015620003265788860151825594840194600190910190840162000305565b50858210156200034757878501516008601f88160260020a60001904191681555b5050505050600202600101905550565b610d4780620003676000396000f3fe608060405234801561001057600080fd5b5060043610610128576000357c01000000000000000000000000000000000000000000000000000000009004806370a08231116100bf578063a457c2d71161008e578063a457c2d714610231578063a9059cbb14610244578063dd62ed3e14610257578063f1e9d2031461026a578063f2fde38b1461027257600080fd5b806370a08231146101dd578063715018a6146102065780638da5cb5b1461020e57806395d89b411461022957600080fd5b8063313ce567116100fb578063313ce56714610193578063360f4fdf146101a257806339509351146101b757806340c10f19146101ca57600080fd5b806306fdde031461012d578063095ea7b31461014b57806318160ddd1461016e57806323b872dd14610180575b600080fd5b610135610285565b6040516101429190610b5f565b60405180910390f35b61015e610159366004610bc9565b610317565b6040519015158152602001610142565b6002545b604051908152602001610142565b61015e61018e366004610bf3565b610331565b60405160128152602001610142565b6101b56101b0366004610bf3565b610355565b005b61015e6101c5366004610bc9565b61036d565b6101b56101d8366004610bc9565b61038f565b6101726101eb366004610c2f565b600160a060020a031660009081526020819052604090205490565b6101b56103a5565b600554604051600160a060020a039091168152602001610142565b6101356103b9565b61015e61023f366004610bc9565b6103c8565b61015e610252366004610bc9565b610463565b610172610265366004610c51565b610471565b6101b561049c565b6101b5610280366004610c2f565b6104e7565b60606003805461029490610c84565b80601f01602080910402602001604051908101604052809291908181526020018280546102c090610c84565b801561030d5780601f106102e25761010080835404028352916020019161030d565b820191906000526020600020905b8154815290600101906020018083116102f057829003601f168201915b5050505050905090565b60003361032581858561057a565b60019150505b92915050565b60003361033f8582856106d8565b61034a858585610755565b506001949350505050565b61035d610956565b610368838383610755565b505050565b6000336103258185856103808383610471565b61038a9190610cd7565b61057a565b610397610956565b6103a182826109b3565b5050565b6103ad610956565b6103b76000610a81565b565b60606004805461029490610c84565b600033816103d68286610471565b9050838110156104565760405160e560020a62461bcd02815260206004820152602560248201527f45524332303a2064656372656173656420616c6c6f77616e63652062656c6f7760448201527f207a65726f00000000000000000000000000000000000000000000000000000060648201526084015b60405180910390fd5b61034a828686840361057a565b600033610325818585610755565b600160a060020a03918216600090815260016020908152604080832093909416825291909152205490565b6104a4610956565b6005805474ff0000000000000000000000000000000000000000198116740100000000000000000000000000000000000000009182900460ff1615909102179055565b6104ef610956565b600160a060020a03811661056e5760405160e560020a62461bcd02815260206004820152602660248201527f4f776e61626c653a206e6577206f776e657220697320746865207a65726f206160448201527f6464726573730000000000000000000000000000000000000000000000000000606482015260840161044d565b61057781610a81565b50565b600160a060020a0383166105f85760405160e560020a62461bcd028152602060048201526024808201527f45524332303a20617070726f76652066726f6d20746865207a65726f2061646460448201527f7265737300000000000000000000000000000000000000000000000000000000606482015260840161044d565b600160a060020a0382166106775760405160e560020a62461bcd02815260206004820152602260248201527f45524332303a20617070726f766520746f20746865207a65726f20616464726560448201527f7373000000000000000000000000000000000000000000000000000000000000606482015260840161044d565b600160a060020a0383811660008181526001602090815260408083209487168084529482529182902085905590518481527f8c5be1e5ebec7d5bd14f71427d1e84f3dd0314c0f7b2291e5b200ac8c7c3b925910160405180910390a3505050565b60006106e48484610471565b9050600019811461074f57818110156107425760405160e560020a62461bcd02815260206004820152601d60248201527f45524332303a20696e73756666696369656e7420616c6c6f77616e6365000000604482015260640161044d565b61074f848484840361057a565b50505050565b600160a060020a0383166107d45760405160e560020a62461bcd02815260206004820152602560248201527f45524332303a207472616e736665722066726f6d20746865207a65726f20616460448201527f6472657373000000000000000000000000000000000000000000000000000000606482015260840161044d565b600160a060020a0382166108535760405160e560020a62461bcd02815260206004820152602360248201527f45524332303a207472616e7366657220746f20746865207a65726f206164647260448201527f6573730000000000000000000000000000000000000000000000000000000000606482015260840161044d565b61085e838383610ae0565b600160a060020a038316600090815260208190526040902054818110156108f05760405160e560020a62461bcd02815260206004820152602660248201527f45524332303a207472616e7366657220616d6f756e742065786365656473206260448201527f616c616e63650000000000000000000000000000000000000000000000000000606482015260840161044d565b600160a060020a03848116600081815260208181526040808320878703905593871680835291849020805487019055925185815290927fddf252ad1be2c89b69c2b068fc378daa952ba7f163c4a11628f55a4df523b3ef910160405180910390a361074f565b600554600160a060020a031633146103b75760405160e560020a62461bcd02815260206004820181905260248201527f4f776e61626c653a2063616c6c6572206973206e6f7420746865206f776e6572604482015260640161044d565b600160a060020a038216610a0c5760405160e560020a62461bcd02815260206004820152601f60248201527f45524332303a206d696e7420746f20746865207a65726f206164647265737300604482015260640161044d565b610a1860008383610ae0565b8060026000828254610a2a9190610cd7565b9091555050600160a060020a038216600081815260208181526040808320805486019055518481527fddf252ad1be2c89b69c2b068fc378daa952ba7f163c4a11628f55a4df523b3ef910160405180910390a35050565b60058054600160a060020a0383811673ffffffffffffffffffffffffffffffffffffffff19831681179093556040519116919082907f8be0079c531659141344cd1fd0a4f28419497f9722a3daafe3b4186f6b6457e090600090a35050565b600554600160a060020a031633146103685760055474010000000000000000000000000000000000000000900460ff166103685760405160e560020a62461bcd02815260206004820152601f60248201527f546f6b656e207472616e736665727320617265206e6f7420616c6c6f77656400604482015260640161044d565b600060208083528351808285015260005b81811015610b8c57858101830151858201604001528201610b70565b506000604082860101526040601f19601f8301168501019250505092915050565b8035600160a060020a0381168114610bc457600080fd5b919050565b60008060408385031215610bdc57600080fd5b610be583610bad565b946020939093013593505050565b600080600060608486031215610c0857600080fd5b610c1184610bad565b9250610c1f60208501610bad565b9150604084013590509250925092565b600060208284031215610c4157600080fd5b610c4a82610bad565b9392505050565b60008060408385031215610c6457600080fd5b610c6d83610bad565b9150610c7b60208401610bad565b90509250929050565b600281046001821680610c9857607f821691505b602082108103610cd1577f4e487b7100000000000000000000000000000000000000000000000000000000600052602260045260246000fd5b50919050565b8082018082111561032b577f4e487b7100000000000000000000000000000000000000000000000000000000600052601160045260246000fdfea26469706673582212208f39c75d1ba8d0576e037c4f0b5ef90cbd26bf8224a9e89971e00e44774467c164736f6c63430008110033",
  "immutableReferences": {},
  "source": "// SPDX-License-Identifier: MIT\npragma solidity ^0.8.9;\n\nimport \"../node_modules/@openzeppelin/contracts/token/ERC20/ERC20.sol\";\nimport \"../node_modules/@openzeppelin/contracts/access/Ownable.sol\";\n\ncontract ListenToken is ERC20, Ownable {\n\n    bool _externalTransferEnabled = false;\n    address _linosPlatformAddres;\n    constructor(address linosPlatformAddress) ERC20(\"Linos Listen Token\", \"LINOS\") {\n        _linosPlatformAddres = linosPlatformAddress;\n    }\n\n    function toggleTransferEnabled() public onlyOwner {\n        _externalTransferEnabled = !_externalTransferEnabled;\n    }\n\n    function _beforeTokenTransfer(\n        address from,\n        address to,\n        uint256 amount\n    ) override internal virtual {\n        if (msg.sender != owner()) {\n          require(_externalTransferEnabled, \"Token transfers are not allowed\");\n        }\n        super._beforeTokenTransfer(from, to, amount);\n    }\n\n    function mint(address to, uint256 amount) public onlyOwner {\n        _mint(to, amount);\n    }\n\n    function linosTransferFrom(address from, address to, uint amount) public onlyOwner {\n        _transfer(from, to, amount);\n    }\n}\n",
  "sourcePath": "/Volumes/code/Alyra/Linos/truffle/contracts/ListenToken.sol",
  "compiler": {
    "name": "solc",
    "version": "0.8.17+commit.8df45f5f.Emscripten.clang"
  },
  "schemaVersion": "3.4.10",
  "updatedAt": "2022-12-12T02:06:34.319Z",
  "devdoc": {
    "kind": "dev",
    "methods": {
      "allowance(address,address)": {
        "details": "See {IERC20-allowance}."
      },
      "approve(address,uint256)": {
        "details": "See {IERC20-approve}. NOTE: If `amount` is the maximum `uint256`, the allowance is not updated on `transferFrom`. This is semantically equivalent to an infinite approval. Requirements: - `spender` cannot be the zero address."
      },
      "balanceOf(address)": {
        "details": "See {IERC20-balanceOf}."
      },
      "decimals()": {
        "details": "Returns the number of decimals used to get its user representation. For example, if `decimals` equals `2`, a balance of `505` tokens should be displayed to a user as `5.05` (`505 / 10 ** 2`). Tokens usually opt for a value of 18, imitating the relationship between Ether and Wei. This is the value {ERC20} uses, unless this function is overridden; NOTE: This information is only used for _display_ purposes: it in no way affects any of the arithmetic of the contract, including {IERC20-balanceOf} and {IERC20-transfer}."
      },
      "decreaseAllowance(address,uint256)": {
        "details": "Atomically decreases the allowance granted to `spender` by the caller. This is an alternative to {approve} that can be used as a mitigation for problems described in {IERC20-approve}. Emits an {Approval} event indicating the updated allowance. Requirements: - `spender` cannot be the zero address. - `spender` must have allowance for the caller of at least `subtractedValue`."
      },
      "increaseAllowance(address,uint256)": {
        "details": "Atomically increases the allowance granted to `spender` by the caller. This is an alternative to {approve} that can be used as a mitigation for problems described in {IERC20-approve}. Emits an {Approval} event indicating the updated allowance. Requirements: - `spender` cannot be the zero address."
      },
      "name()": {
        "details": "Returns the name of the token."
      },
      "owner()": {
        "details": "Returns the address of the current owner."
      },
      "renounceOwnership()": {
        "details": "Leaves the contract without owner. It will not be possible to call `onlyOwner` functions anymore. Can only be called by the current owner. NOTE: Renouncing ownership will leave the contract without an owner, thereby removing any functionality that is only available to the owner."
      },
      "symbol()": {
        "details": "Returns the symbol of the token, usually a shorter version of the name."
      },
      "totalSupply()": {
        "details": "See {IERC20-totalSupply}."
      },
      "transfer(address,uint256)": {
        "details": "See {IERC20-transfer}. Requirements: - `to` cannot be the zero address. - the caller must have a balance of at least `amount`."
      },
      "transferFrom(address,address,uint256)": {
        "details": "See {IERC20-transferFrom}. Emits an {Approval} event indicating the updated allowance. This is not required by the EIP. See the note at the beginning of {ERC20}. NOTE: Does not update the allowance if the current allowance is the maximum `uint256`. Requirements: - `from` and `to` cannot be the zero address. - `from` must have a balance of at least `amount`. - the caller must have allowance for ``from``'s tokens of at least `amount`."
      },
      "transferOwnership(address)": {
        "details": "Transfers ownership of the contract to a new account (`newOwner`). Can only be called by the current owner."
      }
    },
    "version": 1
  },
  "userdoc": {
    "kind": "user",
    "methods": {},
    "version": 1
  }
}