{
  "contractName": "NftMarketPlace",
  "abi": [
    {
      "anonymous": false,
      "inputs": [
        {
          "indexed": false,
          "internalType": "address",
          "name": "buyerAddress",
          "type": "address"
        },
        {
          "indexed": false,
          "internalType": "address",
          "name": "sellerAddress",
          "type": "address"
        },
        {
          "indexed": false,
          "internalType": "uint256",
          "name": "sellId",
          "type": "uint256"
        },
        {
          "indexed": false,
          "internalType": "uint256",
          "name": "amountOfTokens",
          "type": "uint256"
        }
      ],
      "name": "BuyEvent",
      "type": "event"
    },
    {
      "anonymous": false,
      "inputs": [
        {
          "indexed": true,
          "internalType": "address",
          "name": "previousOwner",
          "type": "address"
        },
        {
          "indexed": true,
          "internalType": "address",
          "name": "newOwner",
          "type": "address"
        }
      ],
      "name": "OwnershipTransferred",
      "type": "event"
    },
    {
      "anonymous": false,
      "inputs": [
        {
          "indexed": false,
          "internalType": "uint256",
          "name": "sellId",
          "type": "uint256"
        }
      ],
      "name": "SellCanceledEvent",
      "type": "event"
    },
    {
      "anonymous": false,
      "inputs": [
        {
          "indexed": false,
          "internalType": "address",
          "name": "sellerAddress",
          "type": "address"
        },
        {
          "indexed": false,
          "internalType": "address",
          "name": "tokenAddress",
          "type": "address"
        },
        {
          "indexed": false,
          "internalType": "uint256",
          "name": "tokenId",
          "type": "uint256"
        },
        {
          "indexed": false,
          "internalType": "uint256",
          "name": "sellId",
          "type": "uint256"
        },
        {
          "indexed": false,
          "internalType": "uint256",
          "name": "pricePerToken",
          "type": "uint256"
        }
      ],
      "name": "SellEvent",
      "type": "event"
    },
    {
      "inputs": [],
      "name": "fees",
      "outputs": [
        {
          "internalType": "uint256",
          "name": "",
          "type": "uint256"
        }
      ],
      "stateMutability": "view",
      "type": "function"
    },
    {
      "inputs": [],
      "name": "owner",
      "outputs": [
        {
          "internalType": "address",
          "name": "",
          "type": "address"
        }
      ],
      "stateMutability": "view",
      "type": "function"
    },
    {
      "inputs": [],
      "name": "renounceOwnership",
      "outputs": [],
      "stateMutability": "nonpayable",
      "type": "function"
    },
    {
      "inputs": [
        {
          "internalType": "address",
          "name": "_add",
          "type": "address"
        }
      ],
      "name": "setLinosPlatformAddress",
      "outputs": [],
      "stateMutability": "nonpayable",
      "type": "function"
    },
    {
      "inputs": [
        {
          "internalType": "address",
          "name": "_add",
          "type": "address"
        }
      ],
      "name": "setNftFactoryAddress",
      "outputs": [],
      "stateMutability": "nonpayable",
      "type": "function"
    },
    {
      "inputs": [
        {
          "internalType": "address",
          "name": "_add",
          "type": "address"
        }
      ],
      "name": "setNftMarketPlaceAddress",
      "outputs": [],
      "stateMutability": "nonpayable",
      "type": "function"
    },
    {
      "inputs": [
        {
          "internalType": "address",
          "name": "newOwner",
          "type": "address"
        }
      ],
      "name": "transferOwnership",
      "outputs": [],
      "stateMutability": "nonpayable",
      "type": "function"
    },
    {
      "inputs": [
        {
          "internalType": "uint256",
          "name": "fees_",
          "type": "uint256"
        }
      ],
      "name": "setFees",
      "outputs": [],
      "stateMutability": "nonpayable",
      "type": "function"
    },
    {
      "inputs": [
        {
          "internalType": "address",
          "name": "nftCollectionAddress",
          "type": "address"
        }
      ],
      "name": "whiteListNftCollection",
      "outputs": [],
      "stateMutability": "nonpayable",
      "type": "function"
    },
    {
      "inputs": [
        {
          "internalType": "uint256",
          "name": "sellId",
          "type": "uint256"
        }
      ],
      "name": "getListing",
      "outputs": [
        {
          "components": [
            {
              "internalType": "address",
              "name": "sellerAddress",
              "type": "address"
            },
            {
              "internalType": "address",
              "name": "tokenAddress",
              "type": "address"
            },
            {
              "internalType": "uint256",
              "name": "tokenId",
              "type": "uint256"
            },
            {
              "internalType": "uint256",
              "name": "amountOfTokens",
              "type": "uint256"
            },
            {
              "internalType": "uint256",
              "name": "pricePerToken",
              "type": "uint256"
            },
            {
              "internalType": "bool",
              "name": "canceled",
              "type": "bool"
            }
          ],
          "internalType": "struct NftMarketPlace.SellListing",
          "name": "",
          "type": "tuple"
        }
      ],
      "stateMutability": "view",
      "type": "function"
    },
    {
      "inputs": [
        {
          "internalType": "uint256",
          "name": "sellId",
          "type": "uint256"
        }
      ],
      "name": "cancelListing",
      "outputs": [],
      "stateMutability": "nonpayable",
      "type": "function"
    },
    {
      "inputs": [
        {
          "internalType": "address",
          "name": "tokenAddress",
          "type": "address"
        },
        {
          "internalType": "uint256",
          "name": "tokenId",
          "type": "uint256"
        },
        {
          "internalType": "uint256",
          "name": "amountOfTokens",
          "type": "uint256"
        },
        {
          "internalType": "uint256",
          "name": "pricePerToken",
          "type": "uint256"
        }
      ],
      "name": "listItems",
      "outputs": [
        {
          "internalType": "uint256",
          "name": "",
          "type": "uint256"
        }
      ],
      "stateMutability": "nonpayable",
      "type": "function"
    },
    {
      "inputs": [
        {
          "internalType": "uint256",
          "name": "sellId",
          "type": "uint256"
        },
        {
          "internalType": "uint256",
          "name": "amountOfTokens",
          "type": "uint256"
        }
      ],
      "name": "buyItem",
      "outputs": [
        {
          "internalType": "bool",
          "name": "",
          "type": "bool"
        }
      ],
      "stateMutability": "payable",
      "type": "function"
    }
  ],
  "bytecode": "0x608060405261271060055534801561001657600080fd5b5061003961002b64010000000061003e810204565b640100000000610042810204565b610092565b3390565b60008054600160a060020a03838116600160a060020a0319831681178455604051919092169283917f8be0079c531659141344cd1fd0a4f28419497f9722a3daafe3b4186f6b6457e09190a35050565b6112ba806100a16000396000f3fe6080604052600436106100df576000357c010000000000000000000000000000000000000000000000000000000090048063715018a61161009c5780639af1d35a116100765780639af1d35a14610278578063ae3ca41e1461028e578063e7d215e9146102ae578063f2fde38b146102ce57600080fd5b8063715018a6146102185780638da5cb5b1461022d5780639979c0091461025557600080fd5b8063107a274a146100e4578063305a67a8146101685780633919e4f51461018a5780633d18678e146101b85780634d713868146101d8578063517679cd146101f8575b600080fd5b3480156100f057600080fd5b506101046100ff3660046110ea565b6102ee565b60405161015f9190600060c082019050600160a060020a038084511683528060208501511660208401525060408301516040830152606083015160608301526080830151608083015260a0830151151560a083015292915050565b60405180910390f35b34801561017457600080fd5b506101886101833660046110ea565b6103f6565b005b34801561019657600080fd5b506101aa6101a536600461111f565b61051d565b60405190815260200161015f565b3480156101c457600080fd5b506101886101d33660046110ea565b61093a565b3480156101e457600080fd5b506101886101f3366004611158565b61099b565b34801561020457600080fd5b50610188610213366004611158565b610a46565b34801561022457600080fd5b50610188610a7d565b34801561023957600080fd5b50600054604051600160a060020a03909116815260200161015f565b61026861026336600461117a565b610a91565b604051901515815260200161015f565b34801561028457600080fd5b506101aa60045481565b34801561029a57600080fd5b506101886102a9366004611158565b610f2f565b3480156102ba57600080fd5b506101886102c9366004611158565b610f66565b3480156102da57600080fd5b506101886102e9366004611158565b610f9d565b6040805160c081018252600080825260208201819052918101829052606081018290526080810182905260a0810191909152600082815260086020526040902054600160a060020a031661038c5760405160e560020a62461bcd02815260206004820152601c60248201527f54686973206c697374696e6720646f6573206e6f74206578697374730000000060448201526064015b60405180910390fd5b50600090815260086020908152604091829020825160c0810184528154600160a060020a03908116825260018301541692810192909252600281015492820192909252600382015460608201526004820154608082015260059091015460ff16151560a082015290565b600081815260086020526040902054600160a060020a0316331461045f5760405160e560020a62461bcd02815260206004820152601960248201527f54686973206c697374696e67206973206e6f7420796f757273000000000000006044820152606401610383565b60008181526008602052604090206005015460ff16156104c45760405160e560020a62461bcd02815260206004820152601860248201527f6c697374696e6720616c72656164792063616e63656c656400000000000000006044820152606401610383565b60008181526008602052604090819020600501805460ff19166001179055517f121235da9a2dca4523b6692d39233c871160f0d73bee2cb96747ec05412b42f1906105129083815260200190565b60405180910390a150565b60008083116105975760405160e560020a62461bcd02815260206004820152603860248201527f54686520616d6f756e74206f6620746f6b656e7320746f2073656c6c2c206e6560448201527f65647320746f2062652067726561746572207468616e203000000000000000006064820152608401610383565b600082116106105760405160e560020a62461bcd02815260206004820152603760248201527f5468652066756c6c20707269636520666f722074686520746f6b656e73206e6560448201527f656420746f2062652067726561746572207468616e20300000000000000000006064820152608401610383565b6040517fe985e9c50000000000000000000000000000000000000000000000000000000081523360048201523060248201528590600160a060020a0382169063e985e9c590604401602060405180830381865afa158015610675573d6000803e3d6000fd5b505050506040513d601f19601f82011682018060405250810190610699919061119c565b6106e85760405160e560020a62461bcd02815260206004820152601c60248201527f596f75206d75737420617070726f7665206265666f7265206c697374000000006044820152606401610383565b6040517efdd58e000000000000000000000000000000000000000000000000000000008152336004820152602481018690528490600160a060020a0383169062fdd58e90604401602060405180830381865afa15801561074c573d6000803e3d6000fd5b505050506040513d601f19601f8201168201806040525081019061077091906111be565b10156107c15760405160e560020a62461bcd02815260206004820152601d60248201527f596f7520646f6e2774206861766520656e6f7567687420746f6b656e730000006044820152606401610383565b6040805160c08101825233808252600160a060020a0389811660208085018281528587018c8152606087018c8152608088018c8152600060a08a01818152600780548352600888528c83209b518c54908b1673ffffffffffffffffffffffffffffffffffffffff19918216178d55965160018d01805491909b16971696909617909855925160028a01559051600389015551600488015593516005909601805496151560ff19909716969096179095559354818352600985528583208b84528552858320819055908252600a8452848220819055828252600b90935283902082905591517fa7cbbbd174aea7fee3a11581da385f48dbbe1e3d361ebc43a183beec20abd7cf926109049290918a918a918990600160a060020a03958616815293909416602084015260408301919091526060820152608081019190915260a00190565b60405180910390a16007805490600061091c83611206565b91905055506001600754610930919061121f565b9695505050505050565b610942611030565b60055481106109965760405160e560020a62461bcd02815260206004820152601360248201527f46656573206d757374206265203c2039393939000000000000000000000000006044820152606401610383565b600455565b600154600160a060020a03163314806109be5750600254600160a060020a031633145b806109d35750600354600160a060020a031633145b610a225760405160e560020a62461bcd02815260206004820152601a60248201527f4c696e6f734f776e61626c653a206e6f7420616e206f776e65720000000000006044820152606401610383565b600160a060020a03166000908152600660205260409020805460ff19166001179055565b610a4e611030565b6001805473ffffffffffffffffffffffffffffffffffffffff1916600160a060020a0392909216919091179055565b610a85611030565b610a8f600061108d565b565b6000808211610ae55760405160e560020a62461bcd02815260206004820152601d60248201527f596f75206d75737420627579206174206c65617374203120746f6b656e0000006044820152606401610383565b600083815260086020526040902054600160a060020a0316610b4c5760405160e560020a62461bcd02815260206004820152601c60248201527f54686973206c697374696e6720646f6573206e6f7420657869737473000000006044820152606401610383565b600083815260086020526040902060030154821115610bb05760405160e560020a62461bcd02815260206004820152601960248201527f4e6f7420656e6f7567687420746f6b656e20746f2073656c6c000000000000006044820152606401610383565b6000838152600860205260409020600401543490610bcf908490611232565b14610c455760405160e560020a62461bcd02815260206004820152603b60248201527f596f75206d757374207061792065786163746c7920746865207072696365207060448201527f657220746f6b656e202a20616d6f756e742070657220746f6b656e00000000006064820152608401610383565b600083815260086020526040902060030154610c6290839061121f565b60008481526008602052604080822060038101939093556001830154835460029094015491517ff242432a000000000000000000000000000000000000000000000000000000008152600160a060020a03948516600482015233602482015260448101929092526064820186905260a0608483015260a4820192909252911690819063f242432a9060c401600060405180830381600087803b158015610d0757600080fd5b505af1158015610d1b573d6000803e3d6000fd5b505060055460045434935060009250610d35908490611232565b610d3f9190611249565b90506000610d4d828461121f565b6000888152600860205260408082205490519293509091600160a060020a039091169083908381818185875af1925050503d8060008114610daa576040519150601f19603f3d011682016040523d82523d6000602084013e610daf565b606091505b505090506000610dc7600054600160a060020a031690565b600160a060020a03168460405160006040518083038185875af1925050503d8060008114610e11576040519150601f19603f3d011682016040523d82523d6000602084013e610e16565b606091505b5050905081610e6a5760405160e560020a62461bcd02815260206004820152601960248201527f5472616e73666572206661696c656420746f2053656c6c6572000000000000006044820152606401610383565b80610eba5760405160e560020a62461bcd02815260206004820152601860248201527f5472616e73666572206661696c656420746f204f776e657200000000000000006044820152606401610383565b600089815260086020908152604091829020548251338152600160a060020a03909116918101919091529081018a9052606081018990527f797abd7322a72df2fd9412f6ff5500e993efb298450cc1d7e9fd84e296592b089060800160405180910390a1600196505050505050505b92915050565b610f37611030565b6002805473ffffffffffffffffffffffffffffffffffffffff1916600160a060020a0392909216919091179055565b610f6e611030565b6003805473ffffffffffffffffffffffffffffffffffffffff1916600160a060020a0392909216919091179055565b610fa5611030565b600160a060020a0381166110245760405160e560020a62461bcd02815260206004820152602660248201527f4f776e61626c653a206e6577206f776e657220697320746865207a65726f206160448201527f64647265737300000000000000000000000000000000000000000000000000006064820152608401610383565b61102d8161108d565b50565b600054600160a060020a03163314610a8f5760405160e560020a62461bcd02815260206004820181905260248201527f4f776e61626c653a2063616c6c6572206973206e6f7420746865206f776e65726044820152606401610383565b60008054600160a060020a0383811673ffffffffffffffffffffffffffffffffffffffff19831681178455604051919092169283917f8be0079c531659141344cd1fd0a4f28419497f9722a3daafe3b4186f6b6457e09190a35050565b6000602082840312156110fc57600080fd5b5035919050565b8035600160a060020a038116811461111a57600080fd5b919050565b6000806000806080858703121561113557600080fd5b61113e85611103565b966020860135965060408601359560600135945092505050565b60006020828403121561116a57600080fd5b61117382611103565b9392505050565b6000806040838503121561118d57600080fd5b50508035926020909101359150565b6000602082840312156111ae57600080fd5b8151801515811461117357600080fd5b6000602082840312156111d057600080fd5b5051919050565b7f4e487b7100000000000000000000000000000000000000000000000000000000600052601160045260246000fd5b600060018201611218576112186111d7565b5060010190565b81810381811115610f2957610f296111d7565b8082028115828204841417610f2957610f296111d7565b60008261127f577f4e487b7100000000000000000000000000000000000000000000000000000000600052601260045260246000fd5b50049056fea264697066735822122097dda530e230b98aff3ac66d1c3282e5f8ea31db870536a396f5eb10ec72458464736f6c63430008110033",
  "immutableReferences": {},
  "source": "// SPDX-License-Identifier: MIT\npragma solidity ^0.8.17;\n\nimport \"../node_modules/@openzeppelin/contracts/token/ERC1155/IERC1155.sol\";\n\nimport \"./NftMarketPlaceInterface.sol\";\nimport \"./LinosOwnable.sol\";\n\ncontract NftMarketPlace is NftMarketPlaceInterface, LinosOwnable {\n\n    struct SellListing {\n        address sellerAddress;\n        address tokenAddress;\n        uint tokenId;\n        uint amountOfTokens;\n        uint pricePerToken;\n        bool canceled;\n    }\n\n    // @notice This is the emitted event, when a offer for a certain amount of tokens.\n    event SellEvent (\n        address sellerAddress,\n        address tokenAddress,\n        uint tokenId,\n        uint sellId,\n        uint pricePerToken\n    );\n\n    // @notice This is the emitted event, when a offer for a certain amount of tokens.\n    event SellCanceledEvent (\n        uint sellId\n    );\n\n    // @notice This is the emitted event, when a offer for a certain amount of tokens.\n    event BuyEvent (\n        address buyerAddress,\n        address sellerAddress,\n        uint sellId,\n        uint amountOfTokens\n    );\n\n    uint public fees;\n    uint _feeDenominator = 10000;\n    mapping(address => bool) nftCollectionWhiteList;\n\n    uint private _currentSellId;\n    mapping(uint => SellListing) private _allSellListing;\n    // TokenAddress => TokenId => SellerAddress => Struct describing the Sell\n    mapping(address => mapping(uint => uint)) private _collectionTokenListSells;\n    mapping(address => uint) private _collectionListSells;\n    mapping(address => uint) private _userListSells;\n\n    function setFees(uint fees_) public onlyOwner {\n        require(fees_ < _feeDenominator, \"Fees must be < 9999\");\n        fees = fees_;\n    }\n\n    function whiteListNftCollection(address nftCollectionAddress) public onlyLinosOwner {\n        nftCollectionWhiteList[nftCollectionAddress] = true;\n    }\n\n    function getListing(uint sellId) public view returns(SellListing memory) {\n        require(_allSellListing[sellId].sellerAddress != address(0), \"This listing does not exists\");\n        return _allSellListing[sellId];\n    }\n\n    function cancelListing(uint sellId) external {\n        require(_allSellListing[sellId].sellerAddress == msg.sender, \"This listing is not yours\");\n        require(!_allSellListing[sellId].canceled, \"listing already canceled\");\n        _allSellListing[sellId].canceled = true;\n\n        emit SellCanceledEvent(sellId);\n    }\n\n    function listItems(\n        address tokenAddress,\n        uint tokenId,\n        uint amountOfTokens,\n        uint pricePerToken\n    ) external returns(uint) {\n        require(amountOfTokens > 0, \"The amount of tokens to sell, needs to be greater than 0\");\n        require(pricePerToken > 0, \"The full price for the tokens need to be greater than 0\");\n\n        IERC1155 token = IERC1155(tokenAddress);\n\n        require(token.isApprovedForAll(msg.sender, address(this)), \"You must approve before list\");\n        require(token.balanceOf(msg.sender, tokenId) >= amountOfTokens, \"You don't have enought tokens\");\n\n        _allSellListing[_currentSellId] = SellListing(\n            msg.sender,\n            tokenAddress,\n            tokenId,\n            amountOfTokens,\n            pricePerToken,\n            false\n        );\n        _collectionTokenListSells[tokenAddress][tokenId] = _currentSellId;\n        _collectionListSells[tokenAddress] = _currentSellId;\n        _userListSells[msg.sender] = _currentSellId;\n\n        emit SellEvent(\n            msg.sender, tokenAddress, tokenId, _currentSellId, pricePerToken\n        );\n\n        _currentSellId++;\n\n        return _currentSellId - 1;\n    }\n\n    function buyItem(\n        uint sellId,\n        uint amountOfTokens\n    ) external payable returns(bool) {\n\n        require(amountOfTokens > 0, \"You must buy at least 1 token\");\n        require(_allSellListing[sellId].sellerAddress != address(0), \"This listing does not exists\");\n        require(_allSellListing[sellId].amountOfTokens >= amountOfTokens, \"Not enought token to sell\");\n        require(_allSellListing[sellId].pricePerToken * amountOfTokens == msg.value, \"You must pay exactly the price per token * amount per token\");\n\n        _allSellListing[sellId].amountOfTokens = _allSellListing[sellId].amountOfTokens - amountOfTokens;\n\n        IERC1155 token = IERC1155(_allSellListing[sellId].tokenAddress);\n\n        // This will fail if not enought token on account, no need to check it before\n        token.safeTransferFrom(\n            _allSellListing[sellId].sellerAddress,\n            msg.sender,\n            _allSellListing[sellId].tokenId,\n            amountOfTokens,\n            \"\"\n        );\n\n        uint totalPrice = msg.value;\n        uint feesForMarketPlace = fees * totalPrice / _feeDenominator; // Rounded (floor)\n        uint sellerPriceReceived = totalPrice - feesForMarketPlace;\n\n        (bool successTransferToSeller, )= payable(_allSellListing[sellId].sellerAddress).call{value: sellerPriceReceived}(\"\");\n        (bool successTransferToOwner, )= payable(owner()).call{value: feesForMarketPlace}(\"\");\n\n        require(successTransferToSeller, \"Transfer failed to Seller\");\n        require(successTransferToOwner, \"Transfer failed to Owner\");\n\n        emit BuyEvent(\n            msg.sender,\n            _allSellListing[sellId].sellerAddress,\n            sellId,\n            amountOfTokens\n        );\n\n        return true;\n    }\n}",
  "sourcePath": "/Volumes/code/Alyra/Linos/truffle/contracts/NftMarketPlace.sol",
  "compiler": {
    "name": "solc",
    "version": "0.8.17+commit.8df45f5f.Emscripten.clang"
  },
  "schemaVersion": "3.4.10",
  "updatedAt": "2022-12-11T21:52:29.623Z",
  "devdoc": {
    "kind": "dev",
    "methods": {
      "owner()": {
        "details": "Returns the address of the current owner."
      },
      "renounceOwnership()": {
        "details": "Leaves the contract without owner. It will not be possible to call `onlyOwner` functions anymore. Can only be called by the current owner. NOTE: Renouncing ownership will leave the contract without an owner, thereby removing any functionality that is only available to the owner."
      },
      "transferOwnership(address)": {
        "details": "Transfers ownership of the contract to a new account (`newOwner`). Can only be called by the current owner."
      }
    },
    "version": 1
  },
  "userdoc": {
    "kind": "user",
    "methods": {},
    "version": 1
  }
}