{
  "contractName": "NftMarketPlace",
  "abi": [
    {
      "anonymous": false,
      "inputs": [
        {
          "indexed": false,
          "internalType": "address",
          "name": "buyerAddress",
          "type": "address"
        },
        {
          "indexed": false,
          "internalType": "address",
          "name": "sellerAddress",
          "type": "address"
        },
        {
          "indexed": false,
          "internalType": "uint256",
          "name": "sellId",
          "type": "uint256"
        },
        {
          "indexed": false,
          "internalType": "uint256",
          "name": "amountOfTokens",
          "type": "uint256"
        }
      ],
      "name": "BuyEvent",
      "type": "event"
    },
    {
      "anonymous": false,
      "inputs": [
        {
          "indexed": false,
          "internalType": "string",
          "name": "data",
          "type": "string"
        },
        {
          "indexed": false,
          "internalType": "uint256",
          "name": "amount",
          "type": "uint256"
        }
      ],
      "name": "Log",
      "type": "event"
    },
    {
      "anonymous": false,
      "inputs": [
        {
          "indexed": true,
          "internalType": "address",
          "name": "previousOwner",
          "type": "address"
        },
        {
          "indexed": true,
          "internalType": "address",
          "name": "newOwner",
          "type": "address"
        }
      ],
      "name": "OwnershipTransferred",
      "type": "event"
    },
    {
      "anonymous": false,
      "inputs": [
        {
          "indexed": false,
          "internalType": "address",
          "name": "sellerAddress",
          "type": "address"
        },
        {
          "indexed": false,
          "internalType": "address",
          "name": "tokenAddress",
          "type": "address"
        },
        {
          "indexed": false,
          "internalType": "uint256",
          "name": "tokenId",
          "type": "uint256"
        },
        {
          "indexed": false,
          "internalType": "uint256",
          "name": "sellId",
          "type": "uint256"
        },
        {
          "indexed": false,
          "internalType": "uint256",
          "name": "pricePerToken",
          "type": "uint256"
        }
      ],
      "name": "SellEvent",
      "type": "event"
    },
    {
      "inputs": [],
      "name": "fees",
      "outputs": [
        {
          "internalType": "uint256",
          "name": "",
          "type": "uint256"
        }
      ],
      "stateMutability": "view",
      "type": "function"
    },
    {
      "inputs": [],
      "name": "owner",
      "outputs": [
        {
          "internalType": "address",
          "name": "",
          "type": "address"
        }
      ],
      "stateMutability": "view",
      "type": "function"
    },
    {
      "inputs": [],
      "name": "renounceOwnership",
      "outputs": [],
      "stateMutability": "nonpayable",
      "type": "function"
    },
    {
      "inputs": [
        {
          "internalType": "address",
          "name": "_add",
          "type": "address"
        }
      ],
      "name": "setLinosPlatformAddress",
      "outputs": [],
      "stateMutability": "nonpayable",
      "type": "function"
    },
    {
      "inputs": [
        {
          "internalType": "address",
          "name": "_add",
          "type": "address"
        }
      ],
      "name": "setNftFactoryAddress",
      "outputs": [],
      "stateMutability": "nonpayable",
      "type": "function"
    },
    {
      "inputs": [
        {
          "internalType": "address",
          "name": "_add",
          "type": "address"
        }
      ],
      "name": "setNftMarketPlaceAddress",
      "outputs": [],
      "stateMutability": "nonpayable",
      "type": "function"
    },
    {
      "inputs": [
        {
          "internalType": "address",
          "name": "newOwner",
          "type": "address"
        }
      ],
      "name": "transferOwnership",
      "outputs": [],
      "stateMutability": "nonpayable",
      "type": "function"
    },
    {
      "inputs": [
        {
          "internalType": "uint256",
          "name": "fees_",
          "type": "uint256"
        }
      ],
      "name": "setFees",
      "outputs": [],
      "stateMutability": "nonpayable",
      "type": "function"
    },
    {
      "inputs": [
        {
          "internalType": "address",
          "name": "nftCollectionAddress",
          "type": "address"
        }
      ],
      "name": "whiteListNftCollection",
      "outputs": [],
      "stateMutability": "nonpayable",
      "type": "function"
    },
    {
      "inputs": [],
      "name": "getCurrentListingId",
      "outputs": [
        {
          "internalType": "uint256",
          "name": "",
          "type": "uint256"
        }
      ],
      "stateMutability": "view",
      "type": "function"
    },
    {
      "inputs": [
        {
          "internalType": "uint256",
          "name": "sellId",
          "type": "uint256"
        }
      ],
      "name": "getListing",
      "outputs": [
        {
          "components": [
            {
              "internalType": "address",
              "name": "sellerAddress",
              "type": "address"
            },
            {
              "internalType": "address",
              "name": "tokenAddress",
              "type": "address"
            },
            {
              "internalType": "uint256",
              "name": "tokenId",
              "type": "uint256"
            },
            {
              "internalType": "uint256",
              "name": "amountOfTokens",
              "type": "uint256"
            },
            {
              "internalType": "uint256",
              "name": "pricePerToken",
              "type": "uint256"
            }
          ],
          "internalType": "struct NftMarketPlace.SellListing",
          "name": "",
          "type": "tuple"
        }
      ],
      "stateMutability": "view",
      "type": "function"
    },
    {
      "inputs": [
        {
          "internalType": "address",
          "name": "tokenAddress",
          "type": "address"
        },
        {
          "internalType": "uint256",
          "name": "tokenId",
          "type": "uint256"
        },
        {
          "internalType": "uint256",
          "name": "amountOfTokens",
          "type": "uint256"
        },
        {
          "internalType": "uint256",
          "name": "pricePerToken",
          "type": "uint256"
        }
      ],
      "name": "listItems",
      "outputs": [
        {
          "internalType": "uint256",
          "name": "",
          "type": "uint256"
        }
      ],
      "stateMutability": "nonpayable",
      "type": "function"
    },
    {
      "inputs": [
        {
          "internalType": "uint256",
          "name": "sellId",
          "type": "uint256"
        },
        {
          "internalType": "uint256",
          "name": "amountOfTokens",
          "type": "uint256"
        }
      ],
      "name": "buyItem",
      "outputs": [
        {
          "internalType": "bool",
          "name": "",
          "type": "bool"
        }
      ],
      "stateMutability": "payable",
      "type": "function"
    }
  ],
  "bytecode": "0x608060405261271060065534801561001657600080fd5b5061003961002b640100000000610043810204565b640100000000610047810204565b6001600455610097565b3390565b60008054600160a060020a03838116600160a060020a0319831681178455604051919092169283917f8be0079c531659141344cd1fd0a4f28419497f9722a3daafe3b4186f6b6457e09190a35050565b6111b7806100a66000396000f3fe6080604052600436106100df576000357c0100000000000000000000000000000000000000000000000000000000900480638da5cb5b1161009c578063ae3ca41e11610076578063ae3ca41e14610262578063be9ad61e14610282578063e7d215e914610297578063f2fde38b146102b757600080fd5b80638da5cb5b146102015780639979c009146102295780639af1d35a1461024c57600080fd5b8063107a274a146100e45780633919e4f51461015c5780633d18678e1461018a5780634d713868146101ac578063517679cd146101cc578063715018a6146101ec575b600080fd5b3480156100f057600080fd5b506101046100ff366004610fe7565b6102d7565b6040516101539190600060a082019050600160a060020a038084511683528060208501511660208401525060408301516040830152606083015160608301526080830151608083015292915050565b60405180910390f35b34801561016857600080fd5b5061017c61017736600461101c565b6103e2565b604051908152602001610153565b34801561019657600080fd5b506101aa6101a5366004610fe7565b6107c9565b005b3480156101b857600080fd5b506101aa6101c7366004611055565b61082a565b3480156101d857600080fd5b506101aa6101e7366004611055565b6108d5565b3480156101f857600080fd5b506101aa61090c565b34801561020d57600080fd5b50600054604051600160a060020a039091168152602001610153565b61023c610237366004611077565b610920565b6040519015158152602001610153565b34801561025857600080fd5b5061017c60055481565b34801561026e57600080fd5b506101aa61027d366004611055565b610dd0565b34801561028e57600080fd5b5060085461017c565b3480156102a357600080fd5b506101aa6102b2366004611055565b610e07565b3480156102c357600080fd5b506101aa6102d2366004611055565b610e3e565b61031b6040518060a001604052806000600160a060020a031681526020016000600160a060020a031681526020016000815260200160008152602001600081525090565b600082815260096020526040902054600160a060020a03166103875760405160e560020a62461bcd02815260206004820152601c60248201527f54686973206c697374696e6720646f6573206e6f74206578697374730000000060448201526064015b60405180910390fd5b50600090815260096020908152604091829020825160a0810184528154600160a060020a0390811682526001830154169281019290925260028101549282019290925260038201546060820152600490910154608082015290565b600080831161045c5760405160e560020a62461bcd02815260206004820152603860248201527f54686520616d6f756e74206f6620746f6b656e7320746f2073656c6c2c206e6560448201527f65647320746f2062652067726561746572207468616e20300000000000000000606482015260840161037e565b600082116104d55760405160e560020a62461bcd02815260206004820152603760248201527f5468652066756c6c20707269636520666f722074686520746f6b656e73206e6560448201527f656420746f2062652067726561746572207468616e2030000000000000000000606482015260840161037e565b6040517fe985e9c50000000000000000000000000000000000000000000000000000000081523360048201523060248201528590600160a060020a0382169063e985e9c590604401602060405180830381865afa15801561053a573d6000803e3d6000fd5b505050506040513d601f19601f8201168201806040525081019061055e9190611099565b6105ad5760405160e560020a62461bcd02815260206004820152601c60248201527f596f75206d75737420617070726f7665206265666f7265206c69737400000000604482015260640161037e565b6040517efdd58e000000000000000000000000000000000000000000000000000000008152336004820152602481018690528490600160a060020a0383169062fdd58e90604401602060405180830381865afa158015610611573d6000803e3d6000fd5b505050506040513d601f19601f8201168201806040525081019061063591906110bb565b10156106865760405160e560020a62461bcd02815260206004820152601d60248201527f596f7520646f6e2774206861766520656e6f7567687420746f6b656e73000000604482015260640161037e565b6040805160a0808201835233808352600160a060020a038a811660208086018281528688018d815260608089018e81526080808b018f8152600880546000908152600989528e81209d518e54908c1673ffffffffffffffffffffffffffffffffffffffff19918216178f55975160018f01805491909c16981697909717909955935160028c0155905160038b015591516004909901989098559354838252600a83528882208e83528352888220819055838252600b8352888220819055858252600c8352908890208190558751948552908401919091529482018a9052928101939093529082018590527fa7cbbbd174aea7fee3a11581da385f48dbbe1e3d361ebc43a183beec20abd7cf910160405180910390a1600880549060006107ab83611103565b919050555060016008546107bf919061111c565b9695505050505050565b6107d1610ed1565b60065481106108255760405160e560020a62461bcd02815260206004820152601360248201527f46656573206d757374206265203c203939393900000000000000000000000000604482015260640161037e565b600555565b600154600160a060020a031633148061084d5750600254600160a060020a031633145b806108625750600354600160a060020a031633145b6108b15760405160e560020a62461bcd02815260206004820152601a60248201527f4c696e6f734f776e61626c653a206e6f7420616e206f776e6572000000000000604482015260640161037e565b600160a060020a03166000908152600760205260409020805460ff19166001179055565b6108dd610ed1565b6001805473ffffffffffffffffffffffffffffffffffffffff1916600160a060020a0392909216919091179055565b610914610ed1565b61091e6000610f2e565b565b600061092a610f8b565b6000821161097d5760405160e560020a62461bcd02815260206004820152601d60248201527f596f75206d75737420627579206174206c65617374203120746f6b656e000000604482015260640161037e565b600083815260096020526040902054600160a060020a03166109e45760405160e560020a62461bcd02815260206004820152601c60248201527f54686973206c697374696e6720646f6573206e6f742065786973747300000000604482015260640161037e565b600083815260096020526040902060030154821115610a485760405160e560020a62461bcd02815260206004820152601960248201527f4e6f7420656e6f7567687420746f6b656e20746f2073656c6c00000000000000604482015260640161037e565b6000838152600960205260409020600401543490610a6790849061112f565b14610add5760405160e560020a62461bcd02815260206004820152603b60248201527f596f75206d757374207061792065786163746c7920746865207072696365207060448201527f657220746f6b656e202a20616d6f756e742070657220746f6b656e0000000000606482015260840161037e565b600083815260096020526040902060030154610afa90839061111c565b60008481526009602052604080822060038101939093556001830154835460029094015491517ff242432a000000000000000000000000000000000000000000000000000000008152600160a060020a03948516600482015233602482015260448101929092526064820186905260a0608483015260a4820192909252911690819063f242432a9060c401600060405180830381600087803b158015610b9f57600080fd5b505af1158015610bb3573d6000803e3d6000fd5b505060065460055434935060009250610bcd90849061112f565b610bd79190611146565b90506000610be5828461111c565b6000888152600960205260408082205490519293509091600160a060020a039091169083908381818185875af1925050503d8060008114610c42576040519150601f19603f3d011682016040523d82523d6000602084013e610c47565b606091505b505090506000610c5f600054600160a060020a031690565b600160a060020a03168460405160006040518083038185875af1925050503d8060008114610ca9576040519150601f19603f3d011682016040523d82523d6000602084013e610cae565b606091505b5050905081610d025760405160e560020a62461bcd02815260206004820152601960248201527f5472616e73666572206661696c656420746f2053656c6c657200000000000000604482015260640161037e565b80610d525760405160e560020a62461bcd02815260206004820152601860248201527f5472616e73666572206661696c656420746f204f776e65720000000000000000604482015260640161037e565b600089815260096020908152604091829020548251338152600160a060020a03909116918101919091529081018a9052606081018990527f797abd7322a72df2fd9412f6ff5500e993efb298450cc1d7e9fd84e296592b089060800160405180910390a160019650505050505050610dca6001600455565b92915050565b610dd8610ed1565b6002805473ffffffffffffffffffffffffffffffffffffffff1916600160a060020a0392909216919091179055565b610e0f610ed1565b6003805473ffffffffffffffffffffffffffffffffffffffff1916600160a060020a0392909216919091179055565b610e46610ed1565b600160a060020a038116610ec55760405160e560020a62461bcd02815260206004820152602660248201527f4f776e61626c653a206e6577206f776e657220697320746865207a65726f206160448201527f6464726573730000000000000000000000000000000000000000000000000000606482015260840161037e565b610ece81610f2e565b50565b600054600160a060020a0316331461091e5760405160e560020a62461bcd02815260206004820181905260248201527f4f776e61626c653a2063616c6c6572206973206e6f7420746865206f776e6572604482015260640161037e565b60008054600160a060020a0383811673ffffffffffffffffffffffffffffffffffffffff19831681178455604051919092169283917f8be0079c531659141344cd1fd0a4f28419497f9722a3daafe3b4186f6b6457e09190a35050565b600260045403610fe05760405160e560020a62461bcd02815260206004820152601f60248201527f5265656e7472616e637947756172643a207265656e7472616e742063616c6c00604482015260640161037e565b6002600455565b600060208284031215610ff957600080fd5b5035919050565b8035600160a060020a038116811461101757600080fd5b919050565b6000806000806080858703121561103257600080fd5b61103b85611000565b966020860135965060408601359560600135945092505050565b60006020828403121561106757600080fd5b61107082611000565b9392505050565b6000806040838503121561108a57600080fd5b50508035926020909101359150565b6000602082840312156110ab57600080fd5b8151801515811461107057600080fd5b6000602082840312156110cd57600080fd5b5051919050565b7f4e487b7100000000000000000000000000000000000000000000000000000000600052601160045260246000fd5b600060018201611115576111156110d4565b5060010190565b81810381811115610dca57610dca6110d4565b8082028115828204841417610dca57610dca6110d4565b60008261117c577f4e487b7100000000000000000000000000000000000000000000000000000000600052601260045260246000fd5b50049056fea26469706673582212208d3f4d6248717af188eef50a0cce2617776a6970c2b24074ea45c7bf3f64f48264736f6c63430008110033",
  "immutableReferences": {},
  "source": "// SPDX-License-Identifier: MIT\npragma solidity ^0.8.17;\n\nimport \"../node_modules/@openzeppelin/contracts/token/ERC1155/IERC1155.sol\";\nimport \"../node_modules/@openzeppelin/contracts/security/ReentrancyGuard.sol\";\n\nimport \"./NftMarketPlaceInterface.sol\";\nimport \"./LinosOwnable.sol\";\n\ncontract NftMarketPlace is NftMarketPlaceInterface, LinosOwnable, ReentrancyGuard {\n\n    struct SellListing {\n        address sellerAddress;\n        address tokenAddress;\n        uint tokenId;\n        uint amountOfTokens;\n        uint pricePerToken;\n    }\n\n    // @notice Used to debug\n    event Log (\n        string data,\n        uint amount\n    );\n\n    // @notice This is the emitted event, when a offer for a certain amount of tokens.\n    event SellEvent (\n        address sellerAddress,\n        address tokenAddress,\n        uint tokenId,\n        uint sellId,\n        uint pricePerToken\n    );\n\n    // @notice This is the emitted event, when a offer for a certain amount of tokens.\n    event BuyEvent (\n        address buyerAddress,\n        address sellerAddress,\n        uint sellId,\n        uint amountOfTokens\n    );\n\n    uint public fees;\n    uint _feeDenominator = 10000;\n    mapping(address => bool) nftCollectionWhiteList;\n\n    uint private _currentSellId;\n    mapping(uint => SellListing) private _allSellListing;\n    // TokenAddress => TokenId => SellerAddress => Struct describing the Sell\n    mapping(address => mapping(uint => uint)) private _collectionTokenListSells;\n    mapping(address => uint) private _collectionListSells;\n    mapping(address => uint) private _userListSells;\n\n    function setFees(uint fees_) public onlyOwner {\n        require(fees_ < _feeDenominator, \"Fees must be < 9999\");\n        fees = fees_;\n    }\n\n    function whiteListNftCollection(address nftCollectionAddress) public onlyLinosOwner {\n        nftCollectionWhiteList[nftCollectionAddress] = true;\n    }\n\n    function getCurrentListingId() public view returns(uint) {\n        return _currentSellId;\n    }\n\n    function getListing(uint sellId) public view returns(SellListing memory) {\n        require(_allSellListing[sellId].sellerAddress != address(0), \"This listing does not exists\");\n        return _allSellListing[sellId];\n    }\n\n    function listItems(\n        address tokenAddress,\n        uint tokenId,\n        uint amountOfTokens,\n        uint pricePerToken\n    ) external returns(uint) {\n        require(amountOfTokens > 0, \"The amount of tokens to sell, needs to be greater than 0\");\n        require(pricePerToken > 0, \"The full price for the tokens need to be greater than 0\");\n\n        IERC1155 token = IERC1155(tokenAddress);\n\n        require(token.isApprovedForAll(msg.sender, address(this)), \"You must approve before list\");\n        require(token.balanceOf(msg.sender, tokenId) >= amountOfTokens, \"You don't have enought tokens\");\n\n        _allSellListing[_currentSellId] = SellListing(\n            msg.sender,\n            tokenAddress,\n            tokenId,\n            amountOfTokens,\n            pricePerToken\n        );\n        _collectionTokenListSells[tokenAddress][tokenId] = _currentSellId;\n        _collectionListSells[tokenAddress] = _currentSellId;\n        _userListSells[msg.sender] = _currentSellId;\n\n        emit SellEvent(\n            msg.sender, tokenAddress, tokenId, _currentSellId, pricePerToken\n        );\n\n        _currentSellId++;\n\n        return _currentSellId - 1;\n    }\n\n    function buyItem(\n        uint sellId,\n        uint amountOfTokens\n    ) external payable nonReentrant() returns(bool) {\n\n        require(amountOfTokens > 0, \"You must buy at least 1 token\");\n        require(_allSellListing[sellId].sellerAddress != address(0), \"This listing does not exists\");\n        require(_allSellListing[sellId].amountOfTokens >= amountOfTokens, \"Not enought token to sell\");\n        require(_allSellListing[sellId].pricePerToken * amountOfTokens == msg.value, \"You must pay exactly the price per token * amount per token\");\n\n        _allSellListing[sellId].amountOfTokens = _allSellListing[sellId].amountOfTokens - amountOfTokens;\n\n        IERC1155 token = IERC1155(_allSellListing[sellId].tokenAddress);\n\n        // This will fail if not enought token on account, no need to check it before\n        token.safeTransferFrom(\n            _allSellListing[sellId].sellerAddress,\n            msg.sender,\n            _allSellListing[sellId].tokenId,\n            amountOfTokens,\n            \"\"\n        );\n\n        uint totalPrice = msg.value;\n        uint feesForMarketPlace = fees * totalPrice / _feeDenominator; // Rounded (floor)\n        uint sellerPriceReceived = totalPrice - feesForMarketPlace;\n\n        (bool successTransferToSeller, )= payable(_allSellListing[sellId].sellerAddress).call{value: sellerPriceReceived}(\"\");\n        (bool successTransferToOwner, )= payable(owner()).call{value: feesForMarketPlace}(\"\");\n\n        require(successTransferToSeller, \"Transfer failed to Seller\");\n        require(successTransferToOwner, \"Transfer failed to Owner\");\n\n\n        emit BuyEvent(\n            msg.sender,\n            _allSellListing[sellId].sellerAddress,\n            sellId,\n            amountOfTokens\n        );\n\n        return true;\n    }\n}",
  "sourcePath": "/Volumes/code/Alyra/Linos/truffle/contracts/NftMarketPlace.sol",
  "compiler": {
    "name": "solc",
    "version": "0.8.17+commit.8df45f5f.Emscripten.clang"
  },
  "schemaVersion": "3.4.10",
  "updatedAt": "2022-12-11T13:53:04.837Z",
  "devdoc": {
    "kind": "dev",
    "methods": {
      "owner()": {
        "details": "Returns the address of the current owner."
      },
      "renounceOwnership()": {
        "details": "Leaves the contract without owner. It will not be possible to call `onlyOwner` functions anymore. Can only be called by the current owner. NOTE: Renouncing ownership will leave the contract without an owner, thereby removing any functionality that is only available to the owner."
      },
      "transferOwnership(address)": {
        "details": "Transfers ownership of the contract to a new account (`newOwner`). Can only be called by the current owner."
      }
    },
    "version": 1
  },
  "userdoc": {
    "kind": "user",
    "methods": {},
    "version": 1
  }
}