{
  "contractName": "NftMarketPlace",
  "abi": [
    {
      "anonymous": false,
      "inputs": [
        {
          "indexed": false,
          "internalType": "address",
          "name": "buyerAddress",
          "type": "address"
        },
        {
          "indexed": false,
          "internalType": "address",
          "name": "sellerAddress",
          "type": "address"
        },
        {
          "indexed": false,
          "internalType": "uint256",
          "name": "sellId",
          "type": "uint256"
        },
        {
          "indexed": false,
          "internalType": "uint256",
          "name": "amountOfTokens",
          "type": "uint256"
        }
      ],
      "name": "BuyEvent",
      "type": "event"
    },
    {
      "anonymous": false,
      "inputs": [
        {
          "indexed": false,
          "internalType": "string",
          "name": "data",
          "type": "string"
        },
        {
          "indexed": false,
          "internalType": "uint256",
          "name": "amount",
          "type": "uint256"
        }
      ],
      "name": "Log",
      "type": "event"
    },
    {
      "anonymous": false,
      "inputs": [
        {
          "indexed": true,
          "internalType": "address",
          "name": "previousOwner",
          "type": "address"
        },
        {
          "indexed": true,
          "internalType": "address",
          "name": "newOwner",
          "type": "address"
        }
      ],
      "name": "OwnershipTransferred",
      "type": "event"
    },
    {
      "anonymous": false,
      "inputs": [
        {
          "indexed": false,
          "internalType": "address",
          "name": "sellerAddress",
          "type": "address"
        },
        {
          "indexed": false,
          "internalType": "address",
          "name": "tokenAddress",
          "type": "address"
        },
        {
          "indexed": false,
          "internalType": "uint256",
          "name": "tokenId",
          "type": "uint256"
        },
        {
          "indexed": false,
          "internalType": "uint256",
          "name": "sellId",
          "type": "uint256"
        },
        {
          "indexed": false,
          "internalType": "uint256",
          "name": "pricePerToken",
          "type": "uint256"
        }
      ],
      "name": "SellEvent",
      "type": "event"
    },
    {
      "inputs": [],
      "name": "fees",
      "outputs": [
        {
          "internalType": "uint256",
          "name": "",
          "type": "uint256"
        }
      ],
      "stateMutability": "view",
      "type": "function"
    },
    {
      "inputs": [],
      "name": "owner",
      "outputs": [
        {
          "internalType": "address",
          "name": "",
          "type": "address"
        }
      ],
      "stateMutability": "view",
      "type": "function"
    },
    {
      "inputs": [],
      "name": "renounceOwnership",
      "outputs": [],
      "stateMutability": "nonpayable",
      "type": "function"
    },
    {
      "inputs": [
        {
          "internalType": "address",
          "name": "newOwner",
          "type": "address"
        }
      ],
      "name": "transferOwnership",
      "outputs": [],
      "stateMutability": "nonpayable",
      "type": "function"
    },
    {
      "inputs": [
        {
          "internalType": "uint256",
          "name": "fees_",
          "type": "uint256"
        }
      ],
      "name": "setFees",
      "outputs": [],
      "stateMutability": "nonpayable",
      "type": "function"
    },
    {
      "inputs": [
        {
          "internalType": "address",
          "name": "nftCollectionAddress",
          "type": "address"
        }
      ],
      "name": "whiteListNftCollection",
      "outputs": [],
      "stateMutability": "nonpayable",
      "type": "function"
    },
    {
      "inputs": [],
      "name": "getCurrentListingId",
      "outputs": [
        {
          "internalType": "uint256",
          "name": "",
          "type": "uint256"
        }
      ],
      "stateMutability": "view",
      "type": "function"
    },
    {
      "inputs": [
        {
          "internalType": "uint256",
          "name": "sellId",
          "type": "uint256"
        }
      ],
      "name": "getListing",
      "outputs": [
        {
          "components": [
            {
              "internalType": "address",
              "name": "sellerAddress",
              "type": "address"
            },
            {
              "internalType": "address",
              "name": "tokenAddress",
              "type": "address"
            },
            {
              "internalType": "uint256",
              "name": "tokenId",
              "type": "uint256"
            },
            {
              "internalType": "uint256",
              "name": "amountOfTokens",
              "type": "uint256"
            },
            {
              "internalType": "uint256",
              "name": "pricePerToken",
              "type": "uint256"
            }
          ],
          "internalType": "struct NftMarketPlace.SellListing",
          "name": "",
          "type": "tuple"
        }
      ],
      "stateMutability": "view",
      "type": "function"
    },
    {
      "inputs": [
        {
          "internalType": "address",
          "name": "tokenAddress",
          "type": "address"
        },
        {
          "internalType": "uint256",
          "name": "tokenId",
          "type": "uint256"
        },
        {
          "internalType": "uint256",
          "name": "amountOfTokens",
          "type": "uint256"
        },
        {
          "internalType": "uint256",
          "name": "pricePerToken",
          "type": "uint256"
        }
      ],
      "name": "listItems",
      "outputs": [
        {
          "internalType": "uint256",
          "name": "",
          "type": "uint256"
        }
      ],
      "stateMutability": "nonpayable",
      "type": "function"
    },
    {
      "inputs": [
        {
          "internalType": "uint256",
          "name": "sellId",
          "type": "uint256"
        },
        {
          "internalType": "uint256",
          "name": "amountOfTokens",
          "type": "uint256"
        }
      ],
      "name": "buyItem",
      "outputs": [
        {
          "internalType": "bool",
          "name": "",
          "type": "bool"
        }
      ],
      "stateMutability": "payable",
      "type": "function"
    }
  ],
  "bytecode": "0x608060405261271060035534801561001657600080fd5b5061003961002b640100000000610042810204565b640100000000610046810204565b60018055610096565b3390565b60008054600160a060020a03838116600160a060020a0319831681178455604051919092169283917f8be0079c531659141344cd1fd0a4f28419497f9722a3daafe3b4186f6b6457e09190a35050565b611001806100a56000396000f3fe6080604052600436106100ae576000357c0100000000000000000000000000000000000000000000000000000000900480638da5cb5b116100765780638da5cb5b146101b05780639979c009146101d85780639af1d35a146101fb578063be9ad61e14610211578063f2fde38b1461022657600080fd5b8063107a274a146100b35780633919e4f51461012b5780633d18678e146101595780634d7138681461017b578063715018a61461019b575b600080fd5b3480156100bf57600080fd5b506100d36100ce366004610e31565b610246565b6040516101229190600060a082019050600160a060020a038084511683528060208501511660208401525060408301516040830152606083015160608301526080830151608083015292915050565b60405180910390f35b34801561013757600080fd5b5061014b610146366004610e66565b610351565b604051908152602001610122565b34801561016557600080fd5b50610179610174366004610e31565b610738565b005b34801561018757600080fd5b50610179610196366004610e9f565b610799565b3480156101a757600080fd5b506101796107c5565b3480156101bc57600080fd5b50600054604051600160a060020a039091168152602001610122565b6101eb6101e6366004610ec1565b6107d9565b6040519015158152602001610122565b34801561020757600080fd5b5061014b60025481565b34801561021d57600080fd5b5060055461014b565b34801561023257600080fd5b50610179610241366004610e9f565b610c88565b61028a6040518060a001604052806000600160a060020a031681526020016000600160a060020a031681526020016000815260200160008152602001600081525090565b600082815260066020526040902054600160a060020a03166102f65760405160e560020a62461bcd02815260206004820152601c60248201527f54686973206c697374696e6720646f6573206e6f74206578697374730000000060448201526064015b60405180910390fd5b50600090815260066020908152604091829020825160a0810184528154600160a060020a0390811682526001830154169281019290925260028101549282019290925260038201546060820152600490910154608082015290565b60008083116103cb5760405160e560020a62461bcd02815260206004820152603860248201527f54686520616d6f756e74206f6620746f6b656e7320746f2073656c6c2c206e6560448201527f65647320746f2062652067726561746572207468616e2030000000000000000060648201526084016102ed565b600082116104445760405160e560020a62461bcd02815260206004820152603760248201527f5468652066756c6c20707269636520666f722074686520746f6b656e73206e6560448201527f656420746f2062652067726561746572207468616e203000000000000000000060648201526084016102ed565b6040517fe985e9c50000000000000000000000000000000000000000000000000000000081523360048201523060248201528590600160a060020a0382169063e985e9c590604401602060405180830381865afa1580156104a9573d6000803e3d6000fd5b505050506040513d601f19601f820116820180604052508101906104cd9190610ee3565b61051c5760405160e560020a62461bcd02815260206004820152601c60248201527f596f75206d75737420617070726f7665206265666f7265206c6973740000000060448201526064016102ed565b6040517efdd58e000000000000000000000000000000000000000000000000000000008152336004820152602481018690528490600160a060020a0383169062fdd58e90604401602060405180830381865afa158015610580573d6000803e3d6000fd5b505050506040513d601f19601f820116820180604052508101906105a49190610f05565b10156105f55760405160e560020a62461bcd02815260206004820152601d60248201527f596f7520646f6e2774206861766520656e6f7567687420746f6b656e7300000060448201526064016102ed565b6040805160a0808201835233808352600160a060020a038a811660208086018281528688018d815260608089018e81526080808b018f8152600580546000908152600689528e81209d518e54908c1673ffffffffffffffffffffffffffffffffffffffff19918216178f55975160018f01805491909c16981697909717909955935160028c0155905160038b015591516004909901989098559354838252600783528882208e835283528882208190558382526008835288822081905585825260098352908890208190558751948552908401919091529482018a9052928101939093529082018590527fa7cbbbd174aea7fee3a11581da385f48dbbe1e3d361ebc43a183beec20abd7cf910160405180910390a16005805490600061071a83610f4d565b9190505550600160055461072e9190610f66565b9695505050505050565b610740610d1b565b60035481106107945760405160e560020a62461bcd02815260206004820152601360248201527f46656573206d757374206265203c20393939390000000000000000000000000060448201526064016102ed565b600255565b6107a1610d1b565b600160a060020a03166000908152600460205260409020805460ff19166001179055565b6107cd610d1b565b6107d76000610d78565b565b60006107e3610dd5565b600082116108365760405160e560020a62461bcd02815260206004820152601d60248201527f596f75206d75737420627579206174206c65617374203120746f6b656e00000060448201526064016102ed565b600083815260066020526040902054600160a060020a031661089d5760405160e560020a62461bcd02815260206004820152601c60248201527f54686973206c697374696e6720646f6573206e6f74206578697374730000000060448201526064016102ed565b6000838152600660205260409020600301548211156109015760405160e560020a62461bcd02815260206004820152601960248201527f4e6f7420656e6f7567687420746f6b656e20746f2073656c6c0000000000000060448201526064016102ed565b6000838152600660205260409020600401543490610920908490610f79565b146109965760405160e560020a62461bcd02815260206004820152603b60248201527f596f75206d757374207061792065786163746c7920746865207072696365207060448201527f657220746f6b656e202a20616d6f756e742070657220746f6b656e000000000060648201526084016102ed565b6000838152600660205260409020600301546109b3908390610f66565b60008481526006602052604080822060038101939093556001830154835460029094015491517ff242432a000000000000000000000000000000000000000000000000000000008152600160a060020a03948516600482015233602482015260448101929092526064820186905260a0608483015260a4820192909252911690819063f242432a9060c401600060405180830381600087803b158015610a5857600080fd5b505af1158015610a6c573d6000803e3d6000fd5b505060035460025434935060009250610a86908490610f79565b610a909190610f90565b90506000610a9e8284610f66565b6000888152600660205260408082205490519293509091600160a060020a039091169083908381818185875af1925050503d8060008114610afb576040519150601f19603f3d011682016040523d82523d6000602084013e610b00565b606091505b505090506000610b18600054600160a060020a031690565b600160a060020a03168460405160006040518083038185875af1925050503d8060008114610b62576040519150601f19603f3d011682016040523d82523d6000602084013e610b67565b606091505b5050905081610bbb5760405160e560020a62461bcd02815260206004820152601960248201527f5472616e73666572206661696c656420746f2053656c6c65720000000000000060448201526064016102ed565b80610c0b5760405160e560020a62461bcd02815260206004820152601860248201527f5472616e73666572206661696c656420746f204f776e6572000000000000000060448201526064016102ed565b600089815260066020908152604091829020548251338152600160a060020a03909116918101919091529081018a9052606081018990527f797abd7322a72df2fd9412f6ff5500e993efb298450cc1d7e9fd84e296592b089060800160405180910390a160019650505050505050610c8260018055565b92915050565b610c90610d1b565b600160a060020a038116610d0f5760405160e560020a62461bcd02815260206004820152602660248201527f4f776e61626c653a206e6577206f776e657220697320746865207a65726f206160448201527f646472657373000000000000000000000000000000000000000000000000000060648201526084016102ed565b610d1881610d78565b50565b600054600160a060020a031633146107d75760405160e560020a62461bcd02815260206004820181905260248201527f4f776e61626c653a2063616c6c6572206973206e6f7420746865206f776e657260448201526064016102ed565b60008054600160a060020a0383811673ffffffffffffffffffffffffffffffffffffffff19831681178455604051919092169283917f8be0079c531659141344cd1fd0a4f28419497f9722a3daafe3b4186f6b6457e09190a35050565b600260015403610e2a5760405160e560020a62461bcd02815260206004820152601f60248201527f5265656e7472616e637947756172643a207265656e7472616e742063616c6c0060448201526064016102ed565b6002600155565b600060208284031215610e4357600080fd5b5035919050565b8035600160a060020a0381168114610e6157600080fd5b919050565b60008060008060808587031215610e7c57600080fd5b610e8585610e4a565b966020860135965060408601359560600135945092505050565b600060208284031215610eb157600080fd5b610eba82610e4a565b9392505050565b60008060408385031215610ed457600080fd5b50508035926020909101359150565b600060208284031215610ef557600080fd5b81518015158114610eba57600080fd5b600060208284031215610f1757600080fd5b5051919050565b7f4e487b7100000000000000000000000000000000000000000000000000000000600052601160045260246000fd5b600060018201610f5f57610f5f610f1e565b5060010190565b81810381811115610c8257610c82610f1e565b8082028115828204841417610c8257610c82610f1e565b600082610fc6577f4e487b7100000000000000000000000000000000000000000000000000000000600052601260045260246000fd5b50049056fea26469706673582212207fafc239df40eb4176a12c7b01cf8b8971bd0996842efa38f4eab7c2d982d1c664736f6c63430008110033",
  "immutableReferences": {},
  "source": "// SPDX-License-Identifier: MIT\npragma solidity ^0.8.17;\n\nimport \"../node_modules/@openzeppelin/contracts/token/ERC1155/IERC1155.sol\";\nimport \"../node_modules/@openzeppelin/contracts/access/Ownable.sol\";\nimport \"../node_modules/@openzeppelin/contracts/security/ReentrancyGuard.sol\";\n\nimport \"./NftMarketPlaceInterface.sol\";\n\ncontract NftMarketPlace is NftMarketPlaceInterface, Ownable, ReentrancyGuard {\n\n    struct SellListing {\n        address sellerAddress;\n        address tokenAddress;\n        uint tokenId;\n        uint amountOfTokens;\n        uint pricePerToken;\n    }\n\n    // @notice Used to debug\n    event Log (\n        string data,\n        uint amount\n    );\n\n    // @notice This is the emitted event, when a offer for a certain amount of tokens.\n    event SellEvent (\n        address sellerAddress,\n        address tokenAddress,\n        uint tokenId,\n        uint sellId,\n        uint pricePerToken\n    );\n\n    // @notice This is the emitted event, when a offer for a certain amount of tokens.\n    event BuyEvent (\n        address buyerAddress,\n        address sellerAddress,\n        uint sellId,\n        uint amountOfTokens\n    );\n\n    uint public fees;\n    uint _feeDenominator = 10000;\n    mapping(address => bool) nftCollectionWhiteList;\n\n    uint private _currentSellId;\n    mapping(uint => SellListing) private _allSellListing;\n    // TokenAddress => TokenId => SellerAddress => Struct describing the Sell\n    mapping(address => mapping(uint => uint)) private _collectionTokenListSells;\n    mapping(address => uint) private _collectionListSells;\n    mapping(address => uint) private _userListSells;\n\n    function setFees(uint fees_) public onlyOwner {\n        require(fees_ < _feeDenominator, \"Fees must be < 9999\");\n        fees = fees_;\n    }\n\n    function whiteListNftCollection(address nftCollectionAddress) public onlyOwner {\n        nftCollectionWhiteList[nftCollectionAddress] = true;\n    }\n\n    function getCurrentListingId() public view returns(uint) {\n        return _currentSellId;\n    }\n\n    function getListing(uint sellId) public view returns(SellListing memory) {\n        require(_allSellListing[sellId].sellerAddress != address(0), \"This listing does not exists\");\n        return _allSellListing[sellId];\n    }\n\n    function listItems(\n        address tokenAddress,\n        uint tokenId,\n        uint amountOfTokens,\n        uint pricePerToken\n    ) external returns(uint) {\n        require(amountOfTokens > 0, \"The amount of tokens to sell, needs to be greater than 0\");\n        require(pricePerToken > 0, \"The full price for the tokens need to be greater than 0\");\n\n        IERC1155 token = IERC1155(tokenAddress);\n\n        require(token.isApprovedForAll(msg.sender, address(this)), \"You must approve before list\");\n        require(token.balanceOf(msg.sender, tokenId) >= amountOfTokens, \"You don't have enought tokens\");\n\n        _allSellListing[_currentSellId] = SellListing(\n            msg.sender,\n            tokenAddress,\n            tokenId,\n            amountOfTokens,\n            pricePerToken\n        );\n        _collectionTokenListSells[tokenAddress][tokenId] = _currentSellId;\n        _collectionListSells[tokenAddress] = _currentSellId;\n        _userListSells[msg.sender] = _currentSellId;\n\n        emit SellEvent(\n            msg.sender, tokenAddress, tokenId, _currentSellId, pricePerToken\n        );\n\n        _currentSellId++;\n\n        return _currentSellId - 1;\n    }\n\n    function buyItem(\n        uint sellId,\n        uint amountOfTokens\n    ) external payable nonReentrant() returns(bool) {\n\n        require(amountOfTokens > 0, \"You must buy at least 1 token\");\n        require(_allSellListing[sellId].sellerAddress != address(0), \"This listing does not exists\");\n        require(_allSellListing[sellId].amountOfTokens >= amountOfTokens, \"Not enought token to sell\");\n        require(_allSellListing[sellId].pricePerToken * amountOfTokens == msg.value, \"You must pay exactly the price per token * amount per token\");\n\n        _allSellListing[sellId].amountOfTokens = _allSellListing[sellId].amountOfTokens - amountOfTokens;\n\n        IERC1155 token = IERC1155(_allSellListing[sellId].tokenAddress);\n\n        // This will fail if not enought token on account, no need to check it before\n        token.safeTransferFrom(\n            _allSellListing[sellId].sellerAddress,\n            msg.sender,\n            _allSellListing[sellId].tokenId,\n            amountOfTokens,\n            \"\"\n        );\n\n        uint totalPrice = msg.value;\n        uint feesForMarketPlace = fees * totalPrice / _feeDenominator; // Rounded (floor)\n        uint sellerPriceReceived = totalPrice - feesForMarketPlace;\n\n        (bool successTransferToSeller, )= payable(_allSellListing[sellId].sellerAddress).call{value: sellerPriceReceived}(\"\");\n        (bool successTransferToOwner, )= payable(owner()).call{value: feesForMarketPlace}(\"\");\n\n        require(successTransferToSeller, \"Transfer failed to Seller\");\n        require(successTransferToOwner, \"Transfer failed to Owner\");\n\n\n        emit BuyEvent(\n            msg.sender,\n            _allSellListing[sellId].sellerAddress,\n            sellId,\n            amountOfTokens\n        );\n\n        return true;\n    }\n}",
  "sourcePath": "/Volumes/code/Alyra/Linos/truffle/contracts/NftMarketPlace.sol",
  "compiler": {
    "name": "solc",
    "version": "0.8.17+commit.8df45f5f.Emscripten.clang"
  },
  "schemaVersion": "3.4.10",
  "updatedAt": "2022-12-10T23:04:27.850Z",
  "devdoc": {
    "kind": "dev",
    "methods": {
      "owner()": {
        "details": "Returns the address of the current owner."
      },
      "renounceOwnership()": {
        "details": "Leaves the contract without owner. It will not be possible to call `onlyOwner` functions anymore. Can only be called by the current owner. NOTE: Renouncing ownership will leave the contract without an owner, thereby removing any functionality that is only available to the owner."
      },
      "transferOwnership(address)": {
        "details": "Transfers ownership of the contract to a new account (`newOwner`). Can only be called by the current owner."
      }
    },
    "version": 1
  },
  "userdoc": {
    "kind": "user",
    "methods": {},
    "version": 1
  }
}